{
	"data": {
		"bytecode": {
			"linkReferences": {},
			"object": "608060405260016000556001805534801561001957600080fd5b50612875806100296000396000f3fe608060405234801561001057600080fd5b50600436106100935760003560e01c806382df62451161006657806382df6245146101c7578063a0cc641a146101dc578063aba99f88146101f2578063ae09944814610205578063feb8c4381461022957600080fd5b8063105f2c5314610098578063283f3fac1461013b5780636154ee971461015b57806379a39ebd1461017b575b600080fd5b6101196100a6366004612441565b600360208190526000918252604090912080546001820154600283015493830154600484015460058501546006860154600787015460088801546009890154600a9099015497996001600160a01b0388169960ff600160a01b8a0481169a600160a81b909a04169891979695949392918d565b6040516101329d9c9b9a999897969594939291906124a0565b60405180910390f35b61014e610149366004612441565b610249565b60405161013291906125cc565b61016e610169366004612604565b610739565b6040516101329190612634565b6101b8610189366004612604565b600260205260009081526040902080546004909101546001600160a01b03821691600160a01b900460ff169083565b60405161013293929190612663565b6101da6101d536600461268d565b6108b5565b005b6101e4610a1e565b604051908152602001610132565b6101da610200366004612441565b610c7b565b610218610213366004612441565b611746565b604051610132959493929190612713565b61023c610237366004612441565b6118a3565b6040516101329190612753565b61025161228c565b6000828152600460205260408120600b015460ff1660038111156102775761027761245a565b036102bb5760405162461bcd60e51b815260206004820152600f60248201526e125b9d985b1a590813585d18da1259608a1b60448201526064015b60405180910390fd5b6000828152600460209081526040808320815160a081018352815481528251608081019093526001820180546001600160a01b03811685529194929385840193909290830190600160a01b900460ff16600381111561031c5761031c61245a565b600381111561032d5761032d61245a565b815260408051606081019182905260209092019190600184019060039082845b81548152602001906001019080831161034d5750505091835250506004919091015460209182015290825260408051608081019091526006840180546001600160a01b0381168352938301939192909190830190600160a01b900460ff1660038111156103bc576103bc61245a565b60038111156103cd576103cd61245a565b815260408051606081019182905260209092019190600184019060039082845b8154815260200190600101908083116103ed57505050918352505060049190910154602091820152908252600b83015491019060ff1660038111156104345761043461245a565b60038111156104455761044561245a565b8152600c9190910154602091820152810151516040820151519192509061046a61228c565b60005b600681101561072f5760038110156105cb576001600160a01b038416600090815260026020526040812060039190600101838381106104ae576104ae6127a8565b01548152602080820192909252604090810160002081516101a0810183528154815260018201546001600160a01b03811694820194909452929091830190600160a01b900460ff1660028111156105075761050761245a565b60028111156105185761051861245a565b81526020016001820160159054906101000a900460ff1660038111156105405761054061245a565b60038111156105515761055161245a565b81526020016002820154815260200160038201548152602001600482015481526020016005820154815260200160068201548152602001600782015481526020016008820154815260200160098201548152602001600a820154815250508282600681106105c1576105c16127a8565b602002015261071d565b6001600160a01b0383166000908152600260205260408120600391906001016105f483856127d4565b60038110610604576106046127a8565b01548152602080820192909252604090810160002081516101a0810183528154815260018201546001600160a01b03811694820194909452929091830190600160a01b900460ff16600281111561065d5761065d61245a565b600281111561066e5761066e61245a565b81526020016001820160159054906101000a900460ff1660038111156106965761069661245a565b60038111156106a7576106a761245a565b81526020016002820154815260200160038201548152602001600482015481526020016005820154815260200160068201548152602001600782015481526020016008820154815260200160098201548152602001600a82015481525050828260068110610717576107176127a8565b60200201525b80610727816127ed565b91505061046d565b5095945050505050565b6107416122b9565b6107496122b9565b60005b60038110156108ae576001600160a01b03841660009081526002602052604081206003919060010183838110610784576107846127a8565b01548152602080820192909252604090810160002081516101a0810183528154815260018201546001600160a01b03811694820194909452929091830190600160a01b900460ff1660028111156107dd576107dd61245a565b60028111156107ee576107ee61245a565b81526020016001820160159054906101000a900460ff1660038111156108165761081661245a565b60038111156108275761082761245a565b81526020016002820154815260200160038201548152602001600482015481526020016005820154815260200160068201548152602001600782015481526020016008820154815260200160098201548152602001600a82015481525050828260038110610897576108976127a8565b6020020152806108a6816127ed565b91505061074c565b5092915050565b6000838152600360205260409020600101546001600160a01b0316331461091e5760405162461bcd60e51b815260206004820152601760248201527f596f7520646f6e2774206f776e207468697320756e697400000000000000000060448201526064016102b2565b600a8210801561092e5750600a81105b61096c5760405162461bcd60e51b815260206004820152600f60248201526e047726964206973203130207820313608c1b60448201526064016102b2565b6000838152600360205260409020600501548214801561099c575060008381526003602052604090206006015481145b156109e95760405162461bcd60e51b815260206004820152601e60248201527f556e697420616c726561647920696e207468617420706f736974696f6e2e000060448201526064016102b2565b60009283526003602052604090922060078101919091556008810191909155600101805460ff60a81b1916600160a81b179055565b60008033600090815260026020526040902054600160a01b900460ff166003811115610a4c57610a4c61245a565b03610a5b57610a59611bfe565b505b610a636122e6565b600080548252600160608301523381526002602090815260409182902082516080810190935280546001600160a01b03811684529091830190600160a01b900460ff166003811115610ab757610ab761245a565b6003811115610ac857610ac861245a565b815260408051606081019182905260209092019190600184019060039082845b815481526020019060010190808311610ae85750505091835250506004918201546020918201528381019283526000805433825260028352604080832085018290559082529282529190912083518155915180516001840180546001600160a01b03929092166001600160a01b0319831681178255938301518695949192909183916001600160a81b03191617600160a01b836003811115610b8c57610b8c61245a565b02179055506040820151610ba69060018301906003612322565b5060609190910151600490910155604082015180516006830180546001600160a01b031981166001600160a01b0390931692831782556020840151919283916001600160a81b03191617600160a01b836003811115610c0757610c0761245a565b02179055506040820151610c219060018301906003612322565b50606091820151600490910155820151600b8201805460ff19166001836003811115610c4f57610c4f61245a565b021790555060809190910151600c90910155600080549080610c70836127ed565b909155505051919050565b60026000828152600460205260409020600b015460ff166003811115610ca357610ca361245a565b14610ce25760405162461bcd60e51b815260206004820152600f60248201526e47616d65206e6f742041637469766560881b60448201526064016102b2565b6000610ced82610249565b905060005b6006811015611577576003828260068110610d0f57610d0f6127a8565b6020020151606001516003811115610d2957610d2961245a565b14611565576001828260068110610d4257610d426127a8565b6020020151606001516003811115610d5c57610d5c61245a565b03610f8157818160068110610d7357610d736127a8565b60200201516101200151828260068110610d8f57610d8f6127a8565b602002015160e0015114610e2e57818160068110610daf57610daf6127a8565b60200201516101200151828260068110610dcb57610dcb6127a8565b602002015160e001511015610e0857818160068110610dec57610dec6127a8565b602002015160e001805190610e00826127ed565b905250610ebe565b818160068110610e1a57610e1a6127a8565b602002015160e001805190610e0082612806565b818160068110610e4057610e406127a8565b60200201516101400151828260068110610e5c57610e5c6127a8565b602002015161010001511015610e9357818160068110610e7e57610e7e6127a8565b602002015161010001805190610e00826127ed565b818160068110610ea557610ea56127a8565b602002015161010001805190610eba82612806565b9052505b818160068110610ed057610ed06127a8565b60200201516101200151828260068110610eec57610eec6127a8565b602002015160e00151148015610f375750818160068110610f0f57610f0f6127a8565b60200201516101400151828260068110610f2b57610f2b6127a8565b60200201516101000151145b15610f81576000828260068110610f5057610f506127a8565b6020020151606001906003811115610f6a57610f6a61245a565b90816003811115610f7d57610f7d61245a565b9052505b60005b600681101561156357808214611551576003838260068110610fa857610fa86127a8565b6020020151606001516003811115610fc257610fc261245a565b1461155157828160068110610fd957610fd96127a8565b602002015160e00151838360068110610ff457610ff46127a8565b602002015160e0015114801561103f5750828160068110611017576110176127a8565b60200201516101000151838360068110611033576110336127a8565b60200201516101000151145b156110cd576002838360068110611058576110586127a8565b60200201516060019060038111156110725761107261245a565b908160038111156110855761108561245a565b905250600283826006811061109c5761109c6127a8565b60200201516060019060038111156110b6576110b661245a565b908160038111156110c9576110c961245a565b9052505b60028383600681106110e1576110e16127a8565b60200201516060015160038111156110fb576110fb61245a565b03611483576000838360068110611114576111146127a8565b602002015160400151600281111561112e5761112e61245a565b0361124c576000838260068110611147576111476127a8565b60200201516040015160028111156111615761116161245a565b036111ce5760026111726001612256565b61117c919061281d565b6000036111c957828260068110611195576111956127a8565b602002015160a001518382600681106111b0576111b06127a8565b60200201516080018181516111c591906127d4565b9052505b611483565b60018382600681106111e2576111e26127a8565b60200201516040015160028111156111fc576111fc61245a565b0361120d5760026111726005612256565b6002838260068110611221576112216127a8565b602002015160400151600281111561123b5761123b61245a565b036111c95760026111726003612256565b6001838360068110611260576112606127a8565b602002015160400151600281111561127a5761127a61245a565b0361133c576000838260068110611293576112936127a8565b60200201516040015160028111156112ad576112ad61245a565b036112be5760026111726002612256565b60018382600681106112d2576112d26127a8565b60200201516040015160028111156112ec576112ec61245a565b036112fd5760026111726006612256565b6002838260068110611311576113116127a8565b602002015160400151600281111561132b5761132b61245a565b036111c95760026111726007612256565b6002838360068110611350576113506127a8565b602002015160400151600281111561136a5761136a61245a565b03611483576000838260068110611383576113836127a8565b602002015160400151600281111561139d5761139d61245a565b036113ae5760026111726003612256565b60018382600681106113c2576113c26127a8565b60200201516040015160028111156113dc576113dc61245a565b036113ed5760026111726001612256565b6002838260068110611401576114016127a8565b602002015160400151600281111561141b5761141b61245a565b0361148357600261142c6004612256565b611436919061281d565b6000036114835782826006811061144f5761144f6127a8565b602002015160a0015183826006811061146a5761146a6127a8565b602002015160800181815161147f91906127d4565b9052505b600a838360068110611497576114976127a8565b602002015160800151116114ea5760038383600681106114b9576114b96127a8565b60200201516060019060038111156114d3576114d361245a565b908160038111156114e6576114e661245a565b9052505b600a8382600681106114fe576114fe6127a8565b60200201516080015111611551576003838260068110611520576115206127a8565b602002015160600190600381111561153a5761153a61245a565b9081600381111561154d5761154d61245a565b9052505b8061155b816127ed565b915050610f84565b505b8061156f816127ed565b915050610cf2565b50600160005b60068110156115d057600383826006811061159a5761159a6127a8565b60200201516060015160038111156115b4576115b461245a565b146115be57600091505b806115c8816127ed565b91505061157d565b5080156115f4576000838152600460205260409020600b01805460ff191660031790555b60005b600681101561174057828160068110611612576116126127a8565b60200201516003600085846006811061162d5761162d6127a8565b6020908102919091015151825281810192909252604090810160002083518155918301516001830180546001600160a01b039092166001600160a01b0319831681178255928501519290916001600160a81b03191617600160a01b83600281111561169a5761169a61245a565b0217905550606082015160018201805460ff60a81b1916600160a81b8360038111156116c8576116c861245a565b02179055506080820151600282015560a0820151600382015560c0820151600482015560e08201516005820155610100820151600682015561012082015160078201556101408201516008820155610160820151600982015561018090910151600a9091015580611738816127ed565b9150506115f7565b50505050565b60046020908152600091825260409182902080548351608081019094526001820180546001600160a01b038116865291949293909190830190600160a01b900460ff16600381111561179a5761179a61245a565b60038111156117ab576117ab61245a565b815260408051606081019182905260209092019190600184019060039082845b8154815260200190600101908083116117cb5750505091835250506004919091015460209182015260408051608081019091526006840180546001600160a01b03811683529394939192909190830190600160a01b900460ff1660038111156118365761183661245a565b60038111156118475761184761245a565b815260408051606081019182905260209092019190600184019060039082845b81548152602001906001019080831161186757505050918352505060049190910154602090910152600b820154600c90920154909160ff169085565b6118ab6122e6565b60016000838152600460205260409020600b015460ff1660038111156118d3576118d361245a565b146119125760405162461bcd60e51b815260206004820152600f60248201526e125b9d985b1a590813585d18da1259608a1b60448201526064016102b2565b600082815260046020526040902060010154336001600160a01b039091160361197d5760405162461bcd60e51b815260206004820152601a60248201527f596f752063616e277420626174746c6520796f757273656c662e00000000000060448201526064016102b2565b600033600090815260026020526040902054600160a01b900460ff1660038111156119aa576119aa61245a565b036119b9576119b7611bfe565b505b33600090815260026020908152604080832085845260049092529091208154600690910180546001600160a01b031981166001600160a01b039390931692831782558354919260ff600160a01b93849004169284926001600160a81b03191690911790836003811115611a2e57611a2e61245a565b0217905550611a4560018281019084016003612360565b506004918201549082015560008381526020918252604090819020600b8101805460ff19166002179055815160a081018352815481528251608081019093526001820180546001600160a01b0381168552919492938584019390929083019060ff600160a01b909104166003811115611ac057611ac061245a565b6003811115611ad157611ad161245a565b815260408051606081019182905260209092019190600184019060039082845b815481526020019060010190808311611af15750505091835250506004919091015460209182015290825260408051608081019091526006840180546001600160a01b0381168352938301939192909190830190600160a01b900460ff166003811115611b6057611b6061245a565b6003811115611b7157611b7161245a565b815260408051606081019182905260209092019190600184019060039082845b815481526020019060010190808311611b9157505050918352505060049190910154602091820152908252600b83015491019060ff166003811115611bd857611bd861245a565b6003811115611be957611be961245a565b8152602001600c820154815250509050919050565b611c0661238b565b336000818152600260205260409020546001600160a01b031603611c6c5760405162461bcd60e51b815260206004820152601b60248201527f506c6179657220616c726561647920696e697469616c697a65642e000000000060448201526064016102b2565b611c746123a6565b604080516101a081018252600180548083523360208085019182526000858701818152606087018290526014608088015260a0870186905260c0870182905260e0870182905260026101008801819052610120880183905261014088018190526101608801839052610180880183905294825260039092529590952084518155905192810180546001600160a01b039094166001600160a01b03198516811782559551949586959294929391926001600160a81b0319161790600160a01b908490811115611d4457611d4461245a565b0217905550606082015160018201805460ff60a81b1916600160a81b836003811115611d7257611d7261245a565b02179055506080820151600282015560a0820151600382015560c0820151600482015560e08201516005820155610100820151600682015561012082015160078201556101408201516008820155610160820151600982015561018090910151600a9091015560018054808452906000611deb836127ed565b9091555050604080516101a0810182526001805480835233602080850191825284860184815260006060870181905260196080880152600260a0880181905260c0880182905260e0880182905260056101008901819052610120890183905261014089015261016088018290526101808801829052948152600390925295902084518155905192810180546001600160a01b039094166001600160a01b03198516811782559551949586959294929391926001600160a81b0319161790600160a01b908490811115611ebf57611ebf61245a565b0217905550606082015160018201805460ff60a81b1916600160a81b836003811115611eed57611eed61245a565b02179055506080820151600282015560a0820151600382015560c0820151600482015560e08201516005820155610100820151600682015561012082015160078201556101408201516008820155610160820151600982015561018090910151600a909101556001805460208501819052906000611f6a836127ed565b9091555050604080516101a081018252600154815233602082015260009181016002815260200160008152600f6020808301919091526003604080840182905260006060850181905260808501819052600860a0860181905260c0860182905260e0860152610100850181905261012090940184905260018054855291835292839020845181559184015190820180546001600160a01b039092166001600160a01b0319831681178255938501519495508594929390916001600160a81b03191617600160a01b8360028111156120435761204361245a565b0217905550606082015160018201805460ff60a81b1916600160a81b8360038111156120715761207161245a565b02179055506080820151816002015560a0820151816003015560c0820151816004015560e08201518160050155610100820151816006015561012082015181600701556101408201518160080155610160820151816009015561018082015181600a0155905050600154846002600381106120ee576120ee6127a8565b602002015260018054906000612103836127ed565b909155505060408051608081018252338082526001602080840191825283850189905260006060850181905292835260029052929020815181546001600160a01b031981166001600160a01b0390921691821783559351929384939183916001600160a81b03191617600160a01b8360038111156121835761218361245a565b0217905550604082015161219d9060018301906003612322565b50606091909101516004909101553360009081526002602090815260409182902082516080810190935280546001600160a01b03811684529091830190600160a01b900460ff1660038111156121f5576121f561245a565b60038111156122065761220661245a565b815260408051606081019182905260209092019190600184019060039082845b81548152602001906001019080831161222657505050505081526020016004820154815250509550505050505090565b60408051446020808301919091524282840152606080830194909452825180830390940184526080909101909152815191012090565b6040518060c001604052806006905b6122a36123c4565b81526020019060019003908161229b5790505090565b60405180606001604052806003905b6122d06123c4565b8152602001906001900390816122c85790505090565b6040518060a001604052806000815260200161230061238b565b815260200161230d61238b565b815260200160005b8152602001600081525090565b8260038101928215612350579160200282015b82811115612350578251825591602001919060010190612335565b5061235c92915061242c565b5090565b8260038101928215612350579182015b82811115612350578254825591600101919060010190612370565b60408051608081018252600080825260208201529081016123155b60405180606001604052806003906020820280368337509192915050565b604080516101a08101825260008082526020820181905290918201908152602001600081526020016000815260200160008152602001600081526020016000815260200160008152602001600081526020016000815260200160008152602001600081525090565b5b8082111561235c576000815560010161242d565b60006020828403121561245357600080fd5b5035919050565b634e487b7160e01b600052602160045260246000fd5b600381106124805761248061245a565b9052565b600481106124945761249461245a565b50565b61248081612484565b8d81526001600160a01b038d1660208201526101a081016124c4604083018e612470565b6124cd8c612484565b606082019b909b52608081019990995260a089019790975260c088019590955260e0870193909352610100860191909152610120850152610140840152610160830152610180909101529392505050565b805182526000602082015161253e60208501826001600160a01b03169052565b5060408201516125516040850182612470565b5060608201516125646060850182612497565b50506080818101519083015260a0808201519083015260c0808201519083015260e08082015190830152610100808201519083015261012080820151908301526101408082015190830152610160808201519083015261018090810151908201526101a00190565b6109c08101818360005b60068110156125fb576125ea83835161251e565b9250602091909101906001016125d6565b50505092915050565b60006020828403121561261657600080fd5b81356001600160a01b038116811461262d57600080fd5b9392505050565b6104e08101818360005b60038110156125fb5761265283835161251e565b92506020919091019060010161263e565b6001600160a01b03841681526060810161267c84612484565b602082019390935260400152919050565b6000806000606084860312156126a257600080fd5b505081359360208301359350604090920135919050565b80516001600160a01b031682526020808201516126d581612484565b8382015260408281015190840160005b6003811015612702578251825291830191908301906001016126e5565b505050506060015160a09190910152565b8581526101e0810161272860208301876126b9565b61273560e08301866126b9565b61273e84612484565b6101a08201939093526101c001529392505050565b815181526020808301516101e083019161276f908401826126b9565b50604083015161278260e08401826126b9565b50606083015161279181612484565b6101a0830152608092909201516101c09091015290565b634e487b7160e01b600052603260045260246000fd5b634e487b7160e01b600052601160045260246000fd5b818103818111156127e7576127e76127be565b92915050565b6000600182016127ff576127ff6127be565b5060010190565b600081612815576128156127be565b506000190190565b60008261283a57634e487b7160e01b600052601260045260246000fd5b50069056fea2646970667358221220b1a8876be27ab34488b2d522a25915bd046598814ba06f12a49eb461ef24bfa164736f6c63430008110033",
			"opcodes": "PUSH1 0x80 PUSH1 0x40 MSTORE PUSH1 0x1 PUSH1 0x0 SSTORE PUSH1 0x1 DUP1 SSTORE CALLVALUE DUP1 ISZERO PUSH2 0x19 JUMPI PUSH1 0x0 DUP1 REVERT JUMPDEST POP PUSH2 0x2875 DUP1 PUSH2 0x29 PUSH1 0x0 CODECOPY PUSH1 0x0 RETURN INVALID PUSH1 0x80 PUSH1 0x40 MSTORE CALLVALUE DUP1 ISZERO PUSH2 0x10 JUMPI PUSH1 0x0 DUP1 REVERT JUMPDEST POP PUSH1 0x4 CALLDATASIZE LT PUSH2 0x93 JUMPI PUSH1 0x0 CALLDATALOAD PUSH1 0xE0 SHR DUP1 PUSH4 0x82DF6245 GT PUSH2 0x66 JUMPI DUP1 PUSH4 0x82DF6245 EQ PUSH2 0x1C7 JUMPI DUP1 PUSH4 0xA0CC641A EQ PUSH2 0x1DC JUMPI DUP1 PUSH4 0xABA99F88 EQ PUSH2 0x1F2 JUMPI DUP1 PUSH4 0xAE099448 EQ PUSH2 0x205 JUMPI DUP1 PUSH4 0xFEB8C438 EQ PUSH2 0x229 JUMPI PUSH1 0x0 DUP1 REVERT JUMPDEST DUP1 PUSH4 0x105F2C53 EQ PUSH2 0x98 JUMPI DUP1 PUSH4 0x283F3FAC EQ PUSH2 0x13B JUMPI DUP1 PUSH4 0x6154EE97 EQ PUSH2 0x15B JUMPI DUP1 PUSH4 0x79A39EBD EQ PUSH2 0x17B JUMPI JUMPDEST PUSH1 0x0 DUP1 REVERT JUMPDEST PUSH2 0x119 PUSH2 0xA6 CALLDATASIZE PUSH1 0x4 PUSH2 0x2441 JUMP JUMPDEST PUSH1 0x3 PUSH1 0x20 DUP2 SWAP1 MSTORE PUSH1 0x0 SWAP2 DUP3 MSTORE PUSH1 0x40 SWAP1 SWAP2 KECCAK256 DUP1 SLOAD PUSH1 0x1 DUP3 ADD SLOAD PUSH1 0x2 DUP4 ADD SLOAD SWAP4 DUP4 ADD SLOAD PUSH1 0x4 DUP5 ADD SLOAD PUSH1 0x5 DUP6 ADD SLOAD PUSH1 0x6 DUP7 ADD SLOAD PUSH1 0x7 DUP8 ADD SLOAD PUSH1 0x8 DUP9 ADD SLOAD PUSH1 0x9 DUP10 ADD SLOAD PUSH1 0xA SWAP1 SWAP10 ADD SLOAD SWAP8 SWAP10 PUSH1 0x1 PUSH1 0x1 PUSH1 0xA0 SHL SUB DUP9 AND SWAP10 PUSH1 0xFF PUSH1 0x1 PUSH1 0xA0 SHL DUP11 DIV DUP2 AND SWAP11 PUSH1 0x1 PUSH1 0xA8 SHL SWAP1 SWAP11 DIV AND SWAP9 SWAP2 SWAP8 SWAP7 SWAP6 SWAP5 SWAP4 SWAP3 SWAP2 DUP14 JUMP JUMPDEST PUSH1 0x40 MLOAD PUSH2 0x132 SWAP14 SWAP13 SWAP12 SWAP11 SWAP10 SWAP9 SWAP8 SWAP7 SWAP6 SWAP5 SWAP4 SWAP3 SWAP2 SWAP1 PUSH2 0x24A0 JUMP JUMPDEST PUSH1 0x40 MLOAD DUP1 SWAP2 SUB SWAP1 RETURN JUMPDEST PUSH2 0x14E PUSH2 0x149 CALLDATASIZE PUSH1 0x4 PUSH2 0x2441 JUMP JUMPDEST PUSH2 0x249 JUMP JUMPDEST PUSH1 0x40 MLOAD PUSH2 0x132 SWAP2 SWAP1 PUSH2 0x25CC JUMP JUMPDEST PUSH2 0x16E PUSH2 0x169 CALLDATASIZE PUSH1 0x4 PUSH2 0x2604 JUMP JUMPDEST PUSH2 0x739 JUMP JUMPDEST PUSH1 0x40 MLOAD PUSH2 0x132 SWAP2 SWAP1 PUSH2 0x2634 JUMP JUMPDEST PUSH2 0x1B8 PUSH2 0x189 CALLDATASIZE PUSH1 0x4 PUSH2 0x2604 JUMP JUMPDEST PUSH1 0x2 PUSH1 0x20 MSTORE PUSH1 0x0 SWAP1 DUP2 MSTORE PUSH1 0x40 SWAP1 KECCAK256 DUP1 SLOAD PUSH1 0x4 SWAP1 SWAP2 ADD SLOAD PUSH1 0x1 PUSH1 0x1 PUSH1 0xA0 SHL SUB DUP3 AND SWAP2 PUSH1 0x1 PUSH1 0xA0 SHL SWAP1 DIV PUSH1 0xFF AND SWAP1 DUP4 JUMP JUMPDEST PUSH1 0x40 MLOAD PUSH2 0x132 SWAP4 SWAP3 SWAP2 SWAP1 PUSH2 0x2663 JUMP JUMPDEST PUSH2 0x1DA PUSH2 0x1D5 CALLDATASIZE PUSH1 0x4 PUSH2 0x268D JUMP JUMPDEST PUSH2 0x8B5 JUMP JUMPDEST STOP JUMPDEST PUSH2 0x1E4 PUSH2 0xA1E JUMP JUMPDEST PUSH1 0x40 MLOAD SWAP1 DUP2 MSTORE PUSH1 0x20 ADD PUSH2 0x132 JUMP JUMPDEST PUSH2 0x1DA PUSH2 0x200 CALLDATASIZE PUSH1 0x4 PUSH2 0x2441 JUMP JUMPDEST PUSH2 0xC7B JUMP JUMPDEST PUSH2 0x218 PUSH2 0x213 CALLDATASIZE PUSH1 0x4 PUSH2 0x2441 JUMP JUMPDEST PUSH2 0x1746 JUMP JUMPDEST PUSH1 0x40 MLOAD PUSH2 0x132 SWAP6 SWAP5 SWAP4 SWAP3 SWAP2 SWAP1 PUSH2 0x2713 JUMP JUMPDEST PUSH2 0x23C PUSH2 0x237 CALLDATASIZE PUSH1 0x4 PUSH2 0x2441 JUMP JUMPDEST PUSH2 0x18A3 JUMP JUMPDEST PUSH1 0x40 MLOAD PUSH2 0x132 SWAP2 SWAP1 PUSH2 0x2753 JUMP JUMPDEST PUSH2 0x251 PUSH2 0x228C JUMP JUMPDEST PUSH1 0x0 DUP3 DUP2 MSTORE PUSH1 0x4 PUSH1 0x20 MSTORE PUSH1 0x40 DUP2 KECCAK256 PUSH1 0xB ADD SLOAD PUSH1 0xFF AND PUSH1 0x3 DUP2 GT ISZERO PUSH2 0x277 JUMPI PUSH2 0x277 PUSH2 0x245A JUMP JUMPDEST SUB PUSH2 0x2BB JUMPI PUSH1 0x40 MLOAD PUSH3 0x461BCD PUSH1 0xE5 SHL DUP2 MSTORE PUSH1 0x20 PUSH1 0x4 DUP3 ADD MSTORE PUSH1 0xF PUSH1 0x24 DUP3 ADD MSTORE PUSH15 0x125B9D985B1A590813585D18DA1259 PUSH1 0x8A SHL PUSH1 0x44 DUP3 ADD MSTORE PUSH1 0x64 ADD JUMPDEST PUSH1 0x40 MLOAD DUP1 SWAP2 SUB SWAP1 REVERT JUMPDEST PUSH1 0x0 DUP3 DUP2 MSTORE PUSH1 0x4 PUSH1 0x20 SWAP1 DUP2 MSTORE PUSH1 0x40 DUP1 DUP4 KECCAK256 DUP2 MLOAD PUSH1 0xA0 DUP2 ADD DUP4 MSTORE DUP2 SLOAD DUP2 MSTORE DUP3 MLOAD PUSH1 0x80 DUP2 ADD SWAP1 SWAP4 MSTORE PUSH1 0x1 DUP3 ADD DUP1 SLOAD PUSH1 0x1 PUSH1 0x1 PUSH1 0xA0 SHL SUB DUP2 AND DUP6 MSTORE SWAP2 SWAP5 SWAP3 SWAP4 DUP6 DUP5 ADD SWAP4 SWAP1 SWAP3 SWAP1 DUP4 ADD SWAP1 PUSH1 0x1 PUSH1 0xA0 SHL SWAP1 DIV PUSH1 0xFF AND PUSH1 0x3 DUP2 GT ISZERO PUSH2 0x31C JUMPI PUSH2 0x31C PUSH2 0x245A JUMP JUMPDEST PUSH1 0x3 DUP2 GT ISZERO PUSH2 0x32D JUMPI PUSH2 0x32D PUSH2 0x245A JUMP JUMPDEST DUP2 MSTORE PUSH1 0x40 DUP1 MLOAD PUSH1 0x60 DUP2 ADD SWAP2 DUP3 SWAP1 MSTORE PUSH1 0x20 SWAP1 SWAP3 ADD SWAP2 SWAP1 PUSH1 0x1 DUP5 ADD SWAP1 PUSH1 0x3 SWAP1 DUP3 DUP5 JUMPDEST DUP2 SLOAD DUP2 MSTORE PUSH1 0x20 ADD SWAP1 PUSH1 0x1 ADD SWAP1 DUP1 DUP4 GT PUSH2 0x34D JUMPI POP POP POP SWAP2 DUP4 MSTORE POP POP PUSH1 0x4 SWAP2 SWAP1 SWAP2 ADD SLOAD PUSH1 0x20 SWAP2 DUP3 ADD MSTORE SWAP1 DUP3 MSTORE PUSH1 0x40 DUP1 MLOAD PUSH1 0x80 DUP2 ADD SWAP1 SWAP2 MSTORE PUSH1 0x6 DUP5 ADD DUP1 SLOAD PUSH1 0x1 PUSH1 0x1 PUSH1 0xA0 SHL SUB DUP2 AND DUP4 MSTORE SWAP4 DUP4 ADD SWAP4 SWAP2 SWAP3 SWAP1 SWAP2 SWAP1 DUP4 ADD SWAP1 PUSH1 0x1 PUSH1 0xA0 SHL SWAP1 DIV PUSH1 0xFF AND PUSH1 0x3 DUP2 GT ISZERO PUSH2 0x3BC JUMPI PUSH2 0x3BC PUSH2 0x245A JUMP JUMPDEST PUSH1 0x3 DUP2 GT ISZERO PUSH2 0x3CD JUMPI PUSH2 0x3CD PUSH2 0x245A JUMP JUMPDEST DUP2 MSTORE PUSH1 0x40 DUP1 MLOAD PUSH1 0x60 DUP2 ADD SWAP2 DUP3 SWAP1 MSTORE PUSH1 0x20 SWAP1 SWAP3 ADD SWAP2 SWAP1 PUSH1 0x1 DUP5 ADD SWAP1 PUSH1 0x3 SWAP1 DUP3 DUP5 JUMPDEST DUP2 SLOAD DUP2 MSTORE PUSH1 0x20 ADD SWAP1 PUSH1 0x1 ADD SWAP1 DUP1 DUP4 GT PUSH2 0x3ED JUMPI POP POP POP SWAP2 DUP4 MSTORE POP POP PUSH1 0x4 SWAP2 SWAP1 SWAP2 ADD SLOAD PUSH1 0x20 SWAP2 DUP3 ADD MSTORE SWAP1 DUP3 MSTORE PUSH1 0xB DUP4 ADD SLOAD SWAP2 ADD SWAP1 PUSH1 0xFF AND PUSH1 0x3 DUP2 GT ISZERO PUSH2 0x434 JUMPI PUSH2 0x434 PUSH2 0x245A JUMP JUMPDEST PUSH1 0x3 DUP2 GT ISZERO PUSH2 0x445 JUMPI PUSH2 0x445 PUSH2 0x245A JUMP JUMPDEST DUP2 MSTORE PUSH1 0xC SWAP2 SWAP1 SWAP2 ADD SLOAD PUSH1 0x20 SWAP2 DUP3 ADD MSTORE DUP2 ADD MLOAD MLOAD PUSH1 0x40 DUP3 ADD MLOAD MLOAD SWAP2 SWAP3 POP SWAP1 PUSH2 0x46A PUSH2 0x228C JUMP JUMPDEST PUSH1 0x0 JUMPDEST PUSH1 0x6 DUP2 LT ISZERO PUSH2 0x72F JUMPI PUSH1 0x3 DUP2 LT ISZERO PUSH2 0x5CB JUMPI PUSH1 0x1 PUSH1 0x1 PUSH1 0xA0 SHL SUB DUP5 AND PUSH1 0x0 SWAP1 DUP2 MSTORE PUSH1 0x2 PUSH1 0x20 MSTORE PUSH1 0x40 DUP2 KECCAK256 PUSH1 0x3 SWAP2 SWAP1 PUSH1 0x1 ADD DUP4 DUP4 DUP2 LT PUSH2 0x4AE JUMPI PUSH2 0x4AE PUSH2 0x27A8 JUMP JUMPDEST ADD SLOAD DUP2 MSTORE PUSH1 0x20 DUP1 DUP3 ADD SWAP3 SWAP1 SWAP3 MSTORE PUSH1 0x40 SWAP1 DUP2 ADD PUSH1 0x0 KECCAK256 DUP2 MLOAD PUSH2 0x1A0 DUP2 ADD DUP4 MSTORE DUP2 SLOAD DUP2 MSTORE PUSH1 0x1 DUP3 ADD SLOAD PUSH1 0x1 PUSH1 0x1 PUSH1 0xA0 SHL SUB DUP2 AND SWAP5 DUP3 ADD SWAP5 SWAP1 SWAP5 MSTORE SWAP3 SWAP1 SWAP2 DUP4 ADD SWAP1 PUSH1 0x1 PUSH1 0xA0 SHL SWAP1 DIV PUSH1 0xFF AND PUSH1 0x2 DUP2 GT ISZERO PUSH2 0x507 JUMPI PUSH2 0x507 PUSH2 0x245A JUMP JUMPDEST PUSH1 0x2 DUP2 GT ISZERO PUSH2 0x518 JUMPI PUSH2 0x518 PUSH2 0x245A JUMP JUMPDEST DUP2 MSTORE PUSH1 0x20 ADD PUSH1 0x1 DUP3 ADD PUSH1 0x15 SWAP1 SLOAD SWAP1 PUSH2 0x100 EXP SWAP1 DIV PUSH1 0xFF AND PUSH1 0x3 DUP2 GT ISZERO PUSH2 0x540 JUMPI PUSH2 0x540 PUSH2 0x245A JUMP JUMPDEST PUSH1 0x3 DUP2 GT ISZERO PUSH2 0x551 JUMPI PUSH2 0x551 PUSH2 0x245A JUMP JUMPDEST DUP2 MSTORE PUSH1 0x20 ADD PUSH1 0x2 DUP3 ADD SLOAD DUP2 MSTORE PUSH1 0x20 ADD PUSH1 0x3 DUP3 ADD SLOAD DUP2 MSTORE PUSH1 0x20 ADD PUSH1 0x4 DUP3 ADD SLOAD DUP2 MSTORE PUSH1 0x20 ADD PUSH1 0x5 DUP3 ADD SLOAD DUP2 MSTORE PUSH1 0x20 ADD PUSH1 0x6 DUP3 ADD SLOAD DUP2 MSTORE PUSH1 0x20 ADD PUSH1 0x7 DUP3 ADD SLOAD DUP2 MSTORE PUSH1 0x20 ADD PUSH1 0x8 DUP3 ADD SLOAD DUP2 MSTORE PUSH1 0x20 ADD PUSH1 0x9 DUP3 ADD SLOAD DUP2 MSTORE PUSH1 0x20 ADD PUSH1 0xA DUP3 ADD SLOAD DUP2 MSTORE POP POP DUP3 DUP3 PUSH1 0x6 DUP2 LT PUSH2 0x5C1 JUMPI PUSH2 0x5C1 PUSH2 0x27A8 JUMP JUMPDEST PUSH1 0x20 MUL ADD MSTORE PUSH2 0x71D JUMP JUMPDEST PUSH1 0x1 PUSH1 0x1 PUSH1 0xA0 SHL SUB DUP4 AND PUSH1 0x0 SWAP1 DUP2 MSTORE PUSH1 0x2 PUSH1 0x20 MSTORE PUSH1 0x40 DUP2 KECCAK256 PUSH1 0x3 SWAP2 SWAP1 PUSH1 0x1 ADD PUSH2 0x5F4 DUP4 DUP6 PUSH2 0x27D4 JUMP JUMPDEST PUSH1 0x3 DUP2 LT PUSH2 0x604 JUMPI PUSH2 0x604 PUSH2 0x27A8 JUMP JUMPDEST ADD SLOAD DUP2 MSTORE PUSH1 0x20 DUP1 DUP3 ADD SWAP3 SWAP1 SWAP3 MSTORE PUSH1 0x40 SWAP1 DUP2 ADD PUSH1 0x0 KECCAK256 DUP2 MLOAD PUSH2 0x1A0 DUP2 ADD DUP4 MSTORE DUP2 SLOAD DUP2 MSTORE PUSH1 0x1 DUP3 ADD SLOAD PUSH1 0x1 PUSH1 0x1 PUSH1 0xA0 SHL SUB DUP2 AND SWAP5 DUP3 ADD SWAP5 SWAP1 SWAP5 MSTORE SWAP3 SWAP1 SWAP2 DUP4 ADD SWAP1 PUSH1 0x1 PUSH1 0xA0 SHL SWAP1 DIV PUSH1 0xFF AND PUSH1 0x2 DUP2 GT ISZERO PUSH2 0x65D JUMPI PUSH2 0x65D PUSH2 0x245A JUMP JUMPDEST PUSH1 0x2 DUP2 GT ISZERO PUSH2 0x66E JUMPI PUSH2 0x66E PUSH2 0x245A JUMP JUMPDEST DUP2 MSTORE PUSH1 0x20 ADD PUSH1 0x1 DUP3 ADD PUSH1 0x15 SWAP1 SLOAD SWAP1 PUSH2 0x100 EXP SWAP1 DIV PUSH1 0xFF AND PUSH1 0x3 DUP2 GT ISZERO PUSH2 0x696 JUMPI PUSH2 0x696 PUSH2 0x245A JUMP JUMPDEST PUSH1 0x3 DUP2 GT ISZERO PUSH2 0x6A7 JUMPI PUSH2 0x6A7 PUSH2 0x245A JUMP JUMPDEST DUP2 MSTORE PUSH1 0x20 ADD PUSH1 0x2 DUP3 ADD SLOAD DUP2 MSTORE PUSH1 0x20 ADD PUSH1 0x3 DUP3 ADD SLOAD DUP2 MSTORE PUSH1 0x20 ADD PUSH1 0x4 DUP3 ADD SLOAD DUP2 MSTORE PUSH1 0x20 ADD PUSH1 0x5 DUP3 ADD SLOAD DUP2 MSTORE PUSH1 0x20 ADD PUSH1 0x6 DUP3 ADD SLOAD DUP2 MSTORE PUSH1 0x20 ADD PUSH1 0x7 DUP3 ADD SLOAD DUP2 MSTORE PUSH1 0x20 ADD PUSH1 0x8 DUP3 ADD SLOAD DUP2 MSTORE PUSH1 0x20 ADD PUSH1 0x9 DUP3 ADD SLOAD DUP2 MSTORE PUSH1 0x20 ADD PUSH1 0xA DUP3 ADD SLOAD DUP2 MSTORE POP POP DUP3 DUP3 PUSH1 0x6 DUP2 LT PUSH2 0x717 JUMPI PUSH2 0x717 PUSH2 0x27A8 JUMP JUMPDEST PUSH1 0x20 MUL ADD MSTORE JUMPDEST DUP1 PUSH2 0x727 DUP2 PUSH2 0x27ED JUMP JUMPDEST SWAP2 POP POP PUSH2 0x46D JUMP JUMPDEST POP SWAP6 SWAP5 POP POP POP POP POP JUMP JUMPDEST PUSH2 0x741 PUSH2 0x22B9 JUMP JUMPDEST PUSH2 0x749 PUSH2 0x22B9 JUMP JUMPDEST PUSH1 0x0 JUMPDEST PUSH1 0x3 DUP2 LT ISZERO PUSH2 0x8AE JUMPI PUSH1 0x1 PUSH1 0x1 PUSH1 0xA0 SHL SUB DUP5 AND PUSH1 0x0 SWAP1 DUP2 MSTORE PUSH1 0x2 PUSH1 0x20 MSTORE PUSH1 0x40 DUP2 KECCAK256 PUSH1 0x3 SWAP2 SWAP1 PUSH1 0x1 ADD DUP4 DUP4 DUP2 LT PUSH2 0x784 JUMPI PUSH2 0x784 PUSH2 0x27A8 JUMP JUMPDEST ADD SLOAD DUP2 MSTORE PUSH1 0x20 DUP1 DUP3 ADD SWAP3 SWAP1 SWAP3 MSTORE PUSH1 0x40 SWAP1 DUP2 ADD PUSH1 0x0 KECCAK256 DUP2 MLOAD PUSH2 0x1A0 DUP2 ADD DUP4 MSTORE DUP2 SLOAD DUP2 MSTORE PUSH1 0x1 DUP3 ADD SLOAD PUSH1 0x1 PUSH1 0x1 PUSH1 0xA0 SHL SUB DUP2 AND SWAP5 DUP3 ADD SWAP5 SWAP1 SWAP5 MSTORE SWAP3 SWAP1 SWAP2 DUP4 ADD SWAP1 PUSH1 0x1 PUSH1 0xA0 SHL SWAP1 DIV PUSH1 0xFF AND PUSH1 0x2 DUP2 GT ISZERO PUSH2 0x7DD JUMPI PUSH2 0x7DD PUSH2 0x245A JUMP JUMPDEST PUSH1 0x2 DUP2 GT ISZERO PUSH2 0x7EE JUMPI PUSH2 0x7EE PUSH2 0x245A JUMP JUMPDEST DUP2 MSTORE PUSH1 0x20 ADD PUSH1 0x1 DUP3 ADD PUSH1 0x15 SWAP1 SLOAD SWAP1 PUSH2 0x100 EXP SWAP1 DIV PUSH1 0xFF AND PUSH1 0x3 DUP2 GT ISZERO PUSH2 0x816 JUMPI PUSH2 0x816 PUSH2 0x245A JUMP JUMPDEST PUSH1 0x3 DUP2 GT ISZERO PUSH2 0x827 JUMPI PUSH2 0x827 PUSH2 0x245A JUMP JUMPDEST DUP2 MSTORE PUSH1 0x20 ADD PUSH1 0x2 DUP3 ADD SLOAD DUP2 MSTORE PUSH1 0x20 ADD PUSH1 0x3 DUP3 ADD SLOAD DUP2 MSTORE PUSH1 0x20 ADD PUSH1 0x4 DUP3 ADD SLOAD DUP2 MSTORE PUSH1 0x20 ADD PUSH1 0x5 DUP3 ADD SLOAD DUP2 MSTORE PUSH1 0x20 ADD PUSH1 0x6 DUP3 ADD SLOAD DUP2 MSTORE PUSH1 0x20 ADD PUSH1 0x7 DUP3 ADD SLOAD DUP2 MSTORE PUSH1 0x20 ADD PUSH1 0x8 DUP3 ADD SLOAD DUP2 MSTORE PUSH1 0x20 ADD PUSH1 0x9 DUP3 ADD SLOAD DUP2 MSTORE PUSH1 0x20 ADD PUSH1 0xA DUP3 ADD SLOAD DUP2 MSTORE POP POP DUP3 DUP3 PUSH1 0x3 DUP2 LT PUSH2 0x897 JUMPI PUSH2 0x897 PUSH2 0x27A8 JUMP JUMPDEST PUSH1 0x20 MUL ADD MSTORE DUP1 PUSH2 0x8A6 DUP2 PUSH2 0x27ED JUMP JUMPDEST SWAP2 POP POP PUSH2 0x74C JUMP JUMPDEST POP SWAP3 SWAP2 POP POP JUMP JUMPDEST PUSH1 0x0 DUP4 DUP2 MSTORE PUSH1 0x3 PUSH1 0x20 MSTORE PUSH1 0x40 SWAP1 KECCAK256 PUSH1 0x1 ADD SLOAD PUSH1 0x1 PUSH1 0x1 PUSH1 0xA0 SHL SUB AND CALLER EQ PUSH2 0x91E JUMPI PUSH1 0x40 MLOAD PUSH3 0x461BCD PUSH1 0xE5 SHL DUP2 MSTORE PUSH1 0x20 PUSH1 0x4 DUP3 ADD MSTORE PUSH1 0x17 PUSH1 0x24 DUP3 ADD MSTORE PUSH32 0x596F7520646F6E2774206F776E207468697320756E6974000000000000000000 PUSH1 0x44 DUP3 ADD MSTORE PUSH1 0x64 ADD PUSH2 0x2B2 JUMP JUMPDEST PUSH1 0xA DUP3 LT DUP1 ISZERO PUSH2 0x92E JUMPI POP PUSH1 0xA DUP2 LT JUMPDEST PUSH2 0x96C JUMPI PUSH1 0x40 MLOAD PUSH3 0x461BCD PUSH1 0xE5 SHL DUP2 MSTORE PUSH1 0x20 PUSH1 0x4 DUP3 ADD MSTORE PUSH1 0xF PUSH1 0x24 DUP3 ADD MSTORE PUSH15 0x47726964206973203130207820313 PUSH1 0x8C SHL PUSH1 0x44 DUP3 ADD MSTORE PUSH1 0x64 ADD PUSH2 0x2B2 JUMP JUMPDEST PUSH1 0x0 DUP4 DUP2 MSTORE PUSH1 0x3 PUSH1 0x20 MSTORE PUSH1 0x40 SWAP1 KECCAK256 PUSH1 0x5 ADD SLOAD DUP3 EQ DUP1 ISZERO PUSH2 0x99C JUMPI POP PUSH1 0x0 DUP4 DUP2 MSTORE PUSH1 0x3 PUSH1 0x20 MSTORE PUSH1 0x40 SWAP1 KECCAK256 PUSH1 0x6 ADD SLOAD DUP2 EQ JUMPDEST ISZERO PUSH2 0x9E9 JUMPI PUSH1 0x40 MLOAD PUSH3 0x461BCD PUSH1 0xE5 SHL DUP2 MSTORE PUSH1 0x20 PUSH1 0x4 DUP3 ADD MSTORE PUSH1 0x1E PUSH1 0x24 DUP3 ADD MSTORE PUSH32 0x556E697420616C726561647920696E207468617420706F736974696F6E2E0000 PUSH1 0x44 DUP3 ADD MSTORE PUSH1 0x64 ADD PUSH2 0x2B2 JUMP JUMPDEST PUSH1 0x0 SWAP3 DUP4 MSTORE PUSH1 0x3 PUSH1 0x20 MSTORE PUSH1 0x40 SWAP1 SWAP3 KECCAK256 PUSH1 0x7 DUP2 ADD SWAP2 SWAP1 SWAP2 SSTORE PUSH1 0x8 DUP2 ADD SWAP2 SWAP1 SWAP2 SSTORE PUSH1 0x1 ADD DUP1 SLOAD PUSH1 0xFF PUSH1 0xA8 SHL NOT AND PUSH1 0x1 PUSH1 0xA8 SHL OR SWAP1 SSTORE JUMP JUMPDEST PUSH1 0x0 DUP1 CALLER PUSH1 0x0 SWAP1 DUP2 MSTORE PUSH1 0x2 PUSH1 0x20 MSTORE PUSH1 0x40 SWAP1 KECCAK256 SLOAD PUSH1 0x1 PUSH1 0xA0 SHL SWAP1 DIV PUSH1 0xFF AND PUSH1 0x3 DUP2 GT ISZERO PUSH2 0xA4C JUMPI PUSH2 0xA4C PUSH2 0x245A JUMP JUMPDEST SUB PUSH2 0xA5B JUMPI PUSH2 0xA59 PUSH2 0x1BFE JUMP JUMPDEST POP JUMPDEST PUSH2 0xA63 PUSH2 0x22E6 JUMP JUMPDEST PUSH1 0x0 DUP1 SLOAD DUP3 MSTORE PUSH1 0x1 PUSH1 0x60 DUP4 ADD MSTORE CALLER DUP2 MSTORE PUSH1 0x2 PUSH1 0x20 SWAP1 DUP2 MSTORE PUSH1 0x40 SWAP2 DUP3 SWAP1 KECCAK256 DUP3 MLOAD PUSH1 0x80 DUP2 ADD SWAP1 SWAP4 MSTORE DUP1 SLOAD PUSH1 0x1 PUSH1 0x1 PUSH1 0xA0 SHL SUB DUP2 AND DUP5 MSTORE SWAP1 SWAP2 DUP4 ADD SWAP1 PUSH1 0x1 PUSH1 0xA0 SHL SWAP1 DIV PUSH1 0xFF AND PUSH1 0x3 DUP2 GT ISZERO PUSH2 0xAB7 JUMPI PUSH2 0xAB7 PUSH2 0x245A JUMP JUMPDEST PUSH1 0x3 DUP2 GT ISZERO PUSH2 0xAC8 JUMPI PUSH2 0xAC8 PUSH2 0x245A JUMP JUMPDEST DUP2 MSTORE PUSH1 0x40 DUP1 MLOAD PUSH1 0x60 DUP2 ADD SWAP2 DUP3 SWAP1 MSTORE PUSH1 0x20 SWAP1 SWAP3 ADD SWAP2 SWAP1 PUSH1 0x1 DUP5 ADD SWAP1 PUSH1 0x3 SWAP1 DUP3 DUP5 JUMPDEST DUP2 SLOAD DUP2 MSTORE PUSH1 0x20 ADD SWAP1 PUSH1 0x1 ADD SWAP1 DUP1 DUP4 GT PUSH2 0xAE8 JUMPI POP POP POP SWAP2 DUP4 MSTORE POP POP PUSH1 0x4 SWAP2 DUP3 ADD SLOAD PUSH1 0x20 SWAP2 DUP3 ADD MSTORE DUP4 DUP2 ADD SWAP3 DUP4 MSTORE PUSH1 0x0 DUP1 SLOAD CALLER DUP3 MSTORE PUSH1 0x2 DUP4 MSTORE PUSH1 0x40 DUP1 DUP4 KECCAK256 DUP6 ADD DUP3 SWAP1 SSTORE SWAP1 DUP3 MSTORE SWAP3 DUP3 MSTORE SWAP2 SWAP1 SWAP2 KECCAK256 DUP4 MLOAD DUP2 SSTORE SWAP2 MLOAD DUP1 MLOAD PUSH1 0x1 DUP5 ADD DUP1 SLOAD PUSH1 0x1 PUSH1 0x1 PUSH1 0xA0 SHL SUB SWAP3 SWAP1 SWAP3 AND PUSH1 0x1 PUSH1 0x1 PUSH1 0xA0 SHL SUB NOT DUP4 AND DUP2 OR DUP3 SSTORE SWAP4 DUP4 ADD MLOAD DUP7 SWAP6 SWAP5 SWAP2 SWAP3 SWAP1 SWAP2 DUP4 SWAP2 PUSH1 0x1 PUSH1 0x1 PUSH1 0xA8 SHL SUB NOT AND OR PUSH1 0x1 PUSH1 0xA0 SHL DUP4 PUSH1 0x3 DUP2 GT ISZERO PUSH2 0xB8C JUMPI PUSH2 0xB8C PUSH2 0x245A JUMP JUMPDEST MUL OR SWAP1 SSTORE POP PUSH1 0x40 DUP3 ADD MLOAD PUSH2 0xBA6 SWAP1 PUSH1 0x1 DUP4 ADD SWAP1 PUSH1 0x3 PUSH2 0x2322 JUMP JUMPDEST POP PUSH1 0x60 SWAP2 SWAP1 SWAP2 ADD MLOAD PUSH1 0x4 SWAP1 SWAP2 ADD SSTORE PUSH1 0x40 DUP3 ADD MLOAD DUP1 MLOAD PUSH1 0x6 DUP4 ADD DUP1 SLOAD PUSH1 0x1 PUSH1 0x1 PUSH1 0xA0 SHL SUB NOT DUP2 AND PUSH1 0x1 PUSH1 0x1 PUSH1 0xA0 SHL SUB SWAP1 SWAP4 AND SWAP3 DUP4 OR DUP3 SSTORE PUSH1 0x20 DUP5 ADD MLOAD SWAP2 SWAP3 DUP4 SWAP2 PUSH1 0x1 PUSH1 0x1 PUSH1 0xA8 SHL SUB NOT AND OR PUSH1 0x1 PUSH1 0xA0 SHL DUP4 PUSH1 0x3 DUP2 GT ISZERO PUSH2 0xC07 JUMPI PUSH2 0xC07 PUSH2 0x245A JUMP JUMPDEST MUL OR SWAP1 SSTORE POP PUSH1 0x40 DUP3 ADD MLOAD PUSH2 0xC21 SWAP1 PUSH1 0x1 DUP4 ADD SWAP1 PUSH1 0x3 PUSH2 0x2322 JUMP JUMPDEST POP PUSH1 0x60 SWAP2 DUP3 ADD MLOAD PUSH1 0x4 SWAP1 SWAP2 ADD SSTORE DUP3 ADD MLOAD PUSH1 0xB DUP3 ADD DUP1 SLOAD PUSH1 0xFF NOT AND PUSH1 0x1 DUP4 PUSH1 0x3 DUP2 GT ISZERO PUSH2 0xC4F JUMPI PUSH2 0xC4F PUSH2 0x245A JUMP JUMPDEST MUL OR SWAP1 SSTORE POP PUSH1 0x80 SWAP2 SWAP1 SWAP2 ADD MLOAD PUSH1 0xC SWAP1 SWAP2 ADD SSTORE PUSH1 0x0 DUP1 SLOAD SWAP1 DUP1 PUSH2 0xC70 DUP4 PUSH2 0x27ED JUMP JUMPDEST SWAP1 SWAP2 SSTORE POP POP MLOAD SWAP2 SWAP1 POP JUMP JUMPDEST PUSH1 0x2 PUSH1 0x0 DUP3 DUP2 MSTORE PUSH1 0x4 PUSH1 0x20 MSTORE PUSH1 0x40 SWAP1 KECCAK256 PUSH1 0xB ADD SLOAD PUSH1 0xFF AND PUSH1 0x3 DUP2 GT ISZERO PUSH2 0xCA3 JUMPI PUSH2 0xCA3 PUSH2 0x245A JUMP JUMPDEST EQ PUSH2 0xCE2 JUMPI PUSH1 0x40 MLOAD PUSH3 0x461BCD PUSH1 0xE5 SHL DUP2 MSTORE PUSH1 0x20 PUSH1 0x4 DUP3 ADD MSTORE PUSH1 0xF PUSH1 0x24 DUP3 ADD MSTORE PUSH15 0x47616D65206E6F7420416374697665 PUSH1 0x88 SHL PUSH1 0x44 DUP3 ADD MSTORE PUSH1 0x64 ADD PUSH2 0x2B2 JUMP JUMPDEST PUSH1 0x0 PUSH2 0xCED DUP3 PUSH2 0x249 JUMP JUMPDEST SWAP1 POP PUSH1 0x0 JUMPDEST PUSH1 0x6 DUP2 LT ISZERO PUSH2 0x1577 JUMPI PUSH1 0x3 DUP3 DUP3 PUSH1 0x6 DUP2 LT PUSH2 0xD0F JUMPI PUSH2 0xD0F PUSH2 0x27A8 JUMP JUMPDEST PUSH1 0x20 MUL ADD MLOAD PUSH1 0x60 ADD MLOAD PUSH1 0x3 DUP2 GT ISZERO PUSH2 0xD29 JUMPI PUSH2 0xD29 PUSH2 0x245A JUMP JUMPDEST EQ PUSH2 0x1565 JUMPI PUSH1 0x1 DUP3 DUP3 PUSH1 0x6 DUP2 LT PUSH2 0xD42 JUMPI PUSH2 0xD42 PUSH2 0x27A8 JUMP JUMPDEST PUSH1 0x20 MUL ADD MLOAD PUSH1 0x60 ADD MLOAD PUSH1 0x3 DUP2 GT ISZERO PUSH2 0xD5C JUMPI PUSH2 0xD5C PUSH2 0x245A JUMP JUMPDEST SUB PUSH2 0xF81 JUMPI DUP2 DUP2 PUSH1 0x6 DUP2 LT PUSH2 0xD73 JUMPI PUSH2 0xD73 PUSH2 0x27A8 JUMP JUMPDEST PUSH1 0x20 MUL ADD MLOAD PUSH2 0x120 ADD MLOAD DUP3 DUP3 PUSH1 0x6 DUP2 LT PUSH2 0xD8F JUMPI PUSH2 0xD8F PUSH2 0x27A8 JUMP JUMPDEST PUSH1 0x20 MUL ADD MLOAD PUSH1 0xE0 ADD MLOAD EQ PUSH2 0xE2E JUMPI DUP2 DUP2 PUSH1 0x6 DUP2 LT PUSH2 0xDAF JUMPI PUSH2 0xDAF PUSH2 0x27A8 JUMP JUMPDEST PUSH1 0x20 MUL ADD MLOAD PUSH2 0x120 ADD MLOAD DUP3 DUP3 PUSH1 0x6 DUP2 LT PUSH2 0xDCB JUMPI PUSH2 0xDCB PUSH2 0x27A8 JUMP JUMPDEST PUSH1 0x20 MUL ADD MLOAD PUSH1 0xE0 ADD MLOAD LT ISZERO PUSH2 0xE08 JUMPI DUP2 DUP2 PUSH1 0x6 DUP2 LT PUSH2 0xDEC JUMPI PUSH2 0xDEC PUSH2 0x27A8 JUMP JUMPDEST PUSH1 0x20 MUL ADD MLOAD PUSH1 0xE0 ADD DUP1 MLOAD SWAP1 PUSH2 0xE00 DUP3 PUSH2 0x27ED JUMP JUMPDEST SWAP1 MSTORE POP PUSH2 0xEBE JUMP JUMPDEST DUP2 DUP2 PUSH1 0x6 DUP2 LT PUSH2 0xE1A JUMPI PUSH2 0xE1A PUSH2 0x27A8 JUMP JUMPDEST PUSH1 0x20 MUL ADD MLOAD PUSH1 0xE0 ADD DUP1 MLOAD SWAP1 PUSH2 0xE00 DUP3 PUSH2 0x2806 JUMP JUMPDEST DUP2 DUP2 PUSH1 0x6 DUP2 LT PUSH2 0xE40 JUMPI PUSH2 0xE40 PUSH2 0x27A8 JUMP JUMPDEST PUSH1 0x20 MUL ADD MLOAD PUSH2 0x140 ADD MLOAD DUP3 DUP3 PUSH1 0x6 DUP2 LT PUSH2 0xE5C JUMPI PUSH2 0xE5C PUSH2 0x27A8 JUMP JUMPDEST PUSH1 0x20 MUL ADD MLOAD PUSH2 0x100 ADD MLOAD LT ISZERO PUSH2 0xE93 JUMPI DUP2 DUP2 PUSH1 0x6 DUP2 LT PUSH2 0xE7E JUMPI PUSH2 0xE7E PUSH2 0x27A8 JUMP JUMPDEST PUSH1 0x20 MUL ADD MLOAD PUSH2 0x100 ADD DUP1 MLOAD SWAP1 PUSH2 0xE00 DUP3 PUSH2 0x27ED JUMP JUMPDEST DUP2 DUP2 PUSH1 0x6 DUP2 LT PUSH2 0xEA5 JUMPI PUSH2 0xEA5 PUSH2 0x27A8 JUMP JUMPDEST PUSH1 0x20 MUL ADD MLOAD PUSH2 0x100 ADD DUP1 MLOAD SWAP1 PUSH2 0xEBA DUP3 PUSH2 0x2806 JUMP JUMPDEST SWAP1 MSTORE POP JUMPDEST DUP2 DUP2 PUSH1 0x6 DUP2 LT PUSH2 0xED0 JUMPI PUSH2 0xED0 PUSH2 0x27A8 JUMP JUMPDEST PUSH1 0x20 MUL ADD MLOAD PUSH2 0x120 ADD MLOAD DUP3 DUP3 PUSH1 0x6 DUP2 LT PUSH2 0xEEC JUMPI PUSH2 0xEEC PUSH2 0x27A8 JUMP JUMPDEST PUSH1 0x20 MUL ADD MLOAD PUSH1 0xE0 ADD MLOAD EQ DUP1 ISZERO PUSH2 0xF37 JUMPI POP DUP2 DUP2 PUSH1 0x6 DUP2 LT PUSH2 0xF0F JUMPI PUSH2 0xF0F PUSH2 0x27A8 JUMP JUMPDEST PUSH1 0x20 MUL ADD MLOAD PUSH2 0x140 ADD MLOAD DUP3 DUP3 PUSH1 0x6 DUP2 LT PUSH2 0xF2B JUMPI PUSH2 0xF2B PUSH2 0x27A8 JUMP JUMPDEST PUSH1 0x20 MUL ADD MLOAD PUSH2 0x100 ADD MLOAD EQ JUMPDEST ISZERO PUSH2 0xF81 JUMPI PUSH1 0x0 DUP3 DUP3 PUSH1 0x6 DUP2 LT PUSH2 0xF50 JUMPI PUSH2 0xF50 PUSH2 0x27A8 JUMP JUMPDEST PUSH1 0x20 MUL ADD MLOAD PUSH1 0x60 ADD SWAP1 PUSH1 0x3 DUP2 GT ISZERO PUSH2 0xF6A JUMPI PUSH2 0xF6A PUSH2 0x245A JUMP JUMPDEST SWAP1 DUP2 PUSH1 0x3 DUP2 GT ISZERO PUSH2 0xF7D JUMPI PUSH2 0xF7D PUSH2 0x245A JUMP JUMPDEST SWAP1 MSTORE POP JUMPDEST PUSH1 0x0 JUMPDEST PUSH1 0x6 DUP2 LT ISZERO PUSH2 0x1563 JUMPI DUP1 DUP3 EQ PUSH2 0x1551 JUMPI PUSH1 0x3 DUP4 DUP3 PUSH1 0x6 DUP2 LT PUSH2 0xFA8 JUMPI PUSH2 0xFA8 PUSH2 0x27A8 JUMP JUMPDEST PUSH1 0x20 MUL ADD MLOAD PUSH1 0x60 ADD MLOAD PUSH1 0x3 DUP2 GT ISZERO PUSH2 0xFC2 JUMPI PUSH2 0xFC2 PUSH2 0x245A JUMP JUMPDEST EQ PUSH2 0x1551 JUMPI DUP3 DUP2 PUSH1 0x6 DUP2 LT PUSH2 0xFD9 JUMPI PUSH2 0xFD9 PUSH2 0x27A8 JUMP JUMPDEST PUSH1 0x20 MUL ADD MLOAD PUSH1 0xE0 ADD MLOAD DUP4 DUP4 PUSH1 0x6 DUP2 LT PUSH2 0xFF4 JUMPI PUSH2 0xFF4 PUSH2 0x27A8 JUMP JUMPDEST PUSH1 0x20 MUL ADD MLOAD PUSH1 0xE0 ADD MLOAD EQ DUP1 ISZERO PUSH2 0x103F JUMPI POP DUP3 DUP2 PUSH1 0x6 DUP2 LT PUSH2 0x1017 JUMPI PUSH2 0x1017 PUSH2 0x27A8 JUMP JUMPDEST PUSH1 0x20 MUL ADD MLOAD PUSH2 0x100 ADD MLOAD DUP4 DUP4 PUSH1 0x6 DUP2 LT PUSH2 0x1033 JUMPI PUSH2 0x1033 PUSH2 0x27A8 JUMP JUMPDEST PUSH1 0x20 MUL ADD MLOAD PUSH2 0x100 ADD MLOAD EQ JUMPDEST ISZERO PUSH2 0x10CD JUMPI PUSH1 0x2 DUP4 DUP4 PUSH1 0x6 DUP2 LT PUSH2 0x1058 JUMPI PUSH2 0x1058 PUSH2 0x27A8 JUMP JUMPDEST PUSH1 0x20 MUL ADD MLOAD PUSH1 0x60 ADD SWAP1 PUSH1 0x3 DUP2 GT ISZERO PUSH2 0x1072 JUMPI PUSH2 0x1072 PUSH2 0x245A JUMP JUMPDEST SWAP1 DUP2 PUSH1 0x3 DUP2 GT ISZERO PUSH2 0x1085 JUMPI PUSH2 0x1085 PUSH2 0x245A JUMP JUMPDEST SWAP1 MSTORE POP PUSH1 0x2 DUP4 DUP3 PUSH1 0x6 DUP2 LT PUSH2 0x109C JUMPI PUSH2 0x109C PUSH2 0x27A8 JUMP JUMPDEST PUSH1 0x20 MUL ADD MLOAD PUSH1 0x60 ADD SWAP1 PUSH1 0x3 DUP2 GT ISZERO PUSH2 0x10B6 JUMPI PUSH2 0x10B6 PUSH2 0x245A JUMP JUMPDEST SWAP1 DUP2 PUSH1 0x3 DUP2 GT ISZERO PUSH2 0x10C9 JUMPI PUSH2 0x10C9 PUSH2 0x245A JUMP JUMPDEST SWAP1 MSTORE POP JUMPDEST PUSH1 0x2 DUP4 DUP4 PUSH1 0x6 DUP2 LT PUSH2 0x10E1 JUMPI PUSH2 0x10E1 PUSH2 0x27A8 JUMP JUMPDEST PUSH1 0x20 MUL ADD MLOAD PUSH1 0x60 ADD MLOAD PUSH1 0x3 DUP2 GT ISZERO PUSH2 0x10FB JUMPI PUSH2 0x10FB PUSH2 0x245A JUMP JUMPDEST SUB PUSH2 0x1483 JUMPI PUSH1 0x0 DUP4 DUP4 PUSH1 0x6 DUP2 LT PUSH2 0x1114 JUMPI PUSH2 0x1114 PUSH2 0x27A8 JUMP JUMPDEST PUSH1 0x20 MUL ADD MLOAD PUSH1 0x40 ADD MLOAD PUSH1 0x2 DUP2 GT ISZERO PUSH2 0x112E JUMPI PUSH2 0x112E PUSH2 0x245A JUMP JUMPDEST SUB PUSH2 0x124C JUMPI PUSH1 0x0 DUP4 DUP3 PUSH1 0x6 DUP2 LT PUSH2 0x1147 JUMPI PUSH2 0x1147 PUSH2 0x27A8 JUMP JUMPDEST PUSH1 0x20 MUL ADD MLOAD PUSH1 0x40 ADD MLOAD PUSH1 0x2 DUP2 GT ISZERO PUSH2 0x1161 JUMPI PUSH2 0x1161 PUSH2 0x245A JUMP JUMPDEST SUB PUSH2 0x11CE JUMPI PUSH1 0x2 PUSH2 0x1172 PUSH1 0x1 PUSH2 0x2256 JUMP JUMPDEST PUSH2 0x117C SWAP2 SWAP1 PUSH2 0x281D JUMP JUMPDEST PUSH1 0x0 SUB PUSH2 0x11C9 JUMPI DUP3 DUP3 PUSH1 0x6 DUP2 LT PUSH2 0x1195 JUMPI PUSH2 0x1195 PUSH2 0x27A8 JUMP JUMPDEST PUSH1 0x20 MUL ADD MLOAD PUSH1 0xA0 ADD MLOAD DUP4 DUP3 PUSH1 0x6 DUP2 LT PUSH2 0x11B0 JUMPI PUSH2 0x11B0 PUSH2 0x27A8 JUMP JUMPDEST PUSH1 0x20 MUL ADD MLOAD PUSH1 0x80 ADD DUP2 DUP2 MLOAD PUSH2 0x11C5 SWAP2 SWAP1 PUSH2 0x27D4 JUMP JUMPDEST SWAP1 MSTORE POP JUMPDEST PUSH2 0x1483 JUMP JUMPDEST PUSH1 0x1 DUP4 DUP3 PUSH1 0x6 DUP2 LT PUSH2 0x11E2 JUMPI PUSH2 0x11E2 PUSH2 0x27A8 JUMP JUMPDEST PUSH1 0x20 MUL ADD MLOAD PUSH1 0x40 ADD MLOAD PUSH1 0x2 DUP2 GT ISZERO PUSH2 0x11FC JUMPI PUSH2 0x11FC PUSH2 0x245A JUMP JUMPDEST SUB PUSH2 0x120D JUMPI PUSH1 0x2 PUSH2 0x1172 PUSH1 0x5 PUSH2 0x2256 JUMP JUMPDEST PUSH1 0x2 DUP4 DUP3 PUSH1 0x6 DUP2 LT PUSH2 0x1221 JUMPI PUSH2 0x1221 PUSH2 0x27A8 JUMP JUMPDEST PUSH1 0x20 MUL ADD MLOAD PUSH1 0x40 ADD MLOAD PUSH1 0x2 DUP2 GT ISZERO PUSH2 0x123B JUMPI PUSH2 0x123B PUSH2 0x245A JUMP JUMPDEST SUB PUSH2 0x11C9 JUMPI PUSH1 0x2 PUSH2 0x1172 PUSH1 0x3 PUSH2 0x2256 JUMP JUMPDEST PUSH1 0x1 DUP4 DUP4 PUSH1 0x6 DUP2 LT PUSH2 0x1260 JUMPI PUSH2 0x1260 PUSH2 0x27A8 JUMP JUMPDEST PUSH1 0x20 MUL ADD MLOAD PUSH1 0x40 ADD MLOAD PUSH1 0x2 DUP2 GT ISZERO PUSH2 0x127A JUMPI PUSH2 0x127A PUSH2 0x245A JUMP JUMPDEST SUB PUSH2 0x133C JUMPI PUSH1 0x0 DUP4 DUP3 PUSH1 0x6 DUP2 LT PUSH2 0x1293 JUMPI PUSH2 0x1293 PUSH2 0x27A8 JUMP JUMPDEST PUSH1 0x20 MUL ADD MLOAD PUSH1 0x40 ADD MLOAD PUSH1 0x2 DUP2 GT ISZERO PUSH2 0x12AD JUMPI PUSH2 0x12AD PUSH2 0x245A JUMP JUMPDEST SUB PUSH2 0x12BE JUMPI PUSH1 0x2 PUSH2 0x1172 PUSH1 0x2 PUSH2 0x2256 JUMP JUMPDEST PUSH1 0x1 DUP4 DUP3 PUSH1 0x6 DUP2 LT PUSH2 0x12D2 JUMPI PUSH2 0x12D2 PUSH2 0x27A8 JUMP JUMPDEST PUSH1 0x20 MUL ADD MLOAD PUSH1 0x40 ADD MLOAD PUSH1 0x2 DUP2 GT ISZERO PUSH2 0x12EC JUMPI PUSH2 0x12EC PUSH2 0x245A JUMP JUMPDEST SUB PUSH2 0x12FD JUMPI PUSH1 0x2 PUSH2 0x1172 PUSH1 0x6 PUSH2 0x2256 JUMP JUMPDEST PUSH1 0x2 DUP4 DUP3 PUSH1 0x6 DUP2 LT PUSH2 0x1311 JUMPI PUSH2 0x1311 PUSH2 0x27A8 JUMP JUMPDEST PUSH1 0x20 MUL ADD MLOAD PUSH1 0x40 ADD MLOAD PUSH1 0x2 DUP2 GT ISZERO PUSH2 0x132B JUMPI PUSH2 0x132B PUSH2 0x245A JUMP JUMPDEST SUB PUSH2 0x11C9 JUMPI PUSH1 0x2 PUSH2 0x1172 PUSH1 0x7 PUSH2 0x2256 JUMP JUMPDEST PUSH1 0x2 DUP4 DUP4 PUSH1 0x6 DUP2 LT PUSH2 0x1350 JUMPI PUSH2 0x1350 PUSH2 0x27A8 JUMP JUMPDEST PUSH1 0x20 MUL ADD MLOAD PUSH1 0x40 ADD MLOAD PUSH1 0x2 DUP2 GT ISZERO PUSH2 0x136A JUMPI PUSH2 0x136A PUSH2 0x245A JUMP JUMPDEST SUB PUSH2 0x1483 JUMPI PUSH1 0x0 DUP4 DUP3 PUSH1 0x6 DUP2 LT PUSH2 0x1383 JUMPI PUSH2 0x1383 PUSH2 0x27A8 JUMP JUMPDEST PUSH1 0x20 MUL ADD MLOAD PUSH1 0x40 ADD MLOAD PUSH1 0x2 DUP2 GT ISZERO PUSH2 0x139D JUMPI PUSH2 0x139D PUSH2 0x245A JUMP JUMPDEST SUB PUSH2 0x13AE JUMPI PUSH1 0x2 PUSH2 0x1172 PUSH1 0x3 PUSH2 0x2256 JUMP JUMPDEST PUSH1 0x1 DUP4 DUP3 PUSH1 0x6 DUP2 LT PUSH2 0x13C2 JUMPI PUSH2 0x13C2 PUSH2 0x27A8 JUMP JUMPDEST PUSH1 0x20 MUL ADD MLOAD PUSH1 0x40 ADD MLOAD PUSH1 0x2 DUP2 GT ISZERO PUSH2 0x13DC JUMPI PUSH2 0x13DC PUSH2 0x245A JUMP JUMPDEST SUB PUSH2 0x13ED JUMPI PUSH1 0x2 PUSH2 0x1172 PUSH1 0x1 PUSH2 0x2256 JUMP JUMPDEST PUSH1 0x2 DUP4 DUP3 PUSH1 0x6 DUP2 LT PUSH2 0x1401 JUMPI PUSH2 0x1401 PUSH2 0x27A8 JUMP JUMPDEST PUSH1 0x20 MUL ADD MLOAD PUSH1 0x40 ADD MLOAD PUSH1 0x2 DUP2 GT ISZERO PUSH2 0x141B JUMPI PUSH2 0x141B PUSH2 0x245A JUMP JUMPDEST SUB PUSH2 0x1483 JUMPI PUSH1 0x2 PUSH2 0x142C PUSH1 0x4 PUSH2 0x2256 JUMP JUMPDEST PUSH2 0x1436 SWAP2 SWAP1 PUSH2 0x281D JUMP JUMPDEST PUSH1 0x0 SUB PUSH2 0x1483 JUMPI DUP3 DUP3 PUSH1 0x6 DUP2 LT PUSH2 0x144F JUMPI PUSH2 0x144F PUSH2 0x27A8 JUMP JUMPDEST PUSH1 0x20 MUL ADD MLOAD PUSH1 0xA0 ADD MLOAD DUP4 DUP3 PUSH1 0x6 DUP2 LT PUSH2 0x146A JUMPI PUSH2 0x146A PUSH2 0x27A8 JUMP JUMPDEST PUSH1 0x20 MUL ADD MLOAD PUSH1 0x80 ADD DUP2 DUP2 MLOAD PUSH2 0x147F SWAP2 SWAP1 PUSH2 0x27D4 JUMP JUMPDEST SWAP1 MSTORE POP JUMPDEST PUSH1 0xA DUP4 DUP4 PUSH1 0x6 DUP2 LT PUSH2 0x1497 JUMPI PUSH2 0x1497 PUSH2 0x27A8 JUMP JUMPDEST PUSH1 0x20 MUL ADD MLOAD PUSH1 0x80 ADD MLOAD GT PUSH2 0x14EA JUMPI PUSH1 0x3 DUP4 DUP4 PUSH1 0x6 DUP2 LT PUSH2 0x14B9 JUMPI PUSH2 0x14B9 PUSH2 0x27A8 JUMP JUMPDEST PUSH1 0x20 MUL ADD MLOAD PUSH1 0x60 ADD SWAP1 PUSH1 0x3 DUP2 GT ISZERO PUSH2 0x14D3 JUMPI PUSH2 0x14D3 PUSH2 0x245A JUMP JUMPDEST SWAP1 DUP2 PUSH1 0x3 DUP2 GT ISZERO PUSH2 0x14E6 JUMPI PUSH2 0x14E6 PUSH2 0x245A JUMP JUMPDEST SWAP1 MSTORE POP JUMPDEST PUSH1 0xA DUP4 DUP3 PUSH1 0x6 DUP2 LT PUSH2 0x14FE JUMPI PUSH2 0x14FE PUSH2 0x27A8 JUMP JUMPDEST PUSH1 0x20 MUL ADD MLOAD PUSH1 0x80 ADD MLOAD GT PUSH2 0x1551 JUMPI PUSH1 0x3 DUP4 DUP3 PUSH1 0x6 DUP2 LT PUSH2 0x1520 JUMPI PUSH2 0x1520 PUSH2 0x27A8 JUMP JUMPDEST PUSH1 0x20 MUL ADD MLOAD PUSH1 0x60 ADD SWAP1 PUSH1 0x3 DUP2 GT ISZERO PUSH2 0x153A JUMPI PUSH2 0x153A PUSH2 0x245A JUMP JUMPDEST SWAP1 DUP2 PUSH1 0x3 DUP2 GT ISZERO PUSH2 0x154D JUMPI PUSH2 0x154D PUSH2 0x245A JUMP JUMPDEST SWAP1 MSTORE POP JUMPDEST DUP1 PUSH2 0x155B DUP2 PUSH2 0x27ED JUMP JUMPDEST SWAP2 POP POP PUSH2 0xF84 JUMP JUMPDEST POP JUMPDEST DUP1 PUSH2 0x156F DUP2 PUSH2 0x27ED JUMP JUMPDEST SWAP2 POP POP PUSH2 0xCF2 JUMP JUMPDEST POP PUSH1 0x1 PUSH1 0x0 JUMPDEST PUSH1 0x6 DUP2 LT ISZERO PUSH2 0x15D0 JUMPI PUSH1 0x3 DUP4 DUP3 PUSH1 0x6 DUP2 LT PUSH2 0x159A JUMPI PUSH2 0x159A PUSH2 0x27A8 JUMP JUMPDEST PUSH1 0x20 MUL ADD MLOAD PUSH1 0x60 ADD MLOAD PUSH1 0x3 DUP2 GT ISZERO PUSH2 0x15B4 JUMPI PUSH2 0x15B4 PUSH2 0x245A JUMP JUMPDEST EQ PUSH2 0x15BE JUMPI PUSH1 0x0 SWAP2 POP JUMPDEST DUP1 PUSH2 0x15C8 DUP2 PUSH2 0x27ED JUMP JUMPDEST SWAP2 POP POP PUSH2 0x157D JUMP JUMPDEST POP DUP1 ISZERO PUSH2 0x15F4 JUMPI PUSH1 0x0 DUP4 DUP2 MSTORE PUSH1 0x4 PUSH1 0x20 MSTORE PUSH1 0x40 SWAP1 KECCAK256 PUSH1 0xB ADD DUP1 SLOAD PUSH1 0xFF NOT AND PUSH1 0x3 OR SWAP1 SSTORE JUMPDEST PUSH1 0x0 JUMPDEST PUSH1 0x6 DUP2 LT ISZERO PUSH2 0x1740 JUMPI DUP3 DUP2 PUSH1 0x6 DUP2 LT PUSH2 0x1612 JUMPI PUSH2 0x1612 PUSH2 0x27A8 JUMP JUMPDEST PUSH1 0x20 MUL ADD MLOAD PUSH1 0x3 PUSH1 0x0 DUP6 DUP5 PUSH1 0x6 DUP2 LT PUSH2 0x162D JUMPI PUSH2 0x162D PUSH2 0x27A8 JUMP JUMPDEST PUSH1 0x20 SWAP1 DUP2 MUL SWAP2 SWAP1 SWAP2 ADD MLOAD MLOAD DUP3 MSTORE DUP2 DUP2 ADD SWAP3 SWAP1 SWAP3 MSTORE PUSH1 0x40 SWAP1 DUP2 ADD PUSH1 0x0 KECCAK256 DUP4 MLOAD DUP2 SSTORE SWAP2 DUP4 ADD MLOAD PUSH1 0x1 DUP4 ADD DUP1 SLOAD PUSH1 0x1 PUSH1 0x1 PUSH1 0xA0 SHL SUB SWAP1 SWAP3 AND PUSH1 0x1 PUSH1 0x1 PUSH1 0xA0 SHL SUB NOT DUP4 AND DUP2 OR DUP3 SSTORE SWAP3 DUP6 ADD MLOAD SWAP3 SWAP1 SWAP2 PUSH1 0x1 PUSH1 0x1 PUSH1 0xA8 SHL SUB NOT AND OR PUSH1 0x1 PUSH1 0xA0 SHL DUP4 PUSH1 0x2 DUP2 GT ISZERO PUSH2 0x169A JUMPI PUSH2 0x169A PUSH2 0x245A JUMP JUMPDEST MUL OR SWAP1 SSTORE POP PUSH1 0x60 DUP3 ADD MLOAD PUSH1 0x1 DUP3 ADD DUP1 SLOAD PUSH1 0xFF PUSH1 0xA8 SHL NOT AND PUSH1 0x1 PUSH1 0xA8 SHL DUP4 PUSH1 0x3 DUP2 GT ISZERO PUSH2 0x16C8 JUMPI PUSH2 0x16C8 PUSH2 0x245A JUMP JUMPDEST MUL OR SWAP1 SSTORE POP PUSH1 0x80 DUP3 ADD MLOAD PUSH1 0x2 DUP3 ADD SSTORE PUSH1 0xA0 DUP3 ADD MLOAD PUSH1 0x3 DUP3 ADD SSTORE PUSH1 0xC0 DUP3 ADD MLOAD PUSH1 0x4 DUP3 ADD SSTORE PUSH1 0xE0 DUP3 ADD MLOAD PUSH1 0x5 DUP3 ADD SSTORE PUSH2 0x100 DUP3 ADD MLOAD PUSH1 0x6 DUP3 ADD SSTORE PUSH2 0x120 DUP3 ADD MLOAD PUSH1 0x7 DUP3 ADD SSTORE PUSH2 0x140 DUP3 ADD MLOAD PUSH1 0x8 DUP3 ADD SSTORE PUSH2 0x160 DUP3 ADD MLOAD PUSH1 0x9 DUP3 ADD SSTORE PUSH2 0x180 SWAP1 SWAP2 ADD MLOAD PUSH1 0xA SWAP1 SWAP2 ADD SSTORE DUP1 PUSH2 0x1738 DUP2 PUSH2 0x27ED JUMP JUMPDEST SWAP2 POP POP PUSH2 0x15F7 JUMP JUMPDEST POP POP POP POP JUMP JUMPDEST PUSH1 0x4 PUSH1 0x20 SWAP1 DUP2 MSTORE PUSH1 0x0 SWAP2 DUP3 MSTORE PUSH1 0x40 SWAP2 DUP3 SWAP1 KECCAK256 DUP1 SLOAD DUP4 MLOAD PUSH1 0x80 DUP2 ADD SWAP1 SWAP5 MSTORE PUSH1 0x1 DUP3 ADD DUP1 SLOAD PUSH1 0x1 PUSH1 0x1 PUSH1 0xA0 SHL SUB DUP2 AND DUP7 MSTORE SWAP2 SWAP5 SWAP3 SWAP4 SWAP1 SWAP2 SWAP1 DUP4 ADD SWAP1 PUSH1 0x1 PUSH1 0xA0 SHL SWAP1 DIV PUSH1 0xFF AND PUSH1 0x3 DUP2 GT ISZERO PUSH2 0x179A JUMPI PUSH2 0x179A PUSH2 0x245A JUMP JUMPDEST PUSH1 0x3 DUP2 GT ISZERO PUSH2 0x17AB JUMPI PUSH2 0x17AB PUSH2 0x245A JUMP JUMPDEST DUP2 MSTORE PUSH1 0x40 DUP1 MLOAD PUSH1 0x60 DUP2 ADD SWAP2 DUP3 SWAP1 MSTORE PUSH1 0x20 SWAP1 SWAP3 ADD SWAP2 SWAP1 PUSH1 0x1 DUP5 ADD SWAP1 PUSH1 0x3 SWAP1 DUP3 DUP5 JUMPDEST DUP2 SLOAD DUP2 MSTORE PUSH1 0x20 ADD SWAP1 PUSH1 0x1 ADD SWAP1 DUP1 DUP4 GT PUSH2 0x17CB JUMPI POP POP POP SWAP2 DUP4 MSTORE POP POP PUSH1 0x4 SWAP2 SWAP1 SWAP2 ADD SLOAD PUSH1 0x20 SWAP2 DUP3 ADD MSTORE PUSH1 0x40 DUP1 MLOAD PUSH1 0x80 DUP2 ADD SWAP1 SWAP2 MSTORE PUSH1 0x6 DUP5 ADD DUP1 SLOAD PUSH1 0x1 PUSH1 0x1 PUSH1 0xA0 SHL SUB DUP2 AND DUP4 MSTORE SWAP4 SWAP5 SWAP4 SWAP2 SWAP3 SWAP1 SWAP2 SWAP1 DUP4 ADD SWAP1 PUSH1 0x1 PUSH1 0xA0 SHL SWAP1 DIV PUSH1 0xFF AND PUSH1 0x3 DUP2 GT ISZERO PUSH2 0x1836 JUMPI PUSH2 0x1836 PUSH2 0x245A JUMP JUMPDEST PUSH1 0x3 DUP2 GT ISZERO PUSH2 0x1847 JUMPI PUSH2 0x1847 PUSH2 0x245A JUMP JUMPDEST DUP2 MSTORE PUSH1 0x40 DUP1 MLOAD PUSH1 0x60 DUP2 ADD SWAP2 DUP3 SWAP1 MSTORE PUSH1 0x20 SWAP1 SWAP3 ADD SWAP2 SWAP1 PUSH1 0x1 DUP5 ADD SWAP1 PUSH1 0x3 SWAP1 DUP3 DUP5 JUMPDEST DUP2 SLOAD DUP2 MSTORE PUSH1 0x20 ADD SWAP1 PUSH1 0x1 ADD SWAP1 DUP1 DUP4 GT PUSH2 0x1867 JUMPI POP POP POP SWAP2 DUP4 MSTORE POP POP PUSH1 0x4 SWAP2 SWAP1 SWAP2 ADD SLOAD PUSH1 0x20 SWAP1 SWAP2 ADD MSTORE PUSH1 0xB DUP3 ADD SLOAD PUSH1 0xC SWAP1 SWAP3 ADD SLOAD SWAP1 SWAP2 PUSH1 0xFF AND SWAP1 DUP6 JUMP JUMPDEST PUSH2 0x18AB PUSH2 0x22E6 JUMP JUMPDEST PUSH1 0x1 PUSH1 0x0 DUP4 DUP2 MSTORE PUSH1 0x4 PUSH1 0x20 MSTORE PUSH1 0x40 SWAP1 KECCAK256 PUSH1 0xB ADD SLOAD PUSH1 0xFF AND PUSH1 0x3 DUP2 GT ISZERO PUSH2 0x18D3 JUMPI PUSH2 0x18D3 PUSH2 0x245A JUMP JUMPDEST EQ PUSH2 0x1912 JUMPI PUSH1 0x40 MLOAD PUSH3 0x461BCD PUSH1 0xE5 SHL DUP2 MSTORE PUSH1 0x20 PUSH1 0x4 DUP3 ADD MSTORE PUSH1 0xF PUSH1 0x24 DUP3 ADD MSTORE PUSH15 0x125B9D985B1A590813585D18DA1259 PUSH1 0x8A SHL PUSH1 0x44 DUP3 ADD MSTORE PUSH1 0x64 ADD PUSH2 0x2B2 JUMP JUMPDEST PUSH1 0x0 DUP3 DUP2 MSTORE PUSH1 0x4 PUSH1 0x20 MSTORE PUSH1 0x40 SWAP1 KECCAK256 PUSH1 0x1 ADD SLOAD CALLER PUSH1 0x1 PUSH1 0x1 PUSH1 0xA0 SHL SUB SWAP1 SWAP2 AND SUB PUSH2 0x197D JUMPI PUSH1 0x40 MLOAD PUSH3 0x461BCD PUSH1 0xE5 SHL DUP2 MSTORE PUSH1 0x20 PUSH1 0x4 DUP3 ADD MSTORE PUSH1 0x1A PUSH1 0x24 DUP3 ADD MSTORE PUSH32 0x596F752063616E277420626174746C6520796F757273656C662E000000000000 PUSH1 0x44 DUP3 ADD MSTORE PUSH1 0x64 ADD PUSH2 0x2B2 JUMP JUMPDEST PUSH1 0x0 CALLER PUSH1 0x0 SWAP1 DUP2 MSTORE PUSH1 0x2 PUSH1 0x20 MSTORE PUSH1 0x40 SWAP1 KECCAK256 SLOAD PUSH1 0x1 PUSH1 0xA0 SHL SWAP1 DIV PUSH1 0xFF AND PUSH1 0x3 DUP2 GT ISZERO PUSH2 0x19AA JUMPI PUSH2 0x19AA PUSH2 0x245A JUMP JUMPDEST SUB PUSH2 0x19B9 JUMPI PUSH2 0x19B7 PUSH2 0x1BFE JUMP JUMPDEST POP JUMPDEST CALLER PUSH1 0x0 SWAP1 DUP2 MSTORE PUSH1 0x2 PUSH1 0x20 SWAP1 DUP2 MSTORE PUSH1 0x40 DUP1 DUP4 KECCAK256 DUP6 DUP5 MSTORE PUSH1 0x4 SWAP1 SWAP3 MSTORE SWAP1 SWAP2 KECCAK256 DUP2 SLOAD PUSH1 0x6 SWAP1 SWAP2 ADD DUP1 SLOAD PUSH1 0x1 PUSH1 0x1 PUSH1 0xA0 SHL SUB NOT DUP2 AND PUSH1 0x1 PUSH1 0x1 PUSH1 0xA0 SHL SUB SWAP4 SWAP1 SWAP4 AND SWAP3 DUP4 OR DUP3 SSTORE DUP4 SLOAD SWAP2 SWAP3 PUSH1 0xFF PUSH1 0x1 PUSH1 0xA0 SHL SWAP4 DUP5 SWAP1 DIV AND SWAP3 DUP5 SWAP3 PUSH1 0x1 PUSH1 0x1 PUSH1 0xA8 SHL SUB NOT AND SWAP1 SWAP2 OR SWAP1 DUP4 PUSH1 0x3 DUP2 GT ISZERO PUSH2 0x1A2E JUMPI PUSH2 0x1A2E PUSH2 0x245A JUMP JUMPDEST MUL OR SWAP1 SSTORE POP PUSH2 0x1A45 PUSH1 0x1 DUP3 DUP2 ADD SWAP1 DUP5 ADD PUSH1 0x3 PUSH2 0x2360 JUMP JUMPDEST POP PUSH1 0x4 SWAP2 DUP3 ADD SLOAD SWAP1 DUP3 ADD SSTORE PUSH1 0x0 DUP4 DUP2 MSTORE PUSH1 0x20 SWAP2 DUP3 MSTORE PUSH1 0x40 SWAP1 DUP2 SWAP1 KECCAK256 PUSH1 0xB DUP2 ADD DUP1 SLOAD PUSH1 0xFF NOT AND PUSH1 0x2 OR SWAP1 SSTORE DUP2 MLOAD PUSH1 0xA0 DUP2 ADD DUP4 MSTORE DUP2 SLOAD DUP2 MSTORE DUP3 MLOAD PUSH1 0x80 DUP2 ADD SWAP1 SWAP4 MSTORE PUSH1 0x1 DUP3 ADD DUP1 SLOAD PUSH1 0x1 PUSH1 0x1 PUSH1 0xA0 SHL SUB DUP2 AND DUP6 MSTORE SWAP2 SWAP5 SWAP3 SWAP4 DUP6 DUP5 ADD SWAP4 SWAP1 SWAP3 SWAP1 DUP4 ADD SWAP1 PUSH1 0xFF PUSH1 0x1 PUSH1 0xA0 SHL SWAP1 SWAP2 DIV AND PUSH1 0x3 DUP2 GT ISZERO PUSH2 0x1AC0 JUMPI PUSH2 0x1AC0 PUSH2 0x245A JUMP JUMPDEST PUSH1 0x3 DUP2 GT ISZERO PUSH2 0x1AD1 JUMPI PUSH2 0x1AD1 PUSH2 0x245A JUMP JUMPDEST DUP2 MSTORE PUSH1 0x40 DUP1 MLOAD PUSH1 0x60 DUP2 ADD SWAP2 DUP3 SWAP1 MSTORE PUSH1 0x20 SWAP1 SWAP3 ADD SWAP2 SWAP1 PUSH1 0x1 DUP5 ADD SWAP1 PUSH1 0x3 SWAP1 DUP3 DUP5 JUMPDEST DUP2 SLOAD DUP2 MSTORE PUSH1 0x20 ADD SWAP1 PUSH1 0x1 ADD SWAP1 DUP1 DUP4 GT PUSH2 0x1AF1 JUMPI POP POP POP SWAP2 DUP4 MSTORE POP POP PUSH1 0x4 SWAP2 SWAP1 SWAP2 ADD SLOAD PUSH1 0x20 SWAP2 DUP3 ADD MSTORE SWAP1 DUP3 MSTORE PUSH1 0x40 DUP1 MLOAD PUSH1 0x80 DUP2 ADD SWAP1 SWAP2 MSTORE PUSH1 0x6 DUP5 ADD DUP1 SLOAD PUSH1 0x1 PUSH1 0x1 PUSH1 0xA0 SHL SUB DUP2 AND DUP4 MSTORE SWAP4 DUP4 ADD SWAP4 SWAP2 SWAP3 SWAP1 SWAP2 SWAP1 DUP4 ADD SWAP1 PUSH1 0x1 PUSH1 0xA0 SHL SWAP1 DIV PUSH1 0xFF AND PUSH1 0x3 DUP2 GT ISZERO PUSH2 0x1B60 JUMPI PUSH2 0x1B60 PUSH2 0x245A JUMP JUMPDEST PUSH1 0x3 DUP2 GT ISZERO PUSH2 0x1B71 JUMPI PUSH2 0x1B71 PUSH2 0x245A JUMP JUMPDEST DUP2 MSTORE PUSH1 0x40 DUP1 MLOAD PUSH1 0x60 DUP2 ADD SWAP2 DUP3 SWAP1 MSTORE PUSH1 0x20 SWAP1 SWAP3 ADD SWAP2 SWAP1 PUSH1 0x1 DUP5 ADD SWAP1 PUSH1 0x3 SWAP1 DUP3 DUP5 JUMPDEST DUP2 SLOAD DUP2 MSTORE PUSH1 0x20 ADD SWAP1 PUSH1 0x1 ADD SWAP1 DUP1 DUP4 GT PUSH2 0x1B91 JUMPI POP POP POP SWAP2 DUP4 MSTORE POP POP PUSH1 0x4 SWAP2 SWAP1 SWAP2 ADD SLOAD PUSH1 0x20 SWAP2 DUP3 ADD MSTORE SWAP1 DUP3 MSTORE PUSH1 0xB DUP4 ADD SLOAD SWAP2 ADD SWAP1 PUSH1 0xFF AND PUSH1 0x3 DUP2 GT ISZERO PUSH2 0x1BD8 JUMPI PUSH2 0x1BD8 PUSH2 0x245A JUMP JUMPDEST PUSH1 0x3 DUP2 GT ISZERO PUSH2 0x1BE9 JUMPI PUSH2 0x1BE9 PUSH2 0x245A JUMP JUMPDEST DUP2 MSTORE PUSH1 0x20 ADD PUSH1 0xC DUP3 ADD SLOAD DUP2 MSTORE POP POP SWAP1 POP SWAP2 SWAP1 POP JUMP JUMPDEST PUSH2 0x1C06 PUSH2 0x238B JUMP JUMPDEST CALLER PUSH1 0x0 DUP2 DUP2 MSTORE PUSH1 0x2 PUSH1 0x20 MSTORE PUSH1 0x40 SWAP1 KECCAK256 SLOAD PUSH1 0x1 PUSH1 0x1 PUSH1 0xA0 SHL SUB AND SUB PUSH2 0x1C6C JUMPI PUSH1 0x40 MLOAD PUSH3 0x461BCD PUSH1 0xE5 SHL DUP2 MSTORE PUSH1 0x20 PUSH1 0x4 DUP3 ADD MSTORE PUSH1 0x1B PUSH1 0x24 DUP3 ADD MSTORE PUSH32 0x506C6179657220616C726561647920696E697469616C697A65642E0000000000 PUSH1 0x44 DUP3 ADD MSTORE PUSH1 0x64 ADD PUSH2 0x2B2 JUMP JUMPDEST PUSH2 0x1C74 PUSH2 0x23A6 JUMP JUMPDEST PUSH1 0x40 DUP1 MLOAD PUSH2 0x1A0 DUP2 ADD DUP3 MSTORE PUSH1 0x1 DUP1 SLOAD DUP1 DUP4 MSTORE CALLER PUSH1 0x20 DUP1 DUP6 ADD SWAP2 DUP3 MSTORE PUSH1 0x0 DUP6 DUP8 ADD DUP2 DUP2 MSTORE PUSH1 0x60 DUP8 ADD DUP3 SWAP1 MSTORE PUSH1 0x14 PUSH1 0x80 DUP9 ADD MSTORE PUSH1 0xA0 DUP8 ADD DUP7 SWAP1 MSTORE PUSH1 0xC0 DUP8 ADD DUP3 SWAP1 MSTORE PUSH1 0xE0 DUP8 ADD DUP3 SWAP1 MSTORE PUSH1 0x2 PUSH2 0x100 DUP9 ADD DUP2 SWAP1 MSTORE PUSH2 0x120 DUP9 ADD DUP4 SWAP1 MSTORE PUSH2 0x140 DUP9 ADD DUP2 SWAP1 MSTORE PUSH2 0x160 DUP9 ADD DUP4 SWAP1 MSTORE PUSH2 0x180 DUP9 ADD DUP4 SWAP1 MSTORE SWAP5 DUP3 MSTORE PUSH1 0x3 SWAP1 SWAP3 MSTORE SWAP6 SWAP1 SWAP6 KECCAK256 DUP5 MLOAD DUP2 SSTORE SWAP1 MLOAD SWAP3 DUP2 ADD DUP1 SLOAD PUSH1 0x1 PUSH1 0x1 PUSH1 0xA0 SHL SUB SWAP1 SWAP5 AND PUSH1 0x1 PUSH1 0x1 PUSH1 0xA0 SHL SUB NOT DUP6 AND DUP2 OR DUP3 SSTORE SWAP6 MLOAD SWAP5 SWAP6 DUP7 SWAP6 SWAP3 SWAP5 SWAP3 SWAP4 SWAP2 SWAP3 PUSH1 0x1 PUSH1 0x1 PUSH1 0xA8 SHL SUB NOT AND OR SWAP1 PUSH1 0x1 PUSH1 0xA0 SHL SWAP1 DUP5 SWAP1 DUP2 GT ISZERO PUSH2 0x1D44 JUMPI PUSH2 0x1D44 PUSH2 0x245A JUMP JUMPDEST MUL OR SWAP1 SSTORE POP PUSH1 0x60 DUP3 ADD MLOAD PUSH1 0x1 DUP3 ADD DUP1 SLOAD PUSH1 0xFF PUSH1 0xA8 SHL NOT AND PUSH1 0x1 PUSH1 0xA8 SHL DUP4 PUSH1 0x3 DUP2 GT ISZERO PUSH2 0x1D72 JUMPI PUSH2 0x1D72 PUSH2 0x245A JUMP JUMPDEST MUL OR SWAP1 SSTORE POP PUSH1 0x80 DUP3 ADD MLOAD PUSH1 0x2 DUP3 ADD SSTORE PUSH1 0xA0 DUP3 ADD MLOAD PUSH1 0x3 DUP3 ADD SSTORE PUSH1 0xC0 DUP3 ADD MLOAD PUSH1 0x4 DUP3 ADD SSTORE PUSH1 0xE0 DUP3 ADD MLOAD PUSH1 0x5 DUP3 ADD SSTORE PUSH2 0x100 DUP3 ADD MLOAD PUSH1 0x6 DUP3 ADD SSTORE PUSH2 0x120 DUP3 ADD MLOAD PUSH1 0x7 DUP3 ADD SSTORE PUSH2 0x140 DUP3 ADD MLOAD PUSH1 0x8 DUP3 ADD SSTORE PUSH2 0x160 DUP3 ADD MLOAD PUSH1 0x9 DUP3 ADD SSTORE PUSH2 0x180 SWAP1 SWAP2 ADD MLOAD PUSH1 0xA SWAP1 SWAP2 ADD SSTORE PUSH1 0x1 DUP1 SLOAD DUP1 DUP5 MSTORE SWAP1 PUSH1 0x0 PUSH2 0x1DEB DUP4 PUSH2 0x27ED JUMP JUMPDEST SWAP1 SWAP2 SSTORE POP POP PUSH1 0x40 DUP1 MLOAD PUSH2 0x1A0 DUP2 ADD DUP3 MSTORE PUSH1 0x1 DUP1 SLOAD DUP1 DUP4 MSTORE CALLER PUSH1 0x20 DUP1 DUP6 ADD SWAP2 DUP3 MSTORE DUP5 DUP7 ADD DUP5 DUP2 MSTORE PUSH1 0x0 PUSH1 0x60 DUP8 ADD DUP2 SWAP1 MSTORE PUSH1 0x19 PUSH1 0x80 DUP9 ADD MSTORE PUSH1 0x2 PUSH1 0xA0 DUP9 ADD DUP2 SWAP1 MSTORE PUSH1 0xC0 DUP9 ADD DUP3 SWAP1 MSTORE PUSH1 0xE0 DUP9 ADD DUP3 SWAP1 MSTORE PUSH1 0x5 PUSH2 0x100 DUP10 ADD DUP2 SWAP1 MSTORE PUSH2 0x120 DUP10 ADD DUP4 SWAP1 MSTORE PUSH2 0x140 DUP10 ADD MSTORE PUSH2 0x160 DUP9 ADD DUP3 SWAP1 MSTORE PUSH2 0x180 DUP9 ADD DUP3 SWAP1 MSTORE SWAP5 DUP2 MSTORE PUSH1 0x3 SWAP1 SWAP3 MSTORE SWAP6 SWAP1 KECCAK256 DUP5 MLOAD DUP2 SSTORE SWAP1 MLOAD SWAP3 DUP2 ADD DUP1 SLOAD PUSH1 0x1 PUSH1 0x1 PUSH1 0xA0 SHL SUB SWAP1 SWAP5 AND PUSH1 0x1 PUSH1 0x1 PUSH1 0xA0 SHL SUB NOT DUP6 AND DUP2 OR DUP3 SSTORE SWAP6 MLOAD SWAP5 SWAP6 DUP7 SWAP6 SWAP3 SWAP5 SWAP3 SWAP4 SWAP2 SWAP3 PUSH1 0x1 PUSH1 0x1 PUSH1 0xA8 SHL SUB NOT AND OR SWAP1 PUSH1 0x1 PUSH1 0xA0 SHL SWAP1 DUP5 SWAP1 DUP2 GT ISZERO PUSH2 0x1EBF JUMPI PUSH2 0x1EBF PUSH2 0x245A JUMP JUMPDEST MUL OR SWAP1 SSTORE POP PUSH1 0x60 DUP3 ADD MLOAD PUSH1 0x1 DUP3 ADD DUP1 SLOAD PUSH1 0xFF PUSH1 0xA8 SHL NOT AND PUSH1 0x1 PUSH1 0xA8 SHL DUP4 PUSH1 0x3 DUP2 GT ISZERO PUSH2 0x1EED JUMPI PUSH2 0x1EED PUSH2 0x245A JUMP JUMPDEST MUL OR SWAP1 SSTORE POP PUSH1 0x80 DUP3 ADD MLOAD PUSH1 0x2 DUP3 ADD SSTORE PUSH1 0xA0 DUP3 ADD MLOAD PUSH1 0x3 DUP3 ADD SSTORE PUSH1 0xC0 DUP3 ADD MLOAD PUSH1 0x4 DUP3 ADD SSTORE PUSH1 0xE0 DUP3 ADD MLOAD PUSH1 0x5 DUP3 ADD SSTORE PUSH2 0x100 DUP3 ADD MLOAD PUSH1 0x6 DUP3 ADD SSTORE PUSH2 0x120 DUP3 ADD MLOAD PUSH1 0x7 DUP3 ADD SSTORE PUSH2 0x140 DUP3 ADD MLOAD PUSH1 0x8 DUP3 ADD SSTORE PUSH2 0x160 DUP3 ADD MLOAD PUSH1 0x9 DUP3 ADD SSTORE PUSH2 0x180 SWAP1 SWAP2 ADD MLOAD PUSH1 0xA SWAP1 SWAP2 ADD SSTORE PUSH1 0x1 DUP1 SLOAD PUSH1 0x20 DUP6 ADD DUP2 SWAP1 MSTORE SWAP1 PUSH1 0x0 PUSH2 0x1F6A DUP4 PUSH2 0x27ED JUMP JUMPDEST SWAP1 SWAP2 SSTORE POP POP PUSH1 0x40 DUP1 MLOAD PUSH2 0x1A0 DUP2 ADD DUP3 MSTORE PUSH1 0x1 SLOAD DUP2 MSTORE CALLER PUSH1 0x20 DUP3 ADD MSTORE PUSH1 0x0 SWAP2 DUP2 ADD PUSH1 0x2 DUP2 MSTORE PUSH1 0x20 ADD PUSH1 0x0 DUP2 MSTORE PUSH1 0xF PUSH1 0x20 DUP1 DUP4 ADD SWAP2 SWAP1 SWAP2 MSTORE PUSH1 0x3 PUSH1 0x40 DUP1 DUP5 ADD DUP3 SWAP1 MSTORE PUSH1 0x0 PUSH1 0x60 DUP6 ADD DUP2 SWAP1 MSTORE PUSH1 0x80 DUP6 ADD DUP2 SWAP1 MSTORE PUSH1 0x8 PUSH1 0xA0 DUP7 ADD DUP2 SWAP1 MSTORE PUSH1 0xC0 DUP7 ADD DUP3 SWAP1 MSTORE PUSH1 0xE0 DUP7 ADD MSTORE PUSH2 0x100 DUP6 ADD DUP2 SWAP1 MSTORE PUSH2 0x120 SWAP1 SWAP5 ADD DUP5 SWAP1 MSTORE PUSH1 0x1 DUP1 SLOAD DUP6 MSTORE SWAP2 DUP4 MSTORE SWAP3 DUP4 SWAP1 KECCAK256 DUP5 MLOAD DUP2 SSTORE SWAP2 DUP5 ADD MLOAD SWAP1 DUP3 ADD DUP1 SLOAD PUSH1 0x1 PUSH1 0x1 PUSH1 0xA0 SHL SUB SWAP1 SWAP3 AND PUSH1 0x1 PUSH1 0x1 PUSH1 0xA0 SHL SUB NOT DUP4 AND DUP2 OR DUP3 SSTORE SWAP4 DUP6 ADD MLOAD SWAP5 SWAP6 POP DUP6 SWAP5 SWAP3 SWAP4 SWAP1 SWAP2 PUSH1 0x1 PUSH1 0x1 PUSH1 0xA8 SHL SUB NOT AND OR PUSH1 0x1 PUSH1 0xA0 SHL DUP4 PUSH1 0x2 DUP2 GT ISZERO PUSH2 0x2043 JUMPI PUSH2 0x2043 PUSH2 0x245A JUMP JUMPDEST MUL OR SWAP1 SSTORE POP PUSH1 0x60 DUP3 ADD MLOAD PUSH1 0x1 DUP3 ADD DUP1 SLOAD PUSH1 0xFF PUSH1 0xA8 SHL NOT AND PUSH1 0x1 PUSH1 0xA8 SHL DUP4 PUSH1 0x3 DUP2 GT ISZERO PUSH2 0x2071 JUMPI PUSH2 0x2071 PUSH2 0x245A JUMP JUMPDEST MUL OR SWAP1 SSTORE POP PUSH1 0x80 DUP3 ADD MLOAD DUP2 PUSH1 0x2 ADD SSTORE PUSH1 0xA0 DUP3 ADD MLOAD DUP2 PUSH1 0x3 ADD SSTORE PUSH1 0xC0 DUP3 ADD MLOAD DUP2 PUSH1 0x4 ADD SSTORE PUSH1 0xE0 DUP3 ADD MLOAD DUP2 PUSH1 0x5 ADD SSTORE PUSH2 0x100 DUP3 ADD MLOAD DUP2 PUSH1 0x6 ADD SSTORE PUSH2 0x120 DUP3 ADD MLOAD DUP2 PUSH1 0x7 ADD SSTORE PUSH2 0x140 DUP3 ADD MLOAD DUP2 PUSH1 0x8 ADD SSTORE PUSH2 0x160 DUP3 ADD MLOAD DUP2 PUSH1 0x9 ADD SSTORE PUSH2 0x180 DUP3 ADD MLOAD DUP2 PUSH1 0xA ADD SSTORE SWAP1 POP POP PUSH1 0x1 SLOAD DUP5 PUSH1 0x2 PUSH1 0x3 DUP2 LT PUSH2 0x20EE JUMPI PUSH2 0x20EE PUSH2 0x27A8 JUMP JUMPDEST PUSH1 0x20 MUL ADD MSTORE PUSH1 0x1 DUP1 SLOAD SWAP1 PUSH1 0x0 PUSH2 0x2103 DUP4 PUSH2 0x27ED JUMP JUMPDEST SWAP1 SWAP2 SSTORE POP POP PUSH1 0x40 DUP1 MLOAD PUSH1 0x80 DUP2 ADD DUP3 MSTORE CALLER DUP1 DUP3 MSTORE PUSH1 0x1 PUSH1 0x20 DUP1 DUP5 ADD SWAP2 DUP3 MSTORE DUP4 DUP6 ADD DUP10 SWAP1 MSTORE PUSH1 0x0 PUSH1 0x60 DUP6 ADD DUP2 SWAP1 MSTORE SWAP3 DUP4 MSTORE PUSH1 0x2 SWAP1 MSTORE SWAP3 SWAP1 KECCAK256 DUP2 MLOAD DUP2 SLOAD PUSH1 0x1 PUSH1 0x1 PUSH1 0xA0 SHL SUB NOT DUP2 AND PUSH1 0x1 PUSH1 0x1 PUSH1 0xA0 SHL SUB SWAP1 SWAP3 AND SWAP2 DUP3 OR DUP4 SSTORE SWAP4 MLOAD SWAP3 SWAP4 DUP5 SWAP4 SWAP2 DUP4 SWAP2 PUSH1 0x1 PUSH1 0x1 PUSH1 0xA8 SHL SUB NOT AND OR PUSH1 0x1 PUSH1 0xA0 SHL DUP4 PUSH1 0x3 DUP2 GT ISZERO PUSH2 0x2183 JUMPI PUSH2 0x2183 PUSH2 0x245A JUMP JUMPDEST MUL OR SWAP1 SSTORE POP PUSH1 0x40 DUP3 ADD MLOAD PUSH2 0x219D SWAP1 PUSH1 0x1 DUP4 ADD SWAP1 PUSH1 0x3 PUSH2 0x2322 JUMP JUMPDEST POP PUSH1 0x60 SWAP2 SWAP1 SWAP2 ADD MLOAD PUSH1 0x4 SWAP1 SWAP2 ADD SSTORE CALLER PUSH1 0x0 SWAP1 DUP2 MSTORE PUSH1 0x2 PUSH1 0x20 SWAP1 DUP2 MSTORE PUSH1 0x40 SWAP2 DUP3 SWAP1 KECCAK256 DUP3 MLOAD PUSH1 0x80 DUP2 ADD SWAP1 SWAP4 MSTORE DUP1 SLOAD PUSH1 0x1 PUSH1 0x1 PUSH1 0xA0 SHL SUB DUP2 AND DUP5 MSTORE SWAP1 SWAP2 DUP4 ADD SWAP1 PUSH1 0x1 PUSH1 0xA0 SHL SWAP1 DIV PUSH1 0xFF AND PUSH1 0x3 DUP2 GT ISZERO PUSH2 0x21F5 JUMPI PUSH2 0x21F5 PUSH2 0x245A JUMP JUMPDEST PUSH1 0x3 DUP2 GT ISZERO PUSH2 0x2206 JUMPI PUSH2 0x2206 PUSH2 0x245A JUMP JUMPDEST DUP2 MSTORE PUSH1 0x40 DUP1 MLOAD PUSH1 0x60 DUP2 ADD SWAP2 DUP3 SWAP1 MSTORE PUSH1 0x20 SWAP1 SWAP3 ADD SWAP2 SWAP1 PUSH1 0x1 DUP5 ADD SWAP1 PUSH1 0x3 SWAP1 DUP3 DUP5 JUMPDEST DUP2 SLOAD DUP2 MSTORE PUSH1 0x20 ADD SWAP1 PUSH1 0x1 ADD SWAP1 DUP1 DUP4 GT PUSH2 0x2226 JUMPI POP POP POP POP POP DUP2 MSTORE PUSH1 0x20 ADD PUSH1 0x4 DUP3 ADD SLOAD DUP2 MSTORE POP POP SWAP6 POP POP POP POP POP POP SWAP1 JUMP JUMPDEST PUSH1 0x40 DUP1 MLOAD DIFFICULTY PUSH1 0x20 DUP1 DUP4 ADD SWAP2 SWAP1 SWAP2 MSTORE TIMESTAMP DUP3 DUP5 ADD MSTORE PUSH1 0x60 DUP1 DUP4 ADD SWAP5 SWAP1 SWAP5 MSTORE DUP3 MLOAD DUP1 DUP4 SUB SWAP1 SWAP5 ADD DUP5 MSTORE PUSH1 0x80 SWAP1 SWAP2 ADD SWAP1 SWAP2 MSTORE DUP2 MLOAD SWAP2 ADD KECCAK256 SWAP1 JUMP JUMPDEST PUSH1 0x40 MLOAD DUP1 PUSH1 0xC0 ADD PUSH1 0x40 MSTORE DUP1 PUSH1 0x6 SWAP1 JUMPDEST PUSH2 0x22A3 PUSH2 0x23C4 JUMP JUMPDEST DUP2 MSTORE PUSH1 0x20 ADD SWAP1 PUSH1 0x1 SWAP1 SUB SWAP1 DUP2 PUSH2 0x229B JUMPI SWAP1 POP POP SWAP1 JUMP JUMPDEST PUSH1 0x40 MLOAD DUP1 PUSH1 0x60 ADD PUSH1 0x40 MSTORE DUP1 PUSH1 0x3 SWAP1 JUMPDEST PUSH2 0x22D0 PUSH2 0x23C4 JUMP JUMPDEST DUP2 MSTORE PUSH1 0x20 ADD SWAP1 PUSH1 0x1 SWAP1 SUB SWAP1 DUP2 PUSH2 0x22C8 JUMPI SWAP1 POP POP SWAP1 JUMP JUMPDEST PUSH1 0x40 MLOAD DUP1 PUSH1 0xA0 ADD PUSH1 0x40 MSTORE DUP1 PUSH1 0x0 DUP2 MSTORE PUSH1 0x20 ADD PUSH2 0x2300 PUSH2 0x238B JUMP JUMPDEST DUP2 MSTORE PUSH1 0x20 ADD PUSH2 0x230D PUSH2 0x238B JUMP JUMPDEST DUP2 MSTORE PUSH1 0x20 ADD PUSH1 0x0 JUMPDEST DUP2 MSTORE PUSH1 0x20 ADD PUSH1 0x0 DUP2 MSTORE POP SWAP1 JUMP JUMPDEST DUP3 PUSH1 0x3 DUP2 ADD SWAP3 DUP3 ISZERO PUSH2 0x2350 JUMPI SWAP2 PUSH1 0x20 MUL DUP3 ADD JUMPDEST DUP3 DUP2 GT ISZERO PUSH2 0x2350 JUMPI DUP3 MLOAD DUP3 SSTORE SWAP2 PUSH1 0x20 ADD SWAP2 SWAP1 PUSH1 0x1 ADD SWAP1 PUSH2 0x2335 JUMP JUMPDEST POP PUSH2 0x235C SWAP3 SWAP2 POP PUSH2 0x242C JUMP JUMPDEST POP SWAP1 JUMP JUMPDEST DUP3 PUSH1 0x3 DUP2 ADD SWAP3 DUP3 ISZERO PUSH2 0x2350 JUMPI SWAP2 DUP3 ADD JUMPDEST DUP3 DUP2 GT ISZERO PUSH2 0x2350 JUMPI DUP3 SLOAD DUP3 SSTORE SWAP2 PUSH1 0x1 ADD SWAP2 SWAP1 PUSH1 0x1 ADD SWAP1 PUSH2 0x2370 JUMP JUMPDEST PUSH1 0x40 DUP1 MLOAD PUSH1 0x80 DUP2 ADD DUP3 MSTORE PUSH1 0x0 DUP1 DUP3 MSTORE PUSH1 0x20 DUP3 ADD MSTORE SWAP1 DUP2 ADD PUSH2 0x2315 JUMPDEST PUSH1 0x40 MLOAD DUP1 PUSH1 0x60 ADD PUSH1 0x40 MSTORE DUP1 PUSH1 0x3 SWAP1 PUSH1 0x20 DUP3 MUL DUP1 CALLDATASIZE DUP4 CALLDATACOPY POP SWAP2 SWAP3 SWAP2 POP POP JUMP JUMPDEST PUSH1 0x40 DUP1 MLOAD PUSH2 0x1A0 DUP2 ADD DUP3 MSTORE PUSH1 0x0 DUP1 DUP3 MSTORE PUSH1 0x20 DUP3 ADD DUP2 SWAP1 MSTORE SWAP1 SWAP2 DUP3 ADD SWAP1 DUP2 MSTORE PUSH1 0x20 ADD PUSH1 0x0 DUP2 MSTORE PUSH1 0x20 ADD PUSH1 0x0 DUP2 MSTORE PUSH1 0x20 ADD PUSH1 0x0 DUP2 MSTORE PUSH1 0x20 ADD PUSH1 0x0 DUP2 MSTORE PUSH1 0x20 ADD PUSH1 0x0 DUP2 MSTORE PUSH1 0x20 ADD PUSH1 0x0 DUP2 MSTORE PUSH1 0x20 ADD PUSH1 0x0 DUP2 MSTORE PUSH1 0x20 ADD PUSH1 0x0 DUP2 MSTORE PUSH1 0x20 ADD PUSH1 0x0 DUP2 MSTORE PUSH1 0x20 ADD PUSH1 0x0 DUP2 MSTORE POP SWAP1 JUMP JUMPDEST JUMPDEST DUP1 DUP3 GT ISZERO PUSH2 0x235C JUMPI PUSH1 0x0 DUP2 SSTORE PUSH1 0x1 ADD PUSH2 0x242D JUMP JUMPDEST PUSH1 0x0 PUSH1 0x20 DUP3 DUP5 SUB SLT ISZERO PUSH2 0x2453 JUMPI PUSH1 0x0 DUP1 REVERT JUMPDEST POP CALLDATALOAD SWAP2 SWAP1 POP JUMP JUMPDEST PUSH4 0x4E487B71 PUSH1 0xE0 SHL PUSH1 0x0 MSTORE PUSH1 0x21 PUSH1 0x4 MSTORE PUSH1 0x24 PUSH1 0x0 REVERT JUMPDEST PUSH1 0x3 DUP2 LT PUSH2 0x2480 JUMPI PUSH2 0x2480 PUSH2 0x245A JUMP JUMPDEST SWAP1 MSTORE JUMP JUMPDEST PUSH1 0x4 DUP2 LT PUSH2 0x2494 JUMPI PUSH2 0x2494 PUSH2 0x245A JUMP JUMPDEST POP JUMP JUMPDEST PUSH2 0x2480 DUP2 PUSH2 0x2484 JUMP JUMPDEST DUP14 DUP2 MSTORE PUSH1 0x1 PUSH1 0x1 PUSH1 0xA0 SHL SUB DUP14 AND PUSH1 0x20 DUP3 ADD MSTORE PUSH2 0x1A0 DUP2 ADD PUSH2 0x24C4 PUSH1 0x40 DUP4 ADD DUP15 PUSH2 0x2470 JUMP JUMPDEST PUSH2 0x24CD DUP13 PUSH2 0x2484 JUMP JUMPDEST PUSH1 0x60 DUP3 ADD SWAP12 SWAP1 SWAP12 MSTORE PUSH1 0x80 DUP2 ADD SWAP10 SWAP1 SWAP10 MSTORE PUSH1 0xA0 DUP10 ADD SWAP8 SWAP1 SWAP8 MSTORE PUSH1 0xC0 DUP9 ADD SWAP6 SWAP1 SWAP6 MSTORE PUSH1 0xE0 DUP8 ADD SWAP4 SWAP1 SWAP4 MSTORE PUSH2 0x100 DUP7 ADD SWAP2 SWAP1 SWAP2 MSTORE PUSH2 0x120 DUP6 ADD MSTORE PUSH2 0x140 DUP5 ADD MSTORE PUSH2 0x160 DUP4 ADD MSTORE PUSH2 0x180 SWAP1 SWAP2 ADD MSTORE SWAP4 SWAP3 POP POP POP JUMP JUMPDEST DUP1 MLOAD DUP3 MSTORE PUSH1 0x0 PUSH1 0x20 DUP3 ADD MLOAD PUSH2 0x253E PUSH1 0x20 DUP6 ADD DUP3 PUSH1 0x1 PUSH1 0x1 PUSH1 0xA0 SHL SUB AND SWAP1 MSTORE JUMP JUMPDEST POP PUSH1 0x40 DUP3 ADD MLOAD PUSH2 0x2551 PUSH1 0x40 DUP6 ADD DUP3 PUSH2 0x2470 JUMP JUMPDEST POP PUSH1 0x60 DUP3 ADD MLOAD PUSH2 0x2564 PUSH1 0x60 DUP6 ADD DUP3 PUSH2 0x2497 JUMP JUMPDEST POP POP PUSH1 0x80 DUP2 DUP2 ADD MLOAD SWAP1 DUP4 ADD MSTORE PUSH1 0xA0 DUP1 DUP3 ADD MLOAD SWAP1 DUP4 ADD MSTORE PUSH1 0xC0 DUP1 DUP3 ADD MLOAD SWAP1 DUP4 ADD MSTORE PUSH1 0xE0 DUP1 DUP3 ADD MLOAD SWAP1 DUP4 ADD MSTORE PUSH2 0x100 DUP1 DUP3 ADD MLOAD SWAP1 DUP4 ADD MSTORE PUSH2 0x120 DUP1 DUP3 ADD MLOAD SWAP1 DUP4 ADD MSTORE PUSH2 0x140 DUP1 DUP3 ADD MLOAD SWAP1 DUP4 ADD MSTORE PUSH2 0x160 DUP1 DUP3 ADD MLOAD SWAP1 DUP4 ADD MSTORE PUSH2 0x180 SWAP1 DUP2 ADD MLOAD SWAP1 DUP3 ADD MSTORE PUSH2 0x1A0 ADD SWAP1 JUMP JUMPDEST PUSH2 0x9C0 DUP2 ADD DUP2 DUP4 PUSH1 0x0 JUMPDEST PUSH1 0x6 DUP2 LT ISZERO PUSH2 0x25FB JUMPI PUSH2 0x25EA DUP4 DUP4 MLOAD PUSH2 0x251E JUMP JUMPDEST SWAP3 POP PUSH1 0x20 SWAP2 SWAP1 SWAP2 ADD SWAP1 PUSH1 0x1 ADD PUSH2 0x25D6 JUMP JUMPDEST POP POP POP SWAP3 SWAP2 POP POP JUMP JUMPDEST PUSH1 0x0 PUSH1 0x20 DUP3 DUP5 SUB SLT ISZERO PUSH2 0x2616 JUMPI PUSH1 0x0 DUP1 REVERT JUMPDEST DUP2 CALLDATALOAD PUSH1 0x1 PUSH1 0x1 PUSH1 0xA0 SHL SUB DUP2 AND DUP2 EQ PUSH2 0x262D JUMPI PUSH1 0x0 DUP1 REVERT JUMPDEST SWAP4 SWAP3 POP POP POP JUMP JUMPDEST PUSH2 0x4E0 DUP2 ADD DUP2 DUP4 PUSH1 0x0 JUMPDEST PUSH1 0x3 DUP2 LT ISZERO PUSH2 0x25FB JUMPI PUSH2 0x2652 DUP4 DUP4 MLOAD PUSH2 0x251E JUMP JUMPDEST SWAP3 POP PUSH1 0x20 SWAP2 SWAP1 SWAP2 ADD SWAP1 PUSH1 0x1 ADD PUSH2 0x263E JUMP JUMPDEST PUSH1 0x1 PUSH1 0x1 PUSH1 0xA0 SHL SUB DUP5 AND DUP2 MSTORE PUSH1 0x60 DUP2 ADD PUSH2 0x267C DUP5 PUSH2 0x2484 JUMP JUMPDEST PUSH1 0x20 DUP3 ADD SWAP4 SWAP1 SWAP4 MSTORE PUSH1 0x40 ADD MSTORE SWAP2 SWAP1 POP JUMP JUMPDEST PUSH1 0x0 DUP1 PUSH1 0x0 PUSH1 0x60 DUP5 DUP7 SUB SLT ISZERO PUSH2 0x26A2 JUMPI PUSH1 0x0 DUP1 REVERT JUMPDEST POP POP DUP2 CALLDATALOAD SWAP4 PUSH1 0x20 DUP4 ADD CALLDATALOAD SWAP4 POP PUSH1 0x40 SWAP1 SWAP3 ADD CALLDATALOAD SWAP2 SWAP1 POP JUMP JUMPDEST DUP1 MLOAD PUSH1 0x1 PUSH1 0x1 PUSH1 0xA0 SHL SUB AND DUP3 MSTORE PUSH1 0x20 DUP1 DUP3 ADD MLOAD PUSH2 0x26D5 DUP2 PUSH2 0x2484 JUMP JUMPDEST DUP4 DUP3 ADD MSTORE PUSH1 0x40 DUP3 DUP2 ADD MLOAD SWAP1 DUP5 ADD PUSH1 0x0 JUMPDEST PUSH1 0x3 DUP2 LT ISZERO PUSH2 0x2702 JUMPI DUP3 MLOAD DUP3 MSTORE SWAP2 DUP4 ADD SWAP2 SWAP1 DUP4 ADD SWAP1 PUSH1 0x1 ADD PUSH2 0x26E5 JUMP JUMPDEST POP POP POP POP PUSH1 0x60 ADD MLOAD PUSH1 0xA0 SWAP2 SWAP1 SWAP2 ADD MSTORE JUMP JUMPDEST DUP6 DUP2 MSTORE PUSH2 0x1E0 DUP2 ADD PUSH2 0x2728 PUSH1 0x20 DUP4 ADD DUP8 PUSH2 0x26B9 JUMP JUMPDEST PUSH2 0x2735 PUSH1 0xE0 DUP4 ADD DUP7 PUSH2 0x26B9 JUMP JUMPDEST PUSH2 0x273E DUP5 PUSH2 0x2484 JUMP JUMPDEST PUSH2 0x1A0 DUP3 ADD SWAP4 SWAP1 SWAP4 MSTORE PUSH2 0x1C0 ADD MSTORE SWAP4 SWAP3 POP POP POP JUMP JUMPDEST DUP2 MLOAD DUP2 MSTORE PUSH1 0x20 DUP1 DUP4 ADD MLOAD PUSH2 0x1E0 DUP4 ADD SWAP2 PUSH2 0x276F SWAP1 DUP5 ADD DUP3 PUSH2 0x26B9 JUMP JUMPDEST POP PUSH1 0x40 DUP4 ADD MLOAD PUSH2 0x2782 PUSH1 0xE0 DUP5 ADD DUP3 PUSH2 0x26B9 JUMP JUMPDEST POP PUSH1 0x60 DUP4 ADD MLOAD PUSH2 0x2791 DUP2 PUSH2 0x2484 JUMP JUMPDEST PUSH2 0x1A0 DUP4 ADD MSTORE PUSH1 0x80 SWAP3 SWAP1 SWAP3 ADD MLOAD PUSH2 0x1C0 SWAP1 SWAP2 ADD MSTORE SWAP1 JUMP JUMPDEST PUSH4 0x4E487B71 PUSH1 0xE0 SHL PUSH1 0x0 MSTORE PUSH1 0x32 PUSH1 0x4 MSTORE PUSH1 0x24 PUSH1 0x0 REVERT JUMPDEST PUSH4 0x4E487B71 PUSH1 0xE0 SHL PUSH1 0x0 MSTORE PUSH1 0x11 PUSH1 0x4 MSTORE PUSH1 0x24 PUSH1 0x0 REVERT JUMPDEST DUP2 DUP2 SUB DUP2 DUP2 GT ISZERO PUSH2 0x27E7 JUMPI PUSH2 0x27E7 PUSH2 0x27BE JUMP JUMPDEST SWAP3 SWAP2 POP POP JUMP JUMPDEST PUSH1 0x0 PUSH1 0x1 DUP3 ADD PUSH2 0x27FF JUMPI PUSH2 0x27FF PUSH2 0x27BE JUMP JUMPDEST POP PUSH1 0x1 ADD SWAP1 JUMP JUMPDEST PUSH1 0x0 DUP2 PUSH2 0x2815 JUMPI PUSH2 0x2815 PUSH2 0x27BE JUMP JUMPDEST POP PUSH1 0x0 NOT ADD SWAP1 JUMP JUMPDEST PUSH1 0x0 DUP3 PUSH2 0x283A JUMPI PUSH4 0x4E487B71 PUSH1 0xE0 SHL PUSH1 0x0 MSTORE PUSH1 0x12 PUSH1 0x4 MSTORE PUSH1 0x24 PUSH1 0x0 REVERT JUMPDEST POP MOD SWAP1 JUMP INVALID LOG2 PUSH5 0x6970667358 0x22 SLT KECCAK256 0xB1 0xA8 DUP8 PUSH12 0xE27AB34488B2D522A25915BD DIV PUSH6 0x98814BA06F12 LOG4 SWAP15 0xB4 PUSH2 0xEF24 0xBF LOG1 PUSH5 0x736F6C6343 STOP ADDMOD GT STOP CALLER "
		},
		"gasEstimates": {
			"creation": {
				"codeDepositCost": "2071400",
				"executionCost": "46412",
				"totalCost": "2117812"
			},
			"external": {
				"addressToPlayer(address)": "4857",
				"createMatch()": "infinite",
				"getMatchUnits(uint256)": "infinite",
				"getPlayerUnits(address)": "infinite",
				"joinMatch(uint256)": "infinite",
				"matchIdToMatch(uint256)": "infinite",
				"renderStep(uint256)": "infinite",
				"setUnitTarget(uint256,uint256,uint256)": "75481",
				"unitIdToUnit(uint256)": "24085"
			},
			"internal": {
				"initPlayer()": "infinite",
				"random(uint256)": "infinite"
			}
		},
		"methodIdentifiers": {
			"addressToPlayer(address)": "79a39ebd",
			"createMatch()": "a0cc641a",
			"getMatchUnits(uint256)": "283f3fac",
			"getPlayerUnits(address)": "6154ee97",
			"joinMatch(uint256)": "feb8c438",
			"matchIdToMatch(uint256)": "ae099448",
			"renderStep(uint256)": "aba99f88",
			"setUnitTarget(uint256,uint256,uint256)": "82df6245",
			"unitIdToUnit(uint256)": "105f2c53"
		}
	},
	"abi": [
		{
			"inputs": [
				{
					"internalType": "address",
					"name": "",
					"type": "address"
				}
			],
			"name": "addressToPlayer",
			"outputs": [
				{
					"internalType": "address",
					"name": "owner",
					"type": "address"
				},
				{
					"internalType": "enum GameElements.Rank",
					"name": "rank",
					"type": "uint8"
				},
				{
					"internalType": "uint256",
					"name": "matchId",
					"type": "uint256"
				}
			],
			"stateMutability": "view",
			"type": "function"
		},
		{
			"inputs": [],
			"name": "createMatch",
			"outputs": [
				{
					"internalType": "uint256",
					"name": "",
					"type": "uint256"
				}
			],
			"stateMutability": "nonpayable",
			"type": "function"
		},
		{
			"inputs": [
				{
					"internalType": "uint256",
					"name": "_matchId",
					"type": "uint256"
				}
			],
			"name": "getMatchUnits",
			"outputs": [
				{
					"components": [
						{
							"internalType": "uint256",
							"name": "id",
							"type": "uint256"
						},
						{
							"internalType": "address",
							"name": "owner",
							"type": "address"
						},
						{
							"internalType": "enum GameElements.UnitTypes",
							"name": "unitType",
							"type": "uint8"
						},
						{
							"internalType": "enum GameElements.Action",
							"name": "action",
							"type": "uint8"
						},
						{
							"internalType": "uint256",
							"name": "hp",
							"type": "uint256"
						},
						{
							"internalType": "uint256",
							"name": "attack",
							"type": "uint256"
						},
						{
							"internalType": "uint256",
							"name": "armor",
							"type": "uint256"
						},
						{
							"internalType": "uint256",
							"name": "currentX",
							"type": "uint256"
						},
						{
							"internalType": "uint256",
							"name": "currentY",
							"type": "uint256"
						},
						{
							"internalType": "uint256",
							"name": "targetX",
							"type": "uint256"
						},
						{
							"internalType": "uint256",
							"name": "targetY",
							"type": "uint256"
						},
						{
							"internalType": "uint256",
							"name": "matchId",
							"type": "uint256"
						},
						{
							"internalType": "uint256",
							"name": "enemyId",
							"type": "uint256"
						}
					],
					"internalType": "struct GameElements.Unit[6]",
					"name": "",
					"type": "tuple[6]"
				}
			],
			"stateMutability": "view",
			"type": "function"
		},
		{
			"inputs": [
				{
					"internalType": "address",
					"name": "_playerAddress",
					"type": "address"
				}
			],
			"name": "getPlayerUnits",
			"outputs": [
				{
					"components": [
						{
							"internalType": "uint256",
							"name": "id",
							"type": "uint256"
						},
						{
							"internalType": "address",
							"name": "owner",
							"type": "address"
						},
						{
							"internalType": "enum GameElements.UnitTypes",
							"name": "unitType",
							"type": "uint8"
						},
						{
							"internalType": "enum GameElements.Action",
							"name": "action",
							"type": "uint8"
						},
						{
							"internalType": "uint256",
							"name": "hp",
							"type": "uint256"
						},
						{
							"internalType": "uint256",
							"name": "attack",
							"type": "uint256"
						},
						{
							"internalType": "uint256",
							"name": "armor",
							"type": "uint256"
						},
						{
							"internalType": "uint256",
							"name": "currentX",
							"type": "uint256"
						},
						{
							"internalType": "uint256",
							"name": "currentY",
							"type": "uint256"
						},
						{
							"internalType": "uint256",
							"name": "targetX",
							"type": "uint256"
						},
						{
							"internalType": "uint256",
							"name": "targetY",
							"type": "uint256"
						},
						{
							"internalType": "uint256",
							"name": "matchId",
							"type": "uint256"
						},
						{
							"internalType": "uint256",
							"name": "enemyId",
							"type": "uint256"
						}
					],
					"internalType": "struct GameElements.Unit[3]",
					"name": "",
					"type": "tuple[3]"
				}
			],
			"stateMutability": "view",
			"type": "function"
		},
		{
			"inputs": [
				{
					"internalType": "uint256",
					"name": "_matchId",
					"type": "uint256"
				}
			],
			"name": "joinMatch",
			"outputs": [
				{
					"components": [
						{
							"internalType": "uint256",
							"name": "id",
							"type": "uint256"
						},
						{
							"components": [
								{
									"internalType": "address",
									"name": "owner",
									"type": "address"
								},
								{
									"internalType": "enum GameElements.Rank",
									"name": "rank",
									"type": "uint8"
								},
								{
									"internalType": "uint256[3]",
									"name": "unitIds",
									"type": "uint256[3]"
								},
								{
									"internalType": "uint256",
									"name": "matchId",
									"type": "uint256"
								}
							],
							"internalType": "struct GameElements.Player",
							"name": "playerA",
							"type": "tuple"
						},
						{
							"components": [
								{
									"internalType": "address",
									"name": "owner",
									"type": "address"
								},
								{
									"internalType": "enum GameElements.Rank",
									"name": "rank",
									"type": "uint8"
								},
								{
									"internalType": "uint256[3]",
									"name": "unitIds",
									"type": "uint256[3]"
								},
								{
									"internalType": "uint256",
									"name": "matchId",
									"type": "uint256"
								}
							],
							"internalType": "struct GameElements.Player",
							"name": "playerB",
							"type": "tuple"
						},
						{
							"internalType": "enum GameElements.GameStatus",
							"name": "status",
							"type": "uint8"
						},
						{
							"internalType": "uint256",
							"name": "winner",
							"type": "uint256"
						}
					],
					"internalType": "struct GameElements.Match",
					"name": "",
					"type": "tuple"
				}
			],
			"stateMutability": "nonpayable",
			"type": "function"
		},
		{
			"inputs": [
				{
					"internalType": "uint256",
					"name": "",
					"type": "uint256"
				}
			],
			"name": "matchIdToMatch",
			"outputs": [
				{
					"internalType": "uint256",
					"name": "id",
					"type": "uint256"
				},
				{
					"components": [
						{
							"internalType": "address",
							"name": "owner",
							"type": "address"
						},
						{
							"internalType": "enum GameElements.Rank",
							"name": "rank",
							"type": "uint8"
						},
						{
							"internalType": "uint256[3]",
							"name": "unitIds",
							"type": "uint256[3]"
						},
						{
							"internalType": "uint256",
							"name": "matchId",
							"type": "uint256"
						}
					],
					"internalType": "struct GameElements.Player",
					"name": "playerA",
					"type": "tuple"
				},
				{
					"components": [
						{
							"internalType": "address",
							"name": "owner",
							"type": "address"
						},
						{
							"internalType": "enum GameElements.Rank",
							"name": "rank",
							"type": "uint8"
						},
						{
							"internalType": "uint256[3]",
							"name": "unitIds",
							"type": "uint256[3]"
						},
						{
							"internalType": "uint256",
							"name": "matchId",
							"type": "uint256"
						}
					],
					"internalType": "struct GameElements.Player",
					"name": "playerB",
					"type": "tuple"
				},
				{
					"internalType": "enum GameElements.GameStatus",
					"name": "status",
					"type": "uint8"
				},
				{
					"internalType": "uint256",
					"name": "winner",
					"type": "uint256"
				}
			],
			"stateMutability": "view",
			"type": "function"
		},
		{
			"inputs": [
				{
					"internalType": "uint256",
					"name": "_matchId",
					"type": "uint256"
				}
			],
			"name": "renderStep",
			"outputs": [],
			"stateMutability": "nonpayable",
			"type": "function"
		},
		{
			"inputs": [
				{
					"internalType": "uint256",
					"name": "_unitId",
					"type": "uint256"
				},
				{
					"internalType": "uint256",
					"name": "_targetX",
					"type": "uint256"
				},
				{
					"internalType": "uint256",
					"name": "_targetY",
					"type": "uint256"
				}
			],
			"name": "setUnitTarget",
			"outputs": [],
			"stateMutability": "nonpayable",
			"type": "function"
		},
		{
			"inputs": [
				{
					"internalType": "uint256",
					"name": "",
					"type": "uint256"
				}
			],
			"name": "unitIdToUnit",
			"outputs": [
				{
					"internalType": "uint256",
					"name": "id",
					"type": "uint256"
				},
				{
					"internalType": "address",
					"name": "owner",
					"type": "address"
				},
				{
					"internalType": "enum GameElements.UnitTypes",
					"name": "unitType",
					"type": "uint8"
				},
				{
					"internalType": "enum GameElements.Action",
					"name": "action",
					"type": "uint8"
				},
				{
					"internalType": "uint256",
					"name": "hp",
					"type": "uint256"
				},
				{
					"internalType": "uint256",
					"name": "attack",
					"type": "uint256"
				},
				{
					"internalType": "uint256",
					"name": "armor",
					"type": "uint256"
				},
				{
					"internalType": "uint256",
					"name": "currentX",
					"type": "uint256"
				},
				{
					"internalType": "uint256",
					"name": "currentY",
					"type": "uint256"
				},
				{
					"internalType": "uint256",
					"name": "targetX",
					"type": "uint256"
				},
				{
					"internalType": "uint256",
					"name": "targetY",
					"type": "uint256"
				},
				{
					"internalType": "uint256",
					"name": "matchId",
					"type": "uint256"
				},
				{
					"internalType": "uint256",
					"name": "enemyId",
					"type": "uint256"
				}
			],
			"stateMutability": "view",
			"type": "function"
		}
	]
}