{
	"GameMaster.sol": {
		"GameMaster": {
			"abi": [
				{
					"inputs": [
						{
							"internalType": "address",
							"name": "",
							"type": "address"
						}
					],
					"name": "addressToPlayer",
					"outputs": [
						{
							"internalType": "address",
							"name": "owner",
							"type": "address"
						},
						{
							"internalType": "enum GameElements.Rank",
							"name": "rank",
							"type": "uint8"
						},
						{
							"internalType": "uint256",
							"name": "matchId",
							"type": "uint256"
						}
					],
					"stateMutability": "view",
					"type": "function"
				},
				{
					"inputs": [],
					"name": "createMatch",
					"outputs": [
						{
							"internalType": "uint256",
							"name": "",
							"type": "uint256"
						}
					],
					"stateMutability": "nonpayable",
					"type": "function"
				},
				{
					"inputs": [
						{
							"internalType": "uint256",
							"name": "_matchId",
							"type": "uint256"
						}
					],
					"name": "getMatchUnits",
					"outputs": [
						{
							"components": [
								{
									"internalType": "uint256",
									"name": "id",
									"type": "uint256"
								},
								{
									"internalType": "address",
									"name": "owner",
									"type": "address"
								},
								{
									"internalType": "enum GameElements.UnitTypes",
									"name": "unitType",
									"type": "uint8"
								},
								{
									"internalType": "enum GameElements.Action",
									"name": "action",
									"type": "uint8"
								},
								{
									"internalType": "uint256",
									"name": "hp",
									"type": "uint256"
								},
								{
									"internalType": "uint256",
									"name": "attack",
									"type": "uint256"
								},
								{
									"internalType": "uint256",
									"name": "armor",
									"type": "uint256"
								},
								{
									"internalType": "uint256",
									"name": "currentX",
									"type": "uint256"
								},
								{
									"internalType": "uint256",
									"name": "currentY",
									"type": "uint256"
								},
								{
									"internalType": "uint256",
									"name": "targetX",
									"type": "uint256"
								},
								{
									"internalType": "uint256",
									"name": "targetY",
									"type": "uint256"
								},
								{
									"internalType": "uint256",
									"name": "matchId",
									"type": "uint256"
								},
								{
									"internalType": "uint256",
									"name": "enemyId",
									"type": "uint256"
								}
							],
							"internalType": "struct GameElements.Unit[6]",
							"name": "",
							"type": "tuple[6]"
						}
					],
					"stateMutability": "view",
					"type": "function"
				},
				{
					"inputs": [
						{
							"internalType": "address",
							"name": "_playerAddress",
							"type": "address"
						}
					],
					"name": "getPlayerUnits",
					"outputs": [
						{
							"components": [
								{
									"internalType": "uint256",
									"name": "id",
									"type": "uint256"
								},
								{
									"internalType": "address",
									"name": "owner",
									"type": "address"
								},
								{
									"internalType": "enum GameElements.UnitTypes",
									"name": "unitType",
									"type": "uint8"
								},
								{
									"internalType": "enum GameElements.Action",
									"name": "action",
									"type": "uint8"
								},
								{
									"internalType": "uint256",
									"name": "hp",
									"type": "uint256"
								},
								{
									"internalType": "uint256",
									"name": "attack",
									"type": "uint256"
								},
								{
									"internalType": "uint256",
									"name": "armor",
									"type": "uint256"
								},
								{
									"internalType": "uint256",
									"name": "currentX",
									"type": "uint256"
								},
								{
									"internalType": "uint256",
									"name": "currentY",
									"type": "uint256"
								},
								{
									"internalType": "uint256",
									"name": "targetX",
									"type": "uint256"
								},
								{
									"internalType": "uint256",
									"name": "targetY",
									"type": "uint256"
								},
								{
									"internalType": "uint256",
									"name": "matchId",
									"type": "uint256"
								},
								{
									"internalType": "uint256",
									"name": "enemyId",
									"type": "uint256"
								}
							],
							"internalType": "struct GameElements.Unit[3]",
							"name": "",
							"type": "tuple[3]"
						}
					],
					"stateMutability": "view",
					"type": "function"
				},
				{
					"inputs": [
						{
							"internalType": "uint256",
							"name": "_matchId",
							"type": "uint256"
						}
					],
					"name": "joinMatch",
					"outputs": [
						{
							"components": [
								{
									"internalType": "uint256",
									"name": "id",
									"type": "uint256"
								},
								{
									"components": [
										{
											"internalType": "address",
											"name": "owner",
											"type": "address"
										},
										{
											"internalType": "enum GameElements.Rank",
											"name": "rank",
											"type": "uint8"
										},
										{
											"internalType": "uint256[3]",
											"name": "unitIds",
											"type": "uint256[3]"
										},
										{
											"internalType": "uint256",
											"name": "matchId",
											"type": "uint256"
										}
									],
									"internalType": "struct GameElements.Player",
									"name": "playerA",
									"type": "tuple"
								},
								{
									"components": [
										{
											"internalType": "address",
											"name": "owner",
											"type": "address"
										},
										{
											"internalType": "enum GameElements.Rank",
											"name": "rank",
											"type": "uint8"
										},
										{
											"internalType": "uint256[3]",
											"name": "unitIds",
											"type": "uint256[3]"
										},
										{
											"internalType": "uint256",
											"name": "matchId",
											"type": "uint256"
										}
									],
									"internalType": "struct GameElements.Player",
									"name": "playerB",
									"type": "tuple"
								},
								{
									"internalType": "enum GameElements.GameStatus",
									"name": "status",
									"type": "uint8"
								},
								{
									"internalType": "uint256",
									"name": "winner",
									"type": "uint256"
								}
							],
							"internalType": "struct GameElements.Match",
							"name": "",
							"type": "tuple"
						}
					],
					"stateMutability": "nonpayable",
					"type": "function"
				},
				{
					"inputs": [
						{
							"internalType": "uint256",
							"name": "",
							"type": "uint256"
						}
					],
					"name": "matchIdToMatch",
					"outputs": [
						{
							"internalType": "uint256",
							"name": "id",
							"type": "uint256"
						},
						{
							"components": [
								{
									"internalType": "address",
									"name": "owner",
									"type": "address"
								},
								{
									"internalType": "enum GameElements.Rank",
									"name": "rank",
									"type": "uint8"
								},
								{
									"internalType": "uint256[3]",
									"name": "unitIds",
									"type": "uint256[3]"
								},
								{
									"internalType": "uint256",
									"name": "matchId",
									"type": "uint256"
								}
							],
							"internalType": "struct GameElements.Player",
							"name": "playerA",
							"type": "tuple"
						},
						{
							"components": [
								{
									"internalType": "address",
									"name": "owner",
									"type": "address"
								},
								{
									"internalType": "enum GameElements.Rank",
									"name": "rank",
									"type": "uint8"
								},
								{
									"internalType": "uint256[3]",
									"name": "unitIds",
									"type": "uint256[3]"
								},
								{
									"internalType": "uint256",
									"name": "matchId",
									"type": "uint256"
								}
							],
							"internalType": "struct GameElements.Player",
							"name": "playerB",
							"type": "tuple"
						},
						{
							"internalType": "enum GameElements.GameStatus",
							"name": "status",
							"type": "uint8"
						},
						{
							"internalType": "uint256",
							"name": "winner",
							"type": "uint256"
						}
					],
					"stateMutability": "view",
					"type": "function"
				},
				{
					"inputs": [
						{
							"internalType": "uint256",
							"name": "_matchId",
							"type": "uint256"
						}
					],
					"name": "renderStep",
					"outputs": [],
					"stateMutability": "nonpayable",
					"type": "function"
				},
				{
					"inputs": [
						{
							"internalType": "uint256",
							"name": "_unitId",
							"type": "uint256"
						},
						{
							"internalType": "uint256",
							"name": "_targetX",
							"type": "uint256"
						},
						{
							"internalType": "uint256",
							"name": "_targetY",
							"type": "uint256"
						}
					],
					"name": "setUnitTarget",
					"outputs": [],
					"stateMutability": "nonpayable",
					"type": "function"
				},
				{
					"inputs": [
						{
							"internalType": "uint256",
							"name": "",
							"type": "uint256"
						}
					],
					"name": "unitIdToUnit",
					"outputs": [
						{
							"internalType": "uint256",
							"name": "id",
							"type": "uint256"
						},
						{
							"internalType": "address",
							"name": "owner",
							"type": "address"
						},
						{
							"internalType": "enum GameElements.UnitTypes",
							"name": "unitType",
							"type": "uint8"
						},
						{
							"internalType": "enum GameElements.Action",
							"name": "action",
							"type": "uint8"
						},
						{
							"internalType": "uint256",
							"name": "hp",
							"type": "uint256"
						},
						{
							"internalType": "uint256",
							"name": "attack",
							"type": "uint256"
						},
						{
							"internalType": "uint256",
							"name": "armor",
							"type": "uint256"
						},
						{
							"internalType": "uint256",
							"name": "currentX",
							"type": "uint256"
						},
						{
							"internalType": "uint256",
							"name": "currentY",
							"type": "uint256"
						},
						{
							"internalType": "uint256",
							"name": "targetX",
							"type": "uint256"
						},
						{
							"internalType": "uint256",
							"name": "targetY",
							"type": "uint256"
						},
						{
							"internalType": "uint256",
							"name": "matchId",
							"type": "uint256"
						},
						{
							"internalType": "uint256",
							"name": "enemyId",
							"type": "uint256"
						}
					],
					"stateMutability": "view",
					"type": "function"
				}
			],
			"devdoc": {
				"kind": "dev",
				"methods": {},
				"version": 1
			},
			"evm": {
				"assembly": "    /* \"GameMaster.sol\":1037:12987  contract GameMaster is GameElements {... */\n  mstore(0x40, 0x80)\n    /* \"GameMaster.sol\":1131:1132  1 */\n  0x01\n    /* \"GameMaster.sol\":1101:1132  uint256 internal matchCount = 1 */\n  0x00\n  sstore\n    /* \"GameMaster.sol\":1170:1171  1 */\n  0x01\n    /* \"GameMaster.sol\":1138:1171  uint256 internal unitGlobalId = 1 */\n  dup1\n  sstore\n    /* \"GameMaster.sol\":1037:12987  contract GameMaster is GameElements {... */\n  callvalue\n  dup1\n  iszero\n  tag_1\n  jumpi\n  0x00\n  dup1\n  revert\ntag_1:\n  pop\n  dataSize(sub_0)\n  dup1\n  dataOffset(sub_0)\n  0x00\n  codecopy\n  0x00\n  return\nstop\n\nsub_0: assembly {\n        /* \"GameMaster.sol\":1037:12987  contract GameMaster is GameElements {... */\n      mstore(0x40, 0x80)\n      callvalue\n      dup1\n      iszero\n      tag_1\n      jumpi\n      0x00\n      dup1\n      revert\n    tag_1:\n      pop\n      jumpi(tag_2, lt(calldatasize, 0x04))\n      shr(0xe0, calldataload(0x00))\n      dup1\n      0x82df6245\n      gt\n      tag_12\n      jumpi\n      dup1\n      0x82df6245\n      eq\n      tag_7\n      jumpi\n      dup1\n      0xa0cc641a\n      eq\n      tag_8\n      jumpi\n      dup1\n      0xaba99f88\n      eq\n      tag_9\n      jumpi\n      dup1\n      0xae099448\n      eq\n      tag_10\n      jumpi\n      dup1\n      0xfeb8c438\n      eq\n      tag_11\n      jumpi\n      0x00\n      dup1\n      revert\n    tag_12:\n      dup1\n      0x105f2c53\n      eq\n      tag_3\n      jumpi\n      dup1\n      0x283f3fac\n      eq\n      tag_4\n      jumpi\n      dup1\n      0x6154ee97\n      eq\n      tag_5\n      jumpi\n      dup1\n      0x79a39ebd\n      eq\n      tag_6\n      jumpi\n    tag_2:\n      0x00\n      dup1\n      revert\n        /* \"GameMaster.sol\":1233:1277  mapping(uint256 => Unit) public unitIdToUnit */\n    tag_3:\n      tag_13\n      tag_14\n      calldatasize\n      0x04\n      tag_15\n      jump\t// in\n    tag_14:\n      0x03\n      0x20\n      dup2\n      swap1\n      mstore\n      0x00\n      swap2\n      dup3\n      mstore\n      0x40\n      swap1\n      swap2\n      keccak256\n      dup1\n      sload\n      0x01\n      dup3\n      add\n      sload\n      0x02\n      dup4\n      add\n      sload\n      swap4\n      dup4\n      add\n      sload\n      0x04\n      dup5\n      add\n      sload\n      0x05\n      dup6\n      add\n      sload\n      0x06\n      dup7\n      add\n      sload\n      0x07\n      dup8\n      add\n      sload\n      0x08\n      dup9\n      add\n      sload\n      0x09\n      dup10\n      add\n      sload\n      0x0a\n      swap1\n      swap10\n      add\n      sload\n      swap8\n      swap10\n      sub(shl(0xa0, 0x01), 0x01)\n      dup9\n      and\n      swap10\n      0xff\n      shl(0xa0, 0x01)\n      dup11\n      div\n      dup2\n      and\n      swap11\n      shl(0xa8, 0x01)\n      swap1\n      swap11\n      div\n      and\n      swap9\n      swap2\n      swap8\n      swap7\n      swap6\n      swap5\n      swap4\n      swap3\n      swap2\n      dup14\n      jump\n    tag_13:\n      mload(0x40)\n      tag_17\n      swap14\n      swap13\n      swap12\n      swap11\n      swap10\n      swap9\n      swap8\n      swap7\n      swap6\n      swap5\n      swap4\n      swap3\n      swap2\n      swap1\n      tag_18\n      jump\t// in\n    tag_17:\n      mload(0x40)\n      dup1\n      swap2\n      sub\n      swap1\n      return\n        /* \"GameMaster.sol\":1990:2826  function getMatchUnits(uint256 _matchId)... */\n    tag_4:\n      tag_19\n      tag_20\n      calldatasize\n      0x04\n      tag_15\n      jump\t// in\n    tag_20:\n      tag_21\n      jump\t// in\n    tag_19:\n      mload(0x40)\n      tag_17\n      swap2\n      swap1\n      tag_23\n      jump\t// in\n        /* \"GameMaster.sol\":1589:1984  function getPlayerUnits(address _playerAddress)... */\n    tag_5:\n      tag_24\n      tag_25\n      calldatasize\n      0x04\n      tag_26\n      jump\t// in\n    tag_25:\n      tag_27\n      jump\t// in\n    tag_24:\n      mload(0x40)\n      tag_17\n      swap2\n      swap1\n      tag_29\n      jump\t// in\n        /* \"GameMaster.sol\":1178:1227  mapping(address => Player) public addressToPlayer */\n    tag_6:\n      tag_30\n      tag_31\n      calldatasize\n      0x04\n      tag_26\n      jump\t// in\n    tag_31:\n      mstore(0x20, 0x02)\n      0x00\n      swap1\n      dup2\n      mstore\n      0x40\n      swap1\n      keccak256\n      dup1\n      sload\n      0x04\n      swap1\n      swap2\n      add\n      sload\n      sub(shl(0xa0, 0x01), 0x01)\n      dup3\n      and\n      swap2\n      shl(0xa0, 0x01)\n      swap1\n      div\n      0xff\n      and\n      swap1\n      dup4\n      jump\n    tag_30:\n      mload(0x40)\n      tag_17\n      swap4\n      swap3\n      swap2\n      swap1\n      tag_34\n      jump\t// in\n        /* \"GameMaster.sol\":6486:7144  function setUnitTarget(... */\n    tag_7:\n      tag_35\n      tag_36\n      calldatasize\n      0x04\n      tag_37\n      jump\t// in\n    tag_36:\n      tag_38\n      jump\t// in\n    tag_35:\n      stop\n        /* \"GameMaster.sol\":4780:5416  function createMatch() public returns (uint256) {... */\n    tag_8:\n      tag_39\n      tag_40\n      jump\t// in\n    tag_39:\n      mload(0x40)\n        /* \"#utility.yul\":5307:5332   */\n      swap1\n      dup2\n      mstore\n        /* \"#utility.yul\":5295:5297   */\n      0x20\n        /* \"#utility.yul\":5280:5298   */\n      add\n        /* \"GameMaster.sol\":4780:5416  function createMatch() public returns (uint256) {... */\n      tag_17\n        /* \"#utility.yul\":5161:5338   */\n      jump\n        /* \"GameMaster.sol\":7150:12631  function renderStep(uint256 _matchId) public {... */\n    tag_9:\n      tag_35\n      tag_44\n      calldatasize\n      0x04\n      tag_15\n      jump\t// in\n    tag_44:\n      tag_45\n      jump\t// in\n        /* \"GameMaster.sol\":1283:1330  mapping(uint256 => Match) public matchIdToMatch */\n    tag_10:\n      tag_46\n      tag_47\n      calldatasize\n      0x04\n      tag_15\n      jump\t// in\n    tag_47:\n      tag_48\n      jump\t// in\n    tag_46:\n      mload(0x40)\n      tag_17\n      swap6\n      swap5\n      swap4\n      swap3\n      swap2\n      swap1\n      tag_50\n      jump\t// in\n        /* \"GameMaster.sol\":5422:6113  function joinMatch(uint256 _matchId) public returns (Match memory) {... */\n    tag_11:\n      tag_51\n      tag_52\n      calldatasize\n      0x04\n      tag_15\n      jump\t// in\n    tag_52:\n      tag_53\n      jump\t// in\n    tag_51:\n      mload(0x40)\n      tag_17\n      swap2\n      swap1\n      tag_55\n      jump\t// in\n        /* \"GameMaster.sol\":1990:2826  function getMatchUnits(uint256 _matchId)... */\n    tag_21:\n        /* \"GameMaster.sol\":2076:2090  Unit[6] memory */\n      tag_56\n      tag_57\n      jump\t// in\n    tag_56:\n        /* \"GameMaster.sol\":2162:2181  GameStatus.INACTIVE */\n      0x00\n        /* \"GameMaster.sol\":2127:2151  matchIdToMatch[_matchId] */\n      dup3\n      dup2\n      mstore\n        /* \"GameMaster.sol\":2127:2141  matchIdToMatch */\n      0x04\n        /* \"GameMaster.sol\":2127:2151  matchIdToMatch[_matchId] */\n      0x20\n      mstore\n      0x40\n      dup2\n      keccak256\n        /* \"GameMaster.sol\":2127:2158  matchIdToMatch[_matchId].status */\n      0x0b\n      add\n      sload\n      0xff\n      and\n        /* \"GameMaster.sol\":2127:2181  matchIdToMatch[_matchId].status != GameStatus.INACTIVE */\n      0x03\n      dup2\n      gt\n      iszero\n      tag_63\n      jumpi\n      tag_63\n      tag_61\n      jump\t// in\n    tag_63:\n      sub\n        /* \"GameMaster.sol\":2106:2222  require(... */\n      tag_64\n      jumpi\n      mload(0x40)\n      shl(0xe5, 0x461bcd)\n      dup2\n      mstore\n        /* \"#utility.yul\":7598:7600   */\n      0x20\n        /* \"GameMaster.sol\":2106:2222  require(... */\n      0x04\n      dup3\n      add\n        /* \"#utility.yul\":7580:7601   */\n      mstore\n        /* \"#utility.yul\":7637:7639   */\n      0x0f\n        /* \"#utility.yul\":7617:7635   */\n      0x24\n      dup3\n      add\n        /* \"#utility.yul\":7610:7640   */\n      mstore\n      shl(0x8a, 0x125b9d985b1a590813585d18da1259)\n        /* \"#utility.yul\":7656:7674   */\n      0x44\n      dup3\n      add\n        /* \"#utility.yul\":7649:7694   */\n      mstore\n        /* \"#utility.yul\":7711:7729   */\n      0x64\n      add\n        /* \"GameMaster.sol\":2106:2222  require(... */\n    tag_65:\n      mload(0x40)\n      dup1\n      swap2\n      sub\n      swap1\n      revert\n    tag_64:\n        /* \"GameMaster.sol\":2233:2258  Match memory matchPointer */\n      0x00\n        /* \"GameMaster.sol\":2261:2285  matchIdToMatch[_matchId] */\n      dup3\n      dup2\n      mstore\n        /* \"GameMaster.sol\":2261:2275  matchIdToMatch */\n      0x04\n        /* \"GameMaster.sol\":2261:2285  matchIdToMatch[_matchId] */\n      0x20\n      swap1\n      dup2\n      mstore\n      0x40\n      dup1\n      dup4\n      keccak256\n        /* \"GameMaster.sol\":2233:2285  Match memory matchPointer = matchIdToMatch[_matchId] */\n      dup2\n      mload\n      0xa0\n      dup2\n      add\n      dup4\n      mstore\n      dup2\n      sload\n      dup2\n      mstore\n      dup3\n      mload\n      0x80\n      dup2\n      add\n      swap1\n      swap4\n      mstore\n      0x01\n      dup3\n      add\n      dup1\n      sload\n      sub(shl(0xa0, 0x01), 0x01)\n      dup2\n      and\n      dup6\n      mstore\n      swap2\n      swap5\n        /* \"GameMaster.sol\":2261:2285  matchIdToMatch[_matchId] */\n      swap3\n      swap4\n        /* \"GameMaster.sol\":2233:2285  Match memory matchPointer = matchIdToMatch[_matchId] */\n      dup6\n      dup5\n      add\n      swap4\n      swap1\n      swap3\n      swap1\n      dup4\n      add\n      swap1\n      shl(0xa0, 0x01)\n      swap1\n      div\n      0xff\n      and\n      0x03\n      dup2\n      gt\n      iszero\n      tag_68\n      jumpi\n      tag_68\n      tag_61\n      jump\t// in\n    tag_68:\n      0x03\n      dup2\n      gt\n      iszero\n      tag_70\n      jumpi\n      tag_70\n      tag_61\n      jump\t// in\n    tag_70:\n      dup2\n      mstore\n      0x40\n      dup1\n      mload\n      0x60\n      dup2\n      add\n      swap2\n      dup3\n      swap1\n      mstore\n      0x20\n      swap1\n      swap3\n      add\n      swap2\n      swap1\n      0x01\n      dup5\n      add\n      swap1\n      0x03\n      swap1\n      dup3\n      dup5\n    tag_72:\n      dup2\n      sload\n      dup2\n      mstore\n      0x20\n      add\n      swap1\n      0x01\n      add\n      swap1\n      dup1\n      dup4\n      gt\n      tag_72\n      jumpi\n      pop\n      pop\n      pop\n      swap2\n      dup4\n      mstore\n      pop\n      pop\n      0x04\n      swap2\n      swap1\n      swap2\n      add\n      sload\n      0x20\n      swap2\n      dup3\n      add\n      mstore\n      swap1\n      dup3\n      mstore\n      0x40\n      dup1\n      mload\n      0x80\n      dup2\n      add\n      swap1\n      swap2\n      mstore\n      0x06\n      dup5\n      add\n      dup1\n      sload\n      sub(shl(0xa0, 0x01), 0x01)\n      dup2\n      and\n      dup4\n      mstore\n      swap4\n      dup4\n      add\n      swap4\n      swap2\n      swap3\n      swap1\n      swap2\n      swap1\n      dup4\n      add\n      swap1\n      shl(0xa0, 0x01)\n      swap1\n      div\n      0xff\n      and\n      0x03\n      dup2\n      gt\n      iszero\n      tag_74\n      jumpi\n      tag_74\n      tag_61\n      jump\t// in\n    tag_74:\n      0x03\n      dup2\n      gt\n      iszero\n      tag_76\n      jumpi\n      tag_76\n      tag_61\n      jump\t// in\n    tag_76:\n      dup2\n      mstore\n      0x40\n      dup1\n      mload\n      0x60\n      dup2\n      add\n      swap2\n      dup3\n      swap1\n      mstore\n      0x20\n      swap1\n      swap3\n      add\n      swap2\n      swap1\n      0x01\n      dup5\n      add\n      swap1\n      0x03\n      swap1\n      dup3\n      dup5\n    tag_78:\n      dup2\n      sload\n      dup2\n      mstore\n      0x20\n      add\n      swap1\n      0x01\n      add\n      swap1\n      dup1\n      dup4\n      gt\n      tag_78\n      jumpi\n      pop\n      pop\n      pop\n      swap2\n      dup4\n      mstore\n      pop\n      pop\n      0x04\n      swap2\n      swap1\n      swap2\n      add\n      sload\n      0x20\n      swap2\n      dup3\n      add\n      mstore\n      swap1\n      dup3\n      mstore\n      0x0b\n      dup4\n      add\n      sload\n      swap2\n      add\n      swap1\n      0xff\n      and\n      0x03\n      dup2\n      gt\n      iszero\n      tag_80\n      jumpi\n      tag_80\n      tag_61\n      jump\t// in\n    tag_80:\n      0x03\n      dup2\n      gt\n      iszero\n      tag_82\n      jumpi\n      tag_82\n      tag_61\n      jump\t// in\n    tag_82:\n      dup2\n      mstore\n      0x0c\n      swap2\n      swap1\n      swap2\n      add\n      sload\n      0x20\n      swap2\n      dup3\n      add\n      mstore\n        /* \"GameMaster.sol\":2314:2334  matchPointer.playerA */\n      dup2\n      add\n      mload\n        /* \"GameMaster.sol\":2314:2340  matchPointer.playerA.owner */\n      mload\n        /* \"GameMaster.sol\":2369:2389  matchPointer.playerB */\n      0x40\n      dup3\n      add\n      mload\n        /* \"GameMaster.sol\":2369:2395  matchPointer.playerB.owner */\n      mload\n        /* \"GameMaster.sol\":2233:2285  Match memory matchPointer = matchIdToMatch[_matchId] */\n      swap2\n      swap3\n      pop\n        /* \"GameMaster.sol\":2314:2340  matchPointer.playerA.owner */\n      swap1\n        /* \"GameMaster.sol\":2406:2431  Unit[6] memory matchUnits */\n      tag_83\n      tag_57\n      jump\t// in\n    tag_83:\n        /* \"GameMaster.sol\":2446:2455  uint256 i */\n      0x00\n        /* \"GameMaster.sol\":2441:2792  for (uint256 i = 0; i < 6; i++) {... */\n    tag_84:\n        /* \"GameMaster.sol\":2465:2466  6 */\n      0x06\n        /* \"GameMaster.sol\":2461:2462  i */\n      dup2\n        /* \"GameMaster.sol\":2461:2466  i < 6 */\n      lt\n        /* \"GameMaster.sol\":2441:2792  for (uint256 i = 0; i < 6; i++) {... */\n      iszero\n      tag_85\n      jumpi\n        /* \"GameMaster.sol\":2495:2496  3 */\n      0x03\n        /* \"GameMaster.sol\":2491:2492  i */\n      dup2\n        /* \"GameMaster.sol\":2491:2496  i < 3 */\n      lt\n        /* \"GameMaster.sol\":2487:2782  if (i < 3) {... */\n      iszero\n      tag_87\n      jumpi\n      sub(shl(0xa0, 0x01), 0x01)\n        /* \"GameMaster.sol\":2566:2591  addressToPlayer[addressA] */\n      dup5\n      and\n        /* \"GameMaster.sol\":2532:2620  unitIdToUnit[... */\n      0x00\n        /* \"GameMaster.sol\":2566:2591  addressToPlayer[addressA] */\n      swap1\n      dup2\n      mstore\n        /* \"GameMaster.sol\":2566:2581  addressToPlayer */\n      0x02\n        /* \"GameMaster.sol\":2566:2591  addressToPlayer[addressA] */\n      0x20\n      mstore\n      0x40\n      dup2\n      keccak256\n        /* \"GameMaster.sol\":2532:2544  unitIdToUnit */\n      0x03\n      swap2\n        /* \"GameMaster.sol\":2532:2620  unitIdToUnit[... */\n      swap1\n        /* \"GameMaster.sol\":2566:2599  addressToPlayer[addressA].unitIds */\n      0x01\n      add\n        /* \"GameMaster.sol\":2600:2601  i */\n      dup4\n        /* \"GameMaster.sol\":2566:2602  addressToPlayer[addressA].unitIds[i] */\n      dup4\n      dup2\n      lt\n      tag_89\n      jumpi\n      tag_89\n      tag_90\n      jump\t// in\n    tag_89:\n      add\n      sload\n        /* \"GameMaster.sol\":2532:2620  unitIdToUnit[... */\n      dup2\n      mstore\n      0x20\n      dup1\n      dup3\n      add\n      swap3\n      swap1\n      swap3\n      mstore\n      0x40\n      swap1\n      dup2\n      add\n      0x00\n      keccak256\n        /* \"GameMaster.sol\":2516:2620  matchUnits[i] = unitIdToUnit[... */\n      dup2\n      mload\n      0x01a0\n      dup2\n      add\n      dup4\n      mstore\n      dup2\n      sload\n      dup2\n      mstore\n      0x01\n      dup3\n      add\n      sload\n      sub(shl(0xa0, 0x01), 0x01)\n      dup2\n      and\n      swap5\n      dup3\n      add\n      swap5\n      swap1\n      swap5\n      mstore\n      swap3\n        /* \"GameMaster.sol\":2532:2620  unitIdToUnit[... */\n      swap1\n      swap2\n        /* \"GameMaster.sol\":2516:2620  matchUnits[i] = unitIdToUnit[... */\n      dup4\n      add\n      swap1\n      shl(0xa0, 0x01)\n      swap1\n      div\n      0xff\n      and\n      0x02\n      dup2\n      gt\n      iszero\n      tag_93\n      jumpi\n      tag_93\n      tag_61\n      jump\t// in\n    tag_93:\n      0x02\n      dup2\n      gt\n      iszero\n      tag_95\n      jumpi\n      tag_95\n      tag_61\n      jump\t// in\n    tag_95:\n      dup2\n      mstore\n      0x20\n      add\n      0x01\n      dup3\n      add\n      0x15\n      swap1\n      sload\n      swap1\n      0x0100\n      exp\n      swap1\n      div\n      0xff\n      and\n      0x03\n      dup2\n      gt\n      iszero\n      tag_97\n      jumpi\n      tag_97\n      tag_61\n      jump\t// in\n    tag_97:\n      0x03\n      dup2\n      gt\n      iszero\n      tag_99\n      jumpi\n      tag_99\n      tag_61\n      jump\t// in\n    tag_99:\n      dup2\n      mstore\n      0x20\n      add\n      0x02\n      dup3\n      add\n      sload\n      dup2\n      mstore\n      0x20\n      add\n      0x03\n      dup3\n      add\n      sload\n      dup2\n      mstore\n      0x20\n      add\n      0x04\n      dup3\n      add\n      sload\n      dup2\n      mstore\n      0x20\n      add\n      0x05\n      dup3\n      add\n      sload\n      dup2\n      mstore\n      0x20\n      add\n      0x06\n      dup3\n      add\n      sload\n      dup2\n      mstore\n      0x20\n      add\n      0x07\n      dup3\n      add\n      sload\n      dup2\n      mstore\n      0x20\n      add\n      0x08\n      dup3\n      add\n      sload\n      dup2\n      mstore\n      0x20\n      add\n      0x09\n      dup3\n      add\n      sload\n      dup2\n      mstore\n      0x20\n      add\n      0x0a\n      dup3\n      add\n      sload\n      dup2\n      mstore\n      pop\n      pop\n        /* \"GameMaster.sol\":2516:2526  matchUnits */\n      dup3\n        /* \"GameMaster.sol\":2527:2528  i */\n      dup3\n        /* \"GameMaster.sol\":2516:2529  matchUnits[i] */\n      0x06\n      dup2\n      lt\n      tag_101\n      jumpi\n      tag_101\n      tag_90\n      jump\t// in\n    tag_101:\n      0x20\n      mul\n      add\n        /* \"GameMaster.sol\":2516:2620  matchUnits[i] = unitIdToUnit[... */\n      mstore\n        /* \"GameMaster.sol\":2487:2782  if (i < 3) {... */\n      jump(tag_102)\n    tag_87:\n      sub(shl(0xa0, 0x01), 0x01)\n        /* \"GameMaster.sol\":2709:2734  addressToPlayer[addressB] */\n      dup4\n      and\n        /* \"GameMaster.sol\":2675:2767  unitIdToUnit[... */\n      0x00\n        /* \"GameMaster.sol\":2709:2734  addressToPlayer[addressB] */\n      swap1\n      dup2\n      mstore\n        /* \"GameMaster.sol\":2709:2724  addressToPlayer */\n      0x02\n        /* \"GameMaster.sol\":2709:2734  addressToPlayer[addressB] */\n      0x20\n      mstore\n      0x40\n      dup2\n      keccak256\n        /* \"GameMaster.sol\":2675:2687  unitIdToUnit */\n      0x03\n      swap2\n        /* \"GameMaster.sol\":2675:2767  unitIdToUnit[... */\n      swap1\n        /* \"GameMaster.sol\":2709:2742  addressToPlayer[addressB].unitIds */\n      0x01\n      add\n        /* \"GameMaster.sol\":2743:2748  i - 3 */\n      tag_103\n        /* \"GameMaster.sol\":2675:2687  unitIdToUnit */\n      dup4\n        /* \"GameMaster.sol\":2743:2744  i */\n      dup6\n        /* \"GameMaster.sol\":2743:2748  i - 3 */\n      tag_104\n      jump\t// in\n    tag_103:\n        /* \"GameMaster.sol\":2709:2749  addressToPlayer[addressB].unitIds[i - 3] */\n      0x03\n      dup2\n      lt\n      tag_106\n      jumpi\n      tag_106\n      tag_90\n      jump\t// in\n    tag_106:\n      add\n      sload\n        /* \"GameMaster.sol\":2675:2767  unitIdToUnit[... */\n      dup2\n      mstore\n      0x20\n      dup1\n      dup3\n      add\n      swap3\n      swap1\n      swap3\n      mstore\n      0x40\n      swap1\n      dup2\n      add\n      0x00\n      keccak256\n        /* \"GameMaster.sol\":2659:2767  matchUnits[i] = unitIdToUnit[... */\n      dup2\n      mload\n      0x01a0\n      dup2\n      add\n      dup4\n      mstore\n      dup2\n      sload\n      dup2\n      mstore\n      0x01\n      dup3\n      add\n      sload\n      sub(shl(0xa0, 0x01), 0x01)\n      dup2\n      and\n      swap5\n      dup3\n      add\n      swap5\n      swap1\n      swap5\n      mstore\n      swap3\n        /* \"GameMaster.sol\":2675:2767  unitIdToUnit[... */\n      swap1\n      swap2\n        /* \"GameMaster.sol\":2659:2767  matchUnits[i] = unitIdToUnit[... */\n      dup4\n      add\n      swap1\n      shl(0xa0, 0x01)\n      swap1\n      div\n      0xff\n      and\n      0x02\n      dup2\n      gt\n      iszero\n      tag_109\n      jumpi\n      tag_109\n      tag_61\n      jump\t// in\n    tag_109:\n      0x02\n      dup2\n      gt\n      iszero\n      tag_111\n      jumpi\n      tag_111\n      tag_61\n      jump\t// in\n    tag_111:\n      dup2\n      mstore\n      0x20\n      add\n      0x01\n      dup3\n      add\n      0x15\n      swap1\n      sload\n      swap1\n      0x0100\n      exp\n      swap1\n      div\n      0xff\n      and\n      0x03\n      dup2\n      gt\n      iszero\n      tag_113\n      jumpi\n      tag_113\n      tag_61\n      jump\t// in\n    tag_113:\n      0x03\n      dup2\n      gt\n      iszero\n      tag_115\n      jumpi\n      tag_115\n      tag_61\n      jump\t// in\n    tag_115:\n      dup2\n      mstore\n      0x20\n      add\n      0x02\n      dup3\n      add\n      sload\n      dup2\n      mstore\n      0x20\n      add\n      0x03\n      dup3\n      add\n      sload\n      dup2\n      mstore\n      0x20\n      add\n      0x04\n      dup3\n      add\n      sload\n      dup2\n      mstore\n      0x20\n      add\n      0x05\n      dup3\n      add\n      sload\n      dup2\n      mstore\n      0x20\n      add\n      0x06\n      dup3\n      add\n      sload\n      dup2\n      mstore\n      0x20\n      add\n      0x07\n      dup3\n      add\n      sload\n      dup2\n      mstore\n      0x20\n      add\n      0x08\n      dup3\n      add\n      sload\n      dup2\n      mstore\n      0x20\n      add\n      0x09\n      dup3\n      add\n      sload\n      dup2\n      mstore\n      0x20\n      add\n      0x0a\n      dup3\n      add\n      sload\n      dup2\n      mstore\n      pop\n      pop\n        /* \"GameMaster.sol\":2659:2669  matchUnits */\n      dup3\n        /* \"GameMaster.sol\":2670:2671  i */\n      dup3\n        /* \"GameMaster.sol\":2659:2672  matchUnits[i] */\n      0x06\n      dup2\n      lt\n      tag_117\n      jumpi\n      tag_117\n      tag_90\n      jump\t// in\n    tag_117:\n      0x20\n      mul\n      add\n        /* \"GameMaster.sol\":2659:2767  matchUnits[i] = unitIdToUnit[... */\n      mstore\n        /* \"GameMaster.sol\":2487:2782  if (i < 3) {... */\n    tag_102:\n        /* \"GameMaster.sol\":2468:2471  i++ */\n      dup1\n      tag_118\n      dup2\n      tag_119\n      jump\t// in\n    tag_118:\n      swap2\n      pop\n      pop\n        /* \"GameMaster.sol\":2441:2792  for (uint256 i = 0; i < 6; i++) {... */\n      jump(tag_84)\n    tag_85:\n      pop\n        /* \"GameMaster.sol\":2809:2819  matchUnits */\n      swap6\n        /* \"GameMaster.sol\":1990:2826  function getMatchUnits(uint256 _matchId)... */\n      swap5\n      pop\n      pop\n      pop\n      pop\n      pop\n      jump\t// out\n        /* \"GameMaster.sol\":1589:1984  function getPlayerUnits(address _playerAddress)... */\n    tag_27:\n        /* \"GameMaster.sol\":1682:1696  Unit[3] memory */\n      tag_120\n      tag_121\n      jump\t// in\n    tag_120:\n        /* \"GameMaster.sol\":1712:1738  Unit[3] memory playerUnits */\n      tag_123\n      tag_121\n      jump\t// in\n    tag_123:\n        /* \"GameMaster.sol\":1794:1803  uint256 i */\n      0x00\n        /* \"GameMaster.sol\":1789:1949  for (uint256 i = 0; i < 3; i++) {... */\n    tag_124:\n        /* \"GameMaster.sol\":1813:1814  3 */\n      0x03\n        /* \"GameMaster.sol\":1809:1810  i */\n      dup2\n        /* \"GameMaster.sol\":1809:1814  i < 3 */\n      lt\n        /* \"GameMaster.sol\":1789:1949  for (uint256 i = 0; i < 3; i++) {... */\n      iszero\n      tag_125\n      jumpi\n      sub(shl(0xa0, 0x01), 0x01)\n        /* \"GameMaster.sol\":1882:1913  addressToPlayer[_playerAddress] */\n      dup5\n      and\n        /* \"GameMaster.sol\":1852:1938  unitIdToUnit[... */\n      0x00\n        /* \"GameMaster.sol\":1882:1913  addressToPlayer[_playerAddress] */\n      swap1\n      dup2\n      mstore\n        /* \"GameMaster.sol\":1882:1897  addressToPlayer */\n      0x02\n        /* \"GameMaster.sol\":1882:1913  addressToPlayer[_playerAddress] */\n      0x20\n      mstore\n      0x40\n      dup2\n      keccak256\n        /* \"GameMaster.sol\":1852:1864  unitIdToUnit */\n      0x03\n      swap2\n        /* \"GameMaster.sol\":1852:1938  unitIdToUnit[... */\n      swap1\n        /* \"GameMaster.sol\":1882:1921  addressToPlayer[_playerAddress].unitIds */\n      0x01\n      add\n        /* \"GameMaster.sol\":1922:1923  i */\n      dup4\n        /* \"GameMaster.sol\":1882:1924  addressToPlayer[_playerAddress].unitIds[i] */\n      dup4\n      dup2\n      lt\n      tag_128\n      jumpi\n      tag_128\n      tag_90\n      jump\t// in\n    tag_128:\n      add\n      sload\n        /* \"GameMaster.sol\":1852:1938  unitIdToUnit[... */\n      dup2\n      mstore\n      0x20\n      dup1\n      dup3\n      add\n      swap3\n      swap1\n      swap3\n      mstore\n      0x40\n      swap1\n      dup2\n      add\n      0x00\n      keccak256\n        /* \"GameMaster.sol\":1835:1938  playerUnits[i] = unitIdToUnit[... */\n      dup2\n      mload\n      0x01a0\n      dup2\n      add\n      dup4\n      mstore\n      dup2\n      sload\n      dup2\n      mstore\n      0x01\n      dup3\n      add\n      sload\n      sub(shl(0xa0, 0x01), 0x01)\n      dup2\n      and\n      swap5\n      dup3\n      add\n      swap5\n      swap1\n      swap5\n      mstore\n      swap3\n        /* \"GameMaster.sol\":1852:1938  unitIdToUnit[... */\n      swap1\n      swap2\n        /* \"GameMaster.sol\":1835:1938  playerUnits[i] = unitIdToUnit[... */\n      dup4\n      add\n      swap1\n      shl(0xa0, 0x01)\n      swap1\n      div\n      0xff\n      and\n      0x02\n      dup2\n      gt\n      iszero\n      tag_131\n      jumpi\n      tag_131\n      tag_61\n      jump\t// in\n    tag_131:\n      0x02\n      dup2\n      gt\n      iszero\n      tag_133\n      jumpi\n      tag_133\n      tag_61\n      jump\t// in\n    tag_133:\n      dup2\n      mstore\n      0x20\n      add\n      0x01\n      dup3\n      add\n      0x15\n      swap1\n      sload\n      swap1\n      0x0100\n      exp\n      swap1\n      div\n      0xff\n      and\n      0x03\n      dup2\n      gt\n      iszero\n      tag_135\n      jumpi\n      tag_135\n      tag_61\n      jump\t// in\n    tag_135:\n      0x03\n      dup2\n      gt\n      iszero\n      tag_137\n      jumpi\n      tag_137\n      tag_61\n      jump\t// in\n    tag_137:\n      dup2\n      mstore\n      0x20\n      add\n      0x02\n      dup3\n      add\n      sload\n      dup2\n      mstore\n      0x20\n      add\n      0x03\n      dup3\n      add\n      sload\n      dup2\n      mstore\n      0x20\n      add\n      0x04\n      dup3\n      add\n      sload\n      dup2\n      mstore\n      0x20\n      add\n      0x05\n      dup3\n      add\n      sload\n      dup2\n      mstore\n      0x20\n      add\n      0x06\n      dup3\n      add\n      sload\n      dup2\n      mstore\n      0x20\n      add\n      0x07\n      dup3\n      add\n      sload\n      dup2\n      mstore\n      0x20\n      add\n      0x08\n      dup3\n      add\n      sload\n      dup2\n      mstore\n      0x20\n      add\n      0x09\n      dup3\n      add\n      sload\n      dup2\n      mstore\n      0x20\n      add\n      0x0a\n      dup3\n      add\n      sload\n      dup2\n      mstore\n      pop\n      pop\n        /* \"GameMaster.sol\":1835:1846  playerUnits */\n      dup3\n        /* \"GameMaster.sol\":1847:1848  i */\n      dup3\n        /* \"GameMaster.sol\":1835:1849  playerUnits[i] */\n      0x03\n      dup2\n      lt\n      tag_139\n      jumpi\n      tag_139\n      tag_90\n      jump\t// in\n    tag_139:\n      0x20\n      mul\n      add\n        /* \"GameMaster.sol\":1835:1938  playerUnits[i] = unitIdToUnit[... */\n      mstore\n        /* \"GameMaster.sol\":1816:1819  i++ */\n      dup1\n      tag_140\n      dup2\n      tag_119\n      jump\t// in\n    tag_140:\n      swap2\n      pop\n      pop\n        /* \"GameMaster.sol\":1789:1949  for (uint256 i = 0; i < 3; i++) {... */\n      jump(tag_124)\n    tag_125:\n      pop\n        /* \"GameMaster.sol\":1966:1977  playerUnits */\n      swap3\n        /* \"GameMaster.sol\":1589:1984  function getPlayerUnits(address _playerAddress)... */\n      swap2\n      pop\n      pop\n      jump\t// out\n        /* \"GameMaster.sol\":6486:7144  function setUnitTarget(... */\n    tag_38:\n        /* \"GameMaster.sol\":6630:6651  unitIdToUnit[_unitId] */\n      0x00\n      dup4\n      dup2\n      mstore\n        /* \"GameMaster.sol\":6630:6642  unitIdToUnit */\n      0x03\n        /* \"GameMaster.sol\":6630:6651  unitIdToUnit[_unitId] */\n      0x20\n      mstore\n      0x40\n      swap1\n      keccak256\n        /* \"GameMaster.sol\":6630:6657  unitIdToUnit[_unitId].owner */\n      0x01\n      add\n      sload\n      sub(shl(0xa0, 0x01), 0x01)\n      and\n        /* \"GameMaster.sol\":6661:6671  msg.sender */\n      caller\n        /* \"GameMaster.sol\":6630:6671  unitIdToUnit[_unitId].owner == msg.sender */\n      eq\n        /* \"GameMaster.sol\":6609:6720  require(... */\n      tag_142\n      jumpi\n      mload(0x40)\n      shl(0xe5, 0x461bcd)\n      dup2\n      mstore\n        /* \"#utility.yul\":8479:8481   */\n      0x20\n        /* \"GameMaster.sol\":6609:6720  require(... */\n      0x04\n      dup3\n      add\n        /* \"#utility.yul\":8461:8482   */\n      mstore\n        /* \"#utility.yul\":8518:8520   */\n      0x17\n        /* \"#utility.yul\":8498:8516   */\n      0x24\n      dup3\n      add\n        /* \"#utility.yul\":8491:8521   */\n      mstore\n        /* \"#utility.yul\":8557:8582   */\n      0x596f7520646f6e2774206f776e207468697320756e6974000000000000000000\n        /* \"#utility.yul\":8537:8555   */\n      0x44\n      dup3\n      add\n        /* \"#utility.yul\":8530:8583   */\n      mstore\n        /* \"#utility.yul\":8600:8618   */\n      0x64\n      add\n        /* \"GameMaster.sol\":6609:6720  require(... */\n      tag_65\n        /* \"#utility.yul\":8277:8624   */\n      jump\n        /* \"GameMaster.sol\":6609:6720  require(... */\n    tag_142:\n        /* \"GameMaster.sol\":6749:6751  10 */\n      0x0a\n        /* \"GameMaster.sol\":6738:6746  _targetX */\n      dup3\n        /* \"GameMaster.sol\":6738:6751  _targetX < 10 */\n      lt\n        /* \"GameMaster.sol\":6738:6768  _targetX < 10 && _targetY < 10 */\n      dup1\n      iszero\n      tag_145\n      jumpi\n      pop\n        /* \"GameMaster.sol\":6766:6768  10 */\n      0x0a\n        /* \"GameMaster.sol\":6755:6763  _targetY */\n      dup2\n        /* \"GameMaster.sol\":6755:6768  _targetY < 10 */\n      lt\n        /* \"GameMaster.sol\":6738:6768  _targetX < 10 && _targetY < 10 */\n    tag_145:\n        /* \"GameMaster.sol\":6730:6788  require(_targetX < 10 && _targetY < 10, \"Grid is 10 x 10\") */\n      tag_146\n      jumpi\n      mload(0x40)\n      shl(0xe5, 0x461bcd)\n      dup2\n      mstore\n        /* \"#utility.yul\":8831:8833   */\n      0x20\n        /* \"GameMaster.sol\":6730:6788  require(_targetX < 10 && _targetY < 10, \"Grid is 10 x 10\") */\n      0x04\n      dup3\n      add\n        /* \"#utility.yul\":8813:8834   */\n      mstore\n        /* \"#utility.yul\":8870:8872   */\n      0x0f\n        /* \"#utility.yul\":8850:8868   */\n      0x24\n      dup3\n      add\n        /* \"#utility.yul\":8843:8873   */\n      mstore\n      shl(0x8c, 0x047726964206973203130207820313)\n        /* \"#utility.yul\":8889:8907   */\n      0x44\n      dup3\n      add\n        /* \"#utility.yul\":8882:8927   */\n      mstore\n        /* \"#utility.yul\":8944:8962   */\n      0x64\n      add\n        /* \"GameMaster.sol\":6730:6788  require(_targetX < 10 && _targetY < 10, \"Grid is 10 x 10\") */\n      tag_65\n        /* \"#utility.yul\":8629:8968   */\n      jump\n        /* \"GameMaster.sol\":6730:6788  require(_targetX < 10 && _targetY < 10, \"Grid is 10 x 10\") */\n    tag_146:\n        /* \"GameMaster.sol\":6833:6854  unitIdToUnit[_unitId] */\n      0x00\n      dup4\n      dup2\n      mstore\n        /* \"GameMaster.sol\":6833:6845  unitIdToUnit */\n      0x03\n        /* \"GameMaster.sol\":6833:6854  unitIdToUnit[_unitId] */\n      0x20\n      mstore\n      0x40\n      swap1\n      keccak256\n        /* \"GameMaster.sol\":6833:6863  unitIdToUnit[_unitId].currentX */\n      0x05\n      add\n      sload\n        /* \"GameMaster.sol\":6821:6863  _targetX == unitIdToUnit[_unitId].currentX */\n      dup3\n      eq\n        /* \"GameMaster.sol\":6821:6925  _targetX == unitIdToUnit[_unitId].currentX &&... */\n      dup1\n      iszero\n      tag_149\n      jumpi\n      pop\n        /* \"GameMaster.sol\":6895:6916  unitIdToUnit[_unitId] */\n      0x00\n      dup4\n      dup2\n      mstore\n        /* \"GameMaster.sol\":6895:6907  unitIdToUnit */\n      0x03\n        /* \"GameMaster.sol\":6895:6916  unitIdToUnit[_unitId] */\n      0x20\n      mstore\n      0x40\n      swap1\n      keccak256\n        /* \"GameMaster.sol\":6895:6925  unitIdToUnit[_unitId].currentY */\n      0x06\n      add\n      sload\n        /* \"GameMaster.sol\":6883:6925  _targetY == unitIdToUnit[_unitId].currentY */\n      dup2\n      eq\n        /* \"GameMaster.sol\":6821:6925  _targetX == unitIdToUnit[_unitId].currentX &&... */\n    tag_149:\n        /* \"GameMaster.sol\":6819:6926  !(_targetX == unitIdToUnit[_unitId].currentX &&... */\n      iszero\n        /* \"GameMaster.sol\":6798:6982  require(... */\n      tag_150\n      jumpi\n      mload(0x40)\n      shl(0xe5, 0x461bcd)\n      dup2\n      mstore\n        /* \"#utility.yul\":9175:9177   */\n      0x20\n        /* \"GameMaster.sol\":6798:6982  require(... */\n      0x04\n      dup3\n      add\n        /* \"#utility.yul\":9157:9178   */\n      mstore\n        /* \"#utility.yul\":9214:9216   */\n      0x1e\n        /* \"#utility.yul\":9194:9212   */\n      0x24\n      dup3\n      add\n        /* \"#utility.yul\":9187:9217   */\n      mstore\n        /* \"#utility.yul\":9253:9285   */\n      0x556e697420616c726561647920696e207468617420706f736974696f6e2e0000\n        /* \"#utility.yul\":9233:9251   */\n      0x44\n      dup3\n      add\n        /* \"#utility.yul\":9226:9286   */\n      mstore\n        /* \"#utility.yul\":9303:9321   */\n      0x64\n      add\n        /* \"GameMaster.sol\":6798:6982  require(... */\n      tag_65\n        /* \"#utility.yul\":8973:9327   */\n      jump\n        /* \"GameMaster.sol\":6798:6982  require(... */\n    tag_150:\n        /* \"GameMaster.sol\":6992:7013  unitIdToUnit[_unitId] */\n      0x00\n      swap3\n      dup4\n      mstore\n        /* \"GameMaster.sol\":6992:7004  unitIdToUnit */\n      0x03\n        /* \"GameMaster.sol\":6992:7013  unitIdToUnit[_unitId] */\n      0x20\n      mstore\n      0x40\n      swap1\n      swap3\n      keccak256\n        /* \"GameMaster.sol\":6992:7021  unitIdToUnit[_unitId].targetX */\n      0x07\n      dup2\n      add\n        /* \"GameMaster.sol\":6992:7032  unitIdToUnit[_unitId].targetX = _targetX */\n      swap2\n      swap1\n      swap2\n      sstore\n        /* \"GameMaster.sol\":7042:7071  unitIdToUnit[_unitId].targetY */\n      0x08\n      dup2\n      add\n        /* \"GameMaster.sol\":7042:7082  unitIdToUnit[_unitId].targetY = _targetY */\n      swap2\n      swap1\n      swap2\n      sstore\n        /* \"GameMaster.sol\":7124:7137  Action.MOVING */\n      0x01\n        /* \"GameMaster.sol\":7093:7121  unitIdToUnit[_unitId].action */\n      add\n        /* \"GameMaster.sol\":7093:7137  unitIdToUnit[_unitId].action = Action.MOVING */\n      dup1\n      sload\n      not(shl(0xa8, 0xff))\n      and\n      shl(0xa8, 0x01)\n      or\n      swap1\n      sstore\n        /* \"GameMaster.sol\":6486:7144  function setUnitTarget(... */\n      jump\t// out\n        /* \"GameMaster.sol\":4780:5416  function createMatch() public returns (uint256) {... */\n    tag_40:\n        /* \"GameMaster.sol\":4819:4826  uint256 */\n      0x00\n      dup1\n        /* \"GameMaster.sol\":4931:4941  msg.sender */\n      caller\n        /* \"GameMaster.sol\":4915:4942  addressToPlayer[msg.sender] */\n      0x00\n      swap1\n      dup2\n      mstore\n        /* \"GameMaster.sol\":4915:4930  addressToPlayer */\n      0x02\n        /* \"GameMaster.sol\":4915:4942  addressToPlayer[msg.sender] */\n      0x20\n      mstore\n      0x40\n      swap1\n      keccak256\n        /* \"GameMaster.sol\":4915:4947  addressToPlayer[msg.sender].rank */\n      sload\n      shl(0xa0, 0x01)\n      swap1\n      div\n      0xff\n      and\n        /* \"GameMaster.sol\":4915:4960  addressToPlayer[msg.sender].rank == Rank.NONE */\n      0x03\n      dup2\n      gt\n      iszero\n      tag_159\n      jumpi\n      tag_159\n      tag_61\n      jump\t// in\n    tag_159:\n      sub\n        /* \"GameMaster.sol\":4911:5043  if (addressToPlayer[msg.sender].rank == Rank.NONE) {... */\n      tag_160\n      jumpi\n        /* \"GameMaster.sol\":5020:5032  initPlayer() */\n      tag_161\n        /* \"GameMaster.sol\":5020:5030  initPlayer */\n      tag_162\n        /* \"GameMaster.sol\":5020:5032  initPlayer() */\n      jump\t// in\n    tag_161:\n      pop\n        /* \"GameMaster.sol\":4911:5043  if (addressToPlayer[msg.sender].rank == Rank.NONE) {... */\n    tag_160:\n        /* \"GameMaster.sol\":5096:5117  Match memory newMatch */\n      tag_163\n      tag_164\n      jump\t// in\n    tag_163:\n        /* \"GameMaster.sol\":5141:5151  matchCount */\n      0x00\n      dup1\n      sload\n        /* \"GameMaster.sol\":5127:5151  newMatch.id = matchCount */\n      dup3\n      mstore\n        /* \"GameMaster.sol\":5179:5196  GameStatus.QUEUED */\n      0x01\n        /* \"GameMaster.sol\":5161:5176  newMatch.status */\n      0x60\n      dup4\n      add\n        /* \"GameMaster.sol\":5161:5196  newMatch.status = GameStatus.QUEUED */\n      mstore\n        /* \"GameMaster.sol\":5241:5251  msg.sender */\n      caller\n        /* \"GameMaster.sol\":5225:5252  addressToPlayer[msg.sender] */\n      dup2\n      mstore\n        /* \"GameMaster.sol\":5225:5240  addressToPlayer */\n      0x02\n        /* \"GameMaster.sol\":5225:5252  addressToPlayer[msg.sender] */\n      0x20\n      swap1\n      dup2\n      mstore\n      0x40\n      swap2\n      dup3\n      swap1\n      keccak256\n        /* \"GameMaster.sol\":5206:5252  newMatch.playerA = addressToPlayer[msg.sender] */\n      dup3\n      mload\n      0x80\n      dup2\n      add\n      swap1\n      swap4\n      mstore\n      dup1\n      sload\n      sub(shl(0xa0, 0x01), 0x01)\n      dup2\n      and\n      dup5\n      mstore\n        /* \"GameMaster.sol\":5225:5252  addressToPlayer[msg.sender] */\n      swap1\n      swap2\n        /* \"GameMaster.sol\":5206:5252  newMatch.playerA = addressToPlayer[msg.sender] */\n      dup4\n      add\n      swap1\n      shl(0xa0, 0x01)\n      swap1\n      div\n      0xff\n      and\n      0x03\n      dup2\n      gt\n      iszero\n      tag_170\n      jumpi\n      tag_170\n      tag_61\n      jump\t// in\n    tag_170:\n      0x03\n      dup2\n      gt\n      iszero\n      tag_172\n      jumpi\n      tag_172\n      tag_61\n      jump\t// in\n    tag_172:\n      dup2\n      mstore\n      0x40\n      dup1\n      mload\n      0x60\n      dup2\n      add\n      swap2\n      dup3\n      swap1\n      mstore\n      0x20\n      swap1\n      swap3\n      add\n      swap2\n      swap1\n      0x01\n      dup5\n      add\n      swap1\n      0x03\n      swap1\n      dup3\n      dup5\n    tag_174:\n      dup2\n      sload\n      dup2\n      mstore\n      0x20\n      add\n      swap1\n      0x01\n      add\n      swap1\n      dup1\n      dup4\n      gt\n      tag_174\n      jumpi\n      pop\n      pop\n      pop\n      swap2\n      dup4\n      mstore\n      pop\n      pop\n      0x04\n      swap2\n      dup3\n      add\n      sload\n      0x20\n      swap2\n      dup3\n      add\n      mstore\n        /* \"GameMaster.sol\":5206:5222  newMatch.playerA */\n      dup4\n      dup2\n      add\n        /* \"GameMaster.sol\":5206:5252  newMatch.playerA = addressToPlayer[msg.sender] */\n      swap3\n      dup4\n      mstore\n      0x00\n        /* \"GameMaster.sol\":5300:5310  matchCount */\n      dup1\n      sload\n        /* \"GameMaster.sol\":5278:5288  msg.sender */\n      caller\n        /* \"GameMaster.sol\":5262:5289  addressToPlayer[msg.sender] */\n      dup3\n      mstore\n        /* \"GameMaster.sol\":5262:5277  addressToPlayer */\n      0x02\n        /* \"GameMaster.sol\":5262:5289  addressToPlayer[msg.sender] */\n      dup4\n      mstore\n      0x40\n      dup1\n      dup4\n      keccak256\n        /* \"GameMaster.sol\":5262:5297  addressToPlayer[msg.sender].matchId */\n      dup6\n      add\n        /* \"GameMaster.sol\":5262:5310  addressToPlayer[msg.sender].matchId = matchCount */\n      dup3\n      swap1\n      sstore\n        /* \"GameMaster.sol\":5321:5347  matchIdToMatch[matchCount] */\n      swap1\n      dup3\n      mstore\n      swap3\n      dup3\n      mstore\n      swap2\n      swap1\n      swap2\n      keccak256\n        /* \"GameMaster.sol\":5321:5358  matchIdToMatch[matchCount] = newMatch */\n      dup4\n      mload\n      dup2\n      sstore\n      swap2\n      mload\n      dup1\n      mload\n      0x01\n      dup5\n      add\n      dup1\n      sload\n      sub(shl(0xa0, 0x01), 0x01)\n      swap3\n      swap1\n      swap3\n      and\n      not(sub(shl(0xa0, 0x01), 0x01))\n      dup4\n      and\n      dup2\n      or\n      dup3\n      sstore\n      swap4\n      dup4\n      add\n      mload\n        /* \"GameMaster.sol\":5206:5214  newMatch */\n      dup7\n      swap6\n        /* \"GameMaster.sol\":5321:5347  matchIdToMatch[matchCount] */\n      swap5\n        /* \"GameMaster.sol\":5321:5358  matchIdToMatch[matchCount] = newMatch */\n      swap2\n      swap3\n      swap1\n      swap2\n      dup4\n      swap2\n      not(sub(shl(0xa8, 0x01), 0x01))\n      and\n      or\n      shl(0xa0, 0x01)\n      dup4\n      0x03\n      dup2\n      gt\n      iszero\n      tag_176\n      jumpi\n      tag_176\n      tag_61\n      jump\t// in\n    tag_176:\n      mul\n      or\n      swap1\n      sstore\n      pop\n      0x40\n      dup3\n      add\n      mload\n      tag_177\n      swap1\n      0x01\n      dup4\n      add\n      swap1\n      0x03\n      tag_178\n      jump\t// in\n    tag_177:\n      pop\n      0x60\n      swap2\n      swap1\n      swap2\n      add\n      mload\n      0x04\n      swap1\n      swap2\n      add\n      sstore\n      0x40\n      dup3\n      add\n      mload\n      dup1\n      mload\n      0x06\n      dup4\n      add\n      dup1\n      sload\n      not(sub(shl(0xa0, 0x01), 0x01))\n      dup2\n      and\n      sub(shl(0xa0, 0x01), 0x01)\n      swap1\n      swap4\n      and\n      swap3\n      dup4\n      or\n      dup3\n      sstore\n      0x20\n      dup5\n      add\n      mload\n      swap2\n      swap3\n      dup4\n      swap2\n      not(sub(shl(0xa8, 0x01), 0x01))\n      and\n      or\n      shl(0xa0, 0x01)\n      dup4\n      0x03\n      dup2\n      gt\n      iszero\n      tag_180\n      jumpi\n      tag_180\n      tag_61\n      jump\t// in\n    tag_180:\n      mul\n      or\n      swap1\n      sstore\n      pop\n      0x40\n      dup3\n      add\n      mload\n      tag_181\n      swap1\n      0x01\n      dup4\n      add\n      swap1\n      0x03\n      tag_178\n      jump\t// in\n    tag_181:\n      pop\n      0x60\n      swap2\n      dup3\n      add\n      mload\n      0x04\n      swap1\n      swap2\n      add\n      sstore\n      dup3\n      add\n      mload\n      0x0b\n      dup3\n      add\n      dup1\n      sload\n      not(0xff)\n      and\n      0x01\n      dup4\n      0x03\n      dup2\n      gt\n      iszero\n      tag_183\n      jumpi\n      tag_183\n      tag_61\n      jump\t// in\n    tag_183:\n      mul\n      or\n      swap1\n      sstore\n      pop\n      0x80\n      swap2\n      swap1\n      swap2\n      add\n      mload\n      0x0c\n      swap1\n      swap2\n      add\n      sstore\n        /* \"GameMaster.sol\":5369:5379  matchCount */\n      0x00\n        /* \"GameMaster.sol\":5369:5381  matchCount++ */\n      dup1\n      sload\n      swap1\n        /* \"GameMaster.sol\":5369:5379  matchCount */\n      dup1\n        /* \"GameMaster.sol\":5369:5381  matchCount++ */\n      tag_184\n      dup4\n      tag_119\n      jump\t// in\n    tag_184:\n      swap1\n      swap2\n      sstore\n      pop\n      pop\n        /* \"GameMaster.sol\":5398:5409  newMatch.id */\n      mload\n      swap2\n        /* \"GameMaster.sol\":4780:5416  function createMatch() public returns (uint256) {... */\n      swap1\n      pop\n      jump\t// out\n        /* \"GameMaster.sol\":7150:12631  function renderStep(uint256 _matchId) public {... */\n    tag_45:\n        /* \"GameMaster.sol\":7261:7278  GameStatus.ACTIVE */\n      0x02\n        /* \"GameMaster.sol\":7226:7250  matchIdToMatch[_matchId] */\n      0x00\n      dup3\n      dup2\n      mstore\n        /* \"GameMaster.sol\":7226:7240  matchIdToMatch */\n      0x04\n        /* \"GameMaster.sol\":7226:7250  matchIdToMatch[_matchId] */\n      0x20\n      mstore\n      0x40\n      swap1\n      keccak256\n        /* \"GameMaster.sol\":7226:7257  matchIdToMatch[_matchId].status */\n      0x0b\n      add\n      sload\n      0xff\n      and\n        /* \"GameMaster.sol\":7226:7278  matchIdToMatch[_matchId].status == GameStatus.ACTIVE */\n      0x03\n      dup2\n      gt\n      iszero\n      tag_189\n      jumpi\n      tag_189\n      tag_61\n      jump\t// in\n    tag_189:\n      eq\n        /* \"GameMaster.sol\":7205:7319  require(... */\n      tag_190\n      jumpi\n      mload(0x40)\n      shl(0xe5, 0x461bcd)\n      dup2\n      mstore\n        /* \"#utility.yul\":9534:9536   */\n      0x20\n        /* \"GameMaster.sol\":7205:7319  require(... */\n      0x04\n      dup3\n      add\n        /* \"#utility.yul\":9516:9537   */\n      mstore\n        /* \"#utility.yul\":9573:9575   */\n      0x0f\n        /* \"#utility.yul\":9553:9571   */\n      0x24\n      dup3\n      add\n        /* \"#utility.yul\":9546:9576   */\n      mstore\n      shl(0x88, 0x47616d65206e6f7420416374697665)\n        /* \"#utility.yul\":9592:9610   */\n      0x44\n      dup3\n      add\n        /* \"#utility.yul\":9585:9630   */\n      mstore\n        /* \"#utility.yul\":9647:9665   */\n      0x64\n      add\n        /* \"GameMaster.sol\":7205:7319  require(... */\n      tag_65\n        /* \"#utility.yul\":9332:9671   */\n      jump\n        /* \"GameMaster.sol\":7205:7319  require(... */\n    tag_190:\n        /* \"GameMaster.sol\":7329:7354  Unit[6] memory matchUnits */\n      0x00\n        /* \"GameMaster.sol\":7357:7380  getMatchUnits(_matchId) */\n      tag_193\n        /* \"GameMaster.sol\":7371:7379  _matchId */\n      dup3\n        /* \"GameMaster.sol\":7357:7370  getMatchUnits */\n      tag_21\n        /* \"GameMaster.sol\":7357:7380  getMatchUnits(_matchId) */\n      jump\t// in\n    tag_193:\n        /* \"GameMaster.sol\":7329:7380  Unit[6] memory matchUnits = getMatchUnits(_matchId) */\n      swap1\n      pop\n        /* \"GameMaster.sol\":7474:7483  uint256 i */\n      0x00\n        /* \"GameMaster.sol\":7469:12097  for (uint256 i = 0; i < 6; i++) {... */\n    tag_194:\n        /* \"GameMaster.sol\":7493:7494  6 */\n      0x06\n        /* \"GameMaster.sol\":7489:7490  i */\n      dup2\n        /* \"GameMaster.sol\":7489:7494  i < 6 */\n      lt\n        /* \"GameMaster.sol\":7469:12097  for (uint256 i = 0; i < 6; i++) {... */\n      iszero\n      tag_195\n      jumpi\n        /* \"GameMaster.sol\":7543:7554  Action.DEAD */\n      0x03\n        /* \"GameMaster.sol\":7519:7529  matchUnits */\n      dup3\n        /* \"GameMaster.sol\":7530:7531  i */\n      dup3\n        /* \"GameMaster.sol\":7519:7532  matchUnits[i] */\n      0x06\n      dup2\n      lt\n      tag_200\n      jumpi\n      tag_200\n      tag_90\n      jump\t// in\n    tag_200:\n      0x20\n      mul\n      add\n      mload\n        /* \"GameMaster.sol\":7519:7539  matchUnits[i].action */\n      0x60\n      add\n      mload\n        /* \"GameMaster.sol\":7519:7554  matchUnits[i].action == Action.DEAD */\n      0x03\n      dup2\n      gt\n      iszero\n      tag_202\n      jumpi\n      tag_202\n      tag_61\n      jump\t// in\n    tag_202:\n        /* \"GameMaster.sol\":7515:7564  if (matchUnits[i].action == Action.DEAD) continue */\n      eq\n        /* \"GameMaster.sol\":7556:7564  continue */\n      tag_196\n        /* \"GameMaster.sol\":7515:7564  if (matchUnits[i].action == Action.DEAD) continue */\n      jumpi\n        /* \"GameMaster.sol\":7607:7620  Action.MOVING */\n      0x01\n        /* \"GameMaster.sol\":7583:7593  matchUnits */\n      dup3\n        /* \"GameMaster.sol\":7594:7595  i */\n      dup3\n        /* \"GameMaster.sol\":7583:7596  matchUnits[i] */\n      0x06\n      dup2\n      lt\n      tag_207\n      jumpi\n      tag_207\n      tag_90\n      jump\t// in\n    tag_207:\n      0x20\n      mul\n      add\n      mload\n        /* \"GameMaster.sol\":7583:7603  matchUnits[i].action */\n      0x60\n      add\n      mload\n        /* \"GameMaster.sol\":7583:7620  matchUnits[i].action == Action.MOVING */\n      0x03\n      dup2\n      gt\n      iszero\n      tag_209\n      jumpi\n      tag_209\n      tag_61\n      jump\t// in\n    tag_209:\n      sub\n        /* \"GameMaster.sol\":7579:8602  if (matchUnits[i].action == Action.MOVING) {... */\n      tag_251\n      jumpi\n        /* \"GameMaster.sol\":7751:7761  matchUnits */\n      dup2\n        /* \"GameMaster.sol\":7762:7763  i */\n      dup2\n        /* \"GameMaster.sol\":7751:7764  matchUnits[i] */\n      0x06\n      dup2\n      lt\n      tag_212\n      jumpi\n      tag_212\n      tag_90\n      jump\t// in\n    tag_212:\n      0x20\n      mul\n      add\n      mload\n        /* \"GameMaster.sol\":7751:7772  matchUnits[i].targetX */\n      0x0120\n      add\n      mload\n        /* \"GameMaster.sol\":7725:7735  matchUnits */\n      dup3\n        /* \"GameMaster.sol\":7736:7737  i */\n      dup3\n        /* \"GameMaster.sol\":7725:7738  matchUnits[i] */\n      0x06\n      dup2\n      lt\n      tag_214\n      jumpi\n      tag_214\n      tag_90\n      jump\t// in\n    tag_214:\n      0x20\n      mul\n      add\n      mload\n        /* \"GameMaster.sol\":7725:7747  matchUnits[i].currentX */\n      0xe0\n      add\n      mload\n        /* \"GameMaster.sol\":7725:7772  matchUnits[i].currentX != matchUnits[i].targetX */\n      eq\n        /* \"GameMaster.sol\":7721:8269  if (matchUnits[i].currentX != matchUnits[i].targetX) {... */\n      tag_215\n      jumpi\n        /* \"GameMaster.sol\":7825:7835  matchUnits */\n      dup2\n        /* \"GameMaster.sol\":7836:7837  i */\n      dup2\n        /* \"GameMaster.sol\":7825:7838  matchUnits[i] */\n      0x06\n      dup2\n      lt\n      tag_217\n      jumpi\n      tag_217\n      tag_90\n      jump\t// in\n    tag_217:\n      0x20\n      mul\n      add\n      mload\n        /* \"GameMaster.sol\":7825:7846  matchUnits[i].targetX */\n      0x0120\n      add\n      mload\n        /* \"GameMaster.sol\":7800:7810  matchUnits */\n      dup3\n        /* \"GameMaster.sol\":7811:7812  i */\n      dup3\n        /* \"GameMaster.sol\":7800:7813  matchUnits[i] */\n      0x06\n      dup2\n      lt\n      tag_219\n      jumpi\n      tag_219\n      tag_90\n      jump\t// in\n    tag_219:\n      0x20\n      mul\n      add\n      mload\n        /* \"GameMaster.sol\":7800:7822  matchUnits[i].currentX */\n      0xe0\n      add\n      mload\n        /* \"GameMaster.sol\":7800:7846  matchUnits[i].currentX < matchUnits[i].targetX */\n      lt\n        /* \"GameMaster.sol\":7796:8000  if (matchUnits[i].currentX < matchUnits[i].targetX) {... */\n      iszero\n      tag_220\n      jumpi\n        /* \"GameMaster.sol\":7874:7884  matchUnits */\n      dup2\n        /* \"GameMaster.sol\":7885:7886  i */\n      dup2\n        /* \"GameMaster.sol\":7874:7887  matchUnits[i] */\n      0x06\n      dup2\n      lt\n      tag_222\n      jumpi\n      tag_222\n      tag_90\n      jump\t// in\n    tag_222:\n      0x20\n      mul\n      add\n      mload\n        /* \"GameMaster.sol\":7874:7896  matchUnits[i].currentX */\n      0xe0\n      add\n        /* \"GameMaster.sol\":7874:7898  matchUnits[i].currentX++ */\n      dup1\n      mload\n      swap1\n      tag_223\n      dup3\n      tag_119\n      jump\t// in\n    tag_223:\n      swap1\n      mstore\n      pop\n        /* \"GameMaster.sol\":7721:8269  if (matchUnits[i].currentX != matchUnits[i].targetX) {... */\n      jump(tag_238)\n        /* \"GameMaster.sol\":7796:8000  if (matchUnits[i].currentX < matchUnits[i].targetX) {... */\n    tag_220:\n        /* \"GameMaster.sol\":7953:7963  matchUnits */\n      dup2\n        /* \"GameMaster.sol\":7964:7965  i */\n      dup2\n        /* \"GameMaster.sol\":7953:7966  matchUnits[i] */\n      0x06\n      dup2\n      lt\n      tag_226\n      jumpi\n      tag_226\n      tag_90\n      jump\t// in\n    tag_226:\n      0x20\n      mul\n      add\n      mload\n        /* \"GameMaster.sol\":7953:7975  matchUnits[i].currentX */\n      0xe0\n      add\n        /* \"GameMaster.sol\":7953:7977  matchUnits[i].currentX-- */\n      dup1\n      mload\n      swap1\n      tag_223\n      dup3\n      tag_228\n      jump\t// in\n        /* \"GameMaster.sol\":7721:8269  if (matchUnits[i].currentX != matchUnits[i].targetX) {... */\n    tag_215:\n        /* \"GameMaster.sol\":8110:8120  matchUnits */\n      dup2\n        /* \"GameMaster.sol\":8121:8122  i */\n      dup2\n        /* \"GameMaster.sol\":8110:8123  matchUnits[i] */\n      0x06\n      dup2\n      lt\n      tag_231\n      jumpi\n      tag_231\n      tag_90\n      jump\t// in\n    tag_231:\n      0x20\n      mul\n      add\n      mload\n        /* \"GameMaster.sol\":8110:8131  matchUnits[i].targetY */\n      0x0140\n      add\n      mload\n        /* \"GameMaster.sol\":8085:8095  matchUnits */\n      dup3\n        /* \"GameMaster.sol\":8096:8097  i */\n      dup3\n        /* \"GameMaster.sol\":8085:8098  matchUnits[i] */\n      0x06\n      dup2\n      lt\n      tag_233\n      jumpi\n      tag_233\n      tag_90\n      jump\t// in\n    tag_233:\n      0x20\n      mul\n      add\n      mload\n        /* \"GameMaster.sol\":8085:8107  matchUnits[i].currentY */\n      0x0100\n      add\n      mload\n        /* \"GameMaster.sol\":8085:8131  matchUnits[i].currentY < matchUnits[i].targetY */\n      lt\n        /* \"GameMaster.sol\":8081:8269  if (matchUnits[i].currentY < matchUnits[i].targetY) {... */\n      iszero\n      tag_234\n      jumpi\n        /* \"GameMaster.sol\":8155:8165  matchUnits */\n      dup2\n        /* \"GameMaster.sol\":8166:8167  i */\n      dup2\n        /* \"GameMaster.sol\":8155:8168  matchUnits[i] */\n      0x06\n      dup2\n      lt\n      tag_236\n      jumpi\n      tag_236\n      tag_90\n      jump\t// in\n    tag_236:\n      0x20\n      mul\n      add\n      mload\n        /* \"GameMaster.sol\":8155:8177  matchUnits[i].currentY */\n      0x0100\n      add\n        /* \"GameMaster.sol\":8155:8179  matchUnits[i].currentY++ */\n      dup1\n      mload\n      swap1\n      tag_223\n      dup3\n      tag_119\n      jump\t// in\n        /* \"GameMaster.sol\":8081:8269  if (matchUnits[i].currentY < matchUnits[i].targetY) {... */\n    tag_234:\n        /* \"GameMaster.sol\":8226:8236  matchUnits */\n      dup2\n        /* \"GameMaster.sol\":8237:8238  i */\n      dup2\n        /* \"GameMaster.sol\":8226:8239  matchUnits[i] */\n      0x06\n      dup2\n      lt\n      tag_240\n      jumpi\n      tag_240\n      tag_90\n      jump\t// in\n    tag_240:\n      0x20\n      mul\n      add\n      mload\n        /* \"GameMaster.sol\":8226:8248  matchUnits[i].currentY */\n      0x0100\n      add\n        /* \"GameMaster.sol\":8226:8250  matchUnits[i].currentY-- */\n      dup1\n      mload\n      swap1\n      tag_241\n      dup3\n      tag_228\n      jump\t// in\n    tag_241:\n      swap1\n      mstore\n      pop\n        /* \"GameMaster.sol\":8081:8269  if (matchUnits[i].currentY < matchUnits[i].targetY) {... */\n    tag_238:\n        /* \"GameMaster.sol\":8402:8412  matchUnits */\n      dup2\n        /* \"GameMaster.sol\":8413:8414  i */\n      dup2\n        /* \"GameMaster.sol\":8402:8415  matchUnits[i] */\n      0x06\n      dup2\n      lt\n      tag_243\n      jumpi\n      tag_243\n      tag_90\n      jump\t// in\n    tag_243:\n      0x20\n      mul\n      add\n      mload\n        /* \"GameMaster.sol\":8402:8423  matchUnits[i].targetX */\n      0x0120\n      add\n      mload\n        /* \"GameMaster.sol\":8376:8386  matchUnits */\n      dup3\n        /* \"GameMaster.sol\":8387:8388  i */\n      dup3\n        /* \"GameMaster.sol\":8376:8389  matchUnits[i] */\n      0x06\n      dup2\n      lt\n      tag_245\n      jumpi\n      tag_245\n      tag_90\n      jump\t// in\n    tag_245:\n      0x20\n      mul\n      add\n      mload\n        /* \"GameMaster.sol\":8376:8398  matchUnits[i].currentX */\n      0xe0\n      add\n      mload\n        /* \"GameMaster.sol\":8376:8423  matchUnits[i].currentX == matchUnits[i].targetX */\n      eq\n        /* \"GameMaster.sol\":8376:8494  matchUnits[i].currentX == matchUnits[i].targetX &&... */\n      dup1\n      iszero\n      tag_246\n      jumpi\n      pop\n        /* \"GameMaster.sol\":8473:8483  matchUnits */\n      dup2\n        /* \"GameMaster.sol\":8484:8485  i */\n      dup2\n        /* \"GameMaster.sol\":8473:8486  matchUnits[i] */\n      0x06\n      dup2\n      lt\n      tag_248\n      jumpi\n      tag_248\n      tag_90\n      jump\t// in\n    tag_248:\n      0x20\n      mul\n      add\n      mload\n        /* \"GameMaster.sol\":8473:8494  matchUnits[i].targetY */\n      0x0140\n      add\n      mload\n        /* \"GameMaster.sol\":8447:8457  matchUnits */\n      dup3\n        /* \"GameMaster.sol\":8458:8459  i */\n      dup3\n        /* \"GameMaster.sol\":8447:8460  matchUnits[i] */\n      0x06\n      dup2\n      lt\n      tag_250\n      jumpi\n      tag_250\n      tag_90\n      jump\t// in\n    tag_250:\n      0x20\n      mul\n      add\n      mload\n        /* \"GameMaster.sol\":8447:8469  matchUnits[i].currentY */\n      0x0100\n      add\n      mload\n        /* \"GameMaster.sol\":8447:8494  matchUnits[i].currentY == matchUnits[i].targetY */\n      eq\n        /* \"GameMaster.sol\":8376:8494  matchUnits[i].currentX == matchUnits[i].targetX &&... */\n    tag_246:\n        /* \"GameMaster.sol\":8351:8588  if (... */\n      iszero\n      tag_251\n      jumpi\n        /* \"GameMaster.sol\":8558:8569  Action.IDLE */\n      0x00\n        /* \"GameMaster.sol\":8535:8545  matchUnits */\n      dup3\n        /* \"GameMaster.sol\":8546:8547  i */\n      dup3\n        /* \"GameMaster.sol\":8535:8548  matchUnits[i] */\n      0x06\n      dup2\n      lt\n      tag_253\n      jumpi\n      tag_253\n      tag_90\n      jump\t// in\n    tag_253:\n      0x20\n      mul\n      add\n      mload\n        /* \"GameMaster.sol\":8535:8555  matchUnits[i].action */\n      0x60\n      add\n        /* \"GameMaster.sol\":8535:8569  matchUnits[i].action = Action.IDLE */\n      swap1\n      0x03\n      dup2\n      gt\n      iszero\n      tag_255\n      jumpi\n      tag_255\n      tag_61\n      jump\t// in\n    tag_255:\n      swap1\n      dup2\n      0x03\n      dup2\n      gt\n      iszero\n      tag_257\n      jumpi\n      tag_257\n      tag_61\n      jump\t// in\n    tag_257:\n      swap1\n      mstore\n      pop\n        /* \"GameMaster.sol\":8351:8588  if (... */\n    tag_251:\n        /* \"GameMaster.sol\":8694:8703  uint256 j */\n      0x00\n        /* \"GameMaster.sol\":8689:12087  for (uint256 j = 0; j < 6; j++) {... */\n    tag_258:\n        /* \"GameMaster.sol\":8713:8714  6 */\n      0x06\n        /* \"GameMaster.sol\":8709:8710  j */\n      dup2\n        /* \"GameMaster.sol\":8709:8714  j < 6 */\n      lt\n        /* \"GameMaster.sol\":8689:12087  for (uint256 j = 0; j < 6; j++) {... */\n      iszero\n      tag_259\n      jumpi\n        /* \"GameMaster.sol\":8739:8759  if (j == i) continue */\n      dup1\n      dup3\n      eq\n        /* \"GameMaster.sol\":8751:8759  continue */\n      tag_475\n        /* \"GameMaster.sol\":8739:8759  if (j == i) continue */\n      jumpi\n        /* \"GameMaster.sol\":8805:8816  Action.DEAD */\n      0x03\n        /* \"GameMaster.sol\":8781:8791  matchUnits */\n      dup4\n        /* \"GameMaster.sol\":8792:8793  j */\n      dup3\n        /* \"GameMaster.sol\":8781:8794  matchUnits[j] */\n      0x06\n      dup2\n      lt\n      tag_265\n      jumpi\n      tag_265\n      tag_90\n      jump\t// in\n    tag_265:\n      0x20\n      mul\n      add\n      mload\n        /* \"GameMaster.sol\":8781:8801  matchUnits[j].action */\n      0x60\n      add\n      mload\n        /* \"GameMaster.sol\":8781:8816  matchUnits[j].action == Action.DEAD */\n      0x03\n      dup2\n      gt\n      iszero\n      tag_267\n      jumpi\n      tag_267\n      tag_61\n      jump\t// in\n    tag_267:\n        /* \"GameMaster.sol\":8777:8826  if (matchUnits[j].action == Action.DEAD) continue */\n      eq\n        /* \"GameMaster.sol\":8818:8826  continue */\n      tag_475\n        /* \"GameMaster.sol\":8777:8826  if (matchUnits[j].action == Action.DEAD) continue */\n      jumpi\n        /* \"GameMaster.sol\":8896:8906  matchUnits */\n      dup3\n        /* \"GameMaster.sol\":8907:8908  j */\n      dup2\n        /* \"GameMaster.sol\":8896:8909  matchUnits[j] */\n      0x06\n      dup2\n      lt\n      tag_270\n      jumpi\n      tag_270\n      tag_90\n      jump\t// in\n    tag_270:\n      0x20\n      mul\n      add\n      mload\n        /* \"GameMaster.sol\":8896:8918  matchUnits[j].currentX */\n      0xe0\n      add\n      mload\n        /* \"GameMaster.sol\":8870:8880  matchUnits */\n      dup4\n        /* \"GameMaster.sol\":8881:8882  i */\n      dup4\n        /* \"GameMaster.sol\":8870:8883  matchUnits[i] */\n      0x06\n      dup2\n      lt\n      tag_272\n      jumpi\n      tag_272\n      tag_90\n      jump\t// in\n    tag_272:\n      0x20\n      mul\n      add\n      mload\n        /* \"GameMaster.sol\":8870:8892  matchUnits[i].currentX */\n      0xe0\n      add\n      mload\n        /* \"GameMaster.sol\":8870:8918  matchUnits[i].currentX == matchUnits[j].currentX */\n      eq\n        /* \"GameMaster.sol\":8870:8990  matchUnits[i].currentX == matchUnits[j].currentX &&... */\n      dup1\n      iszero\n      tag_273\n      jumpi\n      pop\n        /* \"GameMaster.sol\":8968:8978  matchUnits */\n      dup3\n        /* \"GameMaster.sol\":8979:8980  j */\n      dup2\n        /* \"GameMaster.sol\":8968:8981  matchUnits[j] */\n      0x06\n      dup2\n      lt\n      tag_275\n      jumpi\n      tag_275\n      tag_90\n      jump\t// in\n    tag_275:\n      0x20\n      mul\n      add\n      mload\n        /* \"GameMaster.sol\":8968:8990  matchUnits[j].currentY */\n      0x0100\n      add\n      mload\n        /* \"GameMaster.sol\":8942:8952  matchUnits */\n      dup4\n        /* \"GameMaster.sol\":8953:8954  i */\n      dup4\n        /* \"GameMaster.sol\":8942:8955  matchUnits[i] */\n      0x06\n      dup2\n      lt\n      tag_277\n      jumpi\n      tag_277\n      tag_90\n      jump\t// in\n    tag_277:\n      0x20\n      mul\n      add\n      mload\n        /* \"GameMaster.sol\":8942:8964  matchUnits[i].currentY */\n      0x0100\n      add\n      mload\n        /* \"GameMaster.sol\":8942:8990  matchUnits[i].currentY == matchUnits[j].currentY */\n      eq\n        /* \"GameMaster.sol\":8870:8990  matchUnits[i].currentX == matchUnits[j].currentX &&... */\n    tag_273:\n        /* \"GameMaster.sol\":8845:9148  if (... */\n      iszero\n      tag_278\n      jumpi\n        /* \"GameMaster.sol\":9054:9069  Action.BATTLING */\n      0x02\n        /* \"GameMaster.sol\":9031:9041  matchUnits */\n      dup4\n        /* \"GameMaster.sol\":9042:9043  i */\n      dup4\n        /* \"GameMaster.sol\":9031:9044  matchUnits[i] */\n      0x06\n      dup2\n      lt\n      tag_280\n      jumpi\n      tag_280\n      tag_90\n      jump\t// in\n    tag_280:\n      0x20\n      mul\n      add\n      mload\n        /* \"GameMaster.sol\":9031:9051  matchUnits[i].action */\n      0x60\n      add\n        /* \"GameMaster.sol\":9031:9069  matchUnits[i].action = Action.BATTLING */\n      swap1\n      0x03\n      dup2\n      gt\n      iszero\n      tag_282\n      jumpi\n      tag_282\n      tag_61\n      jump\t// in\n    tag_282:\n      swap1\n      dup2\n      0x03\n      dup2\n      gt\n      iszero\n      tag_284\n      jumpi\n      tag_284\n      tag_61\n      jump\t// in\n    tag_284:\n      swap1\n      mstore\n      pop\n        /* \"GameMaster.sol\":9114:9129  Action.BATTLING */\n      0x02\n        /* \"GameMaster.sol\":9091:9101  matchUnits */\n      dup4\n        /* \"GameMaster.sol\":9102:9103  j */\n      dup3\n        /* \"GameMaster.sol\":9091:9104  matchUnits[j] */\n      0x06\n      dup2\n      lt\n      tag_286\n      jumpi\n      tag_286\n      tag_90\n      jump\t// in\n    tag_286:\n      0x20\n      mul\n      add\n      mload\n        /* \"GameMaster.sol\":9091:9111  matchUnits[j].action */\n      0x60\n      add\n        /* \"GameMaster.sol\":9091:9129  matchUnits[j].action = Action.BATTLING */\n      swap1\n      0x03\n      dup2\n      gt\n      iszero\n      tag_288\n      jumpi\n      tag_288\n      tag_61\n      jump\t// in\n    tag_288:\n      swap1\n      dup2\n      0x03\n      dup2\n      gt\n      iszero\n      tag_290\n      jumpi\n      tag_290\n      tag_61\n      jump\t// in\n    tag_290:\n      swap1\n      mstore\n      pop\n        /* \"GameMaster.sol\":8845:9148  if (... */\n    tag_278:\n        /* \"GameMaster.sol\":9257:9272  Action.BATTLING */\n      0x02\n        /* \"GameMaster.sol\":9233:9243  matchUnits */\n      dup4\n        /* \"GameMaster.sol\":9244:9245  i */\n      dup4\n        /* \"GameMaster.sol\":9233:9246  matchUnits[i] */\n      0x06\n      dup2\n      lt\n      tag_294\n      jumpi\n      tag_294\n      tag_90\n      jump\t// in\n    tag_294:\n      0x20\n      mul\n      add\n      mload\n        /* \"GameMaster.sol\":9233:9253  matchUnits[i].action */\n      0x60\n      add\n      mload\n        /* \"GameMaster.sol\":9233:9272  matchUnits[i].action == Action.BATTLING */\n      0x03\n      dup2\n      gt\n      iszero\n      tag_296\n      jumpi\n      tag_296\n      tag_61\n      jump\t// in\n    tag_296:\n      sub\n        /* \"GameMaster.sol\":9229:11743  if (matchUnits[i].action == Action.BATTLING) {... */\n      tag_458\n      jumpi\n        /* \"GameMaster.sol\":9326:9344  UnitTypes.INFANTRY */\n      0x00\n        /* \"GameMaster.sol\":9300:9310  matchUnits */\n      dup4\n        /* \"GameMaster.sol\":9311:9312  i */\n      dup4\n        /* \"GameMaster.sol\":9300:9313  matchUnits[i] */\n      0x06\n      dup2\n      lt\n      tag_301\n      jumpi\n      tag_301\n      tag_90\n      jump\t// in\n    tag_301:\n      0x20\n      mul\n      add\n      mload\n        /* \"GameMaster.sol\":9300:9322  matchUnits[i].unitType */\n      0x40\n      add\n      mload\n        /* \"GameMaster.sol\":9300:9344  matchUnits[i].unitType == UnitTypes.INFANTRY */\n      0x02\n      dup2\n      gt\n      iszero\n      tag_303\n      jumpi\n      tag_303\n      tag_61\n      jump\t// in\n    tag_303:\n      sub\n        /* \"GameMaster.sol\":9296:11725  if (matchUnits[i].unitType == UnitTypes.INFANTRY) {... */\n      tag_304\n      jumpi\n        /* \"GameMaster.sol\":9402:9420  UnitTypes.INFANTRY */\n      0x00\n        /* \"GameMaster.sol\":9376:9386  matchUnits */\n      dup4\n        /* \"GameMaster.sol\":9387:9388  j */\n      dup3\n        /* \"GameMaster.sol\":9376:9389  matchUnits[j] */\n      0x06\n      dup2\n      lt\n      tag_308\n      jumpi\n      tag_308\n      tag_90\n      jump\t// in\n    tag_308:\n      0x20\n      mul\n      add\n      mload\n        /* \"GameMaster.sol\":9376:9398  matchUnits[j].unitType */\n      0x40\n      add\n      mload\n        /* \"GameMaster.sol\":9376:9420  matchUnits[j].unitType == UnitTypes.INFANTRY */\n      0x02\n      dup2\n      gt\n      iszero\n      tag_310\n      jumpi\n      tag_310\n      tag_61\n      jump\t// in\n    tag_310:\n      sub\n        /* \"GameMaster.sol\":9372:10082  if (matchUnits[j].unitType == UnitTypes.INFANTRY) {... */\n      tag_311\n      jumpi\n        /* \"GameMaster.sol\":9468:9469  2 */\n      0x02\n        /* \"GameMaster.sol\":9456:9465  random(1) */\n      tag_312\n        /* \"GameMaster.sol\":9463:9464  1 */\n      0x01\n        /* \"GameMaster.sol\":9456:9462  random */\n      tag_313\n        /* \"GameMaster.sol\":9456:9465  random(1) */\n      jump\t// in\n    tag_312:\n        /* \"GameMaster.sol\":9456:9469  random(1) % 2 */\n      tag_314\n      swap2\n      swap1\n      tag_315\n      jump\t// in\n    tag_314:\n        /* \"GameMaster.sol\":9473:9474  0 */\n      0x00\n        /* \"GameMaster.sol\":9456:9474  random(1) % 2 == 0 */\n      sub\n        /* \"GameMaster.sol\":9452:9581  if (random(1) % 2 == 0) {... */\n      tag_316\n      jumpi\n        /* \"GameMaster.sol\":9530:9540  matchUnits */\n      dup3\n        /* \"GameMaster.sol\":9541:9542  i */\n      dup3\n        /* \"GameMaster.sol\":9530:9543  matchUnits[i] */\n      0x06\n      dup2\n      lt\n      tag_318\n      jumpi\n      tag_318\n      tag_90\n      jump\t// in\n    tag_318:\n      0x20\n      mul\n      add\n      mload\n        /* \"GameMaster.sol\":9530:9550  matchUnits[i].attack */\n      0xa0\n      add\n      mload\n        /* \"GameMaster.sol\":9510:9520  matchUnits */\n      dup4\n        /* \"GameMaster.sol\":9521:9522  j */\n      dup3\n        /* \"GameMaster.sol\":9510:9523  matchUnits[j] */\n      0x06\n      dup2\n      lt\n      tag_320\n      jumpi\n      tag_320\n      tag_90\n      jump\t// in\n    tag_320:\n      0x20\n      mul\n      add\n      mload\n        /* \"GameMaster.sol\":9510:9526  matchUnits[j].hp */\n      0x80\n      add\n        /* \"GameMaster.sol\":9510:9550  matchUnits[j].hp -= matchUnits[i].attack */\n      dup2\n      dup2\n      mload\n      tag_321\n      swap2\n      swap1\n      tag_104\n      jump\t// in\n    tag_321:\n      swap1\n      mstore\n      pop\n        /* \"GameMaster.sol\":9452:9581  if (random(1) % 2 == 0) {... */\n    tag_316:\n        /* \"GameMaster.sol\":9296:11725  if (matchUnits[i].unitType == UnitTypes.INFANTRY) {... */\n      jump(tag_458)\n        /* \"GameMaster.sol\":9372:10082  if (matchUnits[j].unitType == UnitTypes.INFANTRY) {... */\n    tag_311:\n        /* \"GameMaster.sol\":9643:9657  UnitTypes.TANK */\n      0x01\n        /* \"GameMaster.sol\":9617:9627  matchUnits */\n      dup4\n        /* \"GameMaster.sol\":9628:9629  j */\n      dup3\n        /* \"GameMaster.sol\":9617:9630  matchUnits[j] */\n      0x06\n      dup2\n      lt\n      tag_326\n      jumpi\n      tag_326\n      tag_90\n      jump\t// in\n    tag_326:\n      0x20\n      mul\n      add\n      mload\n        /* \"GameMaster.sol\":9617:9639  matchUnits[j].unitType */\n      0x40\n      add\n      mload\n        /* \"GameMaster.sol\":9617:9657  matchUnits[j].unitType == UnitTypes.TANK */\n      0x02\n      dup2\n      gt\n      iszero\n      tag_328\n      jumpi\n      tag_328\n      tag_61\n      jump\t// in\n    tag_328:\n      sub\n        /* \"GameMaster.sol\":9613:10082  if (matchUnits[j].unitType == UnitTypes.TANK) {... */\n      tag_329\n      jumpi\n        /* \"GameMaster.sol\":9705:9706  2 */\n      0x02\n        /* \"GameMaster.sol\":9693:9702  random(5) */\n      tag_312\n        /* \"GameMaster.sol\":9700:9701  5 */\n      0x05\n        /* \"GameMaster.sol\":9693:9699  random */\n      tag_313\n        /* \"GameMaster.sol\":9693:9702  random(5) */\n      jump\t// in\n        /* \"GameMaster.sol\":9613:10082  if (matchUnits[j].unitType == UnitTypes.TANK) {... */\n    tag_329:\n        /* \"GameMaster.sol\":9880:9895  UnitTypes.DRONE */\n      0x02\n        /* \"GameMaster.sol\":9854:9864  matchUnits */\n      dup4\n        /* \"GameMaster.sol\":9865:9866  j */\n      dup3\n        /* \"GameMaster.sol\":9854:9867  matchUnits[j] */\n      0x06\n      dup2\n      lt\n      tag_342\n      jumpi\n      tag_342\n      tag_90\n      jump\t// in\n    tag_342:\n      0x20\n      mul\n      add\n      mload\n        /* \"GameMaster.sol\":9854:9876  matchUnits[j].unitType */\n      0x40\n      add\n      mload\n        /* \"GameMaster.sol\":9854:9895  matchUnits[j].unitType == UnitTypes.DRONE */\n      0x02\n      dup2\n      gt\n      iszero\n      tag_344\n      jumpi\n      tag_344\n      tag_61\n      jump\t// in\n    tag_344:\n      sub\n        /* \"GameMaster.sol\":9850:10082  if (matchUnits[j].unitType == UnitTypes.DRONE) {... */\n      tag_316\n      jumpi\n        /* \"GameMaster.sol\":9943:9944  2 */\n      0x02\n        /* \"GameMaster.sol\":9931:9940  random(3) */\n      tag_312\n        /* \"GameMaster.sol\":9938:9939  3 */\n      0x03\n        /* \"GameMaster.sol\":9931:9937  random */\n      tag_313\n        /* \"GameMaster.sol\":9931:9940  random(3) */\n      jump\t// in\n        /* \"GameMaster.sol\":9296:11725  if (matchUnits[i].unitType == UnitTypes.INFANTRY) {... */\n    tag_304:\n        /* \"GameMaster.sol\":10140:10154  UnitTypes.TANK */\n      0x01\n        /* \"GameMaster.sol\":10114:10124  matchUnits */\n      dup4\n        /* \"GameMaster.sol\":10125:10126  i */\n      dup4\n        /* \"GameMaster.sol\":10114:10127  matchUnits[i] */\n      0x06\n      dup2\n      lt\n      tag_358\n      jumpi\n      tag_358\n      tag_90\n      jump\t// in\n    tag_358:\n      0x20\n      mul\n      add\n      mload\n        /* \"GameMaster.sol\":10114:10136  matchUnits[i].unitType */\n      0x40\n      add\n      mload\n        /* \"GameMaster.sol\":10114:10154  matchUnits[i].unitType == UnitTypes.TANK */\n      0x02\n      dup2\n      gt\n      iszero\n      tag_360\n      jumpi\n      tag_360\n      tag_61\n      jump\t// in\n    tag_360:\n      sub\n        /* \"GameMaster.sol\":10110:11725  if (matchUnits[i].unitType == UnitTypes.TANK) {... */\n      tag_361\n      jumpi\n        /* \"GameMaster.sol\":10212:10230  UnitTypes.INFANTRY */\n      0x00\n        /* \"GameMaster.sol\":10186:10196  matchUnits */\n      dup4\n        /* \"GameMaster.sol\":10197:10198  j */\n      dup3\n        /* \"GameMaster.sol\":10186:10199  matchUnits[j] */\n      0x06\n      dup2\n      lt\n      tag_365\n      jumpi\n      tag_365\n      tag_90\n      jump\t// in\n    tag_365:\n      0x20\n      mul\n      add\n      mload\n        /* \"GameMaster.sol\":10186:10208  matchUnits[j].unitType */\n      0x40\n      add\n      mload\n        /* \"GameMaster.sol\":10186:10230  matchUnits[j].unitType == UnitTypes.INFANTRY */\n      0x02\n      dup2\n      gt\n      iszero\n      tag_367\n      jumpi\n      tag_367\n      tag_61\n      jump\t// in\n    tag_367:\n      sub\n        /* \"GameMaster.sol\":10182:10892  if (matchUnits[j].unitType == UnitTypes.INFANTRY) {... */\n      tag_368\n      jumpi\n        /* \"GameMaster.sol\":10278:10279  2 */\n      0x02\n        /* \"GameMaster.sol\":10266:10275  random(2) */\n      tag_312\n        /* \"GameMaster.sol\":10273:10274  2 */\n      0x02\n        /* \"GameMaster.sol\":10266:10272  random */\n      tag_313\n        /* \"GameMaster.sol\":10266:10275  random(2) */\n      jump\t// in\n        /* \"GameMaster.sol\":10182:10892  if (matchUnits[j].unitType == UnitTypes.INFANTRY) {... */\n    tag_368:\n        /* \"GameMaster.sol\":10453:10467  UnitTypes.TANK */\n      0x01\n        /* \"GameMaster.sol\":10427:10437  matchUnits */\n      dup4\n        /* \"GameMaster.sol\":10438:10439  j */\n      dup3\n        /* \"GameMaster.sol\":10427:10440  matchUnits[j] */\n      0x06\n      dup2\n      lt\n      tag_381\n      jumpi\n      tag_381\n      tag_90\n      jump\t// in\n    tag_381:\n      0x20\n      mul\n      add\n      mload\n        /* \"GameMaster.sol\":10427:10449  matchUnits[j].unitType */\n      0x40\n      add\n      mload\n        /* \"GameMaster.sol\":10427:10467  matchUnits[j].unitType == UnitTypes.TANK */\n      0x02\n      dup2\n      gt\n      iszero\n      tag_383\n      jumpi\n      tag_383\n      tag_61\n      jump\t// in\n    tag_383:\n      sub\n        /* \"GameMaster.sol\":10423:10892  if (matchUnits[j].unitType == UnitTypes.TANK) {... */\n      tag_384\n      jumpi\n        /* \"GameMaster.sol\":10515:10516  2 */\n      0x02\n        /* \"GameMaster.sol\":10503:10512  random(6) */\n      tag_312\n        /* \"GameMaster.sol\":10510:10511  6 */\n      0x06\n        /* \"GameMaster.sol\":10503:10509  random */\n      tag_313\n        /* \"GameMaster.sol\":10503:10512  random(6) */\n      jump\t// in\n        /* \"GameMaster.sol\":10423:10892  if (matchUnits[j].unitType == UnitTypes.TANK) {... */\n    tag_384:\n        /* \"GameMaster.sol\":10690:10705  UnitTypes.DRONE */\n      0x02\n        /* \"GameMaster.sol\":10664:10674  matchUnits */\n      dup4\n        /* \"GameMaster.sol\":10675:10676  j */\n      dup3\n        /* \"GameMaster.sol\":10664:10677  matchUnits[j] */\n      0x06\n      dup2\n      lt\n      tag_397\n      jumpi\n      tag_397\n      tag_90\n      jump\t// in\n    tag_397:\n      0x20\n      mul\n      add\n      mload\n        /* \"GameMaster.sol\":10664:10686  matchUnits[j].unitType */\n      0x40\n      add\n      mload\n        /* \"GameMaster.sol\":10664:10705  matchUnits[j].unitType == UnitTypes.DRONE */\n      0x02\n      dup2\n      gt\n      iszero\n      tag_399\n      jumpi\n      tag_399\n      tag_61\n      jump\t// in\n    tag_399:\n      sub\n        /* \"GameMaster.sol\":10660:10892  if (matchUnits[j].unitType == UnitTypes.DRONE) {... */\n      tag_316\n      jumpi\n        /* \"GameMaster.sol\":10753:10754  2 */\n      0x02\n        /* \"GameMaster.sol\":10741:10750  random(7) */\n      tag_312\n        /* \"GameMaster.sol\":10748:10749  7 */\n      0x07\n        /* \"GameMaster.sol\":10741:10747  random */\n      tag_313\n        /* \"GameMaster.sol\":10741:10750  random(7) */\n      jump\t// in\n        /* \"GameMaster.sol\":10110:11725  if (matchUnits[i].unitType == UnitTypes.TANK) {... */\n    tag_361:\n        /* \"GameMaster.sol\":10950:10965  UnitTypes.DRONE */\n      0x02\n        /* \"GameMaster.sol\":10924:10934  matchUnits */\n      dup4\n        /* \"GameMaster.sol\":10935:10936  i */\n      dup4\n        /* \"GameMaster.sol\":10924:10937  matchUnits[i] */\n      0x06\n      dup2\n      lt\n      tag_413\n      jumpi\n      tag_413\n      tag_90\n      jump\t// in\n    tag_413:\n      0x20\n      mul\n      add\n      mload\n        /* \"GameMaster.sol\":10924:10946  matchUnits[i].unitType */\n      0x40\n      add\n      mload\n        /* \"GameMaster.sol\":10924:10965  matchUnits[i].unitType == UnitTypes.DRONE */\n      0x02\n      dup2\n      gt\n      iszero\n      tag_415\n      jumpi\n      tag_415\n      tag_61\n      jump\t// in\n    tag_415:\n      sub\n        /* \"GameMaster.sol\":10920:11725  if (matchUnits[i].unitType == UnitTypes.DRONE) {... */\n      tag_458\n      jumpi\n        /* \"GameMaster.sol\":11023:11041  UnitTypes.INFANTRY */\n      0x00\n        /* \"GameMaster.sol\":10997:11007  matchUnits */\n      dup4\n        /* \"GameMaster.sol\":11008:11009  j */\n      dup3\n        /* \"GameMaster.sol\":10997:11010  matchUnits[j] */\n      0x06\n      dup2\n      lt\n      tag_420\n      jumpi\n      tag_420\n      tag_90\n      jump\t// in\n    tag_420:\n      0x20\n      mul\n      add\n      mload\n        /* \"GameMaster.sol\":10997:11019  matchUnits[j].unitType */\n      0x40\n      add\n      mload\n        /* \"GameMaster.sol\":10997:11041  matchUnits[j].unitType == UnitTypes.INFANTRY */\n      0x02\n      dup2\n      gt\n      iszero\n      tag_422\n      jumpi\n      tag_422\n      tag_61\n      jump\t// in\n    tag_422:\n      sub\n        /* \"GameMaster.sol\":10993:11703  if (matchUnits[j].unitType == UnitTypes.INFANTRY) {... */\n      tag_423\n      jumpi\n        /* \"GameMaster.sol\":11089:11090  2 */\n      0x02\n        /* \"GameMaster.sol\":11077:11086  random(3) */\n      tag_312\n        /* \"GameMaster.sol\":11084:11085  3 */\n      0x03\n        /* \"GameMaster.sol\":11077:11083  random */\n      tag_313\n        /* \"GameMaster.sol\":11077:11086  random(3) */\n      jump\t// in\n        /* \"GameMaster.sol\":10993:11703  if (matchUnits[j].unitType == UnitTypes.INFANTRY) {... */\n    tag_423:\n        /* \"GameMaster.sol\":11264:11278  UnitTypes.TANK */\n      0x01\n        /* \"GameMaster.sol\":11238:11248  matchUnits */\n      dup4\n        /* \"GameMaster.sol\":11249:11250  j */\n      dup3\n        /* \"GameMaster.sol\":11238:11251  matchUnits[j] */\n      0x06\n      dup2\n      lt\n      tag_436\n      jumpi\n      tag_436\n      tag_90\n      jump\t// in\n    tag_436:\n      0x20\n      mul\n      add\n      mload\n        /* \"GameMaster.sol\":11238:11260  matchUnits[j].unitType */\n      0x40\n      add\n      mload\n        /* \"GameMaster.sol\":11238:11278  matchUnits[j].unitType == UnitTypes.TANK */\n      0x02\n      dup2\n      gt\n      iszero\n      tag_438\n      jumpi\n      tag_438\n      tag_61\n      jump\t// in\n    tag_438:\n      sub\n        /* \"GameMaster.sol\":11234:11703  if (matchUnits[j].unitType == UnitTypes.TANK) {... */\n      tag_439\n      jumpi\n        /* \"GameMaster.sol\":11326:11327  2 */\n      0x02\n        /* \"GameMaster.sol\":11314:11323  random(1) */\n      tag_312\n        /* \"GameMaster.sol\":11321:11322  1 */\n      0x01\n        /* \"GameMaster.sol\":11314:11320  random */\n      tag_313\n        /* \"GameMaster.sol\":11314:11323  random(1) */\n      jump\t// in\n        /* \"GameMaster.sol\":11234:11703  if (matchUnits[j].unitType == UnitTypes.TANK) {... */\n    tag_439:\n        /* \"GameMaster.sol\":11501:11516  UnitTypes.DRONE */\n      0x02\n        /* \"GameMaster.sol\":11475:11485  matchUnits */\n      dup4\n        /* \"GameMaster.sol\":11486:11487  j */\n      dup3\n        /* \"GameMaster.sol\":11475:11488  matchUnits[j] */\n      0x06\n      dup2\n      lt\n      tag_452\n      jumpi\n      tag_452\n      tag_90\n      jump\t// in\n    tag_452:\n      0x20\n      mul\n      add\n      mload\n        /* \"GameMaster.sol\":11475:11497  matchUnits[j].unitType */\n      0x40\n      add\n      mload\n        /* \"GameMaster.sol\":11475:11516  matchUnits[j].unitType == UnitTypes.DRONE */\n      0x02\n      dup2\n      gt\n      iszero\n      tag_454\n      jumpi\n      tag_454\n      tag_61\n      jump\t// in\n    tag_454:\n      sub\n        /* \"GameMaster.sol\":11471:11703  if (matchUnits[j].unitType == UnitTypes.DRONE) {... */\n      tag_458\n      jumpi\n        /* \"GameMaster.sol\":11564:11565  2 */\n      0x02\n        /* \"GameMaster.sol\":11552:11561  random(4) */\n      tag_456\n        /* \"GameMaster.sol\":11559:11560  4 */\n      0x04\n        /* \"GameMaster.sol\":11552:11558  random */\n      tag_313\n        /* \"GameMaster.sol\":11552:11561  random(4) */\n      jump\t// in\n    tag_456:\n        /* \"GameMaster.sol\":11552:11565  random(4) % 2 */\n      tag_457\n      swap2\n      swap1\n      tag_315\n      jump\t// in\n    tag_457:\n        /* \"GameMaster.sol\":11569:11570  0 */\n      0x00\n        /* \"GameMaster.sol\":11552:11570  random(4) % 2 == 0 */\n      sub\n        /* \"GameMaster.sol\":11548:11677  if (random(4) % 2 == 0) {... */\n      tag_458\n      jumpi\n        /* \"GameMaster.sol\":11626:11636  matchUnits */\n      dup3\n        /* \"GameMaster.sol\":11637:11638  i */\n      dup3\n        /* \"GameMaster.sol\":11626:11639  matchUnits[i] */\n      0x06\n      dup2\n      lt\n      tag_460\n      jumpi\n      tag_460\n      tag_90\n      jump\t// in\n    tag_460:\n      0x20\n      mul\n      add\n      mload\n        /* \"GameMaster.sol\":11626:11646  matchUnits[i].attack */\n      0xa0\n      add\n      mload\n        /* \"GameMaster.sol\":11606:11616  matchUnits */\n      dup4\n        /* \"GameMaster.sol\":11617:11618  j */\n      dup3\n        /* \"GameMaster.sol\":11606:11619  matchUnits[j] */\n      0x06\n      dup2\n      lt\n      tag_462\n      jumpi\n      tag_462\n      tag_90\n      jump\t// in\n    tag_462:\n      0x20\n      mul\n      add\n      mload\n        /* \"GameMaster.sol\":11606:11622  matchUnits[j].hp */\n      0x80\n      add\n        /* \"GameMaster.sol\":11606:11646  matchUnits[j].hp -= matchUnits[i].attack */\n      dup2\n      dup2\n      mload\n      tag_463\n      swap2\n      swap1\n      tag_104\n      jump\t// in\n    tag_463:\n      swap1\n      mstore\n      pop\n        /* \"GameMaster.sol\":11548:11677  if (random(4) % 2 == 0) {... */\n    tag_458:\n        /* \"GameMaster.sol\":11873:11875  10 */\n      0x0a\n        /* \"GameMaster.sol\":11853:11863  matchUnits */\n      dup4\n        /* \"GameMaster.sol\":11864:11865  i */\n      dup4\n        /* \"GameMaster.sol\":11853:11866  matchUnits[i] */\n      0x06\n      dup2\n      lt\n      tag_465\n      jumpi\n      tag_465\n      tag_90\n      jump\t// in\n    tag_465:\n      0x20\n      mul\n      add\n      mload\n        /* \"GameMaster.sol\":11853:11869  matchUnits[i].hp */\n      0x80\n      add\n      mload\n        /* \"GameMaster.sol\":11853:11875  matchUnits[i].hp <= 10 */\n      gt\n        /* \"GameMaster.sol\":11849:11952  if (matchUnits[i].hp <= 10) {... */\n      tag_466\n      jumpi\n        /* \"GameMaster.sol\":11922:11933  Action.DEAD */\n      0x03\n        /* \"GameMaster.sol\":11899:11909  matchUnits */\n      dup4\n        /* \"GameMaster.sol\":11910:11911  i */\n      dup4\n        /* \"GameMaster.sol\":11899:11912  matchUnits[i] */\n      0x06\n      dup2\n      lt\n      tag_468\n      jumpi\n      tag_468\n      tag_90\n      jump\t// in\n    tag_468:\n      0x20\n      mul\n      add\n      mload\n        /* \"GameMaster.sol\":11899:11919  matchUnits[i].action */\n      0x60\n      add\n        /* \"GameMaster.sol\":11899:11933  matchUnits[i].action = Action.DEAD */\n      swap1\n      0x03\n      dup2\n      gt\n      iszero\n      tag_470\n      jumpi\n      tag_470\n      tag_61\n      jump\t// in\n    tag_470:\n      swap1\n      dup2\n      0x03\n      dup2\n      gt\n      iszero\n      tag_472\n      jumpi\n      tag_472\n      tag_61\n      jump\t// in\n    tag_472:\n      swap1\n      mstore\n      pop\n        /* \"GameMaster.sol\":11849:11952  if (matchUnits[i].hp <= 10) {... */\n    tag_466:\n        /* \"GameMaster.sol\":11994:11996  10 */\n      0x0a\n        /* \"GameMaster.sol\":11974:11984  matchUnits */\n      dup4\n        /* \"GameMaster.sol\":11985:11986  j */\n      dup3\n        /* \"GameMaster.sol\":11974:11987  matchUnits[j] */\n      0x06\n      dup2\n      lt\n      tag_474\n      jumpi\n      tag_474\n      tag_90\n      jump\t// in\n    tag_474:\n      0x20\n      mul\n      add\n      mload\n        /* \"GameMaster.sol\":11974:11990  matchUnits[j].hp */\n      0x80\n      add\n      mload\n        /* \"GameMaster.sol\":11974:11996  matchUnits[j].hp <= 10 */\n      gt\n        /* \"GameMaster.sol\":11970:12073  if (matchUnits[j].hp <= 10) {... */\n      tag_475\n      jumpi\n        /* \"GameMaster.sol\":12043:12054  Action.DEAD */\n      0x03\n        /* \"GameMaster.sol\":12020:12030  matchUnits */\n      dup4\n        /* \"GameMaster.sol\":12031:12032  j */\n      dup3\n        /* \"GameMaster.sol\":12020:12033  matchUnits[j] */\n      0x06\n      dup2\n      lt\n      tag_477\n      jumpi\n      tag_477\n      tag_90\n      jump\t// in\n    tag_477:\n      0x20\n      mul\n      add\n      mload\n        /* \"GameMaster.sol\":12020:12040  matchUnits[j].action */\n      0x60\n      add\n        /* \"GameMaster.sol\":12020:12054  matchUnits[j].action = Action.DEAD */\n      swap1\n      0x03\n      dup2\n      gt\n      iszero\n      tag_479\n      jumpi\n      tag_479\n      tag_61\n      jump\t// in\n    tag_479:\n      swap1\n      dup2\n      0x03\n      dup2\n      gt\n      iszero\n      tag_481\n      jumpi\n      tag_481\n      tag_61\n      jump\t// in\n    tag_481:\n      swap1\n      mstore\n      pop\n        /* \"GameMaster.sol\":11970:12073  if (matchUnits[j].hp <= 10) {... */\n    tag_475:\n        /* \"GameMaster.sol\":8716:8719  j++ */\n      dup1\n      tag_482\n      dup2\n      tag_119\n      jump\t// in\n    tag_482:\n      swap2\n      pop\n      pop\n        /* \"GameMaster.sol\":8689:12087  for (uint256 j = 0; j < 6; j++) {... */\n      jump(tag_258)\n    tag_259:\n      pop\n        /* \"GameMaster.sol\":7469:12097  for (uint256 i = 0; i < 6; i++) {... */\n    tag_196:\n        /* \"GameMaster.sol\":7496:7499  i++ */\n      dup1\n      tag_483\n      dup2\n      tag_119\n      jump\t// in\n    tag_483:\n      swap2\n      pop\n      pop\n        /* \"GameMaster.sol\":7469:12097  for (uint256 i = 0; i < 6; i++) {... */\n      jump(tag_194)\n    tag_195:\n      pop\n        /* \"GameMaster.sol\":12193:12197  true */\n      0x01\n        /* \"GameMaster.sol\":12178:12190  bool allDead */\n      0x00\n        /* \"GameMaster.sol\":12207:12352  for (uint256 i = 0; i < 6; i++) {... */\n    tag_484:\n        /* \"GameMaster.sol\":12231:12232  6 */\n      0x06\n        /* \"GameMaster.sol\":12227:12228  i */\n      dup2\n        /* \"GameMaster.sol\":12227:12232  i < 6 */\n      lt\n        /* \"GameMaster.sol\":12207:12352  for (uint256 i = 0; i < 6; i++) {... */\n      iszero\n      tag_485\n      jumpi\n        /* \"GameMaster.sol\":12281:12292  Action.DEAD */\n      0x03\n        /* \"GameMaster.sol\":12257:12267  matchUnits */\n      dup4\n        /* \"GameMaster.sol\":12268:12269  i */\n      dup3\n        /* \"GameMaster.sol\":12257:12270  matchUnits[i] */\n      0x06\n      dup2\n      lt\n      tag_490\n      jumpi\n      tag_490\n      tag_90\n      jump\t// in\n    tag_490:\n      0x20\n      mul\n      add\n      mload\n        /* \"GameMaster.sol\":12257:12277  matchUnits[i].action */\n      0x60\n      add\n      mload\n        /* \"GameMaster.sol\":12257:12292  matchUnits[i].action != Action.DEAD */\n      0x03\n      dup2\n      gt\n      iszero\n      tag_492\n      jumpi\n      tag_492\n      tag_61\n      jump\t// in\n    tag_492:\n      eq\n        /* \"GameMaster.sol\":12253:12342  if (matchUnits[i].action != Action.DEAD) {... */\n      tag_493\n      jumpi\n        /* \"GameMaster.sol\":12322:12327  false */\n      0x00\n        /* \"GameMaster.sol\":12312:12327  allDead = false */\n      swap2\n      pop\n        /* \"GameMaster.sol\":12253:12342  if (matchUnits[i].action != Action.DEAD) {... */\n    tag_493:\n        /* \"GameMaster.sol\":12234:12237  i++ */\n      dup1\n      tag_494\n      dup2\n      tag_119\n      jump\t// in\n    tag_494:\n      swap2\n      pop\n      pop\n        /* \"GameMaster.sol\":12207:12352  for (uint256 i = 0; i < 6; i++) {... */\n      jump(tag_484)\n    tag_485:\n      pop\n        /* \"GameMaster.sol\":12366:12373  allDead */\n      dup1\n        /* \"GameMaster.sol\":12362:12450  if (allDead) {... */\n      iszero\n      tag_495\n      jumpi\n        /* \"GameMaster.sol\":12389:12413  matchIdToMatch[_matchId] */\n      0x00\n      dup4\n      dup2\n      mstore\n        /* \"GameMaster.sol\":12389:12403  matchIdToMatch */\n      0x04\n        /* \"GameMaster.sol\":12389:12413  matchIdToMatch[_matchId] */\n      0x20\n      mstore\n      0x40\n      swap1\n      keccak256\n        /* \"GameMaster.sol\":12389:12420  matchIdToMatch[_matchId].status */\n      0x0b\n      add\n        /* \"GameMaster.sol\":12389:12439  matchIdToMatch[_matchId].status = GameStatus.ENDED */\n      dup1\n      sload\n      not(0xff)\n      and\n        /* \"GameMaster.sol\":12423:12439  GameStatus.ENDED */\n      0x03\n        /* \"GameMaster.sol\":12389:12439  matchIdToMatch[_matchId].status = GameStatus.ENDED */\n      or\n      swap1\n      sstore\n        /* \"GameMaster.sol\":12362:12450  if (allDead) {... */\n    tag_495:\n        /* \"GameMaster.sol\":12527:12536  uint256 i */\n      0x00\n        /* \"GameMaster.sol\":12522:12625  for (uint256 i = 0; i < 6; i++) {... */\n    tag_498:\n        /* \"GameMaster.sol\":12546:12547  6 */\n      0x06\n        /* \"GameMaster.sol\":12542:12543  i */\n      dup2\n        /* \"GameMaster.sol\":12542:12547  i < 6 */\n      lt\n        /* \"GameMaster.sol\":12522:12625  for (uint256 i = 0; i < 6; i++) {... */\n      iszero\n      tag_499\n      jumpi\n        /* \"GameMaster.sol\":12601:12611  matchUnits */\n      dup3\n        /* \"GameMaster.sol\":12612:12613  i */\n      dup2\n        /* \"GameMaster.sol\":12601:12614  matchUnits[i] */\n      0x06\n      dup2\n      lt\n      tag_502\n      jumpi\n      tag_502\n      tag_90\n      jump\t// in\n    tag_502:\n      0x20\n      mul\n      add\n      mload\n        /* \"GameMaster.sol\":12568:12580  unitIdToUnit */\n      0x03\n        /* \"GameMaster.sol\":12568:12598  unitIdToUnit[matchUnits[i].id] */\n      0x00\n        /* \"GameMaster.sol\":12581:12591  matchUnits */\n      dup6\n        /* \"GameMaster.sol\":12592:12593  i */\n      dup5\n        /* \"GameMaster.sol\":12581:12594  matchUnits[i] */\n      0x06\n      dup2\n      lt\n      tag_504\n      jumpi\n      tag_504\n      tag_90\n      jump\t// in\n    tag_504:\n      0x20\n      swap1\n      dup2\n      mul\n      swap2\n      swap1\n      swap2\n      add\n      mload\n        /* \"GameMaster.sol\":12581:12597  matchUnits[i].id */\n      mload\n        /* \"GameMaster.sol\":12568:12598  unitIdToUnit[matchUnits[i].id] */\n      dup3\n      mstore\n      dup2\n      dup2\n      add\n      swap3\n      swap1\n      swap3\n      mstore\n      0x40\n      swap1\n      dup2\n      add\n        /* \"GameMaster.sol\":12581:12597  matchUnits[i].id */\n      0x00\n        /* \"GameMaster.sol\":12568:12598  unitIdToUnit[matchUnits[i].id] */\n      keccak256\n        /* \"GameMaster.sol\":12568:12614  unitIdToUnit[matchUnits[i].id] = matchUnits[i] */\n      dup4\n      mload\n      dup2\n      sstore\n      swap2\n      dup4\n      add\n      mload\n      0x01\n      dup4\n      add\n      dup1\n      sload\n      sub(shl(0xa0, 0x01), 0x01)\n      swap1\n      swap3\n      and\n      not(sub(shl(0xa0, 0x01), 0x01))\n      dup4\n      and\n      dup2\n      or\n      dup3\n      sstore\n      swap3\n      dup6\n      add\n      mload\n      swap3\n      swap1\n      swap2\n      not(sub(shl(0xa8, 0x01), 0x01))\n      and\n      or\n      shl(0xa0, 0x01)\n      dup4\n      0x02\n      dup2\n      gt\n      iszero\n      tag_506\n      jumpi\n      tag_506\n      tag_61\n      jump\t// in\n    tag_506:\n      mul\n      or\n      swap1\n      sstore\n      pop\n      0x60\n      dup3\n      add\n      mload\n      0x01\n      dup3\n      add\n      dup1\n      sload\n      not(shl(0xa8, 0xff))\n      and\n      shl(0xa8, 0x01)\n      dup4\n      0x03\n      dup2\n      gt\n      iszero\n      tag_508\n      jumpi\n      tag_508\n      tag_61\n      jump\t// in\n    tag_508:\n      mul\n      or\n      swap1\n      sstore\n      pop\n      0x80\n      dup3\n      add\n      mload\n      0x02\n      dup3\n      add\n      sstore\n      0xa0\n      dup3\n      add\n      mload\n      0x03\n      dup3\n      add\n      sstore\n      0xc0\n      dup3\n      add\n      mload\n      0x04\n      dup3\n      add\n      sstore\n      0xe0\n      dup3\n      add\n      mload\n      0x05\n      dup3\n      add\n      sstore\n      0x0100\n      dup3\n      add\n      mload\n      0x06\n      dup3\n      add\n      sstore\n      0x0120\n      dup3\n      add\n      mload\n      0x07\n      dup3\n      add\n      sstore\n      0x0140\n      dup3\n      add\n      mload\n      0x08\n      dup3\n      add\n      sstore\n      0x0160\n      dup3\n      add\n      mload\n      0x09\n      dup3\n      add\n      sstore\n      0x0180\n      swap1\n      swap2\n      add\n      mload\n      0x0a\n      swap1\n      swap2\n      add\n      sstore\n        /* \"GameMaster.sol\":12549:12552  i++ */\n      dup1\n      tag_509\n      dup2\n      tag_119\n      jump\t// in\n    tag_509:\n      swap2\n      pop\n      pop\n        /* \"GameMaster.sol\":12522:12625  for (uint256 i = 0; i < 6; i++) {... */\n      jump(tag_498)\n    tag_499:\n      pop\n        /* \"GameMaster.sol\":7195:12631  {... */\n      pop\n      pop\n        /* \"GameMaster.sol\":7150:12631  function renderStep(uint256 _matchId) public {... */\n      pop\n      jump\t// out\n        /* \"GameMaster.sol\":1283:1330  mapping(uint256 => Match) public matchIdToMatch */\n    tag_48:\n      0x04\n      0x20\n      swap1\n      dup2\n      mstore\n      0x00\n      swap2\n      dup3\n      mstore\n      0x40\n      swap2\n      dup3\n      swap1\n      keccak256\n      dup1\n      sload\n      dup4\n      mload\n      0x80\n      dup2\n      add\n      swap1\n      swap5\n      mstore\n      0x01\n      dup3\n      add\n      dup1\n      sload\n      sub(shl(0xa0, 0x01), 0x01)\n      dup2\n      and\n      dup7\n      mstore\n      swap2\n      swap5\n      swap3\n      swap4\n      swap1\n      swap2\n      swap1\n      dup4\n      add\n      swap1\n      shl(0xa0, 0x01)\n      swap1\n      div\n      0xff\n      and\n      0x03\n      dup2\n      gt\n      iszero\n      tag_511\n      jumpi\n      tag_511\n      tag_61\n      jump\t// in\n    tag_511:\n      0x03\n      dup2\n      gt\n      iszero\n      tag_513\n      jumpi\n      tag_513\n      tag_61\n      jump\t// in\n    tag_513:\n      dup2\n      mstore\n      0x40\n      dup1\n      mload\n      0x60\n      dup2\n      add\n      swap2\n      dup3\n      swap1\n      mstore\n      0x20\n      swap1\n      swap3\n      add\n      swap2\n      swap1\n      0x01\n      dup5\n      add\n      swap1\n      0x03\n      swap1\n      dup3\n      dup5\n    tag_515:\n      dup2\n      sload\n      dup2\n      mstore\n      0x20\n      add\n      swap1\n      0x01\n      add\n      swap1\n      dup1\n      dup4\n      gt\n      tag_515\n      jumpi\n      pop\n      pop\n      pop\n      swap2\n      dup4\n      mstore\n      pop\n      pop\n      0x04\n      swap2\n      swap1\n      swap2\n      add\n      sload\n      0x20\n      swap2\n      dup3\n      add\n      mstore\n      0x40\n      dup1\n      mload\n      0x80\n      dup2\n      add\n      swap1\n      swap2\n      mstore\n      0x06\n      dup5\n      add\n      dup1\n      sload\n      sub(shl(0xa0, 0x01), 0x01)\n      dup2\n      and\n      dup4\n      mstore\n      swap4\n      swap5\n      swap4\n      swap2\n      swap3\n      swap1\n      swap2\n      swap1\n      dup4\n      add\n      swap1\n      shl(0xa0, 0x01)\n      swap1\n      div\n      0xff\n      and\n      0x03\n      dup2\n      gt\n      iszero\n      tag_517\n      jumpi\n      tag_517\n      tag_61\n      jump\t// in\n    tag_517:\n      0x03\n      dup2\n      gt\n      iszero\n      tag_519\n      jumpi\n      tag_519\n      tag_61\n      jump\t// in\n    tag_519:\n      dup2\n      mstore\n      0x40\n      dup1\n      mload\n      0x60\n      dup2\n      add\n      swap2\n      dup3\n      swap1\n      mstore\n      0x20\n      swap1\n      swap3\n      add\n      swap2\n      swap1\n      0x01\n      dup5\n      add\n      swap1\n      0x03\n      swap1\n      dup3\n      dup5\n    tag_521:\n      dup2\n      sload\n      dup2\n      mstore\n      0x20\n      add\n      swap1\n      0x01\n      add\n      swap1\n      dup1\n      dup4\n      gt\n      tag_521\n      jumpi\n      pop\n      pop\n      pop\n      swap2\n      dup4\n      mstore\n      pop\n      pop\n      0x04\n      swap2\n      swap1\n      swap2\n      add\n      sload\n      0x20\n      swap1\n      swap2\n      add\n      mstore\n      0x0b\n      dup3\n      add\n      sload\n      0x0c\n      swap1\n      swap3\n      add\n      sload\n      swap1\n      swap2\n      0xff\n      and\n      swap1\n      dup6\n      jump\t// out\n        /* \"GameMaster.sol\":5422:6113  function joinMatch(uint256 _matchId) public returns (Match memory) {... */\n    tag_53:\n        /* \"GameMaster.sol\":5475:5487  Match memory */\n      tag_522\n      tag_164\n      jump\t// in\n    tag_522:\n        /* \"GameMaster.sol\":5555:5572  GameStatus.QUEUED */\n      0x01\n        /* \"GameMaster.sol\":5520:5544  matchIdToMatch[_matchId] */\n      0x00\n      dup4\n      dup2\n      mstore\n        /* \"GameMaster.sol\":5520:5534  matchIdToMatch */\n      0x04\n        /* \"GameMaster.sol\":5520:5544  matchIdToMatch[_matchId] */\n      0x20\n      mstore\n      0x40\n      swap1\n      keccak256\n        /* \"GameMaster.sol\":5520:5551  matchIdToMatch[_matchId].status */\n      0x0b\n      add\n      sload\n      0xff\n      and\n        /* \"GameMaster.sol\":5520:5572  matchIdToMatch[_matchId].status == GameStatus.QUEUED */\n      0x03\n      dup2\n      gt\n      iszero\n      tag_527\n      jumpi\n      tag_527\n      tag_61\n      jump\t// in\n    tag_527:\n      eq\n        /* \"GameMaster.sol\":5499:5613  require(... */\n      tag_528\n      jumpi\n      mload(0x40)\n      shl(0xe5, 0x461bcd)\n      dup2\n      mstore\n        /* \"#utility.yul\":7598:7600   */\n      0x20\n        /* \"GameMaster.sol\":5499:5613  require(... */\n      0x04\n      dup3\n      add\n        /* \"#utility.yul\":7580:7601   */\n      mstore\n        /* \"#utility.yul\":7637:7639   */\n      0x0f\n        /* \"#utility.yul\":7617:7635   */\n      0x24\n      dup3\n      add\n        /* \"#utility.yul\":7610:7640   */\n      mstore\n      shl(0x8a, 0x125b9d985b1a590813585d18da1259)\n        /* \"#utility.yul\":7656:7674   */\n      0x44\n      dup3\n      add\n        /* \"#utility.yul\":7649:7694   */\n      mstore\n        /* \"#utility.yul\":7711:7729   */\n      0x64\n      add\n        /* \"GameMaster.sol\":5499:5613  require(... */\n      tag_65\n        /* \"#utility.yul\":7396:7735   */\n      jump\n        /* \"GameMaster.sol\":5499:5613  require(... */\n    tag_528:\n        /* \"GameMaster.sol\":5644:5668  matchIdToMatch[_matchId] */\n      0x00\n      dup3\n      dup2\n      mstore\n        /* \"GameMaster.sol\":5644:5658  matchIdToMatch */\n      0x04\n        /* \"GameMaster.sol\":5644:5668  matchIdToMatch[_matchId] */\n      0x20\n      mstore\n      0x40\n      swap1\n      keccak256\n        /* \"GameMaster.sol\":5644:5676  matchIdToMatch[_matchId].playerA */\n      0x01\n      add\n        /* \"GameMaster.sol\":5644:5682  matchIdToMatch[_matchId].playerA.owner */\n      sload\n        /* \"GameMaster.sol\":5686:5696  msg.sender */\n      caller\n      sub(shl(0xa0, 0x01), 0x01)\n        /* \"GameMaster.sol\":5644:5682  matchIdToMatch[_matchId].playerA.owner */\n      swap1\n      swap2\n      and\n        /* \"GameMaster.sol\":5644:5696  matchIdToMatch[_matchId].playerA.owner != msg.sender */\n      sub\n        /* \"GameMaster.sol\":5623:5748  require(... */\n      tag_530\n      jumpi\n      mload(0x40)\n      shl(0xe5, 0x461bcd)\n      dup2\n      mstore\n        /* \"#utility.yul\":10233:10235   */\n      0x20\n        /* \"GameMaster.sol\":5623:5748  require(... */\n      0x04\n      dup3\n      add\n        /* \"#utility.yul\":10215:10236   */\n      mstore\n        /* \"#utility.yul\":10272:10274   */\n      0x1a\n        /* \"#utility.yul\":10252:10270   */\n      0x24\n      dup3\n      add\n        /* \"#utility.yul\":10245:10275   */\n      mstore\n        /* \"#utility.yul\":10311:10339   */\n      0x596f752063616e277420626174746c6520796f757273656c662e000000000000\n        /* \"#utility.yul\":10291:10309   */\n      0x44\n      dup3\n      add\n        /* \"#utility.yul\":10284:10340   */\n      mstore\n        /* \"#utility.yul\":10357:10375   */\n      0x64\n      add\n        /* \"GameMaster.sol\":5623:5748  require(... */\n      tag_65\n        /* \"#utility.yul\":10031:10381   */\n      jump\n        /* \"GameMaster.sol\":5623:5748  require(... */\n    tag_530:\n        /* \"GameMaster.sol\":5799:5808  Rank.NONE */\n      0x00\n        /* \"GameMaster.sol\":5779:5789  msg.sender */\n      caller\n        /* \"GameMaster.sol\":5763:5790  addressToPlayer[msg.sender] */\n      0x00\n      swap1\n      dup2\n      mstore\n        /* \"GameMaster.sol\":5763:5778  addressToPlayer */\n      0x02\n        /* \"GameMaster.sol\":5763:5790  addressToPlayer[msg.sender] */\n      0x20\n      mstore\n      0x40\n      swap1\n      keccak256\n        /* \"GameMaster.sol\":5763:5795  addressToPlayer[msg.sender].rank */\n      sload\n      shl(0xa0, 0x01)\n      swap1\n      div\n      0xff\n      and\n        /* \"GameMaster.sol\":5763:5808  addressToPlayer[msg.sender].rank == Rank.NONE */\n      0x03\n      dup2\n      gt\n      iszero\n      tag_536\n      jumpi\n      tag_536\n      tag_61\n      jump\t// in\n    tag_536:\n      sub\n        /* \"GameMaster.sol\":5759:5932  if (addressToPlayer[msg.sender].rank == Rank.NONE) {... */\n      tag_537\n      jumpi\n        /* \"GameMaster.sol\":5909:5921  initPlayer() */\n      tag_538\n        /* \"GameMaster.sol\":5909:5919  initPlayer */\n      tag_162\n        /* \"GameMaster.sol\":5909:5921  initPlayer() */\n      jump\t// in\n    tag_538:\n      pop\n        /* \"GameMaster.sol\":5759:5932  if (addressToPlayer[msg.sender].rank == Rank.NONE) {... */\n    tag_537:\n        /* \"GameMaster.sol\":5992:6002  msg.sender */\n      caller\n        /* \"GameMaster.sol\":5976:6003  addressToPlayer[msg.sender] */\n      0x00\n      swap1\n      dup2\n      mstore\n        /* \"GameMaster.sol\":5976:5991  addressToPlayer */\n      0x02\n        /* \"GameMaster.sol\":5976:6003  addressToPlayer[msg.sender] */\n      0x20\n      swap1\n      dup2\n      mstore\n      0x40\n      dup1\n      dup4\n      keccak256\n        /* \"GameMaster.sol\":5941:5965  matchIdToMatch[_matchId] */\n      dup6\n      dup5\n      mstore\n        /* \"GameMaster.sol\":5941:5955  matchIdToMatch */\n      0x04\n        /* \"GameMaster.sol\":5941:5965  matchIdToMatch[_matchId] */\n      swap1\n      swap3\n      mstore\n      swap1\n      swap2\n      keccak256\n        /* \"GameMaster.sol\":5941:6003  matchIdToMatch[_matchId].playerB = addressToPlayer[msg.sender] */\n      dup2\n      sload\n        /* \"GameMaster.sol\":5941:5973  matchIdToMatch[_matchId].playerB */\n      0x06\n      swap1\n      swap2\n      add\n        /* \"GameMaster.sol\":5941:6003  matchIdToMatch[_matchId].playerB = addressToPlayer[msg.sender] */\n      dup1\n      sload\n      not(sub(shl(0xa0, 0x01), 0x01))\n      dup2\n      and\n      sub(shl(0xa0, 0x01), 0x01)\n      swap4\n      swap1\n      swap4\n      and\n      swap3\n      dup4\n      or\n      dup3\n      sstore\n      dup4\n      sload\n        /* \"GameMaster.sol\":5941:5973  matchIdToMatch[_matchId].playerB */\n      swap2\n      swap3\n        /* \"GameMaster.sol\":5941:6003  matchIdToMatch[_matchId].playerB = addressToPlayer[msg.sender] */\n      0xff\n      shl(0xa0, 0x01)\n      swap4\n      dup5\n      swap1\n      div\n      and\n      swap3\n        /* \"GameMaster.sol\":5941:5973  matchIdToMatch[_matchId].playerB */\n      dup5\n      swap3\n      not(sub(shl(0xa8, 0x01), 0x01))\n        /* \"GameMaster.sol\":5941:6003  matchIdToMatch[_matchId].playerB = addressToPlayer[msg.sender] */\n      and\n      swap1\n      swap2\n      or\n      swap1\n      dup4\n      0x03\n      dup2\n      gt\n      iszero\n      tag_540\n      jumpi\n      tag_540\n      tag_61\n      jump\t// in\n    tag_540:\n      mul\n      or\n      swap1\n      sstore\n      pop\n      tag_541\n      0x01\n      dup3\n      dup2\n      add\n      swap1\n      dup5\n      add\n      0x03\n      tag_542\n      jump\t// in\n    tag_541:\n      pop\n      0x04\n      swap2\n      dup3\n      add\n      sload\n      swap1\n      dup3\n      add\n      sstore\n      0x00\n        /* \"GameMaster.sol\":6013:6037  matchIdToMatch[_matchId] */\n      dup4\n      dup2\n      mstore\n      0x20\n      swap2\n      dup3\n      mstore\n      0x40\n      swap1\n      dup2\n      swap1\n      keccak256\n        /* \"GameMaster.sol\":6013:6044  matchIdToMatch[_matchId].status */\n      0x0b\n      dup2\n      add\n        /* \"GameMaster.sol\":6013:6064  matchIdToMatch[_matchId].status = GameStatus.ACTIVE */\n      dup1\n      sload\n      not(0xff)\n      and\n        /* \"GameMaster.sol\":6047:6064  GameStatus.ACTIVE */\n      0x02\n        /* \"GameMaster.sol\":6013:6064  matchIdToMatch[_matchId].status = GameStatus.ACTIVE */\n      or\n      swap1\n      sstore\n        /* \"GameMaster.sol\":6075:6106  return matchIdToMatch[_matchId] */\n      dup2\n      mload\n      0xa0\n      dup2\n      add\n      dup4\n      mstore\n      dup2\n      sload\n      dup2\n      mstore\n      dup3\n      mload\n      0x80\n      dup2\n      add\n      swap1\n      swap4\n      mstore\n        /* \"GameMaster.sol\":6013:6064  matchIdToMatch[_matchId].status = GameStatus.ACTIVE */\n      0x01\n        /* \"GameMaster.sol\":6075:6106  return matchIdToMatch[_matchId] */\n      dup3\n      add\n      dup1\n      sload\n      sub(shl(0xa0, 0x01), 0x01)\n      dup2\n      and\n      dup6\n      mstore\n      swap2\n      swap5\n        /* \"GameMaster.sol\":6013:6037  matchIdToMatch[_matchId] */\n      swap3\n      swap4\n        /* \"GameMaster.sol\":6075:6106  return matchIdToMatch[_matchId] */\n      dup6\n      dup5\n      add\n      swap4\n      swap1\n      swap3\n      swap1\n      dup4\n      add\n      swap1\n      0xff\n      shl(0xa0, 0x01)\n      swap1\n      swap2\n      div\n      and\n      0x03\n      dup2\n      gt\n      iszero\n      tag_546\n      jumpi\n      tag_546\n      tag_61\n      jump\t// in\n    tag_546:\n      0x03\n      dup2\n      gt\n      iszero\n      tag_548\n      jumpi\n      tag_548\n      tag_61\n      jump\t// in\n    tag_548:\n      dup2\n      mstore\n      0x40\n      dup1\n      mload\n      0x60\n      dup2\n      add\n      swap2\n      dup3\n      swap1\n      mstore\n      0x20\n      swap1\n      swap3\n      add\n      swap2\n      swap1\n      0x01\n      dup5\n      add\n      swap1\n      0x03\n      swap1\n      dup3\n      dup5\n    tag_550:\n      dup2\n      sload\n      dup2\n      mstore\n      0x20\n      add\n      swap1\n      0x01\n      add\n      swap1\n      dup1\n      dup4\n      gt\n      tag_550\n      jumpi\n      pop\n      pop\n      pop\n      swap2\n      dup4\n      mstore\n      pop\n      pop\n      0x04\n      swap2\n      swap1\n      swap2\n      add\n      sload\n      0x20\n      swap2\n      dup3\n      add\n      mstore\n      swap1\n      dup3\n      mstore\n      0x40\n      dup1\n      mload\n      0x80\n      dup2\n      add\n      swap1\n      swap2\n      mstore\n      0x06\n      dup5\n      add\n      dup1\n      sload\n      sub(shl(0xa0, 0x01), 0x01)\n      dup2\n      and\n      dup4\n      mstore\n      swap4\n      dup4\n      add\n      swap4\n      swap2\n      swap3\n      swap1\n      swap2\n      swap1\n      dup4\n      add\n      swap1\n      shl(0xa0, 0x01)\n      swap1\n      div\n      0xff\n      and\n      0x03\n      dup2\n      gt\n      iszero\n      tag_552\n      jumpi\n      tag_552\n      tag_61\n      jump\t// in\n    tag_552:\n      0x03\n      dup2\n      gt\n      iszero\n      tag_554\n      jumpi\n      tag_554\n      tag_61\n      jump\t// in\n    tag_554:\n      dup2\n      mstore\n      0x40\n      dup1\n      mload\n      0x60\n      dup2\n      add\n      swap2\n      dup3\n      swap1\n      mstore\n      0x20\n      swap1\n      swap3\n      add\n      swap2\n      swap1\n      0x01\n      dup5\n      add\n      swap1\n      0x03\n      swap1\n      dup3\n      dup5\n    tag_556:\n      dup2\n      sload\n      dup2\n      mstore\n      0x20\n      add\n      swap1\n      0x01\n      add\n      swap1\n      dup1\n      dup4\n      gt\n      tag_556\n      jumpi\n      pop\n      pop\n      pop\n      swap2\n      dup4\n      mstore\n      pop\n      pop\n      0x04\n      swap2\n      swap1\n      swap2\n      add\n      sload\n      0x20\n      swap2\n      dup3\n      add\n      mstore\n      swap1\n      dup3\n      mstore\n      0x0b\n      dup4\n      add\n      sload\n      swap2\n      add\n      swap1\n      0xff\n      and\n      0x03\n      dup2\n      gt\n      iszero\n      tag_558\n      jumpi\n      tag_558\n      tag_61\n      jump\t// in\n    tag_558:\n      0x03\n      dup2\n      gt\n      iszero\n      tag_560\n      jumpi\n      tag_560\n      tag_61\n      jump\t// in\n    tag_560:\n      dup2\n      mstore\n      0x20\n      add\n      0x0c\n      dup3\n      add\n      sload\n      dup2\n      mstore\n      pop\n      pop\n      swap1\n      pop\n        /* \"GameMaster.sol\":5422:6113  function joinMatch(uint256 _matchId) public returns (Match memory) {... */\n      swap2\n      swap1\n      pop\n      jump\t// out\n        /* \"GameMaster.sol\":3084:4774  function initPlayer() private returns (Player memory) {... */\n    tag_162:\n        /* \"GameMaster.sol\":3123:3136  Player memory */\n      tag_561\n      tag_562\n      jump\t// in\n    tag_561:\n        /* \"GameMaster.sol\":3206:3216  msg.sender */\n      caller\n        /* \"GameMaster.sol\":3169:3196  addressToPlayer[msg.sender] */\n      0x00\n      dup2\n      dup2\n      mstore\n        /* \"GameMaster.sol\":3169:3184  addressToPlayer */\n      0x02\n        /* \"GameMaster.sol\":3169:3196  addressToPlayer[msg.sender] */\n      0x20\n      mstore\n      0x40\n      swap1\n      keccak256\n        /* \"GameMaster.sol\":3169:3202  addressToPlayer[msg.sender].owner */\n      sload\n      sub(shl(0xa0, 0x01), 0x01)\n      and\n        /* \"GameMaster.sol\":3169:3216  addressToPlayer[msg.sender].owner != msg.sender */\n      sub\n        /* \"GameMaster.sol\":3148:3269  require(... */\n      tag_564\n      jumpi\n      mload(0x40)\n      shl(0xe5, 0x461bcd)\n      dup2\n      mstore\n        /* \"#utility.yul\":10588:10590   */\n      0x20\n        /* \"GameMaster.sol\":3148:3269  require(... */\n      0x04\n      dup3\n      add\n        /* \"#utility.yul\":10570:10591   */\n      mstore\n        /* \"#utility.yul\":10627:10629   */\n      0x1b\n        /* \"#utility.yul\":10607:10625   */\n      0x24\n      dup3\n      add\n        /* \"#utility.yul\":10600:10630   */\n      mstore\n        /* \"#utility.yul\":10666:10695   */\n      0x506c6179657220616c726561647920696e697469616c697a65642e0000000000\n        /* \"#utility.yul\":10646:10664   */\n      0x44\n      dup3\n      add\n        /* \"#utility.yul\":10639:10696   */\n      mstore\n        /* \"#utility.yul\":10713:10731   */\n      0x64\n      add\n        /* \"GameMaster.sol\":3148:3269  require(... */\n      tag_65\n        /* \"#utility.yul\":10386:10737   */\n      jump\n        /* \"GameMaster.sol\":3148:3269  require(... */\n    tag_564:\n        /* \"GameMaster.sol\":3280:3308  uint256[3] memory newUnitIds */\n      tag_567\n      tag_568\n      jump\t// in\n    tag_567:\n        /* \"GameMaster.sol\":3349:3606  Unit(... */\n      0x40\n      dup1\n      mload\n      0x01a0\n      dup2\n      add\n      dup3\n      mstore\n        /* \"GameMaster.sol\":3367:3379  unitGlobalId */\n      0x01\n      dup1\n      sload\n        /* \"GameMaster.sol\":3349:3606  Unit(... */\n      dup1\n      dup4\n      mstore\n        /* \"GameMaster.sol\":3393:3403  msg.sender */\n      caller\n        /* \"GameMaster.sol\":3349:3606  Unit(... */\n      0x20\n      dup1\n      dup6\n      add\n      swap2\n      dup3\n      mstore\n      0x00\n      dup6\n      dup8\n      add\n      dup2\n      dup2\n      mstore\n      0x60\n      dup8\n      add\n      dup3\n      swap1\n      mstore\n        /* \"GameMaster.sol\":3474:3476  20 */\n      0x14\n        /* \"GameMaster.sol\":3349:3606  Unit(... */\n      0x80\n      dup9\n      add\n      mstore\n      0xa0\n      dup8\n      add\n      dup7\n      swap1\n      mstore\n      0xc0\n      dup8\n      add\n      dup3\n      swap1\n      mstore\n      0xe0\n      dup8\n      add\n      dup3\n      swap1\n      mstore\n        /* \"GameMaster.sol\":3535:3536  2 */\n      0x02\n        /* \"GameMaster.sol\":3349:3606  Unit(... */\n      0x0100\n      dup9\n      add\n      dup2\n      swap1\n      mstore\n      0x0120\n      dup9\n      add\n      dup4\n      swap1\n      mstore\n      0x0140\n      dup9\n      add\n      dup2\n      swap1\n      mstore\n      0x0160\n      dup9\n      add\n      dup4\n      swap1\n      mstore\n      0x0180\n      dup9\n      add\n      dup4\n      swap1\n      mstore\n        /* \"GameMaster.sol\":3616:3642  unitIdToUnit[unitGlobalId] */\n      swap5\n      dup3\n      mstore\n        /* \"GameMaster.sol\":3616:3628  unitIdToUnit */\n      0x03\n        /* \"GameMaster.sol\":3616:3642  unitIdToUnit[unitGlobalId] */\n      swap1\n      swap3\n      mstore\n      swap6\n      swap1\n      swap6\n      keccak256\n        /* \"GameMaster.sol\":3616:3660  unitIdToUnit[unitGlobalId] = newUnitInfantry */\n      dup5\n      mload\n      dup2\n      sstore\n      swap1\n      mload\n      swap3\n      dup2\n      add\n      dup1\n      sload\n      sub(shl(0xa0, 0x01), 0x01)\n      swap1\n      swap5\n      and\n      not(sub(shl(0xa0, 0x01), 0x01))\n      dup6\n      and\n      dup2\n      or\n      dup3\n      sstore\n      swap6\n      mload\n        /* \"GameMaster.sol\":3349:3606  Unit(... */\n      swap5\n      swap6\n      dup7\n      swap6\n        /* \"GameMaster.sol\":3616:3642  unitIdToUnit[unitGlobalId] */\n      swap3\n      swap5\n        /* \"GameMaster.sol\":3616:3660  unitIdToUnit[unitGlobalId] = newUnitInfantry */\n      swap3\n      swap4\n      swap2\n      swap3\n      not(sub(shl(0xa8, 0x01), 0x01))\n      and\n      or\n      swap1\n      shl(0xa0, 0x01)\n      swap1\n      dup5\n      swap1\n      dup2\n      gt\n      iszero\n      tag_574\n      jumpi\n      tag_574\n      tag_61\n      jump\t// in\n    tag_574:\n      mul\n      or\n      swap1\n      sstore\n      pop\n      0x60\n      dup3\n      add\n      mload\n      0x01\n      dup3\n      add\n      dup1\n      sload\n      not(shl(0xa8, 0xff))\n      and\n      shl(0xa8, 0x01)\n      dup4\n      0x03\n      dup2\n      gt\n      iszero\n      tag_576\n      jumpi\n      tag_576\n      tag_61\n      jump\t// in\n    tag_576:\n      mul\n      or\n      swap1\n      sstore\n      pop\n      0x80\n      dup3\n      add\n      mload\n      0x02\n      dup3\n      add\n      sstore\n      0xa0\n      dup3\n      add\n      mload\n      0x03\n      dup3\n      add\n      sstore\n      0xc0\n      dup3\n      add\n      mload\n      0x04\n      dup3\n      add\n      sstore\n      0xe0\n      dup3\n      add\n      mload\n      0x05\n      dup3\n      add\n      sstore\n      0x0100\n      dup3\n      add\n      mload\n      0x06\n      dup3\n      add\n      sstore\n      0x0120\n      dup3\n      add\n      mload\n      0x07\n      dup3\n      add\n      sstore\n      0x0140\n      dup3\n      add\n      mload\n      0x08\n      dup3\n      add\n      sstore\n      0x0160\n      dup3\n      add\n      mload\n      0x09\n      dup3\n      add\n      sstore\n      0x0180\n      swap1\n      swap2\n      add\n      mload\n      0x0a\n      swap1\n      swap2\n      add\n      sstore\n        /* \"GameMaster.sol\":3686:3698  unitGlobalId */\n      0x01\n      dup1\n      sload\n        /* \"GameMaster.sol\":3670:3698  newUnitIds[0] = unitGlobalId */\n      dup1\n      dup5\n      mstore\n        /* \"GameMaster.sol\":3686:3698  unitGlobalId */\n      swap1\n      0x00\n        /* \"GameMaster.sol\":3708:3722  unitGlobalId++ */\n      tag_579\n        /* \"GameMaster.sol\":3686:3698  unitGlobalId */\n      dup4\n        /* \"GameMaster.sol\":3708:3722  unitGlobalId++ */\n      tag_119\n      jump\t// in\n    tag_579:\n      swap1\n      swap2\n      sstore\n      pop\n      pop\n        /* \"GameMaster.sol\":3759:4012  Unit(... */\n      0x40\n      dup1\n      mload\n      0x01a0\n      dup2\n      add\n      dup3\n      mstore\n        /* \"GameMaster.sol\":3777:3789  unitGlobalId */\n      0x01\n      dup1\n      sload\n        /* \"GameMaster.sol\":3759:4012  Unit(... */\n      dup1\n      dup4\n      mstore\n        /* \"GameMaster.sol\":3803:3813  msg.sender */\n      caller\n        /* \"GameMaster.sol\":3759:4012  Unit(... */\n      0x20\n      dup1\n      dup6\n      add\n      swap2\n      dup3\n      mstore\n      dup5\n      dup7\n      add\n      dup5\n      dup2\n      mstore\n      0x00\n      0x60\n      dup8\n      add\n      dup2\n      swap1\n      mstore\n        /* \"GameMaster.sol\":3880:3882  25 */\n      0x19\n        /* \"GameMaster.sol\":3759:4012  Unit(... */\n      0x80\n      dup9\n      add\n      mstore\n        /* \"GameMaster.sol\":3896:3897  2 */\n      0x02\n        /* \"GameMaster.sol\":3759:4012  Unit(... */\n      0xa0\n      dup9\n      add\n      dup2\n      swap1\n      mstore\n      0xc0\n      dup9\n      add\n      dup3\n      swap1\n      mstore\n      0xe0\n      dup9\n      add\n      dup3\n      swap1\n      mstore\n        /* \"GameMaster.sol\":3941:3942  5 */\n      0x05\n        /* \"GameMaster.sol\":3759:4012  Unit(... */\n      0x0100\n      dup10\n      add\n      dup2\n      swap1\n      mstore\n      0x0120\n      dup10\n      add\n      dup4\n      swap1\n      mstore\n      0x0140\n      dup10\n      add\n      mstore\n      0x0160\n      dup9\n      add\n      dup3\n      swap1\n      mstore\n      0x0180\n      dup9\n      add\n      dup3\n      swap1\n      mstore\n        /* \"GameMaster.sol\":4022:4048  unitIdToUnit[unitGlobalId] */\n      swap5\n      dup2\n      mstore\n        /* \"GameMaster.sol\":4022:4034  unitIdToUnit */\n      0x03\n        /* \"GameMaster.sol\":4022:4048  unitIdToUnit[unitGlobalId] */\n      swap1\n      swap3\n      mstore\n      swap6\n      swap1\n      keccak256\n        /* \"GameMaster.sol\":4022:4062  unitIdToUnit[unitGlobalId] = newUnitTank */\n      dup5\n      mload\n      dup2\n      sstore\n      swap1\n      mload\n      swap3\n      dup2\n      add\n      dup1\n      sload\n      sub(shl(0xa0, 0x01), 0x01)\n      swap1\n      swap5\n      and\n      not(sub(shl(0xa0, 0x01), 0x01))\n      dup6\n      and\n      dup2\n      or\n      dup3\n      sstore\n      swap6\n      mload\n        /* \"GameMaster.sol\":3759:4012  Unit(... */\n      swap5\n      swap6\n      dup7\n      swap6\n        /* \"GameMaster.sol\":4022:4048  unitIdToUnit[unitGlobalId] */\n      swap3\n      swap5\n        /* \"GameMaster.sol\":4022:4062  unitIdToUnit[unitGlobalId] = newUnitTank */\n      swap3\n      swap4\n      swap2\n      swap3\n      not(sub(shl(0xa8, 0x01), 0x01))\n      and\n      or\n      swap1\n      shl(0xa0, 0x01)\n      swap1\n      dup5\n      swap1\n      dup2\n      gt\n      iszero\n      tag_585\n      jumpi\n      tag_585\n      tag_61\n      jump\t// in\n    tag_585:\n      mul\n      or\n      swap1\n      sstore\n      pop\n      0x60\n      dup3\n      add\n      mload\n      0x01\n      dup3\n      add\n      dup1\n      sload\n      not(shl(0xa8, 0xff))\n      and\n      shl(0xa8, 0x01)\n      dup4\n      0x03\n      dup2\n      gt\n      iszero\n      tag_587\n      jumpi\n      tag_587\n      tag_61\n      jump\t// in\n    tag_587:\n      mul\n      or\n      swap1\n      sstore\n      pop\n      0x80\n      dup3\n      add\n      mload\n      0x02\n      dup3\n      add\n      sstore\n      0xa0\n      dup3\n      add\n      mload\n      0x03\n      dup3\n      add\n      sstore\n      0xc0\n      dup3\n      add\n      mload\n      0x04\n      dup3\n      add\n      sstore\n      0xe0\n      dup3\n      add\n      mload\n      0x05\n      dup3\n      add\n      sstore\n      0x0100\n      dup3\n      add\n      mload\n      0x06\n      dup3\n      add\n      sstore\n      0x0120\n      dup3\n      add\n      mload\n      0x07\n      dup3\n      add\n      sstore\n      0x0140\n      dup3\n      add\n      mload\n      0x08\n      dup3\n      add\n      sstore\n      0x0160\n      dup3\n      add\n      mload\n      0x09\n      dup3\n      add\n      sstore\n      0x0180\n      swap1\n      swap2\n      add\n      mload\n      0x0a\n      swap1\n      swap2\n      add\n      sstore\n        /* \"GameMaster.sol\":4088:4100  unitGlobalId */\n      0x01\n      dup1\n      sload\n        /* \"GameMaster.sol\":4072:4085  newUnitIds[1] */\n      0x20\n      dup6\n      add\n        /* \"GameMaster.sol\":4072:4100  newUnitIds[1] = unitGlobalId */\n      dup2\n      swap1\n      mstore\n        /* \"GameMaster.sol\":4088:4100  unitGlobalId */\n      swap1\n      0x00\n        /* \"GameMaster.sol\":4110:4124  unitGlobalId++ */\n      tag_590\n        /* \"GameMaster.sol\":4088:4100  unitGlobalId */\n      dup4\n        /* \"GameMaster.sol\":4110:4124  unitGlobalId++ */\n      tag_119\n      jump\t// in\n    tag_590:\n      swap1\n      swap2\n      sstore\n      pop\n      pop\n        /* \"GameMaster.sol\":4162:4416  Unit(... */\n      0x40\n      dup1\n      mload\n      0x01a0\n      dup2\n      add\n      dup3\n      mstore\n        /* \"GameMaster.sol\":4180:4192  unitGlobalId */\n      sload(0x01)\n        /* \"GameMaster.sol\":4162:4416  Unit(... */\n      dup2\n      mstore\n        /* \"GameMaster.sol\":4206:4216  msg.sender */\n      caller\n        /* \"GameMaster.sol\":4162:4416  Unit(... */\n      0x20\n      dup3\n      add\n      mstore\n        /* \"GameMaster.sol\":4135:4159  Unit memory newUnitDrone */\n      0x00\n      swap2\n        /* \"GameMaster.sol\":4162:4416  Unit(... */\n      dup2\n      add\n        /* \"GameMaster.sol\":4230:4245  UnitTypes.DRONE */\n      0x02\n        /* \"GameMaster.sol\":4162:4416  Unit(... */\n      dup2\n      mstore\n      0x20\n      add\n        /* \"GameMaster.sol\":4259:4270  Action.IDLE */\n      0x00\n        /* \"GameMaster.sol\":4162:4416  Unit(... */\n      dup2\n      mstore\n        /* \"GameMaster.sol\":4284:4286  15 */\n      0x0f\n        /* \"GameMaster.sol\":4162:4416  Unit(... */\n      0x20\n      dup1\n      dup4\n      add\n      swap2\n      swap1\n      swap2\n      mstore\n        /* \"GameMaster.sol\":4300:4301  3 */\n      0x03\n        /* \"GameMaster.sol\":4162:4416  Unit(... */\n      0x40\n      dup1\n      dup5\n      add\n      dup3\n      swap1\n      mstore\n      0x00\n      0x60\n      dup6\n      add\n      dup2\n      swap1\n      mstore\n      0x80\n      dup6\n      add\n      dup2\n      swap1\n      mstore\n        /* \"GameMaster.sol\":4345:4346  8 */\n      0x08\n        /* \"GameMaster.sol\":4162:4416  Unit(... */\n      0xa0\n      dup7\n      add\n      dup2\n      swap1\n      mstore\n      0xc0\n      dup7\n      add\n      dup3\n      swap1\n      mstore\n      0xe0\n      dup7\n      add\n      mstore\n      0x0100\n      dup6\n      add\n      dup2\n      swap1\n      mstore\n      0x0120\n      swap1\n      swap5\n      add\n      dup5\n      swap1\n      mstore\n        /* \"GameMaster.sol\":4439:4451  unitGlobalId */\n      0x01\n      dup1\n      sload\n        /* \"GameMaster.sol\":4426:4452  unitIdToUnit[unitGlobalId] */\n      dup6\n      mstore\n      swap2\n      dup4\n      mstore\n      swap3\n      dup4\n      swap1\n      keccak256\n        /* \"GameMaster.sol\":4426:4467  unitIdToUnit[unitGlobalId] = newUnitDrone */\n      dup5\n      mload\n      dup2\n      sstore\n      swap2\n      dup5\n      add\n      mload\n      swap1\n      dup3\n      add\n      dup1\n      sload\n      sub(shl(0xa0, 0x01), 0x01)\n      swap1\n      swap3\n      and\n      not(sub(shl(0xa0, 0x01), 0x01))\n      dup4\n      and\n      dup2\n      or\n      dup3\n      sstore\n      swap4\n      dup6\n      add\n      mload\n        /* \"GameMaster.sol\":4135:4416  Unit memory newUnitDrone = Unit(... */\n      swap5\n      swap6\n      pop\n      dup6\n      swap5\n        /* \"GameMaster.sol\":4426:4452  unitIdToUnit[unitGlobalId] */\n      swap3\n      swap4\n        /* \"GameMaster.sol\":4426:4467  unitIdToUnit[unitGlobalId] = newUnitDrone */\n      swap1\n      swap2\n      not(sub(shl(0xa8, 0x01), 0x01))\n      and\n      or\n      shl(0xa0, 0x01)\n      dup4\n      0x02\n      dup2\n      gt\n      iszero\n      tag_596\n      jumpi\n      tag_596\n      tag_61\n      jump\t// in\n    tag_596:\n      mul\n      or\n      swap1\n      sstore\n      pop\n      0x60\n      dup3\n      add\n      mload\n      0x01\n      dup3\n      add\n      dup1\n      sload\n      not(shl(0xa8, 0xff))\n      and\n      shl(0xa8, 0x01)\n      dup4\n      0x03\n      dup2\n      gt\n      iszero\n      tag_598\n      jumpi\n      tag_598\n      tag_61\n      jump\t// in\n    tag_598:\n      mul\n      or\n      swap1\n      sstore\n      pop\n      0x80\n      dup3\n      add\n      mload\n      dup2\n      0x02\n      add\n      sstore\n      0xa0\n      dup3\n      add\n      mload\n      dup2\n      0x03\n      add\n      sstore\n      0xc0\n      dup3\n      add\n      mload\n      dup2\n      0x04\n      add\n      sstore\n      0xe0\n      dup3\n      add\n      mload\n      dup2\n      0x05\n      add\n      sstore\n      0x0100\n      dup3\n      add\n      mload\n      dup2\n      0x06\n      add\n      sstore\n      0x0120\n      dup3\n      add\n      mload\n      dup2\n      0x07\n      add\n      sstore\n      0x0140\n      dup3\n      add\n      mload\n      dup2\n      0x08\n      add\n      sstore\n      0x0160\n      dup3\n      add\n      mload\n      dup2\n      0x09\n      add\n      sstore\n      0x0180\n      dup3\n      add\n      mload\n      dup2\n      0x0a\n      add\n      sstore\n      swap1\n      pop\n      pop\n        /* \"GameMaster.sol\":4493:4505  unitGlobalId */\n      sload(0x01)\n        /* \"GameMaster.sol\":4477:4487  newUnitIds */\n      dup5\n        /* \"GameMaster.sol\":4488:4489  2 */\n      0x02\n        /* \"GameMaster.sol\":4477:4490  newUnitIds[2] */\n      0x03\n      dup2\n      lt\n      tag_600\n      jumpi\n      tag_600\n      tag_90\n      jump\t// in\n    tag_600:\n      0x20\n      mul\n      add\n        /* \"GameMaster.sol\":4477:4505  newUnitIds[2] = unitGlobalId */\n      mstore\n        /* \"GameMaster.sol\":4515:4527  unitGlobalId */\n      0x01\n        /* \"GameMaster.sol\":4515:4529  unitGlobalId++ */\n      dup1\n      sload\n      swap1\n        /* \"GameMaster.sol\":4515:4527  unitGlobalId */\n      0x00\n        /* \"GameMaster.sol\":4515:4529  unitGlobalId++ */\n      tag_601\n      dup4\n      tag_119\n      jump\t// in\n    tag_601:\n      swap1\n      swap2\n      sstore\n      pop\n      pop\n        /* \"GameMaster.sol\":4566:4672  Player(... */\n      0x40\n      dup1\n      mload\n      0x80\n      dup2\n      add\n      dup3\n      mstore\n        /* \"GameMaster.sol\":4586:4596  msg.sender */\n      caller\n        /* \"GameMaster.sol\":4566:4672  Player(... */\n      dup1\n      dup3\n      mstore\n        /* \"GameMaster.sol\":4610:4623  Rank.SERGEANT */\n      0x01\n        /* \"GameMaster.sol\":4566:4672  Player(... */\n      0x20\n      dup1\n      dup5\n      add\n      swap2\n      dup3\n      mstore\n      dup4\n      dup6\n      add\n      dup10\n      swap1\n      mstore\n      0x00\n      0x60\n      dup6\n      add\n      dup2\n      swap1\n      mstore\n        /* \"GameMaster.sol\":4683:4710  addressToPlayer[msg.sender] */\n      swap3\n      dup4\n      mstore\n        /* \"GameMaster.sol\":4683:4698  addressToPlayer */\n      0x02\n        /* \"GameMaster.sol\":4683:4710  addressToPlayer[msg.sender] */\n      swap1\n      mstore\n      swap3\n      swap1\n      keccak256\n        /* \"GameMaster.sol\":4683:4722  addressToPlayer[msg.sender] = newPlayer */\n      dup2\n      mload\n      dup2\n      sload\n      not(sub(shl(0xa0, 0x01), 0x01))\n      dup2\n      and\n      sub(shl(0xa0, 0x01), 0x01)\n      swap1\n      swap3\n      and\n      swap2\n      dup3\n      or\n      dup4\n      sstore\n      swap4\n      mload\n        /* \"GameMaster.sol\":4566:4672  Player(... */\n      swap3\n      swap4\n      dup5\n      swap4\n        /* \"GameMaster.sol\":4683:4722  addressToPlayer[msg.sender] = newPlayer */\n      swap2\n        /* \"GameMaster.sol\":4683:4710  addressToPlayer[msg.sender] */\n      dup4\n      swap2\n      not(sub(shl(0xa8, 0x01), 0x01))\n        /* \"GameMaster.sol\":4683:4722  addressToPlayer[msg.sender] = newPlayer */\n      and\n      or\n      shl(0xa0, 0x01)\n      dup4\n      0x03\n      dup2\n      gt\n      iszero\n      tag_605\n      jumpi\n      tag_605\n      tag_61\n      jump\t// in\n    tag_605:\n      mul\n      or\n      swap1\n      sstore\n      pop\n      0x40\n      dup3\n      add\n      mload\n      tag_606\n      swap1\n      0x01\n      dup4\n      add\n      swap1\n      0x03\n      tag_178\n      jump\t// in\n    tag_606:\n      pop\n      0x60\n      swap2\n      swap1\n      swap2\n      add\n      mload\n      0x04\n      swap1\n      swap2\n      add\n      sstore\n        /* \"GameMaster.sol\":4756:4766  msg.sender */\n      caller\n        /* \"GameMaster.sol\":4740:4767  addressToPlayer[msg.sender] */\n      0x00\n      swap1\n      dup2\n      mstore\n        /* \"GameMaster.sol\":4740:4755  addressToPlayer */\n      0x02\n        /* \"GameMaster.sol\":4740:4767  addressToPlayer[msg.sender] */\n      0x20\n      swap1\n      dup2\n      mstore\n      0x40\n      swap2\n      dup3\n      swap1\n      keccak256\n        /* \"GameMaster.sol\":4733:4767  return addressToPlayer[msg.sender] */\n      dup3\n      mload\n      0x80\n      dup2\n      add\n      swap1\n      swap4\n      mstore\n      dup1\n      sload\n      sub(shl(0xa0, 0x01), 0x01)\n      dup2\n      and\n      dup5\n      mstore\n        /* \"GameMaster.sol\":4740:4767  addressToPlayer[msg.sender] */\n      swap1\n      swap2\n        /* \"GameMaster.sol\":4733:4767  return addressToPlayer[msg.sender] */\n      dup4\n      add\n      swap1\n      shl(0xa0, 0x01)\n      swap1\n      div\n      0xff\n      and\n      0x03\n      dup2\n      gt\n      iszero\n      tag_608\n      jumpi\n      tag_608\n      tag_61\n      jump\t// in\n    tag_608:\n      0x03\n      dup2\n      gt\n      iszero\n      tag_610\n      jumpi\n      tag_610\n      tag_61\n      jump\t// in\n    tag_610:\n      dup2\n      mstore\n      0x40\n      dup1\n      mload\n      0x60\n      dup2\n      add\n      swap2\n      dup3\n      swap1\n      mstore\n      0x20\n      swap1\n      swap3\n      add\n      swap2\n      swap1\n      0x01\n      dup5\n      add\n      swap1\n      0x03\n      swap1\n      dup3\n      dup5\n    tag_612:\n      dup2\n      sload\n      dup2\n      mstore\n      0x20\n      add\n      swap1\n      0x01\n      add\n      swap1\n      dup1\n      dup4\n      gt\n      tag_612\n      jumpi\n      pop\n      pop\n      pop\n      pop\n      pop\n      dup2\n      mstore\n      0x20\n      add\n      0x04\n      dup3\n      add\n      sload\n      dup2\n      mstore\n      pop\n      pop\n      swap6\n      pop\n      pop\n      pop\n      pop\n      pop\n      pop\n        /* \"GameMaster.sol\":3084:4774  function initPlayer() private returns (Player memory) {... */\n      swap1\n      jump\t// out\n        /* \"GameMaster.sol\":12637:12985  function random(uint256 _randomInt) private view returns (uint256) {... */\n    tag_313:\n        /* \"GameMaster.sol\":12789:12946  abi.encodePacked(... */\n      0x40\n      dup1\n      mload\n        /* \"GameMaster.sol\":12831:12847  block.difficulty */\n      difficulty\n        /* \"GameMaster.sol\":12789:12946  abi.encodePacked(... */\n      0x20\n      dup1\n      dup4\n      add\n        /* \"#utility.yul\":10927:10946   */\n      swap2\n      swap1\n      swap2\n      mstore\n        /* \"GameMaster.sol\":12873:12888  block.timestamp */\n      timestamp\n        /* \"#utility.yul\":10962:10974   */\n      dup3\n      dup5\n      add\n        /* \"#utility.yul\":10955:10983   */\n      mstore\n        /* \"#utility.yul\":10999:11011   */\n      0x60\n      dup1\n      dup4\n      add\n        /* \"#utility.yul\":10992:11020   */\n      swap5\n      swap1\n      swap5\n      mstore\n        /* \"GameMaster.sol\":12789:12946  abi.encodePacked(... */\n      dup3\n      mload\n      dup1\n      dup4\n      sub\n      swap1\n      swap5\n      add\n      dup5\n      mstore\n        /* \"#utility.yul\":11036:11048   */\n      0x80\n      swap1\n      swap2\n      add\n        /* \"GameMaster.sol\":12789:12946  abi.encodePacked(... */\n      swap1\n      swap2\n      mstore\n        /* \"GameMaster.sol\":12758:12964  keccak256(... */\n      dup2\n      mload\n      swap2\n      add\n      keccak256\n      swap1\n        /* \"GameMaster.sol\":12637:12985  function random(uint256 _randomInt) private view returns (uint256) {... */\n      jump\t// out\n    tag_57:\n      mload(0x40)\n      dup1\n      0xc0\n      add\n      0x40\n      mstore\n      dup1\n      0x06\n      swap1\n    tag_616:\n      tag_617\n      tag_618\n      jump\t// in\n    tag_617:\n      dup2\n      mstore\n      0x20\n      add\n      swap1\n      0x01\n      swap1\n      sub\n      swap1\n      dup2\n      tag_616\n      jumpi\n      swap1\n      pop\n      pop\n      swap1\n      jump\t// out\n    tag_121:\n      mload(0x40)\n      dup1\n      0x60\n      add\n      0x40\n      mstore\n      dup1\n      0x03\n      swap1\n    tag_619:\n      tag_620\n      tag_618\n      jump\t// in\n    tag_620:\n      dup2\n      mstore\n      0x20\n      add\n      swap1\n      0x01\n      swap1\n      sub\n      swap1\n      dup2\n      tag_619\n      jumpi\n      swap1\n      pop\n      pop\n      swap1\n      jump\t// out\n    tag_164:\n      mload(0x40)\n      dup1\n      0xa0\n      add\n      0x40\n      mstore\n      dup1\n      0x00\n      dup2\n      mstore\n      0x20\n      add\n      tag_621\n      tag_562\n      jump\t// in\n    tag_621:\n      dup2\n      mstore\n      0x20\n      add\n      tag_622\n      tag_562\n      jump\t// in\n    tag_622:\n      dup2\n      mstore\n      0x20\n      add\n      0x00\n    tag_624:\n      dup2\n      mstore\n      0x20\n      add\n      0x00\n      dup2\n      mstore\n      pop\n      swap1\n      jump\t// out\n    tag_178:\n      dup3\n      0x03\n      dup2\n      add\n      swap3\n      dup3\n      iszero\n      tag_627\n      jumpi\n      swap2\n      0x20\n      mul\n      dup3\n      add\n    tag_626:\n      dup3\n      dup2\n      gt\n      iszero\n      tag_627\n      jumpi\n      dup3\n      mload\n      dup3\n      sstore\n      swap2\n      0x20\n      add\n      swap2\n      swap1\n      0x01\n      add\n      swap1\n      jump(tag_626)\n    tag_627:\n      pop\n      tag_628\n      swap3\n      swap2\n      pop\n      tag_629\n      jump\t// in\n    tag_628:\n      pop\n      swap1\n      jump\t// out\n    tag_542:\n      dup3\n      0x03\n      dup2\n      add\n      swap3\n      dup3\n      iszero\n      tag_627\n      jumpi\n      swap2\n      dup3\n      add\n    tag_631:\n      dup3\n      dup2\n      gt\n      iszero\n      tag_627\n      jumpi\n      dup3\n      sload\n      dup3\n      sstore\n      swap2\n      0x01\n      add\n      swap2\n      swap1\n      0x01\n      add\n      swap1\n      jump(tag_631)\n    tag_562:\n      0x40\n      dup1\n      mload\n      0x80\n      dup2\n      add\n      dup3\n      mstore\n      0x00\n      dup1\n      dup3\n      mstore\n      0x20\n      dup3\n      add\n      mstore\n      swap1\n      dup2\n      add\n      tag_624\n    tag_568:\n      mload(0x40)\n      dup1\n      0x60\n      add\n      0x40\n      mstore\n      dup1\n      0x03\n      swap1\n      0x20\n      dup3\n      mul\n      dup1\n      calldatasize\n      dup4\n      calldatacopy\n      pop\n      swap2\n      swap3\n      swap2\n      pop\n      pop\n      jump\t// out\n    tag_618:\n      0x40\n      dup1\n      mload\n      0x01a0\n      dup2\n      add\n      dup3\n      mstore\n      0x00\n      dup1\n      dup3\n      mstore\n      0x20\n      dup3\n      add\n      dup2\n      swap1\n      mstore\n      swap1\n      swap2\n      dup3\n      add\n      swap1\n      dup2\n      mstore\n      0x20\n      add\n      0x00\n      dup2\n      mstore\n      0x20\n      add\n      0x00\n      dup2\n      mstore\n      0x20\n      add\n      0x00\n      dup2\n      mstore\n      0x20\n      add\n      0x00\n      dup2\n      mstore\n      0x20\n      add\n      0x00\n      dup2\n      mstore\n      0x20\n      add\n      0x00\n      dup2\n      mstore\n      0x20\n      add\n      0x00\n      dup2\n      mstore\n      0x20\n      add\n      0x00\n      dup2\n      mstore\n      0x20\n      add\n      0x00\n      dup2\n      mstore\n      0x20\n      add\n      0x00\n      dup2\n      mstore\n      pop\n      swap1\n      jump\t// out\n    tag_629:\n    tag_641:\n      dup1\n      dup3\n      gt\n      iszero\n      tag_628\n      jumpi\n      0x00\n      dup2\n      sstore\n      0x01\n      add\n      jump(tag_641)\n        /* \"#utility.yul\":14:194   */\n    tag_15:\n        /* \"#utility.yul\":73:79   */\n      0x00\n        /* \"#utility.yul\":126:128   */\n      0x20\n        /* \"#utility.yul\":114:123   */\n      dup3\n        /* \"#utility.yul\":105:112   */\n      dup5\n        /* \"#utility.yul\":101:124   */\n      sub\n        /* \"#utility.yul\":97:129   */\n      slt\n        /* \"#utility.yul\":94:146   */\n      iszero\n      tag_652\n      jumpi\n        /* \"#utility.yul\":142:143   */\n      0x00\n        /* \"#utility.yul\":139:140   */\n      dup1\n        /* \"#utility.yul\":132:144   */\n      revert\n        /* \"#utility.yul\":94:146   */\n    tag_652:\n      pop\n        /* \"#utility.yul\":165:188   */\n      calldataload\n      swap2\n        /* \"#utility.yul\":14:194   */\n      swap1\n      pop\n      jump\t// out\n        /* \"#utility.yul\":308:435   */\n    tag_61:\n        /* \"#utility.yul\":369:379   */\n      0x4e487b71\n        /* \"#utility.yul\":364:367   */\n      0xe0\n        /* \"#utility.yul\":360:380   */\n      shl\n        /* \"#utility.yul\":357:358   */\n      0x00\n        /* \"#utility.yul\":350:381   */\n      mstore\n        /* \"#utility.yul\":400:404   */\n      0x21\n        /* \"#utility.yul\":397:398   */\n      0x04\n        /* \"#utility.yul\":390:405   */\n      mstore\n        /* \"#utility.yul\":424:428   */\n      0x24\n        /* \"#utility.yul\":421:422   */\n      0x00\n        /* \"#utility.yul\":414:429   */\n      revert\n        /* \"#utility.yul\":440:580   */\n    tag_644:\n        /* \"#utility.yul\":521:522   */\n      0x03\n        /* \"#utility.yul\":514:519   */\n      dup2\n        /* \"#utility.yul\":511:523   */\n      lt\n        /* \"#utility.yul\":501:547   */\n      tag_657\n      jumpi\n        /* \"#utility.yul\":527:545   */\n      tag_657\n      tag_61\n      jump\t// in\n    tag_657:\n        /* \"#utility.yul\":556:574   */\n      swap1\n      mstore\n        /* \"#utility.yul\":440:580   */\n      jump\t// out\n        /* \"#utility.yul\":585:696   */\n    tag_645:\n        /* \"#utility.yul\":664:665   */\n      0x04\n        /* \"#utility.yul\":657:662   */\n      dup2\n        /* \"#utility.yul\":654:666   */\n      lt\n        /* \"#utility.yul\":644:690   */\n      tag_660\n      jumpi\n        /* \"#utility.yul\":670:688   */\n      tag_660\n      tag_61\n      jump\t// in\n    tag_660:\n        /* \"#utility.yul\":585:696   */\n      pop\n      jump\t// out\n        /* \"#utility.yul\":701:827   */\n    tag_646:\n        /* \"#utility.yul\":759:794   */\n      tag_657\n        /* \"#utility.yul\":788:793   */\n      dup2\n        /* \"#utility.yul\":759:794   */\n      tag_645\n      jump\t// in\n        /* \"#utility.yul\":832:1984   */\n    tag_18:\n        /* \"#utility.yul\":1335:1360   */\n      dup14\n      dup2\n      mstore\n      sub(shl(0xa0, 0x01), 0x01)\n        /* \"#utility.yul\":1396:1428   */\n      dup14\n      and\n        /* \"#utility.yul\":1391:1393   */\n      0x20\n        /* \"#utility.yul\":1376:1394   */\n      dup3\n      add\n        /* \"#utility.yul\":1369:1429   */\n      mstore\n        /* \"#utility.yul\":1322:1325   */\n      0x01a0\n        /* \"#utility.yul\":1307:1326   */\n      dup2\n      add\n        /* \"#utility.yul\":1438:1491   */\n      tag_664\n        /* \"#utility.yul\":1487:1489   */\n      0x40\n        /* \"#utility.yul\":1472:1490   */\n      dup4\n      add\n        /* \"#utility.yul\":1464:1470   */\n      dup15\n        /* \"#utility.yul\":1438:1491   */\n      tag_644\n      jump\t// in\n    tag_664:\n        /* \"#utility.yul\":1500:1536   */\n      tag_665\n        /* \"#utility.yul\":1529:1535   */\n      dup13\n        /* \"#utility.yul\":1500:1536   */\n      tag_645\n      jump\t// in\n    tag_665:\n        /* \"#utility.yul\":1567:1569   */\n      0x60\n        /* \"#utility.yul\":1552:1570   */\n      dup3\n      add\n        /* \"#utility.yul\":1545:1579   */\n      swap12\n      swap1\n      swap12\n      mstore\n        /* \"#utility.yul\":1610:1613   */\n      0x80\n        /* \"#utility.yul\":1595:1614   */\n      dup2\n      add\n        /* \"#utility.yul\":1588:1623   */\n      swap10\n      swap1\n      swap10\n      mstore\n        /* \"#utility.yul\":1654:1657   */\n      0xa0\n        /* \"#utility.yul\":1639:1658   */\n      dup10\n      add\n        /* \"#utility.yul\":1632:1667   */\n      swap8\n      swap1\n      swap8\n      mstore\n        /* \"#utility.yul\":1698:1701   */\n      0xc0\n        /* \"#utility.yul\":1683:1702   */\n      dup9\n      add\n        /* \"#utility.yul\":1676:1711   */\n      swap6\n      swap1\n      swap6\n      mstore\n        /* \"#utility.yul\":1742:1745   */\n      0xe0\n        /* \"#utility.yul\":1727:1746   */\n      dup8\n      add\n        /* \"#utility.yul\":1720:1755   */\n      swap4\n      swap1\n      swap4\n      mstore\n        /* \"#utility.yul\":1786:1789   */\n      0x0100\n        /* \"#utility.yul\":1771:1790   */\n      dup7\n      add\n        /* \"#utility.yul\":1764:1799   */\n      swap2\n      swap1\n      swap2\n      mstore\n        /* \"#utility.yul\":1830:1833   */\n      0x0120\n        /* \"#utility.yul\":1815:1834   */\n      dup6\n      add\n        /* \"#utility.yul\":1808:1843   */\n      mstore\n        /* \"#utility.yul\":1874:1877   */\n      0x0140\n        /* \"#utility.yul\":1859:1878   */\n      dup5\n      add\n        /* \"#utility.yul\":1852:1888   */\n      mstore\n        /* \"#utility.yul\":1919:1922   */\n      0x0160\n        /* \"#utility.yul\":1904:1923   */\n      dup4\n      add\n        /* \"#utility.yul\":1897:1933   */\n      mstore\n        /* \"#utility.yul\":1964:1967   */\n      0x0180\n        /* \"#utility.yul\":1949:1968   */\n      swap1\n      swap2\n      add\n        /* \"#utility.yul\":1942:1978   */\n      mstore\n        /* \"#utility.yul\":832:1984   */\n      swap4\n      swap3\n      pop\n      pop\n      pop\n      jump\t// out\n        /* \"#utility.yul\":1989:3110   */\n    tag_647:\n        /* \"#utility.yul\":2090:2096   */\n      dup1\n        /* \"#utility.yul\":2084:2097   */\n      mload\n        /* \"#utility.yul\":2079:2082   */\n      dup3\n        /* \"#utility.yul\":2072:2098   */\n      mstore\n        /* \"#utility.yul\":2047:2057   */\n      0x00\n        /* \"#utility.yul\":2145:2149   */\n      0x20\n        /* \"#utility.yul\":2137:2143   */\n      dup3\n        /* \"#utility.yul\":2133:2150   */\n      add\n        /* \"#utility.yul\":2127:2151   */\n      mload\n        /* \"#utility.yul\":2160:2208   */\n      tag_667\n        /* \"#utility.yul\":2202:2206   */\n      0x20\n        /* \"#utility.yul\":2197:2200   */\n      dup6\n        /* \"#utility.yul\":2193:2207   */\n      add\n        /* \"#utility.yul\":2179:2191   */\n      dup3\n      sub(shl(0xa0, 0x01), 0x01)\n        /* \"#utility.yul\":265:296   */\n      and\n        /* \"#utility.yul\":253:297   */\n      swap1\n      mstore\n        /* \"#utility.yul\":199:303   */\n      jump\n        /* \"#utility.yul\":2160:2208   */\n    tag_667:\n      pop\n        /* \"#utility.yul\":2257:2261   */\n      0x40\n        /* \"#utility.yul\":2249:2255   */\n      dup3\n        /* \"#utility.yul\":2245:2262   */\n      add\n        /* \"#utility.yul\":2239:2263   */\n      mload\n        /* \"#utility.yul\":2272:2329   */\n      tag_668\n        /* \"#utility.yul\":2323:2327   */\n      0x40\n        /* \"#utility.yul\":2318:2321   */\n      dup6\n        /* \"#utility.yul\":2314:2328   */\n      add\n        /* \"#utility.yul\":2298:2312   */\n      dup3\n        /* \"#utility.yul\":2272:2329   */\n      tag_644\n      jump\t// in\n    tag_668:\n      pop\n        /* \"#utility.yul\":2378:2382   */\n      0x60\n        /* \"#utility.yul\":2370:2376   */\n      dup3\n        /* \"#utility.yul\":2366:2383   */\n      add\n        /* \"#utility.yul\":2360:2384   */\n      mload\n        /* \"#utility.yul\":2393:2447   */\n      tag_669\n        /* \"#utility.yul\":2441:2445   */\n      0x60\n        /* \"#utility.yul\":2436:2439   */\n      dup6\n        /* \"#utility.yul\":2432:2446   */\n      add\n        /* \"#utility.yul\":2416:2430   */\n      dup3\n        /* \"#utility.yul\":2393:2447   */\n      tag_646\n      jump\t// in\n    tag_669:\n      pop\n      pop\n        /* \"#utility.yul\":2497:2501   */\n      0x80\n        /* \"#utility.yul\":2485:2502   */\n      dup2\n      dup2\n      add\n        /* \"#utility.yul\":2479:2503   */\n      mload\n        /* \"#utility.yul\":2463:2477   */\n      swap1\n      dup4\n      add\n        /* \"#utility.yul\":2456:2504   */\n      mstore\n        /* \"#utility.yul\":2554:2558   */\n      0xa0\n        /* \"#utility.yul\":2542:2559   */\n      dup1\n      dup3\n      add\n        /* \"#utility.yul\":2536:2560   */\n      mload\n        /* \"#utility.yul\":2520:2534   */\n      swap1\n      dup4\n      add\n        /* \"#utility.yul\":2513:2561   */\n      mstore\n        /* \"#utility.yul\":2611:2615   */\n      0xc0\n        /* \"#utility.yul\":2599:2616   */\n      dup1\n      dup3\n      add\n        /* \"#utility.yul\":2593:2617   */\n      mload\n        /* \"#utility.yul\":2577:2591   */\n      swap1\n      dup4\n      add\n        /* \"#utility.yul\":2570:2618   */\n      mstore\n        /* \"#utility.yul\":2668:2672   */\n      0xe0\n        /* \"#utility.yul\":2656:2673   */\n      dup1\n      dup3\n      add\n        /* \"#utility.yul\":2650:2674   */\n      mload\n        /* \"#utility.yul\":2634:2648   */\n      swap1\n      dup4\n      add\n        /* \"#utility.yul\":2627:2675   */\n      mstore\n        /* \"#utility.yul\":2694:2700   */\n      0x0100\n        /* \"#utility.yul\":2736:2751   */\n      dup1\n      dup3\n      add\n        /* \"#utility.yul\":2730:2752   */\n      mload\n        /* \"#utility.yul\":2716:2728   */\n      swap1\n      dup4\n      add\n        /* \"#utility.yul\":2709:2753   */\n      mstore\n        /* \"#utility.yul\":2772:2778   */\n      0x0120\n        /* \"#utility.yul\":2814:2829   */\n      dup1\n      dup3\n      add\n        /* \"#utility.yul\":2808:2830   */\n      mload\n        /* \"#utility.yul\":2794:2806   */\n      swap1\n      dup4\n      add\n        /* \"#utility.yul\":2787:2831   */\n      mstore\n        /* \"#utility.yul\":2850:2856   */\n      0x0140\n        /* \"#utility.yul\":2892:2907   */\n      dup1\n      dup3\n      add\n        /* \"#utility.yul\":2886:2908   */\n      mload\n        /* \"#utility.yul\":2872:2884   */\n      swap1\n      dup4\n      add\n        /* \"#utility.yul\":2865:2909   */\n      mstore\n        /* \"#utility.yul\":2928:2934   */\n      0x0160\n        /* \"#utility.yul\":2970:2985   */\n      dup1\n      dup3\n      add\n        /* \"#utility.yul\":2964:2986   */\n      mload\n        /* \"#utility.yul\":2950:2962   */\n      swap1\n      dup4\n      add\n        /* \"#utility.yul\":2943:2987   */\n      mstore\n        /* \"#utility.yul\":3006:3012   */\n      0x0180\n        /* \"#utility.yul\":3048:3063   */\n      swap1\n      dup2\n      add\n        /* \"#utility.yul\":3042:3064   */\n      mload\n        /* \"#utility.yul\":3028:3040   */\n      swap1\n      dup3\n      add\n        /* \"#utility.yul\":3021:3065   */\n      mstore\n        /* \"#utility.yul\":3097:3103   */\n      0x01a0\n        /* \"#utility.yul\":3088:3104   */\n      add\n      swap1\n        /* \"#utility.yul\":1989:3110   */\n      jump\t// out\n        /* \"#utility.yul\":3115:3627   */\n    tag_23:\n        /* \"#utility.yul\":3335:3339   */\n      0x09c0\n        /* \"#utility.yul\":3320:3340   */\n      dup2\n      add\n        /* \"#utility.yul\":3324:3333   */\n      dup2\n        /* \"#utility.yul\":3417:3423   */\n      dup4\n        /* \"#utility.yul\":3293:3297   */\n      0x00\n        /* \"#utility.yul\":3451:3621   */\n    tag_671:\n        /* \"#utility.yul\":3465:3469   */\n      0x06\n        /* \"#utility.yul\":3462:3463   */\n      dup2\n        /* \"#utility.yul\":3459:3470   */\n      lt\n        /* \"#utility.yul\":3451:3621   */\n      iszero\n      tag_673\n      jumpi\n        /* \"#utility.yul\":3519:3571   */\n      tag_674\n        /* \"#utility.yul\":3567:3570   */\n      dup4\n        /* \"#utility.yul\":3558:3564   */\n      dup4\n        /* \"#utility.yul\":3552:3565   */\n      mload\n        /* \"#utility.yul\":3519:3571   */\n      tag_647\n      jump\t// in\n    tag_674:\n        /* \"#utility.yul\":3512:3571   */\n      swap3\n      pop\n        /* \"#utility.yul\":3606:3610   */\n      0x20\n        /* \"#utility.yul\":3594:3611   */\n      swap2\n      swap1\n      swap2\n      add\n      swap1\n        /* \"#utility.yul\":3485:3486   */\n      0x01\n        /* \"#utility.yul\":3478:3487   */\n      add\n        /* \"#utility.yul\":3451:3621   */\n      jump(tag_671)\n    tag_673:\n        /* \"#utility.yul\":3455:3458   */\n      pop\n      pop\n      pop\n        /* \"#utility.yul\":3115:3627   */\n      swap3\n      swap2\n      pop\n      pop\n      jump\t// out\n        /* \"#utility.yul\":3632:3918   */\n    tag_26:\n        /* \"#utility.yul\":3691:3697   */\n      0x00\n        /* \"#utility.yul\":3744:3746   */\n      0x20\n        /* \"#utility.yul\":3732:3741   */\n      dup3\n        /* \"#utility.yul\":3723:3730   */\n      dup5\n        /* \"#utility.yul\":3719:3742   */\n      sub\n        /* \"#utility.yul\":3715:3747   */\n      slt\n        /* \"#utility.yul\":3712:3764   */\n      iszero\n      tag_676\n      jumpi\n        /* \"#utility.yul\":3760:3761   */\n      0x00\n        /* \"#utility.yul\":3757:3758   */\n      dup1\n        /* \"#utility.yul\":3750:3762   */\n      revert\n        /* \"#utility.yul\":3712:3764   */\n    tag_676:\n        /* \"#utility.yul\":3786:3809   */\n      dup2\n      calldataload\n      sub(shl(0xa0, 0x01), 0x01)\n        /* \"#utility.yul\":3838:3869   */\n      dup2\n      and\n        /* \"#utility.yul\":3828:3870   */\n      dup2\n      eq\n        /* \"#utility.yul\":3818:3888   */\n      tag_677\n      jumpi\n        /* \"#utility.yul\":3884:3885   */\n      0x00\n        /* \"#utility.yul\":3881:3882   */\n      dup1\n        /* \"#utility.yul\":3874:3886   */\n      revert\n        /* \"#utility.yul\":3818:3888   */\n    tag_677:\n        /* \"#utility.yul\":3907:3912   */\n      swap4\n        /* \"#utility.yul\":3632:3918   */\n      swap3\n      pop\n      pop\n      pop\n      jump\t// out\n        /* \"#utility.yul\":3923:4435   */\n    tag_29:\n        /* \"#utility.yul\":4143:4147   */\n      0x04e0\n        /* \"#utility.yul\":4128:4148   */\n      dup2\n      add\n        /* \"#utility.yul\":4132:4141   */\n      dup2\n        /* \"#utility.yul\":4225:4231   */\n      dup4\n        /* \"#utility.yul\":4101:4105   */\n      0x00\n        /* \"#utility.yul\":4259:4429   */\n    tag_679:\n        /* \"#utility.yul\":4273:4277   */\n      0x03\n        /* \"#utility.yul\":4270:4271   */\n      dup2\n        /* \"#utility.yul\":4267:4278   */\n      lt\n        /* \"#utility.yul\":4259:4429   */\n      iszero\n      tag_673\n      jumpi\n        /* \"#utility.yul\":4327:4379   */\n      tag_682\n        /* \"#utility.yul\":4375:4378   */\n      dup4\n        /* \"#utility.yul\":4366:4372   */\n      dup4\n        /* \"#utility.yul\":4360:4373   */\n      mload\n        /* \"#utility.yul\":4327:4379   */\n      tag_647\n      jump\t// in\n    tag_682:\n        /* \"#utility.yul\":4320:4379   */\n      swap3\n      pop\n        /* \"#utility.yul\":4414:4418   */\n      0x20\n        /* \"#utility.yul\":4402:4419   */\n      swap2\n      swap1\n      swap2\n      add\n      swap1\n        /* \"#utility.yul\":4293:4294   */\n      0x01\n        /* \"#utility.yul\":4286:4295   */\n      add\n        /* \"#utility.yul\":4259:4429   */\n      jump(tag_679)\n        /* \"#utility.yul\":4440:4835   */\n    tag_34:\n      sub(shl(0xa0, 0x01), 0x01)\n        /* \"#utility.yul\":4665:4697   */\n      dup5\n      and\n        /* \"#utility.yul\":4647:4698   */\n      dup2\n      mstore\n        /* \"#utility.yul\":4635:4637   */\n      0x60\n        /* \"#utility.yul\":4620:4638   */\n      dup2\n      add\n        /* \"#utility.yul\":4707:4743   */\n      tag_684\n        /* \"#utility.yul\":4736:4742   */\n      dup5\n        /* \"#utility.yul\":4707:4743   */\n      tag_645\n      jump\t// in\n    tag_684:\n        /* \"#utility.yul\":4774:4776   */\n      0x20\n        /* \"#utility.yul\":4759:4777   */\n      dup3\n      add\n        /* \"#utility.yul\":4752:4786   */\n      swap4\n      swap1\n      swap4\n      mstore\n        /* \"#utility.yul\":4817:4819   */\n      0x40\n        /* \"#utility.yul\":4802:4820   */\n      add\n        /* \"#utility.yul\":4795:4829   */\n      mstore\n        /* \"#utility.yul\":4440:4835   */\n      swap2\n      swap1\n      pop\n      jump\t// out\n        /* \"#utility.yul\":4840:5156   */\n    tag_37:\n        /* \"#utility.yul\":4917:4923   */\n      0x00\n        /* \"#utility.yul\":4925:4931   */\n      dup1\n        /* \"#utility.yul\":4933:4939   */\n      0x00\n        /* \"#utility.yul\":4986:4988   */\n      0x60\n        /* \"#utility.yul\":4974:4983   */\n      dup5\n        /* \"#utility.yul\":4965:4972   */\n      dup7\n        /* \"#utility.yul\":4961:4984   */\n      sub\n        /* \"#utility.yul\":4957:4989   */\n      slt\n        /* \"#utility.yul\":4954:5006   */\n      iszero\n      tag_686\n      jumpi\n        /* \"#utility.yul\":5002:5003   */\n      0x00\n        /* \"#utility.yul\":4999:5000   */\n      dup1\n        /* \"#utility.yul\":4992:5004   */\n      revert\n        /* \"#utility.yul\":4954:5006   */\n    tag_686:\n      pop\n      pop\n        /* \"#utility.yul\":5025:5048   */\n      dup2\n      calldataload\n      swap4\n        /* \"#utility.yul\":5095:5097   */\n      0x20\n        /* \"#utility.yul\":5080:5098   */\n      dup4\n      add\n        /* \"#utility.yul\":5067:5099   */\n      calldataload\n      swap4\n      pop\n        /* \"#utility.yul\":5146:5148   */\n      0x40\n        /* \"#utility.yul\":5131:5149   */\n      swap1\n      swap3\n      add\n        /* \"#utility.yul\":5118:5150   */\n      calldataload\n      swap2\n        /* \"#utility.yul\":4840:5156   */\n      swap1\n      pop\n      jump\t// out\n        /* \"#utility.yul\":5343:6034   */\n    tag_648:\n        /* \"#utility.yul\":5419:5431   */\n      dup1\n      mload\n      sub(shl(0xa0, 0x01), 0x01)\n        /* \"#utility.yul\":5415:5453   */\n      and\n        /* \"#utility.yul\":5403:5454   */\n      dup3\n      mstore\n        /* \"#utility.yul\":5473:5477   */\n      0x20\n        /* \"#utility.yul\":5512:5526   */\n      dup1\n      dup3\n      add\n        /* \"#utility.yul\":5506:5527   */\n      mload\n        /* \"#utility.yul\":5536:5578   */\n      tag_689\n        /* \"#utility.yul\":5506:5527   */\n      dup2\n        /* \"#utility.yul\":5536:5578   */\n      tag_645\n      jump\t// in\n    tag_689:\n        /* \"#utility.yul\":5594:5606   */\n      dup4\n      dup3\n      add\n        /* \"#utility.yul\":5587:5621   */\n      mstore\n        /* \"#utility.yul\":5669:5673   */\n      0x40\n        /* \"#utility.yul\":5658:5674   */\n      dup3\n      dup2\n      add\n        /* \"#utility.yul\":5652:5675   */\n      mload\n      swap1\n        /* \"#utility.yul\":5697:5711   */\n      dup5\n      add\n        /* \"#utility.yul\":5789:5790   */\n      0x00\n        /* \"#utility.yul\":5799:5972   */\n    tag_690:\n        /* \"#utility.yul\":5813:5817   */\n      0x03\n        /* \"#utility.yul\":5810:5811   */\n      dup2\n        /* \"#utility.yul\":5807:5818   */\n      lt\n        /* \"#utility.yul\":5799:5972   */\n      iszero\n      tag_692\n      jumpi\n        /* \"#utility.yul\":5874:5887   */\n      dup3\n      mload\n        /* \"#utility.yul\":5860:5888   */\n      dup3\n      mstore\n        /* \"#utility.yul\":5947:5962   */\n      swap2\n      dup4\n      add\n      swap2\n        /* \"#utility.yul\":5910:5924   */\n      swap1\n      dup4\n      add\n      swap1\n        /* \"#utility.yul\":5833:5834   */\n      0x01\n        /* \"#utility.yul\":5826:5835   */\n      add\n        /* \"#utility.yul\":5799:5972   */\n      jump(tag_690)\n    tag_692:\n      pop\n      pop\n      pop\n      pop\n        /* \"#utility.yul\":6021:6025   */\n      0x60\n        /* \"#utility.yul\":6010:6026   */\n      add\n        /* \"#utility.yul\":6004:6027   */\n      mload\n        /* \"#utility.yul\":5997:6001   */\n      0xa0\n        /* \"#utility.yul\":5988:6002   */\n      swap2\n      swap1\n      swap2\n      add\n        /* \"#utility.yul\":5981:6028   */\n      mstore\n        /* \"#utility.yul\":5343:6034   */\n      jump\t// out\n        /* \"#utility.yul\":6039:6683   */\n    tag_50:\n        /* \"#utility.yul\":6396:6421   */\n      dup6\n      dup2\n      mstore\n        /* \"#utility.yul\":6383:6386   */\n      0x01e0\n        /* \"#utility.yul\":6368:6387   */\n      dup2\n      add\n        /* \"#utility.yul\":6430:6482   */\n      tag_694\n        /* \"#utility.yul\":6478:6480   */\n      0x20\n        /* \"#utility.yul\":6463:6481   */\n      dup4\n      add\n        /* \"#utility.yul\":6455:6461   */\n      dup8\n        /* \"#utility.yul\":6430:6482   */\n      tag_648\n      jump\t// in\n    tag_694:\n        /* \"#utility.yul\":6491:6544   */\n      tag_695\n        /* \"#utility.yul\":6539:6542   */\n      0xe0\n        /* \"#utility.yul\":6528:6537   */\n      dup4\n        /* \"#utility.yul\":6524:6543   */\n      add\n        /* \"#utility.yul\":6516:6522   */\n      dup7\n        /* \"#utility.yul\":6491:6544   */\n      tag_648\n      jump\t// in\n    tag_695:\n        /* \"#utility.yul\":6553:6589   */\n      tag_696\n        /* \"#utility.yul\":6582:6588   */\n      dup5\n        /* \"#utility.yul\":6553:6589   */\n      tag_645\n      jump\t// in\n    tag_696:\n        /* \"#utility.yul\":6620:6623   */\n      0x01a0\n        /* \"#utility.yul\":6605:6624   */\n      dup3\n      add\n        /* \"#utility.yul\":6598:6633   */\n      swap4\n      swap1\n      swap4\n      mstore\n        /* \"#utility.yul\":6664:6667   */\n      0x01c0\n        /* \"#utility.yul\":6649:6668   */\n      add\n        /* \"#utility.yul\":6642:6677   */\n      mstore\n        /* \"#utility.yul\":6039:6683   */\n      swap4\n      swap3\n      pop\n      pop\n      pop\n      jump\t// out\n        /* \"#utility.yul\":6688:7391   */\n    tag_55:\n        /* \"#utility.yul\":6895:6908   */\n      dup2\n      mload\n        /* \"#utility.yul\":6877:6909   */\n      dup2\n      mstore\n        /* \"#utility.yul\":6956:6960   */\n      0x20\n        /* \"#utility.yul\":6944:6961   */\n      dup1\n      dup4\n      add\n        /* \"#utility.yul\":6938:6962   */\n      mload\n        /* \"#utility.yul\":6864:6867   */\n      0x01e0\n        /* \"#utility.yul\":6849:6868   */\n      dup4\n      add\n      swap2\n        /* \"#utility.yul\":6971:7031   */\n      tag_698\n      swap1\n        /* \"#utility.yul\":7010:7030   */\n      dup5\n      add\n        /* \"#utility.yul\":6938:6962   */\n      dup3\n        /* \"#utility.yul\":6971:7031   */\n      tag_648\n      jump\t// in\n    tag_698:\n      pop\n        /* \"#utility.yul\":7080:7084   */\n      0x40\n        /* \"#utility.yul\":7072:7078   */\n      dup4\n        /* \"#utility.yul\":7068:7085   */\n      add\n        /* \"#utility.yul\":7062:7086   */\n      mload\n        /* \"#utility.yul\":7095:7157   */\n      tag_699\n        /* \"#utility.yul\":7151:7155   */\n      0xe0\n        /* \"#utility.yul\":7140:7149   */\n      dup5\n        /* \"#utility.yul\":7136:7156   */\n      add\n        /* \"#utility.yul\":7120:7134   */\n      dup3\n        /* \"#utility.yul\":7095:7157   */\n      tag_648\n      jump\t// in\n    tag_699:\n      pop\n        /* \"#utility.yul\":7206:7210   */\n      0x60\n        /* \"#utility.yul\":7198:7204   */\n      dup4\n        /* \"#utility.yul\":7194:7211   */\n      add\n        /* \"#utility.yul\":7188:7212   */\n      mload\n        /* \"#utility.yul\":7221:7265   */\n      tag_700\n        /* \"#utility.yul\":7250:7264   */\n      dup2\n        /* \"#utility.yul\":7221:7265   */\n      tag_645\n      jump\t// in\n    tag_700:\n        /* \"#utility.yul\":7296:7302   */\n      0x01a0\n        /* \"#utility.yul\":7281:7303   */\n      dup4\n      add\n        /* \"#utility.yul\":7274:7320   */\n      mstore\n        /* \"#utility.yul\":7378:7382   */\n      0x80\n        /* \"#utility.yul\":7366:7383   */\n      swap3\n      swap1\n      swap3\n      add\n        /* \"#utility.yul\":7360:7384   */\n      mload\n        /* \"#utility.yul\":7351:7357   */\n      0x01c0\n        /* \"#utility.yul\":7336:7358   */\n      swap1\n      swap2\n      add\n        /* \"#utility.yul\":7329:7385   */\n      mstore\n        /* \"#utility.yul\":6688:7391   */\n      swap1\n      jump\t// out\n        /* \"#utility.yul\":7740:7867   */\n    tag_90:\n        /* \"#utility.yul\":7801:7811   */\n      0x4e487b71\n        /* \"#utility.yul\":7796:7799   */\n      0xe0\n        /* \"#utility.yul\":7792:7812   */\n      shl\n        /* \"#utility.yul\":7789:7790   */\n      0x00\n        /* \"#utility.yul\":7782:7813   */\n      mstore\n        /* \"#utility.yul\":7832:7836   */\n      0x32\n        /* \"#utility.yul\":7829:7830   */\n      0x04\n        /* \"#utility.yul\":7822:7837   */\n      mstore\n        /* \"#utility.yul\":7856:7860   */\n      0x24\n        /* \"#utility.yul\":7853:7854   */\n      0x00\n        /* \"#utility.yul\":7846:7861   */\n      revert\n        /* \"#utility.yul\":7872:7999   */\n    tag_649:\n        /* \"#utility.yul\":7933:7943   */\n      0x4e487b71\n        /* \"#utility.yul\":7928:7931   */\n      0xe0\n        /* \"#utility.yul\":7924:7944   */\n      shl\n        /* \"#utility.yul\":7921:7922   */\n      0x00\n        /* \"#utility.yul\":7914:7945   */\n      mstore\n        /* \"#utility.yul\":7964:7968   */\n      0x11\n        /* \"#utility.yul\":7961:7962   */\n      0x04\n        /* \"#utility.yul\":7954:7969   */\n      mstore\n        /* \"#utility.yul\":7988:7992   */\n      0x24\n        /* \"#utility.yul\":7985:7986   */\n      0x00\n        /* \"#utility.yul\":7978:7993   */\n      revert\n        /* \"#utility.yul\":8004:8132   */\n    tag_104:\n        /* \"#utility.yul\":8071:8080   */\n      dup2\n      dup2\n      sub\n        /* \"#utility.yul\":8092:8103   */\n      dup2\n      dup2\n      gt\n        /* \"#utility.yul\":8089:8126   */\n      iszero\n      tag_706\n      jumpi\n        /* \"#utility.yul\":8106:8124   */\n      tag_706\n      tag_649\n      jump\t// in\n    tag_706:\n        /* \"#utility.yul\":8004:8132   */\n      swap3\n      swap2\n      pop\n      pop\n      jump\t// out\n        /* \"#utility.yul\":8137:8272   */\n    tag_119:\n        /* \"#utility.yul\":8176:8179   */\n      0x00\n        /* \"#utility.yul\":8197:8214   */\n      0x01\n      dup3\n      add\n        /* \"#utility.yul\":8194:8237   */\n      tag_709\n      jumpi\n        /* \"#utility.yul\":8217:8235   */\n      tag_709\n      tag_649\n      jump\t// in\n    tag_709:\n      pop\n        /* \"#utility.yul\":8264:8265   */\n      0x01\n        /* \"#utility.yul\":8253:8266   */\n      add\n      swap1\n        /* \"#utility.yul\":8137:8272   */\n      jump\t// out\n        /* \"#utility.yul\":9676:9812   */\n    tag_228:\n        /* \"#utility.yul\":9715:9718   */\n      0x00\n        /* \"#utility.yul\":9743:9748   */\n      dup2\n        /* \"#utility.yul\":9733:9772   */\n      tag_716\n      jumpi\n        /* \"#utility.yul\":9752:9770   */\n      tag_716\n      tag_649\n      jump\t// in\n    tag_716:\n      pop\n      not(0x00)\n        /* \"#utility.yul\":9788:9806   */\n      add\n      swap1\n        /* \"#utility.yul\":9676:9812   */\n      jump\t// out\n        /* \"#utility.yul\":9817:10026   */\n    tag_315:\n        /* \"#utility.yul\":9849:9850   */\n      0x00\n        /* \"#utility.yul\":9875:9876   */\n      dup3\n        /* \"#utility.yul\":9865:9997   */\n      tag_718\n      jumpi\n        /* \"#utility.yul\":9919:9929   */\n      0x4e487b71\n        /* \"#utility.yul\":9914:9917   */\n      0xe0\n        /* \"#utility.yul\":9910:9930   */\n      shl\n        /* \"#utility.yul\":9907:9908   */\n      0x00\n        /* \"#utility.yul\":9900:9931   */\n      mstore\n        /* \"#utility.yul\":9954:9958   */\n      0x12\n        /* \"#utility.yul\":9951:9952   */\n      0x04\n        /* \"#utility.yul\":9944:9959   */\n      mstore\n        /* \"#utility.yul\":9982:9986   */\n      0x24\n        /* \"#utility.yul\":9979:9980   */\n      0x00\n        /* \"#utility.yul\":9972:9987   */\n      revert\n        /* \"#utility.yul\":9865:9997   */\n    tag_718:\n      pop\n        /* \"#utility.yul\":10011:10020   */\n      mod\n      swap1\n        /* \"#utility.yul\":9817:10026   */\n      jump\t// out\n\n    auxdata: 0xa2646970667358221220b1a8876be27ab34488b2d522a25915bd046598814ba06f12a49eb461ef24bfa164736f6c63430008110033\n}\n",
				"bytecode": {
					"linkReferences": {},
					"object": "608060405260016000556001805534801561001957600080fd5b50612875806100296000396000f3fe608060405234801561001057600080fd5b50600436106100935760003560e01c806382df62451161006657806382df6245146101c7578063a0cc641a146101dc578063aba99f88146101f2578063ae09944814610205578063feb8c4381461022957600080fd5b8063105f2c5314610098578063283f3fac1461013b5780636154ee971461015b57806379a39ebd1461017b575b600080fd5b6101196100a6366004612441565b600360208190526000918252604090912080546001820154600283015493830154600484015460058501546006860154600787015460088801546009890154600a9099015497996001600160a01b0388169960ff600160a01b8a0481169a600160a81b909a04169891979695949392918d565b6040516101329d9c9b9a999897969594939291906124a0565b60405180910390f35b61014e610149366004612441565b610249565b60405161013291906125cc565b61016e610169366004612604565b610739565b6040516101329190612634565b6101b8610189366004612604565b600260205260009081526040902080546004909101546001600160a01b03821691600160a01b900460ff169083565b60405161013293929190612663565b6101da6101d536600461268d565b6108b5565b005b6101e4610a1e565b604051908152602001610132565b6101da610200366004612441565b610c7b565b610218610213366004612441565b611746565b604051610132959493929190612713565b61023c610237366004612441565b6118a3565b6040516101329190612753565b61025161228c565b6000828152600460205260408120600b015460ff1660038111156102775761027761245a565b036102bb5760405162461bcd60e51b815260206004820152600f60248201526e125b9d985b1a590813585d18da1259608a1b60448201526064015b60405180910390fd5b6000828152600460209081526040808320815160a081018352815481528251608081019093526001820180546001600160a01b03811685529194929385840193909290830190600160a01b900460ff16600381111561031c5761031c61245a565b600381111561032d5761032d61245a565b815260408051606081019182905260209092019190600184019060039082845b81548152602001906001019080831161034d5750505091835250506004919091015460209182015290825260408051608081019091526006840180546001600160a01b0381168352938301939192909190830190600160a01b900460ff1660038111156103bc576103bc61245a565b60038111156103cd576103cd61245a565b815260408051606081019182905260209092019190600184019060039082845b8154815260200190600101908083116103ed57505050918352505060049190910154602091820152908252600b83015491019060ff1660038111156104345761043461245a565b60038111156104455761044561245a565b8152600c9190910154602091820152810151516040820151519192509061046a61228c565b60005b600681101561072f5760038110156105cb576001600160a01b038416600090815260026020526040812060039190600101838381106104ae576104ae6127a8565b01548152602080820192909252604090810160002081516101a0810183528154815260018201546001600160a01b03811694820194909452929091830190600160a01b900460ff1660028111156105075761050761245a565b60028111156105185761051861245a565b81526020016001820160159054906101000a900460ff1660038111156105405761054061245a565b60038111156105515761055161245a565b81526020016002820154815260200160038201548152602001600482015481526020016005820154815260200160068201548152602001600782015481526020016008820154815260200160098201548152602001600a820154815250508282600681106105c1576105c16127a8565b602002015261071d565b6001600160a01b0383166000908152600260205260408120600391906001016105f483856127d4565b60038110610604576106046127a8565b01548152602080820192909252604090810160002081516101a0810183528154815260018201546001600160a01b03811694820194909452929091830190600160a01b900460ff16600281111561065d5761065d61245a565b600281111561066e5761066e61245a565b81526020016001820160159054906101000a900460ff1660038111156106965761069661245a565b60038111156106a7576106a761245a565b81526020016002820154815260200160038201548152602001600482015481526020016005820154815260200160068201548152602001600782015481526020016008820154815260200160098201548152602001600a82015481525050828260068110610717576107176127a8565b60200201525b80610727816127ed565b91505061046d565b5095945050505050565b6107416122b9565b6107496122b9565b60005b60038110156108ae576001600160a01b03841660009081526002602052604081206003919060010183838110610784576107846127a8565b01548152602080820192909252604090810160002081516101a0810183528154815260018201546001600160a01b03811694820194909452929091830190600160a01b900460ff1660028111156107dd576107dd61245a565b60028111156107ee576107ee61245a565b81526020016001820160159054906101000a900460ff1660038111156108165761081661245a565b60038111156108275761082761245a565b81526020016002820154815260200160038201548152602001600482015481526020016005820154815260200160068201548152602001600782015481526020016008820154815260200160098201548152602001600a82015481525050828260038110610897576108976127a8565b6020020152806108a6816127ed565b91505061074c565b5092915050565b6000838152600360205260409020600101546001600160a01b0316331461091e5760405162461bcd60e51b815260206004820152601760248201527f596f7520646f6e2774206f776e207468697320756e697400000000000000000060448201526064016102b2565b600a8210801561092e5750600a81105b61096c5760405162461bcd60e51b815260206004820152600f60248201526e047726964206973203130207820313608c1b60448201526064016102b2565b6000838152600360205260409020600501548214801561099c575060008381526003602052604090206006015481145b156109e95760405162461bcd60e51b815260206004820152601e60248201527f556e697420616c726561647920696e207468617420706f736974696f6e2e000060448201526064016102b2565b60009283526003602052604090922060078101919091556008810191909155600101805460ff60a81b1916600160a81b179055565b60008033600090815260026020526040902054600160a01b900460ff166003811115610a4c57610a4c61245a565b03610a5b57610a59611bfe565b505b610a636122e6565b600080548252600160608301523381526002602090815260409182902082516080810190935280546001600160a01b03811684529091830190600160a01b900460ff166003811115610ab757610ab761245a565b6003811115610ac857610ac861245a565b815260408051606081019182905260209092019190600184019060039082845b815481526020019060010190808311610ae85750505091835250506004918201546020918201528381019283526000805433825260028352604080832085018290559082529282529190912083518155915180516001840180546001600160a01b03929092166001600160a01b0319831681178255938301518695949192909183916001600160a81b03191617600160a01b836003811115610b8c57610b8c61245a565b02179055506040820151610ba69060018301906003612322565b5060609190910151600490910155604082015180516006830180546001600160a01b031981166001600160a01b0390931692831782556020840151919283916001600160a81b03191617600160a01b836003811115610c0757610c0761245a565b02179055506040820151610c219060018301906003612322565b50606091820151600490910155820151600b8201805460ff19166001836003811115610c4f57610c4f61245a565b021790555060809190910151600c90910155600080549080610c70836127ed565b909155505051919050565b60026000828152600460205260409020600b015460ff166003811115610ca357610ca361245a565b14610ce25760405162461bcd60e51b815260206004820152600f60248201526e47616d65206e6f742041637469766560881b60448201526064016102b2565b6000610ced82610249565b905060005b6006811015611577576003828260068110610d0f57610d0f6127a8565b6020020151606001516003811115610d2957610d2961245a565b14611565576001828260068110610d4257610d426127a8565b6020020151606001516003811115610d5c57610d5c61245a565b03610f8157818160068110610d7357610d736127a8565b60200201516101200151828260068110610d8f57610d8f6127a8565b602002015160e0015114610e2e57818160068110610daf57610daf6127a8565b60200201516101200151828260068110610dcb57610dcb6127a8565b602002015160e001511015610e0857818160068110610dec57610dec6127a8565b602002015160e001805190610e00826127ed565b905250610ebe565b818160068110610e1a57610e1a6127a8565b602002015160e001805190610e0082612806565b818160068110610e4057610e406127a8565b60200201516101400151828260068110610e5c57610e5c6127a8565b602002015161010001511015610e9357818160068110610e7e57610e7e6127a8565b602002015161010001805190610e00826127ed565b818160068110610ea557610ea56127a8565b602002015161010001805190610eba82612806565b9052505b818160068110610ed057610ed06127a8565b60200201516101200151828260068110610eec57610eec6127a8565b602002015160e00151148015610f375750818160068110610f0f57610f0f6127a8565b60200201516101400151828260068110610f2b57610f2b6127a8565b60200201516101000151145b15610f81576000828260068110610f5057610f506127a8565b6020020151606001906003811115610f6a57610f6a61245a565b90816003811115610f7d57610f7d61245a565b9052505b60005b600681101561156357808214611551576003838260068110610fa857610fa86127a8565b6020020151606001516003811115610fc257610fc261245a565b1461155157828160068110610fd957610fd96127a8565b602002015160e00151838360068110610ff457610ff46127a8565b602002015160e0015114801561103f5750828160068110611017576110176127a8565b60200201516101000151838360068110611033576110336127a8565b60200201516101000151145b156110cd576002838360068110611058576110586127a8565b60200201516060019060038111156110725761107261245a565b908160038111156110855761108561245a565b905250600283826006811061109c5761109c6127a8565b60200201516060019060038111156110b6576110b661245a565b908160038111156110c9576110c961245a565b9052505b60028383600681106110e1576110e16127a8565b60200201516060015160038111156110fb576110fb61245a565b03611483576000838360068110611114576111146127a8565b602002015160400151600281111561112e5761112e61245a565b0361124c576000838260068110611147576111476127a8565b60200201516040015160028111156111615761116161245a565b036111ce5760026111726001612256565b61117c919061281d565b6000036111c957828260068110611195576111956127a8565b602002015160a001518382600681106111b0576111b06127a8565b60200201516080018181516111c591906127d4565b9052505b611483565b60018382600681106111e2576111e26127a8565b60200201516040015160028111156111fc576111fc61245a565b0361120d5760026111726005612256565b6002838260068110611221576112216127a8565b602002015160400151600281111561123b5761123b61245a565b036111c95760026111726003612256565b6001838360068110611260576112606127a8565b602002015160400151600281111561127a5761127a61245a565b0361133c576000838260068110611293576112936127a8565b60200201516040015160028111156112ad576112ad61245a565b036112be5760026111726002612256565b60018382600681106112d2576112d26127a8565b60200201516040015160028111156112ec576112ec61245a565b036112fd5760026111726006612256565b6002838260068110611311576113116127a8565b602002015160400151600281111561132b5761132b61245a565b036111c95760026111726007612256565b6002838360068110611350576113506127a8565b602002015160400151600281111561136a5761136a61245a565b03611483576000838260068110611383576113836127a8565b602002015160400151600281111561139d5761139d61245a565b036113ae5760026111726003612256565b60018382600681106113c2576113c26127a8565b60200201516040015160028111156113dc576113dc61245a565b036113ed5760026111726001612256565b6002838260068110611401576114016127a8565b602002015160400151600281111561141b5761141b61245a565b0361148357600261142c6004612256565b611436919061281d565b6000036114835782826006811061144f5761144f6127a8565b602002015160a0015183826006811061146a5761146a6127a8565b602002015160800181815161147f91906127d4565b9052505b600a838360068110611497576114976127a8565b602002015160800151116114ea5760038383600681106114b9576114b96127a8565b60200201516060019060038111156114d3576114d361245a565b908160038111156114e6576114e661245a565b9052505b600a8382600681106114fe576114fe6127a8565b60200201516080015111611551576003838260068110611520576115206127a8565b602002015160600190600381111561153a5761153a61245a565b9081600381111561154d5761154d61245a565b9052505b8061155b816127ed565b915050610f84565b505b8061156f816127ed565b915050610cf2565b50600160005b60068110156115d057600383826006811061159a5761159a6127a8565b60200201516060015160038111156115b4576115b461245a565b146115be57600091505b806115c8816127ed565b91505061157d565b5080156115f4576000838152600460205260409020600b01805460ff191660031790555b60005b600681101561174057828160068110611612576116126127a8565b60200201516003600085846006811061162d5761162d6127a8565b6020908102919091015151825281810192909252604090810160002083518155918301516001830180546001600160a01b039092166001600160a01b0319831681178255928501519290916001600160a81b03191617600160a01b83600281111561169a5761169a61245a565b0217905550606082015160018201805460ff60a81b1916600160a81b8360038111156116c8576116c861245a565b02179055506080820151600282015560a0820151600382015560c0820151600482015560e08201516005820155610100820151600682015561012082015160078201556101408201516008820155610160820151600982015561018090910151600a9091015580611738816127ed565b9150506115f7565b50505050565b60046020908152600091825260409182902080548351608081019094526001820180546001600160a01b038116865291949293909190830190600160a01b900460ff16600381111561179a5761179a61245a565b60038111156117ab576117ab61245a565b815260408051606081019182905260209092019190600184019060039082845b8154815260200190600101908083116117cb5750505091835250506004919091015460209182015260408051608081019091526006840180546001600160a01b03811683529394939192909190830190600160a01b900460ff1660038111156118365761183661245a565b60038111156118475761184761245a565b815260408051606081019182905260209092019190600184019060039082845b81548152602001906001019080831161186757505050918352505060049190910154602090910152600b820154600c90920154909160ff169085565b6118ab6122e6565b60016000838152600460205260409020600b015460ff1660038111156118d3576118d361245a565b146119125760405162461bcd60e51b815260206004820152600f60248201526e125b9d985b1a590813585d18da1259608a1b60448201526064016102b2565b600082815260046020526040902060010154336001600160a01b039091160361197d5760405162461bcd60e51b815260206004820152601a60248201527f596f752063616e277420626174746c6520796f757273656c662e00000000000060448201526064016102b2565b600033600090815260026020526040902054600160a01b900460ff1660038111156119aa576119aa61245a565b036119b9576119b7611bfe565b505b33600090815260026020908152604080832085845260049092529091208154600690910180546001600160a01b031981166001600160a01b039390931692831782558354919260ff600160a01b93849004169284926001600160a81b03191690911790836003811115611a2e57611a2e61245a565b0217905550611a4560018281019084016003612360565b506004918201549082015560008381526020918252604090819020600b8101805460ff19166002179055815160a081018352815481528251608081019093526001820180546001600160a01b0381168552919492938584019390929083019060ff600160a01b909104166003811115611ac057611ac061245a565b6003811115611ad157611ad161245a565b815260408051606081019182905260209092019190600184019060039082845b815481526020019060010190808311611af15750505091835250506004919091015460209182015290825260408051608081019091526006840180546001600160a01b0381168352938301939192909190830190600160a01b900460ff166003811115611b6057611b6061245a565b6003811115611b7157611b7161245a565b815260408051606081019182905260209092019190600184019060039082845b815481526020019060010190808311611b9157505050918352505060049190910154602091820152908252600b83015491019060ff166003811115611bd857611bd861245a565b6003811115611be957611be961245a565b8152602001600c820154815250509050919050565b611c0661238b565b336000818152600260205260409020546001600160a01b031603611c6c5760405162461bcd60e51b815260206004820152601b60248201527f506c6179657220616c726561647920696e697469616c697a65642e000000000060448201526064016102b2565b611c746123a6565b604080516101a081018252600180548083523360208085019182526000858701818152606087018290526014608088015260a0870186905260c0870182905260e0870182905260026101008801819052610120880183905261014088018190526101608801839052610180880183905294825260039092529590952084518155905192810180546001600160a01b039094166001600160a01b03198516811782559551949586959294929391926001600160a81b0319161790600160a01b908490811115611d4457611d4461245a565b0217905550606082015160018201805460ff60a81b1916600160a81b836003811115611d7257611d7261245a565b02179055506080820151600282015560a0820151600382015560c0820151600482015560e08201516005820155610100820151600682015561012082015160078201556101408201516008820155610160820151600982015561018090910151600a9091015560018054808452906000611deb836127ed565b9091555050604080516101a0810182526001805480835233602080850191825284860184815260006060870181905260196080880152600260a0880181905260c0880182905260e0880182905260056101008901819052610120890183905261014089015261016088018290526101808801829052948152600390925295902084518155905192810180546001600160a01b039094166001600160a01b03198516811782559551949586959294929391926001600160a81b0319161790600160a01b908490811115611ebf57611ebf61245a565b0217905550606082015160018201805460ff60a81b1916600160a81b836003811115611eed57611eed61245a565b02179055506080820151600282015560a0820151600382015560c0820151600482015560e08201516005820155610100820151600682015561012082015160078201556101408201516008820155610160820151600982015561018090910151600a909101556001805460208501819052906000611f6a836127ed565b9091555050604080516101a081018252600154815233602082015260009181016002815260200160008152600f6020808301919091526003604080840182905260006060850181905260808501819052600860a0860181905260c0860182905260e0860152610100850181905261012090940184905260018054855291835292839020845181559184015190820180546001600160a01b039092166001600160a01b0319831681178255938501519495508594929390916001600160a81b03191617600160a01b8360028111156120435761204361245a565b0217905550606082015160018201805460ff60a81b1916600160a81b8360038111156120715761207161245a565b02179055506080820151816002015560a0820151816003015560c0820151816004015560e08201518160050155610100820151816006015561012082015181600701556101408201518160080155610160820151816009015561018082015181600a0155905050600154846002600381106120ee576120ee6127a8565b602002015260018054906000612103836127ed565b909155505060408051608081018252338082526001602080840191825283850189905260006060850181905292835260029052929020815181546001600160a01b031981166001600160a01b0390921691821783559351929384939183916001600160a81b03191617600160a01b8360038111156121835761218361245a565b0217905550604082015161219d9060018301906003612322565b50606091909101516004909101553360009081526002602090815260409182902082516080810190935280546001600160a01b03811684529091830190600160a01b900460ff1660038111156121f5576121f561245a565b60038111156122065761220661245a565b815260408051606081019182905260209092019190600184019060039082845b81548152602001906001019080831161222657505050505081526020016004820154815250509550505050505090565b60408051446020808301919091524282840152606080830194909452825180830390940184526080909101909152815191012090565b6040518060c001604052806006905b6122a36123c4565b81526020019060019003908161229b5790505090565b60405180606001604052806003905b6122d06123c4565b8152602001906001900390816122c85790505090565b6040518060a001604052806000815260200161230061238b565b815260200161230d61238b565b815260200160005b8152602001600081525090565b8260038101928215612350579160200282015b82811115612350578251825591602001919060010190612335565b5061235c92915061242c565b5090565b8260038101928215612350579182015b82811115612350578254825591600101919060010190612370565b60408051608081018252600080825260208201529081016123155b60405180606001604052806003906020820280368337509192915050565b604080516101a08101825260008082526020820181905290918201908152602001600081526020016000815260200160008152602001600081526020016000815260200160008152602001600081526020016000815260200160008152602001600081525090565b5b8082111561235c576000815560010161242d565b60006020828403121561245357600080fd5b5035919050565b634e487b7160e01b600052602160045260246000fd5b600381106124805761248061245a565b9052565b600481106124945761249461245a565b50565b61248081612484565b8d81526001600160a01b038d1660208201526101a081016124c4604083018e612470565b6124cd8c612484565b606082019b909b52608081019990995260a089019790975260c088019590955260e0870193909352610100860191909152610120850152610140840152610160830152610180909101529392505050565b805182526000602082015161253e60208501826001600160a01b03169052565b5060408201516125516040850182612470565b5060608201516125646060850182612497565b50506080818101519083015260a0808201519083015260c0808201519083015260e08082015190830152610100808201519083015261012080820151908301526101408082015190830152610160808201519083015261018090810151908201526101a00190565b6109c08101818360005b60068110156125fb576125ea83835161251e565b9250602091909101906001016125d6565b50505092915050565b60006020828403121561261657600080fd5b81356001600160a01b038116811461262d57600080fd5b9392505050565b6104e08101818360005b60038110156125fb5761265283835161251e565b92506020919091019060010161263e565b6001600160a01b03841681526060810161267c84612484565b602082019390935260400152919050565b6000806000606084860312156126a257600080fd5b505081359360208301359350604090920135919050565b80516001600160a01b031682526020808201516126d581612484565b8382015260408281015190840160005b6003811015612702578251825291830191908301906001016126e5565b505050506060015160a09190910152565b8581526101e0810161272860208301876126b9565b61273560e08301866126b9565b61273e84612484565b6101a08201939093526101c001529392505050565b815181526020808301516101e083019161276f908401826126b9565b50604083015161278260e08401826126b9565b50606083015161279181612484565b6101a0830152608092909201516101c09091015290565b634e487b7160e01b600052603260045260246000fd5b634e487b7160e01b600052601160045260246000fd5b818103818111156127e7576127e76127be565b92915050565b6000600182016127ff576127ff6127be565b5060010190565b600081612815576128156127be565b506000190190565b60008261283a57634e487b7160e01b600052601260045260246000fd5b50069056fea2646970667358221220b1a8876be27ab34488b2d522a25915bd046598814ba06f12a49eb461ef24bfa164736f6c63430008110033",
					"opcodes": "PUSH1 0x80 PUSH1 0x40 MSTORE PUSH1 0x1 PUSH1 0x0 SSTORE PUSH1 0x1 DUP1 SSTORE CALLVALUE DUP1 ISZERO PUSH2 0x19 JUMPI PUSH1 0x0 DUP1 REVERT JUMPDEST POP PUSH2 0x2875 DUP1 PUSH2 0x29 PUSH1 0x0 CODECOPY PUSH1 0x0 RETURN INVALID PUSH1 0x80 PUSH1 0x40 MSTORE CALLVALUE DUP1 ISZERO PUSH2 0x10 JUMPI PUSH1 0x0 DUP1 REVERT JUMPDEST POP PUSH1 0x4 CALLDATASIZE LT PUSH2 0x93 JUMPI PUSH1 0x0 CALLDATALOAD PUSH1 0xE0 SHR DUP1 PUSH4 0x82DF6245 GT PUSH2 0x66 JUMPI DUP1 PUSH4 0x82DF6245 EQ PUSH2 0x1C7 JUMPI DUP1 PUSH4 0xA0CC641A EQ PUSH2 0x1DC JUMPI DUP1 PUSH4 0xABA99F88 EQ PUSH2 0x1F2 JUMPI DUP1 PUSH4 0xAE099448 EQ PUSH2 0x205 JUMPI DUP1 PUSH4 0xFEB8C438 EQ PUSH2 0x229 JUMPI PUSH1 0x0 DUP1 REVERT JUMPDEST DUP1 PUSH4 0x105F2C53 EQ PUSH2 0x98 JUMPI DUP1 PUSH4 0x283F3FAC EQ PUSH2 0x13B JUMPI DUP1 PUSH4 0x6154EE97 EQ PUSH2 0x15B JUMPI DUP1 PUSH4 0x79A39EBD EQ PUSH2 0x17B JUMPI JUMPDEST PUSH1 0x0 DUP1 REVERT JUMPDEST PUSH2 0x119 PUSH2 0xA6 CALLDATASIZE PUSH1 0x4 PUSH2 0x2441 JUMP JUMPDEST PUSH1 0x3 PUSH1 0x20 DUP2 SWAP1 MSTORE PUSH1 0x0 SWAP2 DUP3 MSTORE PUSH1 0x40 SWAP1 SWAP2 KECCAK256 DUP1 SLOAD PUSH1 0x1 DUP3 ADD SLOAD PUSH1 0x2 DUP4 ADD SLOAD SWAP4 DUP4 ADD SLOAD PUSH1 0x4 DUP5 ADD SLOAD PUSH1 0x5 DUP6 ADD SLOAD PUSH1 0x6 DUP7 ADD SLOAD PUSH1 0x7 DUP8 ADD SLOAD PUSH1 0x8 DUP9 ADD SLOAD PUSH1 0x9 DUP10 ADD SLOAD PUSH1 0xA SWAP1 SWAP10 ADD SLOAD SWAP8 SWAP10 PUSH1 0x1 PUSH1 0x1 PUSH1 0xA0 SHL SUB DUP9 AND SWAP10 PUSH1 0xFF PUSH1 0x1 PUSH1 0xA0 SHL DUP11 DIV DUP2 AND SWAP11 PUSH1 0x1 PUSH1 0xA8 SHL SWAP1 SWAP11 DIV AND SWAP9 SWAP2 SWAP8 SWAP7 SWAP6 SWAP5 SWAP4 SWAP3 SWAP2 DUP14 JUMP JUMPDEST PUSH1 0x40 MLOAD PUSH2 0x132 SWAP14 SWAP13 SWAP12 SWAP11 SWAP10 SWAP9 SWAP8 SWAP7 SWAP6 SWAP5 SWAP4 SWAP3 SWAP2 SWAP1 PUSH2 0x24A0 JUMP JUMPDEST PUSH1 0x40 MLOAD DUP1 SWAP2 SUB SWAP1 RETURN JUMPDEST PUSH2 0x14E PUSH2 0x149 CALLDATASIZE PUSH1 0x4 PUSH2 0x2441 JUMP JUMPDEST PUSH2 0x249 JUMP JUMPDEST PUSH1 0x40 MLOAD PUSH2 0x132 SWAP2 SWAP1 PUSH2 0x25CC JUMP JUMPDEST PUSH2 0x16E PUSH2 0x169 CALLDATASIZE PUSH1 0x4 PUSH2 0x2604 JUMP JUMPDEST PUSH2 0x739 JUMP JUMPDEST PUSH1 0x40 MLOAD PUSH2 0x132 SWAP2 SWAP1 PUSH2 0x2634 JUMP JUMPDEST PUSH2 0x1B8 PUSH2 0x189 CALLDATASIZE PUSH1 0x4 PUSH2 0x2604 JUMP JUMPDEST PUSH1 0x2 PUSH1 0x20 MSTORE PUSH1 0x0 SWAP1 DUP2 MSTORE PUSH1 0x40 SWAP1 KECCAK256 DUP1 SLOAD PUSH1 0x4 SWAP1 SWAP2 ADD SLOAD PUSH1 0x1 PUSH1 0x1 PUSH1 0xA0 SHL SUB DUP3 AND SWAP2 PUSH1 0x1 PUSH1 0xA0 SHL SWAP1 DIV PUSH1 0xFF AND SWAP1 DUP4 JUMP JUMPDEST PUSH1 0x40 MLOAD PUSH2 0x132 SWAP4 SWAP3 SWAP2 SWAP1 PUSH2 0x2663 JUMP JUMPDEST PUSH2 0x1DA PUSH2 0x1D5 CALLDATASIZE PUSH1 0x4 PUSH2 0x268D JUMP JUMPDEST PUSH2 0x8B5 JUMP JUMPDEST STOP JUMPDEST PUSH2 0x1E4 PUSH2 0xA1E JUMP JUMPDEST PUSH1 0x40 MLOAD SWAP1 DUP2 MSTORE PUSH1 0x20 ADD PUSH2 0x132 JUMP JUMPDEST PUSH2 0x1DA PUSH2 0x200 CALLDATASIZE PUSH1 0x4 PUSH2 0x2441 JUMP JUMPDEST PUSH2 0xC7B JUMP JUMPDEST PUSH2 0x218 PUSH2 0x213 CALLDATASIZE PUSH1 0x4 PUSH2 0x2441 JUMP JUMPDEST PUSH2 0x1746 JUMP JUMPDEST PUSH1 0x40 MLOAD PUSH2 0x132 SWAP6 SWAP5 SWAP4 SWAP3 SWAP2 SWAP1 PUSH2 0x2713 JUMP JUMPDEST PUSH2 0x23C PUSH2 0x237 CALLDATASIZE PUSH1 0x4 PUSH2 0x2441 JUMP JUMPDEST PUSH2 0x18A3 JUMP JUMPDEST PUSH1 0x40 MLOAD PUSH2 0x132 SWAP2 SWAP1 PUSH2 0x2753 JUMP JUMPDEST PUSH2 0x251 PUSH2 0x228C JUMP JUMPDEST PUSH1 0x0 DUP3 DUP2 MSTORE PUSH1 0x4 PUSH1 0x20 MSTORE PUSH1 0x40 DUP2 KECCAK256 PUSH1 0xB ADD SLOAD PUSH1 0xFF AND PUSH1 0x3 DUP2 GT ISZERO PUSH2 0x277 JUMPI PUSH2 0x277 PUSH2 0x245A JUMP JUMPDEST SUB PUSH2 0x2BB JUMPI PUSH1 0x40 MLOAD PUSH3 0x461BCD PUSH1 0xE5 SHL DUP2 MSTORE PUSH1 0x20 PUSH1 0x4 DUP3 ADD MSTORE PUSH1 0xF PUSH1 0x24 DUP3 ADD MSTORE PUSH15 0x125B9D985B1A590813585D18DA1259 PUSH1 0x8A SHL PUSH1 0x44 DUP3 ADD MSTORE PUSH1 0x64 ADD JUMPDEST PUSH1 0x40 MLOAD DUP1 SWAP2 SUB SWAP1 REVERT JUMPDEST PUSH1 0x0 DUP3 DUP2 MSTORE PUSH1 0x4 PUSH1 0x20 SWAP1 DUP2 MSTORE PUSH1 0x40 DUP1 DUP4 KECCAK256 DUP2 MLOAD PUSH1 0xA0 DUP2 ADD DUP4 MSTORE DUP2 SLOAD DUP2 MSTORE DUP3 MLOAD PUSH1 0x80 DUP2 ADD SWAP1 SWAP4 MSTORE PUSH1 0x1 DUP3 ADD DUP1 SLOAD PUSH1 0x1 PUSH1 0x1 PUSH1 0xA0 SHL SUB DUP2 AND DUP6 MSTORE SWAP2 SWAP5 SWAP3 SWAP4 DUP6 DUP5 ADD SWAP4 SWAP1 SWAP3 SWAP1 DUP4 ADD SWAP1 PUSH1 0x1 PUSH1 0xA0 SHL SWAP1 DIV PUSH1 0xFF AND PUSH1 0x3 DUP2 GT ISZERO PUSH2 0x31C JUMPI PUSH2 0x31C PUSH2 0x245A JUMP JUMPDEST PUSH1 0x3 DUP2 GT ISZERO PUSH2 0x32D JUMPI PUSH2 0x32D PUSH2 0x245A JUMP JUMPDEST DUP2 MSTORE PUSH1 0x40 DUP1 MLOAD PUSH1 0x60 DUP2 ADD SWAP2 DUP3 SWAP1 MSTORE PUSH1 0x20 SWAP1 SWAP3 ADD SWAP2 SWAP1 PUSH1 0x1 DUP5 ADD SWAP1 PUSH1 0x3 SWAP1 DUP3 DUP5 JUMPDEST DUP2 SLOAD DUP2 MSTORE PUSH1 0x20 ADD SWAP1 PUSH1 0x1 ADD SWAP1 DUP1 DUP4 GT PUSH2 0x34D JUMPI POP POP POP SWAP2 DUP4 MSTORE POP POP PUSH1 0x4 SWAP2 SWAP1 SWAP2 ADD SLOAD PUSH1 0x20 SWAP2 DUP3 ADD MSTORE SWAP1 DUP3 MSTORE PUSH1 0x40 DUP1 MLOAD PUSH1 0x80 DUP2 ADD SWAP1 SWAP2 MSTORE PUSH1 0x6 DUP5 ADD DUP1 SLOAD PUSH1 0x1 PUSH1 0x1 PUSH1 0xA0 SHL SUB DUP2 AND DUP4 MSTORE SWAP4 DUP4 ADD SWAP4 SWAP2 SWAP3 SWAP1 SWAP2 SWAP1 DUP4 ADD SWAP1 PUSH1 0x1 PUSH1 0xA0 SHL SWAP1 DIV PUSH1 0xFF AND PUSH1 0x3 DUP2 GT ISZERO PUSH2 0x3BC JUMPI PUSH2 0x3BC PUSH2 0x245A JUMP JUMPDEST PUSH1 0x3 DUP2 GT ISZERO PUSH2 0x3CD JUMPI PUSH2 0x3CD PUSH2 0x245A JUMP JUMPDEST DUP2 MSTORE PUSH1 0x40 DUP1 MLOAD PUSH1 0x60 DUP2 ADD SWAP2 DUP3 SWAP1 MSTORE PUSH1 0x20 SWAP1 SWAP3 ADD SWAP2 SWAP1 PUSH1 0x1 DUP5 ADD SWAP1 PUSH1 0x3 SWAP1 DUP3 DUP5 JUMPDEST DUP2 SLOAD DUP2 MSTORE PUSH1 0x20 ADD SWAP1 PUSH1 0x1 ADD SWAP1 DUP1 DUP4 GT PUSH2 0x3ED JUMPI POP POP POP SWAP2 DUP4 MSTORE POP POP PUSH1 0x4 SWAP2 SWAP1 SWAP2 ADD SLOAD PUSH1 0x20 SWAP2 DUP3 ADD MSTORE SWAP1 DUP3 MSTORE PUSH1 0xB DUP4 ADD SLOAD SWAP2 ADD SWAP1 PUSH1 0xFF AND PUSH1 0x3 DUP2 GT ISZERO PUSH2 0x434 JUMPI PUSH2 0x434 PUSH2 0x245A JUMP JUMPDEST PUSH1 0x3 DUP2 GT ISZERO PUSH2 0x445 JUMPI PUSH2 0x445 PUSH2 0x245A JUMP JUMPDEST DUP2 MSTORE PUSH1 0xC SWAP2 SWAP1 SWAP2 ADD SLOAD PUSH1 0x20 SWAP2 DUP3 ADD MSTORE DUP2 ADD MLOAD MLOAD PUSH1 0x40 DUP3 ADD MLOAD MLOAD SWAP2 SWAP3 POP SWAP1 PUSH2 0x46A PUSH2 0x228C JUMP JUMPDEST PUSH1 0x0 JUMPDEST PUSH1 0x6 DUP2 LT ISZERO PUSH2 0x72F JUMPI PUSH1 0x3 DUP2 LT ISZERO PUSH2 0x5CB JUMPI PUSH1 0x1 PUSH1 0x1 PUSH1 0xA0 SHL SUB DUP5 AND PUSH1 0x0 SWAP1 DUP2 MSTORE PUSH1 0x2 PUSH1 0x20 MSTORE PUSH1 0x40 DUP2 KECCAK256 PUSH1 0x3 SWAP2 SWAP1 PUSH1 0x1 ADD DUP4 DUP4 DUP2 LT PUSH2 0x4AE JUMPI PUSH2 0x4AE PUSH2 0x27A8 JUMP JUMPDEST ADD SLOAD DUP2 MSTORE PUSH1 0x20 DUP1 DUP3 ADD SWAP3 SWAP1 SWAP3 MSTORE PUSH1 0x40 SWAP1 DUP2 ADD PUSH1 0x0 KECCAK256 DUP2 MLOAD PUSH2 0x1A0 DUP2 ADD DUP4 MSTORE DUP2 SLOAD DUP2 MSTORE PUSH1 0x1 DUP3 ADD SLOAD PUSH1 0x1 PUSH1 0x1 PUSH1 0xA0 SHL SUB DUP2 AND SWAP5 DUP3 ADD SWAP5 SWAP1 SWAP5 MSTORE SWAP3 SWAP1 SWAP2 DUP4 ADD SWAP1 PUSH1 0x1 PUSH1 0xA0 SHL SWAP1 DIV PUSH1 0xFF AND PUSH1 0x2 DUP2 GT ISZERO PUSH2 0x507 JUMPI PUSH2 0x507 PUSH2 0x245A JUMP JUMPDEST PUSH1 0x2 DUP2 GT ISZERO PUSH2 0x518 JUMPI PUSH2 0x518 PUSH2 0x245A JUMP JUMPDEST DUP2 MSTORE PUSH1 0x20 ADD PUSH1 0x1 DUP3 ADD PUSH1 0x15 SWAP1 SLOAD SWAP1 PUSH2 0x100 EXP SWAP1 DIV PUSH1 0xFF AND PUSH1 0x3 DUP2 GT ISZERO PUSH2 0x540 JUMPI PUSH2 0x540 PUSH2 0x245A JUMP JUMPDEST PUSH1 0x3 DUP2 GT ISZERO PUSH2 0x551 JUMPI PUSH2 0x551 PUSH2 0x245A JUMP JUMPDEST DUP2 MSTORE PUSH1 0x20 ADD PUSH1 0x2 DUP3 ADD SLOAD DUP2 MSTORE PUSH1 0x20 ADD PUSH1 0x3 DUP3 ADD SLOAD DUP2 MSTORE PUSH1 0x20 ADD PUSH1 0x4 DUP3 ADD SLOAD DUP2 MSTORE PUSH1 0x20 ADD PUSH1 0x5 DUP3 ADD SLOAD DUP2 MSTORE PUSH1 0x20 ADD PUSH1 0x6 DUP3 ADD SLOAD DUP2 MSTORE PUSH1 0x20 ADD PUSH1 0x7 DUP3 ADD SLOAD DUP2 MSTORE PUSH1 0x20 ADD PUSH1 0x8 DUP3 ADD SLOAD DUP2 MSTORE PUSH1 0x20 ADD PUSH1 0x9 DUP3 ADD SLOAD DUP2 MSTORE PUSH1 0x20 ADD PUSH1 0xA DUP3 ADD SLOAD DUP2 MSTORE POP POP DUP3 DUP3 PUSH1 0x6 DUP2 LT PUSH2 0x5C1 JUMPI PUSH2 0x5C1 PUSH2 0x27A8 JUMP JUMPDEST PUSH1 0x20 MUL ADD MSTORE PUSH2 0x71D JUMP JUMPDEST PUSH1 0x1 PUSH1 0x1 PUSH1 0xA0 SHL SUB DUP4 AND PUSH1 0x0 SWAP1 DUP2 MSTORE PUSH1 0x2 PUSH1 0x20 MSTORE PUSH1 0x40 DUP2 KECCAK256 PUSH1 0x3 SWAP2 SWAP1 PUSH1 0x1 ADD PUSH2 0x5F4 DUP4 DUP6 PUSH2 0x27D4 JUMP JUMPDEST PUSH1 0x3 DUP2 LT PUSH2 0x604 JUMPI PUSH2 0x604 PUSH2 0x27A8 JUMP JUMPDEST ADD SLOAD DUP2 MSTORE PUSH1 0x20 DUP1 DUP3 ADD SWAP3 SWAP1 SWAP3 MSTORE PUSH1 0x40 SWAP1 DUP2 ADD PUSH1 0x0 KECCAK256 DUP2 MLOAD PUSH2 0x1A0 DUP2 ADD DUP4 MSTORE DUP2 SLOAD DUP2 MSTORE PUSH1 0x1 DUP3 ADD SLOAD PUSH1 0x1 PUSH1 0x1 PUSH1 0xA0 SHL SUB DUP2 AND SWAP5 DUP3 ADD SWAP5 SWAP1 SWAP5 MSTORE SWAP3 SWAP1 SWAP2 DUP4 ADD SWAP1 PUSH1 0x1 PUSH1 0xA0 SHL SWAP1 DIV PUSH1 0xFF AND PUSH1 0x2 DUP2 GT ISZERO PUSH2 0x65D JUMPI PUSH2 0x65D PUSH2 0x245A JUMP JUMPDEST PUSH1 0x2 DUP2 GT ISZERO PUSH2 0x66E JUMPI PUSH2 0x66E PUSH2 0x245A JUMP JUMPDEST DUP2 MSTORE PUSH1 0x20 ADD PUSH1 0x1 DUP3 ADD PUSH1 0x15 SWAP1 SLOAD SWAP1 PUSH2 0x100 EXP SWAP1 DIV PUSH1 0xFF AND PUSH1 0x3 DUP2 GT ISZERO PUSH2 0x696 JUMPI PUSH2 0x696 PUSH2 0x245A JUMP JUMPDEST PUSH1 0x3 DUP2 GT ISZERO PUSH2 0x6A7 JUMPI PUSH2 0x6A7 PUSH2 0x245A JUMP JUMPDEST DUP2 MSTORE PUSH1 0x20 ADD PUSH1 0x2 DUP3 ADD SLOAD DUP2 MSTORE PUSH1 0x20 ADD PUSH1 0x3 DUP3 ADD SLOAD DUP2 MSTORE PUSH1 0x20 ADD PUSH1 0x4 DUP3 ADD SLOAD DUP2 MSTORE PUSH1 0x20 ADD PUSH1 0x5 DUP3 ADD SLOAD DUP2 MSTORE PUSH1 0x20 ADD PUSH1 0x6 DUP3 ADD SLOAD DUP2 MSTORE PUSH1 0x20 ADD PUSH1 0x7 DUP3 ADD SLOAD DUP2 MSTORE PUSH1 0x20 ADD PUSH1 0x8 DUP3 ADD SLOAD DUP2 MSTORE PUSH1 0x20 ADD PUSH1 0x9 DUP3 ADD SLOAD DUP2 MSTORE PUSH1 0x20 ADD PUSH1 0xA DUP3 ADD SLOAD DUP2 MSTORE POP POP DUP3 DUP3 PUSH1 0x6 DUP2 LT PUSH2 0x717 JUMPI PUSH2 0x717 PUSH2 0x27A8 JUMP JUMPDEST PUSH1 0x20 MUL ADD MSTORE JUMPDEST DUP1 PUSH2 0x727 DUP2 PUSH2 0x27ED JUMP JUMPDEST SWAP2 POP POP PUSH2 0x46D JUMP JUMPDEST POP SWAP6 SWAP5 POP POP POP POP POP JUMP JUMPDEST PUSH2 0x741 PUSH2 0x22B9 JUMP JUMPDEST PUSH2 0x749 PUSH2 0x22B9 JUMP JUMPDEST PUSH1 0x0 JUMPDEST PUSH1 0x3 DUP2 LT ISZERO PUSH2 0x8AE JUMPI PUSH1 0x1 PUSH1 0x1 PUSH1 0xA0 SHL SUB DUP5 AND PUSH1 0x0 SWAP1 DUP2 MSTORE PUSH1 0x2 PUSH1 0x20 MSTORE PUSH1 0x40 DUP2 KECCAK256 PUSH1 0x3 SWAP2 SWAP1 PUSH1 0x1 ADD DUP4 DUP4 DUP2 LT PUSH2 0x784 JUMPI PUSH2 0x784 PUSH2 0x27A8 JUMP JUMPDEST ADD SLOAD DUP2 MSTORE PUSH1 0x20 DUP1 DUP3 ADD SWAP3 SWAP1 SWAP3 MSTORE PUSH1 0x40 SWAP1 DUP2 ADD PUSH1 0x0 KECCAK256 DUP2 MLOAD PUSH2 0x1A0 DUP2 ADD DUP4 MSTORE DUP2 SLOAD DUP2 MSTORE PUSH1 0x1 DUP3 ADD SLOAD PUSH1 0x1 PUSH1 0x1 PUSH1 0xA0 SHL SUB DUP2 AND SWAP5 DUP3 ADD SWAP5 SWAP1 SWAP5 MSTORE SWAP3 SWAP1 SWAP2 DUP4 ADD SWAP1 PUSH1 0x1 PUSH1 0xA0 SHL SWAP1 DIV PUSH1 0xFF AND PUSH1 0x2 DUP2 GT ISZERO PUSH2 0x7DD JUMPI PUSH2 0x7DD PUSH2 0x245A JUMP JUMPDEST PUSH1 0x2 DUP2 GT ISZERO PUSH2 0x7EE JUMPI PUSH2 0x7EE PUSH2 0x245A JUMP JUMPDEST DUP2 MSTORE PUSH1 0x20 ADD PUSH1 0x1 DUP3 ADD PUSH1 0x15 SWAP1 SLOAD SWAP1 PUSH2 0x100 EXP SWAP1 DIV PUSH1 0xFF AND PUSH1 0x3 DUP2 GT ISZERO PUSH2 0x816 JUMPI PUSH2 0x816 PUSH2 0x245A JUMP JUMPDEST PUSH1 0x3 DUP2 GT ISZERO PUSH2 0x827 JUMPI PUSH2 0x827 PUSH2 0x245A JUMP JUMPDEST DUP2 MSTORE PUSH1 0x20 ADD PUSH1 0x2 DUP3 ADD SLOAD DUP2 MSTORE PUSH1 0x20 ADD PUSH1 0x3 DUP3 ADD SLOAD DUP2 MSTORE PUSH1 0x20 ADD PUSH1 0x4 DUP3 ADD SLOAD DUP2 MSTORE PUSH1 0x20 ADD PUSH1 0x5 DUP3 ADD SLOAD DUP2 MSTORE PUSH1 0x20 ADD PUSH1 0x6 DUP3 ADD SLOAD DUP2 MSTORE PUSH1 0x20 ADD PUSH1 0x7 DUP3 ADD SLOAD DUP2 MSTORE PUSH1 0x20 ADD PUSH1 0x8 DUP3 ADD SLOAD DUP2 MSTORE PUSH1 0x20 ADD PUSH1 0x9 DUP3 ADD SLOAD DUP2 MSTORE PUSH1 0x20 ADD PUSH1 0xA DUP3 ADD SLOAD DUP2 MSTORE POP POP DUP3 DUP3 PUSH1 0x3 DUP2 LT PUSH2 0x897 JUMPI PUSH2 0x897 PUSH2 0x27A8 JUMP JUMPDEST PUSH1 0x20 MUL ADD MSTORE DUP1 PUSH2 0x8A6 DUP2 PUSH2 0x27ED JUMP JUMPDEST SWAP2 POP POP PUSH2 0x74C JUMP JUMPDEST POP SWAP3 SWAP2 POP POP JUMP JUMPDEST PUSH1 0x0 DUP4 DUP2 MSTORE PUSH1 0x3 PUSH1 0x20 MSTORE PUSH1 0x40 SWAP1 KECCAK256 PUSH1 0x1 ADD SLOAD PUSH1 0x1 PUSH1 0x1 PUSH1 0xA0 SHL SUB AND CALLER EQ PUSH2 0x91E JUMPI PUSH1 0x40 MLOAD PUSH3 0x461BCD PUSH1 0xE5 SHL DUP2 MSTORE PUSH1 0x20 PUSH1 0x4 DUP3 ADD MSTORE PUSH1 0x17 PUSH1 0x24 DUP3 ADD MSTORE PUSH32 0x596F7520646F6E2774206F776E207468697320756E6974000000000000000000 PUSH1 0x44 DUP3 ADD MSTORE PUSH1 0x64 ADD PUSH2 0x2B2 JUMP JUMPDEST PUSH1 0xA DUP3 LT DUP1 ISZERO PUSH2 0x92E JUMPI POP PUSH1 0xA DUP2 LT JUMPDEST PUSH2 0x96C JUMPI PUSH1 0x40 MLOAD PUSH3 0x461BCD PUSH1 0xE5 SHL DUP2 MSTORE PUSH1 0x20 PUSH1 0x4 DUP3 ADD MSTORE PUSH1 0xF PUSH1 0x24 DUP3 ADD MSTORE PUSH15 0x47726964206973203130207820313 PUSH1 0x8C SHL PUSH1 0x44 DUP3 ADD MSTORE PUSH1 0x64 ADD PUSH2 0x2B2 JUMP JUMPDEST PUSH1 0x0 DUP4 DUP2 MSTORE PUSH1 0x3 PUSH1 0x20 MSTORE PUSH1 0x40 SWAP1 KECCAK256 PUSH1 0x5 ADD SLOAD DUP3 EQ DUP1 ISZERO PUSH2 0x99C JUMPI POP PUSH1 0x0 DUP4 DUP2 MSTORE PUSH1 0x3 PUSH1 0x20 MSTORE PUSH1 0x40 SWAP1 KECCAK256 PUSH1 0x6 ADD SLOAD DUP2 EQ JUMPDEST ISZERO PUSH2 0x9E9 JUMPI PUSH1 0x40 MLOAD PUSH3 0x461BCD PUSH1 0xE5 SHL DUP2 MSTORE PUSH1 0x20 PUSH1 0x4 DUP3 ADD MSTORE PUSH1 0x1E PUSH1 0x24 DUP3 ADD MSTORE PUSH32 0x556E697420616C726561647920696E207468617420706F736974696F6E2E0000 PUSH1 0x44 DUP3 ADD MSTORE PUSH1 0x64 ADD PUSH2 0x2B2 JUMP JUMPDEST PUSH1 0x0 SWAP3 DUP4 MSTORE PUSH1 0x3 PUSH1 0x20 MSTORE PUSH1 0x40 SWAP1 SWAP3 KECCAK256 PUSH1 0x7 DUP2 ADD SWAP2 SWAP1 SWAP2 SSTORE PUSH1 0x8 DUP2 ADD SWAP2 SWAP1 SWAP2 SSTORE PUSH1 0x1 ADD DUP1 SLOAD PUSH1 0xFF PUSH1 0xA8 SHL NOT AND PUSH1 0x1 PUSH1 0xA8 SHL OR SWAP1 SSTORE JUMP JUMPDEST PUSH1 0x0 DUP1 CALLER PUSH1 0x0 SWAP1 DUP2 MSTORE PUSH1 0x2 PUSH1 0x20 MSTORE PUSH1 0x40 SWAP1 KECCAK256 SLOAD PUSH1 0x1 PUSH1 0xA0 SHL SWAP1 DIV PUSH1 0xFF AND PUSH1 0x3 DUP2 GT ISZERO PUSH2 0xA4C JUMPI PUSH2 0xA4C PUSH2 0x245A JUMP JUMPDEST SUB PUSH2 0xA5B JUMPI PUSH2 0xA59 PUSH2 0x1BFE JUMP JUMPDEST POP JUMPDEST PUSH2 0xA63 PUSH2 0x22E6 JUMP JUMPDEST PUSH1 0x0 DUP1 SLOAD DUP3 MSTORE PUSH1 0x1 PUSH1 0x60 DUP4 ADD MSTORE CALLER DUP2 MSTORE PUSH1 0x2 PUSH1 0x20 SWAP1 DUP2 MSTORE PUSH1 0x40 SWAP2 DUP3 SWAP1 KECCAK256 DUP3 MLOAD PUSH1 0x80 DUP2 ADD SWAP1 SWAP4 MSTORE DUP1 SLOAD PUSH1 0x1 PUSH1 0x1 PUSH1 0xA0 SHL SUB DUP2 AND DUP5 MSTORE SWAP1 SWAP2 DUP4 ADD SWAP1 PUSH1 0x1 PUSH1 0xA0 SHL SWAP1 DIV PUSH1 0xFF AND PUSH1 0x3 DUP2 GT ISZERO PUSH2 0xAB7 JUMPI PUSH2 0xAB7 PUSH2 0x245A JUMP JUMPDEST PUSH1 0x3 DUP2 GT ISZERO PUSH2 0xAC8 JUMPI PUSH2 0xAC8 PUSH2 0x245A JUMP JUMPDEST DUP2 MSTORE PUSH1 0x40 DUP1 MLOAD PUSH1 0x60 DUP2 ADD SWAP2 DUP3 SWAP1 MSTORE PUSH1 0x20 SWAP1 SWAP3 ADD SWAP2 SWAP1 PUSH1 0x1 DUP5 ADD SWAP1 PUSH1 0x3 SWAP1 DUP3 DUP5 JUMPDEST DUP2 SLOAD DUP2 MSTORE PUSH1 0x20 ADD SWAP1 PUSH1 0x1 ADD SWAP1 DUP1 DUP4 GT PUSH2 0xAE8 JUMPI POP POP POP SWAP2 DUP4 MSTORE POP POP PUSH1 0x4 SWAP2 DUP3 ADD SLOAD PUSH1 0x20 SWAP2 DUP3 ADD MSTORE DUP4 DUP2 ADD SWAP3 DUP4 MSTORE PUSH1 0x0 DUP1 SLOAD CALLER DUP3 MSTORE PUSH1 0x2 DUP4 MSTORE PUSH1 0x40 DUP1 DUP4 KECCAK256 DUP6 ADD DUP3 SWAP1 SSTORE SWAP1 DUP3 MSTORE SWAP3 DUP3 MSTORE SWAP2 SWAP1 SWAP2 KECCAK256 DUP4 MLOAD DUP2 SSTORE SWAP2 MLOAD DUP1 MLOAD PUSH1 0x1 DUP5 ADD DUP1 SLOAD PUSH1 0x1 PUSH1 0x1 PUSH1 0xA0 SHL SUB SWAP3 SWAP1 SWAP3 AND PUSH1 0x1 PUSH1 0x1 PUSH1 0xA0 SHL SUB NOT DUP4 AND DUP2 OR DUP3 SSTORE SWAP4 DUP4 ADD MLOAD DUP7 SWAP6 SWAP5 SWAP2 SWAP3 SWAP1 SWAP2 DUP4 SWAP2 PUSH1 0x1 PUSH1 0x1 PUSH1 0xA8 SHL SUB NOT AND OR PUSH1 0x1 PUSH1 0xA0 SHL DUP4 PUSH1 0x3 DUP2 GT ISZERO PUSH2 0xB8C JUMPI PUSH2 0xB8C PUSH2 0x245A JUMP JUMPDEST MUL OR SWAP1 SSTORE POP PUSH1 0x40 DUP3 ADD MLOAD PUSH2 0xBA6 SWAP1 PUSH1 0x1 DUP4 ADD SWAP1 PUSH1 0x3 PUSH2 0x2322 JUMP JUMPDEST POP PUSH1 0x60 SWAP2 SWAP1 SWAP2 ADD MLOAD PUSH1 0x4 SWAP1 SWAP2 ADD SSTORE PUSH1 0x40 DUP3 ADD MLOAD DUP1 MLOAD PUSH1 0x6 DUP4 ADD DUP1 SLOAD PUSH1 0x1 PUSH1 0x1 PUSH1 0xA0 SHL SUB NOT DUP2 AND PUSH1 0x1 PUSH1 0x1 PUSH1 0xA0 SHL SUB SWAP1 SWAP4 AND SWAP3 DUP4 OR DUP3 SSTORE PUSH1 0x20 DUP5 ADD MLOAD SWAP2 SWAP3 DUP4 SWAP2 PUSH1 0x1 PUSH1 0x1 PUSH1 0xA8 SHL SUB NOT AND OR PUSH1 0x1 PUSH1 0xA0 SHL DUP4 PUSH1 0x3 DUP2 GT ISZERO PUSH2 0xC07 JUMPI PUSH2 0xC07 PUSH2 0x245A JUMP JUMPDEST MUL OR SWAP1 SSTORE POP PUSH1 0x40 DUP3 ADD MLOAD PUSH2 0xC21 SWAP1 PUSH1 0x1 DUP4 ADD SWAP1 PUSH1 0x3 PUSH2 0x2322 JUMP JUMPDEST POP PUSH1 0x60 SWAP2 DUP3 ADD MLOAD PUSH1 0x4 SWAP1 SWAP2 ADD SSTORE DUP3 ADD MLOAD PUSH1 0xB DUP3 ADD DUP1 SLOAD PUSH1 0xFF NOT AND PUSH1 0x1 DUP4 PUSH1 0x3 DUP2 GT ISZERO PUSH2 0xC4F JUMPI PUSH2 0xC4F PUSH2 0x245A JUMP JUMPDEST MUL OR SWAP1 SSTORE POP PUSH1 0x80 SWAP2 SWAP1 SWAP2 ADD MLOAD PUSH1 0xC SWAP1 SWAP2 ADD SSTORE PUSH1 0x0 DUP1 SLOAD SWAP1 DUP1 PUSH2 0xC70 DUP4 PUSH2 0x27ED JUMP JUMPDEST SWAP1 SWAP2 SSTORE POP POP MLOAD SWAP2 SWAP1 POP JUMP JUMPDEST PUSH1 0x2 PUSH1 0x0 DUP3 DUP2 MSTORE PUSH1 0x4 PUSH1 0x20 MSTORE PUSH1 0x40 SWAP1 KECCAK256 PUSH1 0xB ADD SLOAD PUSH1 0xFF AND PUSH1 0x3 DUP2 GT ISZERO PUSH2 0xCA3 JUMPI PUSH2 0xCA3 PUSH2 0x245A JUMP JUMPDEST EQ PUSH2 0xCE2 JUMPI PUSH1 0x40 MLOAD PUSH3 0x461BCD PUSH1 0xE5 SHL DUP2 MSTORE PUSH1 0x20 PUSH1 0x4 DUP3 ADD MSTORE PUSH1 0xF PUSH1 0x24 DUP3 ADD MSTORE PUSH15 0x47616D65206E6F7420416374697665 PUSH1 0x88 SHL PUSH1 0x44 DUP3 ADD MSTORE PUSH1 0x64 ADD PUSH2 0x2B2 JUMP JUMPDEST PUSH1 0x0 PUSH2 0xCED DUP3 PUSH2 0x249 JUMP JUMPDEST SWAP1 POP PUSH1 0x0 JUMPDEST PUSH1 0x6 DUP2 LT ISZERO PUSH2 0x1577 JUMPI PUSH1 0x3 DUP3 DUP3 PUSH1 0x6 DUP2 LT PUSH2 0xD0F JUMPI PUSH2 0xD0F PUSH2 0x27A8 JUMP JUMPDEST PUSH1 0x20 MUL ADD MLOAD PUSH1 0x60 ADD MLOAD PUSH1 0x3 DUP2 GT ISZERO PUSH2 0xD29 JUMPI PUSH2 0xD29 PUSH2 0x245A JUMP JUMPDEST EQ PUSH2 0x1565 JUMPI PUSH1 0x1 DUP3 DUP3 PUSH1 0x6 DUP2 LT PUSH2 0xD42 JUMPI PUSH2 0xD42 PUSH2 0x27A8 JUMP JUMPDEST PUSH1 0x20 MUL ADD MLOAD PUSH1 0x60 ADD MLOAD PUSH1 0x3 DUP2 GT ISZERO PUSH2 0xD5C JUMPI PUSH2 0xD5C PUSH2 0x245A JUMP JUMPDEST SUB PUSH2 0xF81 JUMPI DUP2 DUP2 PUSH1 0x6 DUP2 LT PUSH2 0xD73 JUMPI PUSH2 0xD73 PUSH2 0x27A8 JUMP JUMPDEST PUSH1 0x20 MUL ADD MLOAD PUSH2 0x120 ADD MLOAD DUP3 DUP3 PUSH1 0x6 DUP2 LT PUSH2 0xD8F JUMPI PUSH2 0xD8F PUSH2 0x27A8 JUMP JUMPDEST PUSH1 0x20 MUL ADD MLOAD PUSH1 0xE0 ADD MLOAD EQ PUSH2 0xE2E JUMPI DUP2 DUP2 PUSH1 0x6 DUP2 LT PUSH2 0xDAF JUMPI PUSH2 0xDAF PUSH2 0x27A8 JUMP JUMPDEST PUSH1 0x20 MUL ADD MLOAD PUSH2 0x120 ADD MLOAD DUP3 DUP3 PUSH1 0x6 DUP2 LT PUSH2 0xDCB JUMPI PUSH2 0xDCB PUSH2 0x27A8 JUMP JUMPDEST PUSH1 0x20 MUL ADD MLOAD PUSH1 0xE0 ADD MLOAD LT ISZERO PUSH2 0xE08 JUMPI DUP2 DUP2 PUSH1 0x6 DUP2 LT PUSH2 0xDEC JUMPI PUSH2 0xDEC PUSH2 0x27A8 JUMP JUMPDEST PUSH1 0x20 MUL ADD MLOAD PUSH1 0xE0 ADD DUP1 MLOAD SWAP1 PUSH2 0xE00 DUP3 PUSH2 0x27ED JUMP JUMPDEST SWAP1 MSTORE POP PUSH2 0xEBE JUMP JUMPDEST DUP2 DUP2 PUSH1 0x6 DUP2 LT PUSH2 0xE1A JUMPI PUSH2 0xE1A PUSH2 0x27A8 JUMP JUMPDEST PUSH1 0x20 MUL ADD MLOAD PUSH1 0xE0 ADD DUP1 MLOAD SWAP1 PUSH2 0xE00 DUP3 PUSH2 0x2806 JUMP JUMPDEST DUP2 DUP2 PUSH1 0x6 DUP2 LT PUSH2 0xE40 JUMPI PUSH2 0xE40 PUSH2 0x27A8 JUMP JUMPDEST PUSH1 0x20 MUL ADD MLOAD PUSH2 0x140 ADD MLOAD DUP3 DUP3 PUSH1 0x6 DUP2 LT PUSH2 0xE5C JUMPI PUSH2 0xE5C PUSH2 0x27A8 JUMP JUMPDEST PUSH1 0x20 MUL ADD MLOAD PUSH2 0x100 ADD MLOAD LT ISZERO PUSH2 0xE93 JUMPI DUP2 DUP2 PUSH1 0x6 DUP2 LT PUSH2 0xE7E JUMPI PUSH2 0xE7E PUSH2 0x27A8 JUMP JUMPDEST PUSH1 0x20 MUL ADD MLOAD PUSH2 0x100 ADD DUP1 MLOAD SWAP1 PUSH2 0xE00 DUP3 PUSH2 0x27ED JUMP JUMPDEST DUP2 DUP2 PUSH1 0x6 DUP2 LT PUSH2 0xEA5 JUMPI PUSH2 0xEA5 PUSH2 0x27A8 JUMP JUMPDEST PUSH1 0x20 MUL ADD MLOAD PUSH2 0x100 ADD DUP1 MLOAD SWAP1 PUSH2 0xEBA DUP3 PUSH2 0x2806 JUMP JUMPDEST SWAP1 MSTORE POP JUMPDEST DUP2 DUP2 PUSH1 0x6 DUP2 LT PUSH2 0xED0 JUMPI PUSH2 0xED0 PUSH2 0x27A8 JUMP JUMPDEST PUSH1 0x20 MUL ADD MLOAD PUSH2 0x120 ADD MLOAD DUP3 DUP3 PUSH1 0x6 DUP2 LT PUSH2 0xEEC JUMPI PUSH2 0xEEC PUSH2 0x27A8 JUMP JUMPDEST PUSH1 0x20 MUL ADD MLOAD PUSH1 0xE0 ADD MLOAD EQ DUP1 ISZERO PUSH2 0xF37 JUMPI POP DUP2 DUP2 PUSH1 0x6 DUP2 LT PUSH2 0xF0F JUMPI PUSH2 0xF0F PUSH2 0x27A8 JUMP JUMPDEST PUSH1 0x20 MUL ADD MLOAD PUSH2 0x140 ADD MLOAD DUP3 DUP3 PUSH1 0x6 DUP2 LT PUSH2 0xF2B JUMPI PUSH2 0xF2B PUSH2 0x27A8 JUMP JUMPDEST PUSH1 0x20 MUL ADD MLOAD PUSH2 0x100 ADD MLOAD EQ JUMPDEST ISZERO PUSH2 0xF81 JUMPI PUSH1 0x0 DUP3 DUP3 PUSH1 0x6 DUP2 LT PUSH2 0xF50 JUMPI PUSH2 0xF50 PUSH2 0x27A8 JUMP JUMPDEST PUSH1 0x20 MUL ADD MLOAD PUSH1 0x60 ADD SWAP1 PUSH1 0x3 DUP2 GT ISZERO PUSH2 0xF6A JUMPI PUSH2 0xF6A PUSH2 0x245A JUMP JUMPDEST SWAP1 DUP2 PUSH1 0x3 DUP2 GT ISZERO PUSH2 0xF7D JUMPI PUSH2 0xF7D PUSH2 0x245A JUMP JUMPDEST SWAP1 MSTORE POP JUMPDEST PUSH1 0x0 JUMPDEST PUSH1 0x6 DUP2 LT ISZERO PUSH2 0x1563 JUMPI DUP1 DUP3 EQ PUSH2 0x1551 JUMPI PUSH1 0x3 DUP4 DUP3 PUSH1 0x6 DUP2 LT PUSH2 0xFA8 JUMPI PUSH2 0xFA8 PUSH2 0x27A8 JUMP JUMPDEST PUSH1 0x20 MUL ADD MLOAD PUSH1 0x60 ADD MLOAD PUSH1 0x3 DUP2 GT ISZERO PUSH2 0xFC2 JUMPI PUSH2 0xFC2 PUSH2 0x245A JUMP JUMPDEST EQ PUSH2 0x1551 JUMPI DUP3 DUP2 PUSH1 0x6 DUP2 LT PUSH2 0xFD9 JUMPI PUSH2 0xFD9 PUSH2 0x27A8 JUMP JUMPDEST PUSH1 0x20 MUL ADD MLOAD PUSH1 0xE0 ADD MLOAD DUP4 DUP4 PUSH1 0x6 DUP2 LT PUSH2 0xFF4 JUMPI PUSH2 0xFF4 PUSH2 0x27A8 JUMP JUMPDEST PUSH1 0x20 MUL ADD MLOAD PUSH1 0xE0 ADD MLOAD EQ DUP1 ISZERO PUSH2 0x103F JUMPI POP DUP3 DUP2 PUSH1 0x6 DUP2 LT PUSH2 0x1017 JUMPI PUSH2 0x1017 PUSH2 0x27A8 JUMP JUMPDEST PUSH1 0x20 MUL ADD MLOAD PUSH2 0x100 ADD MLOAD DUP4 DUP4 PUSH1 0x6 DUP2 LT PUSH2 0x1033 JUMPI PUSH2 0x1033 PUSH2 0x27A8 JUMP JUMPDEST PUSH1 0x20 MUL ADD MLOAD PUSH2 0x100 ADD MLOAD EQ JUMPDEST ISZERO PUSH2 0x10CD JUMPI PUSH1 0x2 DUP4 DUP4 PUSH1 0x6 DUP2 LT PUSH2 0x1058 JUMPI PUSH2 0x1058 PUSH2 0x27A8 JUMP JUMPDEST PUSH1 0x20 MUL ADD MLOAD PUSH1 0x60 ADD SWAP1 PUSH1 0x3 DUP2 GT ISZERO PUSH2 0x1072 JUMPI PUSH2 0x1072 PUSH2 0x245A JUMP JUMPDEST SWAP1 DUP2 PUSH1 0x3 DUP2 GT ISZERO PUSH2 0x1085 JUMPI PUSH2 0x1085 PUSH2 0x245A JUMP JUMPDEST SWAP1 MSTORE POP PUSH1 0x2 DUP4 DUP3 PUSH1 0x6 DUP2 LT PUSH2 0x109C JUMPI PUSH2 0x109C PUSH2 0x27A8 JUMP JUMPDEST PUSH1 0x20 MUL ADD MLOAD PUSH1 0x60 ADD SWAP1 PUSH1 0x3 DUP2 GT ISZERO PUSH2 0x10B6 JUMPI PUSH2 0x10B6 PUSH2 0x245A JUMP JUMPDEST SWAP1 DUP2 PUSH1 0x3 DUP2 GT ISZERO PUSH2 0x10C9 JUMPI PUSH2 0x10C9 PUSH2 0x245A JUMP JUMPDEST SWAP1 MSTORE POP JUMPDEST PUSH1 0x2 DUP4 DUP4 PUSH1 0x6 DUP2 LT PUSH2 0x10E1 JUMPI PUSH2 0x10E1 PUSH2 0x27A8 JUMP JUMPDEST PUSH1 0x20 MUL ADD MLOAD PUSH1 0x60 ADD MLOAD PUSH1 0x3 DUP2 GT ISZERO PUSH2 0x10FB JUMPI PUSH2 0x10FB PUSH2 0x245A JUMP JUMPDEST SUB PUSH2 0x1483 JUMPI PUSH1 0x0 DUP4 DUP4 PUSH1 0x6 DUP2 LT PUSH2 0x1114 JUMPI PUSH2 0x1114 PUSH2 0x27A8 JUMP JUMPDEST PUSH1 0x20 MUL ADD MLOAD PUSH1 0x40 ADD MLOAD PUSH1 0x2 DUP2 GT ISZERO PUSH2 0x112E JUMPI PUSH2 0x112E PUSH2 0x245A JUMP JUMPDEST SUB PUSH2 0x124C JUMPI PUSH1 0x0 DUP4 DUP3 PUSH1 0x6 DUP2 LT PUSH2 0x1147 JUMPI PUSH2 0x1147 PUSH2 0x27A8 JUMP JUMPDEST PUSH1 0x20 MUL ADD MLOAD PUSH1 0x40 ADD MLOAD PUSH1 0x2 DUP2 GT ISZERO PUSH2 0x1161 JUMPI PUSH2 0x1161 PUSH2 0x245A JUMP JUMPDEST SUB PUSH2 0x11CE JUMPI PUSH1 0x2 PUSH2 0x1172 PUSH1 0x1 PUSH2 0x2256 JUMP JUMPDEST PUSH2 0x117C SWAP2 SWAP1 PUSH2 0x281D JUMP JUMPDEST PUSH1 0x0 SUB PUSH2 0x11C9 JUMPI DUP3 DUP3 PUSH1 0x6 DUP2 LT PUSH2 0x1195 JUMPI PUSH2 0x1195 PUSH2 0x27A8 JUMP JUMPDEST PUSH1 0x20 MUL ADD MLOAD PUSH1 0xA0 ADD MLOAD DUP4 DUP3 PUSH1 0x6 DUP2 LT PUSH2 0x11B0 JUMPI PUSH2 0x11B0 PUSH2 0x27A8 JUMP JUMPDEST PUSH1 0x20 MUL ADD MLOAD PUSH1 0x80 ADD DUP2 DUP2 MLOAD PUSH2 0x11C5 SWAP2 SWAP1 PUSH2 0x27D4 JUMP JUMPDEST SWAP1 MSTORE POP JUMPDEST PUSH2 0x1483 JUMP JUMPDEST PUSH1 0x1 DUP4 DUP3 PUSH1 0x6 DUP2 LT PUSH2 0x11E2 JUMPI PUSH2 0x11E2 PUSH2 0x27A8 JUMP JUMPDEST PUSH1 0x20 MUL ADD MLOAD PUSH1 0x40 ADD MLOAD PUSH1 0x2 DUP2 GT ISZERO PUSH2 0x11FC JUMPI PUSH2 0x11FC PUSH2 0x245A JUMP JUMPDEST SUB PUSH2 0x120D JUMPI PUSH1 0x2 PUSH2 0x1172 PUSH1 0x5 PUSH2 0x2256 JUMP JUMPDEST PUSH1 0x2 DUP4 DUP3 PUSH1 0x6 DUP2 LT PUSH2 0x1221 JUMPI PUSH2 0x1221 PUSH2 0x27A8 JUMP JUMPDEST PUSH1 0x20 MUL ADD MLOAD PUSH1 0x40 ADD MLOAD PUSH1 0x2 DUP2 GT ISZERO PUSH2 0x123B JUMPI PUSH2 0x123B PUSH2 0x245A JUMP JUMPDEST SUB PUSH2 0x11C9 JUMPI PUSH1 0x2 PUSH2 0x1172 PUSH1 0x3 PUSH2 0x2256 JUMP JUMPDEST PUSH1 0x1 DUP4 DUP4 PUSH1 0x6 DUP2 LT PUSH2 0x1260 JUMPI PUSH2 0x1260 PUSH2 0x27A8 JUMP JUMPDEST PUSH1 0x20 MUL ADD MLOAD PUSH1 0x40 ADD MLOAD PUSH1 0x2 DUP2 GT ISZERO PUSH2 0x127A JUMPI PUSH2 0x127A PUSH2 0x245A JUMP JUMPDEST SUB PUSH2 0x133C JUMPI PUSH1 0x0 DUP4 DUP3 PUSH1 0x6 DUP2 LT PUSH2 0x1293 JUMPI PUSH2 0x1293 PUSH2 0x27A8 JUMP JUMPDEST PUSH1 0x20 MUL ADD MLOAD PUSH1 0x40 ADD MLOAD PUSH1 0x2 DUP2 GT ISZERO PUSH2 0x12AD JUMPI PUSH2 0x12AD PUSH2 0x245A JUMP JUMPDEST SUB PUSH2 0x12BE JUMPI PUSH1 0x2 PUSH2 0x1172 PUSH1 0x2 PUSH2 0x2256 JUMP JUMPDEST PUSH1 0x1 DUP4 DUP3 PUSH1 0x6 DUP2 LT PUSH2 0x12D2 JUMPI PUSH2 0x12D2 PUSH2 0x27A8 JUMP JUMPDEST PUSH1 0x20 MUL ADD MLOAD PUSH1 0x40 ADD MLOAD PUSH1 0x2 DUP2 GT ISZERO PUSH2 0x12EC JUMPI PUSH2 0x12EC PUSH2 0x245A JUMP JUMPDEST SUB PUSH2 0x12FD JUMPI PUSH1 0x2 PUSH2 0x1172 PUSH1 0x6 PUSH2 0x2256 JUMP JUMPDEST PUSH1 0x2 DUP4 DUP3 PUSH1 0x6 DUP2 LT PUSH2 0x1311 JUMPI PUSH2 0x1311 PUSH2 0x27A8 JUMP JUMPDEST PUSH1 0x20 MUL ADD MLOAD PUSH1 0x40 ADD MLOAD PUSH1 0x2 DUP2 GT ISZERO PUSH2 0x132B JUMPI PUSH2 0x132B PUSH2 0x245A JUMP JUMPDEST SUB PUSH2 0x11C9 JUMPI PUSH1 0x2 PUSH2 0x1172 PUSH1 0x7 PUSH2 0x2256 JUMP JUMPDEST PUSH1 0x2 DUP4 DUP4 PUSH1 0x6 DUP2 LT PUSH2 0x1350 JUMPI PUSH2 0x1350 PUSH2 0x27A8 JUMP JUMPDEST PUSH1 0x20 MUL ADD MLOAD PUSH1 0x40 ADD MLOAD PUSH1 0x2 DUP2 GT ISZERO PUSH2 0x136A JUMPI PUSH2 0x136A PUSH2 0x245A JUMP JUMPDEST SUB PUSH2 0x1483 JUMPI PUSH1 0x0 DUP4 DUP3 PUSH1 0x6 DUP2 LT PUSH2 0x1383 JUMPI PUSH2 0x1383 PUSH2 0x27A8 JUMP JUMPDEST PUSH1 0x20 MUL ADD MLOAD PUSH1 0x40 ADD MLOAD PUSH1 0x2 DUP2 GT ISZERO PUSH2 0x139D JUMPI PUSH2 0x139D PUSH2 0x245A JUMP JUMPDEST SUB PUSH2 0x13AE JUMPI PUSH1 0x2 PUSH2 0x1172 PUSH1 0x3 PUSH2 0x2256 JUMP JUMPDEST PUSH1 0x1 DUP4 DUP3 PUSH1 0x6 DUP2 LT PUSH2 0x13C2 JUMPI PUSH2 0x13C2 PUSH2 0x27A8 JUMP JUMPDEST PUSH1 0x20 MUL ADD MLOAD PUSH1 0x40 ADD MLOAD PUSH1 0x2 DUP2 GT ISZERO PUSH2 0x13DC JUMPI PUSH2 0x13DC PUSH2 0x245A JUMP JUMPDEST SUB PUSH2 0x13ED JUMPI PUSH1 0x2 PUSH2 0x1172 PUSH1 0x1 PUSH2 0x2256 JUMP JUMPDEST PUSH1 0x2 DUP4 DUP3 PUSH1 0x6 DUP2 LT PUSH2 0x1401 JUMPI PUSH2 0x1401 PUSH2 0x27A8 JUMP JUMPDEST PUSH1 0x20 MUL ADD MLOAD PUSH1 0x40 ADD MLOAD PUSH1 0x2 DUP2 GT ISZERO PUSH2 0x141B JUMPI PUSH2 0x141B PUSH2 0x245A JUMP JUMPDEST SUB PUSH2 0x1483 JUMPI PUSH1 0x2 PUSH2 0x142C PUSH1 0x4 PUSH2 0x2256 JUMP JUMPDEST PUSH2 0x1436 SWAP2 SWAP1 PUSH2 0x281D JUMP JUMPDEST PUSH1 0x0 SUB PUSH2 0x1483 JUMPI DUP3 DUP3 PUSH1 0x6 DUP2 LT PUSH2 0x144F JUMPI PUSH2 0x144F PUSH2 0x27A8 JUMP JUMPDEST PUSH1 0x20 MUL ADD MLOAD PUSH1 0xA0 ADD MLOAD DUP4 DUP3 PUSH1 0x6 DUP2 LT PUSH2 0x146A JUMPI PUSH2 0x146A PUSH2 0x27A8 JUMP JUMPDEST PUSH1 0x20 MUL ADD MLOAD PUSH1 0x80 ADD DUP2 DUP2 MLOAD PUSH2 0x147F SWAP2 SWAP1 PUSH2 0x27D4 JUMP JUMPDEST SWAP1 MSTORE POP JUMPDEST PUSH1 0xA DUP4 DUP4 PUSH1 0x6 DUP2 LT PUSH2 0x1497 JUMPI PUSH2 0x1497 PUSH2 0x27A8 JUMP JUMPDEST PUSH1 0x20 MUL ADD MLOAD PUSH1 0x80 ADD MLOAD GT PUSH2 0x14EA JUMPI PUSH1 0x3 DUP4 DUP4 PUSH1 0x6 DUP2 LT PUSH2 0x14B9 JUMPI PUSH2 0x14B9 PUSH2 0x27A8 JUMP JUMPDEST PUSH1 0x20 MUL ADD MLOAD PUSH1 0x60 ADD SWAP1 PUSH1 0x3 DUP2 GT ISZERO PUSH2 0x14D3 JUMPI PUSH2 0x14D3 PUSH2 0x245A JUMP JUMPDEST SWAP1 DUP2 PUSH1 0x3 DUP2 GT ISZERO PUSH2 0x14E6 JUMPI PUSH2 0x14E6 PUSH2 0x245A JUMP JUMPDEST SWAP1 MSTORE POP JUMPDEST PUSH1 0xA DUP4 DUP3 PUSH1 0x6 DUP2 LT PUSH2 0x14FE JUMPI PUSH2 0x14FE PUSH2 0x27A8 JUMP JUMPDEST PUSH1 0x20 MUL ADD MLOAD PUSH1 0x80 ADD MLOAD GT PUSH2 0x1551 JUMPI PUSH1 0x3 DUP4 DUP3 PUSH1 0x6 DUP2 LT PUSH2 0x1520 JUMPI PUSH2 0x1520 PUSH2 0x27A8 JUMP JUMPDEST PUSH1 0x20 MUL ADD MLOAD PUSH1 0x60 ADD SWAP1 PUSH1 0x3 DUP2 GT ISZERO PUSH2 0x153A JUMPI PUSH2 0x153A PUSH2 0x245A JUMP JUMPDEST SWAP1 DUP2 PUSH1 0x3 DUP2 GT ISZERO PUSH2 0x154D JUMPI PUSH2 0x154D PUSH2 0x245A JUMP JUMPDEST SWAP1 MSTORE POP JUMPDEST DUP1 PUSH2 0x155B DUP2 PUSH2 0x27ED JUMP JUMPDEST SWAP2 POP POP PUSH2 0xF84 JUMP JUMPDEST POP JUMPDEST DUP1 PUSH2 0x156F DUP2 PUSH2 0x27ED JUMP JUMPDEST SWAP2 POP POP PUSH2 0xCF2 JUMP JUMPDEST POP PUSH1 0x1 PUSH1 0x0 JUMPDEST PUSH1 0x6 DUP2 LT ISZERO PUSH2 0x15D0 JUMPI PUSH1 0x3 DUP4 DUP3 PUSH1 0x6 DUP2 LT PUSH2 0x159A JUMPI PUSH2 0x159A PUSH2 0x27A8 JUMP JUMPDEST PUSH1 0x20 MUL ADD MLOAD PUSH1 0x60 ADD MLOAD PUSH1 0x3 DUP2 GT ISZERO PUSH2 0x15B4 JUMPI PUSH2 0x15B4 PUSH2 0x245A JUMP JUMPDEST EQ PUSH2 0x15BE JUMPI PUSH1 0x0 SWAP2 POP JUMPDEST DUP1 PUSH2 0x15C8 DUP2 PUSH2 0x27ED JUMP JUMPDEST SWAP2 POP POP PUSH2 0x157D JUMP JUMPDEST POP DUP1 ISZERO PUSH2 0x15F4 JUMPI PUSH1 0x0 DUP4 DUP2 MSTORE PUSH1 0x4 PUSH1 0x20 MSTORE PUSH1 0x40 SWAP1 KECCAK256 PUSH1 0xB ADD DUP1 SLOAD PUSH1 0xFF NOT AND PUSH1 0x3 OR SWAP1 SSTORE JUMPDEST PUSH1 0x0 JUMPDEST PUSH1 0x6 DUP2 LT ISZERO PUSH2 0x1740 JUMPI DUP3 DUP2 PUSH1 0x6 DUP2 LT PUSH2 0x1612 JUMPI PUSH2 0x1612 PUSH2 0x27A8 JUMP JUMPDEST PUSH1 0x20 MUL ADD MLOAD PUSH1 0x3 PUSH1 0x0 DUP6 DUP5 PUSH1 0x6 DUP2 LT PUSH2 0x162D JUMPI PUSH2 0x162D PUSH2 0x27A8 JUMP JUMPDEST PUSH1 0x20 SWAP1 DUP2 MUL SWAP2 SWAP1 SWAP2 ADD MLOAD MLOAD DUP3 MSTORE DUP2 DUP2 ADD SWAP3 SWAP1 SWAP3 MSTORE PUSH1 0x40 SWAP1 DUP2 ADD PUSH1 0x0 KECCAK256 DUP4 MLOAD DUP2 SSTORE SWAP2 DUP4 ADD MLOAD PUSH1 0x1 DUP4 ADD DUP1 SLOAD PUSH1 0x1 PUSH1 0x1 PUSH1 0xA0 SHL SUB SWAP1 SWAP3 AND PUSH1 0x1 PUSH1 0x1 PUSH1 0xA0 SHL SUB NOT DUP4 AND DUP2 OR DUP3 SSTORE SWAP3 DUP6 ADD MLOAD SWAP3 SWAP1 SWAP2 PUSH1 0x1 PUSH1 0x1 PUSH1 0xA8 SHL SUB NOT AND OR PUSH1 0x1 PUSH1 0xA0 SHL DUP4 PUSH1 0x2 DUP2 GT ISZERO PUSH2 0x169A JUMPI PUSH2 0x169A PUSH2 0x245A JUMP JUMPDEST MUL OR SWAP1 SSTORE POP PUSH1 0x60 DUP3 ADD MLOAD PUSH1 0x1 DUP3 ADD DUP1 SLOAD PUSH1 0xFF PUSH1 0xA8 SHL NOT AND PUSH1 0x1 PUSH1 0xA8 SHL DUP4 PUSH1 0x3 DUP2 GT ISZERO PUSH2 0x16C8 JUMPI PUSH2 0x16C8 PUSH2 0x245A JUMP JUMPDEST MUL OR SWAP1 SSTORE POP PUSH1 0x80 DUP3 ADD MLOAD PUSH1 0x2 DUP3 ADD SSTORE PUSH1 0xA0 DUP3 ADD MLOAD PUSH1 0x3 DUP3 ADD SSTORE PUSH1 0xC0 DUP3 ADD MLOAD PUSH1 0x4 DUP3 ADD SSTORE PUSH1 0xE0 DUP3 ADD MLOAD PUSH1 0x5 DUP3 ADD SSTORE PUSH2 0x100 DUP3 ADD MLOAD PUSH1 0x6 DUP3 ADD SSTORE PUSH2 0x120 DUP3 ADD MLOAD PUSH1 0x7 DUP3 ADD SSTORE PUSH2 0x140 DUP3 ADD MLOAD PUSH1 0x8 DUP3 ADD SSTORE PUSH2 0x160 DUP3 ADD MLOAD PUSH1 0x9 DUP3 ADD SSTORE PUSH2 0x180 SWAP1 SWAP2 ADD MLOAD PUSH1 0xA SWAP1 SWAP2 ADD SSTORE DUP1 PUSH2 0x1738 DUP2 PUSH2 0x27ED JUMP JUMPDEST SWAP2 POP POP PUSH2 0x15F7 JUMP JUMPDEST POP POP POP POP JUMP JUMPDEST PUSH1 0x4 PUSH1 0x20 SWAP1 DUP2 MSTORE PUSH1 0x0 SWAP2 DUP3 MSTORE PUSH1 0x40 SWAP2 DUP3 SWAP1 KECCAK256 DUP1 SLOAD DUP4 MLOAD PUSH1 0x80 DUP2 ADD SWAP1 SWAP5 MSTORE PUSH1 0x1 DUP3 ADD DUP1 SLOAD PUSH1 0x1 PUSH1 0x1 PUSH1 0xA0 SHL SUB DUP2 AND DUP7 MSTORE SWAP2 SWAP5 SWAP3 SWAP4 SWAP1 SWAP2 SWAP1 DUP4 ADD SWAP1 PUSH1 0x1 PUSH1 0xA0 SHL SWAP1 DIV PUSH1 0xFF AND PUSH1 0x3 DUP2 GT ISZERO PUSH2 0x179A JUMPI PUSH2 0x179A PUSH2 0x245A JUMP JUMPDEST PUSH1 0x3 DUP2 GT ISZERO PUSH2 0x17AB JUMPI PUSH2 0x17AB PUSH2 0x245A JUMP JUMPDEST DUP2 MSTORE PUSH1 0x40 DUP1 MLOAD PUSH1 0x60 DUP2 ADD SWAP2 DUP3 SWAP1 MSTORE PUSH1 0x20 SWAP1 SWAP3 ADD SWAP2 SWAP1 PUSH1 0x1 DUP5 ADD SWAP1 PUSH1 0x3 SWAP1 DUP3 DUP5 JUMPDEST DUP2 SLOAD DUP2 MSTORE PUSH1 0x20 ADD SWAP1 PUSH1 0x1 ADD SWAP1 DUP1 DUP4 GT PUSH2 0x17CB JUMPI POP POP POP SWAP2 DUP4 MSTORE POP POP PUSH1 0x4 SWAP2 SWAP1 SWAP2 ADD SLOAD PUSH1 0x20 SWAP2 DUP3 ADD MSTORE PUSH1 0x40 DUP1 MLOAD PUSH1 0x80 DUP2 ADD SWAP1 SWAP2 MSTORE PUSH1 0x6 DUP5 ADD DUP1 SLOAD PUSH1 0x1 PUSH1 0x1 PUSH1 0xA0 SHL SUB DUP2 AND DUP4 MSTORE SWAP4 SWAP5 SWAP4 SWAP2 SWAP3 SWAP1 SWAP2 SWAP1 DUP4 ADD SWAP1 PUSH1 0x1 PUSH1 0xA0 SHL SWAP1 DIV PUSH1 0xFF AND PUSH1 0x3 DUP2 GT ISZERO PUSH2 0x1836 JUMPI PUSH2 0x1836 PUSH2 0x245A JUMP JUMPDEST PUSH1 0x3 DUP2 GT ISZERO PUSH2 0x1847 JUMPI PUSH2 0x1847 PUSH2 0x245A JUMP JUMPDEST DUP2 MSTORE PUSH1 0x40 DUP1 MLOAD PUSH1 0x60 DUP2 ADD SWAP2 DUP3 SWAP1 MSTORE PUSH1 0x20 SWAP1 SWAP3 ADD SWAP2 SWAP1 PUSH1 0x1 DUP5 ADD SWAP1 PUSH1 0x3 SWAP1 DUP3 DUP5 JUMPDEST DUP2 SLOAD DUP2 MSTORE PUSH1 0x20 ADD SWAP1 PUSH1 0x1 ADD SWAP1 DUP1 DUP4 GT PUSH2 0x1867 JUMPI POP POP POP SWAP2 DUP4 MSTORE POP POP PUSH1 0x4 SWAP2 SWAP1 SWAP2 ADD SLOAD PUSH1 0x20 SWAP1 SWAP2 ADD MSTORE PUSH1 0xB DUP3 ADD SLOAD PUSH1 0xC SWAP1 SWAP3 ADD SLOAD SWAP1 SWAP2 PUSH1 0xFF AND SWAP1 DUP6 JUMP JUMPDEST PUSH2 0x18AB PUSH2 0x22E6 JUMP JUMPDEST PUSH1 0x1 PUSH1 0x0 DUP4 DUP2 MSTORE PUSH1 0x4 PUSH1 0x20 MSTORE PUSH1 0x40 SWAP1 KECCAK256 PUSH1 0xB ADD SLOAD PUSH1 0xFF AND PUSH1 0x3 DUP2 GT ISZERO PUSH2 0x18D3 JUMPI PUSH2 0x18D3 PUSH2 0x245A JUMP JUMPDEST EQ PUSH2 0x1912 JUMPI PUSH1 0x40 MLOAD PUSH3 0x461BCD PUSH1 0xE5 SHL DUP2 MSTORE PUSH1 0x20 PUSH1 0x4 DUP3 ADD MSTORE PUSH1 0xF PUSH1 0x24 DUP3 ADD MSTORE PUSH15 0x125B9D985B1A590813585D18DA1259 PUSH1 0x8A SHL PUSH1 0x44 DUP3 ADD MSTORE PUSH1 0x64 ADD PUSH2 0x2B2 JUMP JUMPDEST PUSH1 0x0 DUP3 DUP2 MSTORE PUSH1 0x4 PUSH1 0x20 MSTORE PUSH1 0x40 SWAP1 KECCAK256 PUSH1 0x1 ADD SLOAD CALLER PUSH1 0x1 PUSH1 0x1 PUSH1 0xA0 SHL SUB SWAP1 SWAP2 AND SUB PUSH2 0x197D JUMPI PUSH1 0x40 MLOAD PUSH3 0x461BCD PUSH1 0xE5 SHL DUP2 MSTORE PUSH1 0x20 PUSH1 0x4 DUP3 ADD MSTORE PUSH1 0x1A PUSH1 0x24 DUP3 ADD MSTORE PUSH32 0x596F752063616E277420626174746C6520796F757273656C662E000000000000 PUSH1 0x44 DUP3 ADD MSTORE PUSH1 0x64 ADD PUSH2 0x2B2 JUMP JUMPDEST PUSH1 0x0 CALLER PUSH1 0x0 SWAP1 DUP2 MSTORE PUSH1 0x2 PUSH1 0x20 MSTORE PUSH1 0x40 SWAP1 KECCAK256 SLOAD PUSH1 0x1 PUSH1 0xA0 SHL SWAP1 DIV PUSH1 0xFF AND PUSH1 0x3 DUP2 GT ISZERO PUSH2 0x19AA JUMPI PUSH2 0x19AA PUSH2 0x245A JUMP JUMPDEST SUB PUSH2 0x19B9 JUMPI PUSH2 0x19B7 PUSH2 0x1BFE JUMP JUMPDEST POP JUMPDEST CALLER PUSH1 0x0 SWAP1 DUP2 MSTORE PUSH1 0x2 PUSH1 0x20 SWAP1 DUP2 MSTORE PUSH1 0x40 DUP1 DUP4 KECCAK256 DUP6 DUP5 MSTORE PUSH1 0x4 SWAP1 SWAP3 MSTORE SWAP1 SWAP2 KECCAK256 DUP2 SLOAD PUSH1 0x6 SWAP1 SWAP2 ADD DUP1 SLOAD PUSH1 0x1 PUSH1 0x1 PUSH1 0xA0 SHL SUB NOT DUP2 AND PUSH1 0x1 PUSH1 0x1 PUSH1 0xA0 SHL SUB SWAP4 SWAP1 SWAP4 AND SWAP3 DUP4 OR DUP3 SSTORE DUP4 SLOAD SWAP2 SWAP3 PUSH1 0xFF PUSH1 0x1 PUSH1 0xA0 SHL SWAP4 DUP5 SWAP1 DIV AND SWAP3 DUP5 SWAP3 PUSH1 0x1 PUSH1 0x1 PUSH1 0xA8 SHL SUB NOT AND SWAP1 SWAP2 OR SWAP1 DUP4 PUSH1 0x3 DUP2 GT ISZERO PUSH2 0x1A2E JUMPI PUSH2 0x1A2E PUSH2 0x245A JUMP JUMPDEST MUL OR SWAP1 SSTORE POP PUSH2 0x1A45 PUSH1 0x1 DUP3 DUP2 ADD SWAP1 DUP5 ADD PUSH1 0x3 PUSH2 0x2360 JUMP JUMPDEST POP PUSH1 0x4 SWAP2 DUP3 ADD SLOAD SWAP1 DUP3 ADD SSTORE PUSH1 0x0 DUP4 DUP2 MSTORE PUSH1 0x20 SWAP2 DUP3 MSTORE PUSH1 0x40 SWAP1 DUP2 SWAP1 KECCAK256 PUSH1 0xB DUP2 ADD DUP1 SLOAD PUSH1 0xFF NOT AND PUSH1 0x2 OR SWAP1 SSTORE DUP2 MLOAD PUSH1 0xA0 DUP2 ADD DUP4 MSTORE DUP2 SLOAD DUP2 MSTORE DUP3 MLOAD PUSH1 0x80 DUP2 ADD SWAP1 SWAP4 MSTORE PUSH1 0x1 DUP3 ADD DUP1 SLOAD PUSH1 0x1 PUSH1 0x1 PUSH1 0xA0 SHL SUB DUP2 AND DUP6 MSTORE SWAP2 SWAP5 SWAP3 SWAP4 DUP6 DUP5 ADD SWAP4 SWAP1 SWAP3 SWAP1 DUP4 ADD SWAP1 PUSH1 0xFF PUSH1 0x1 PUSH1 0xA0 SHL SWAP1 SWAP2 DIV AND PUSH1 0x3 DUP2 GT ISZERO PUSH2 0x1AC0 JUMPI PUSH2 0x1AC0 PUSH2 0x245A JUMP JUMPDEST PUSH1 0x3 DUP2 GT ISZERO PUSH2 0x1AD1 JUMPI PUSH2 0x1AD1 PUSH2 0x245A JUMP JUMPDEST DUP2 MSTORE PUSH1 0x40 DUP1 MLOAD PUSH1 0x60 DUP2 ADD SWAP2 DUP3 SWAP1 MSTORE PUSH1 0x20 SWAP1 SWAP3 ADD SWAP2 SWAP1 PUSH1 0x1 DUP5 ADD SWAP1 PUSH1 0x3 SWAP1 DUP3 DUP5 JUMPDEST DUP2 SLOAD DUP2 MSTORE PUSH1 0x20 ADD SWAP1 PUSH1 0x1 ADD SWAP1 DUP1 DUP4 GT PUSH2 0x1AF1 JUMPI POP POP POP SWAP2 DUP4 MSTORE POP POP PUSH1 0x4 SWAP2 SWAP1 SWAP2 ADD SLOAD PUSH1 0x20 SWAP2 DUP3 ADD MSTORE SWAP1 DUP3 MSTORE PUSH1 0x40 DUP1 MLOAD PUSH1 0x80 DUP2 ADD SWAP1 SWAP2 MSTORE PUSH1 0x6 DUP5 ADD DUP1 SLOAD PUSH1 0x1 PUSH1 0x1 PUSH1 0xA0 SHL SUB DUP2 AND DUP4 MSTORE SWAP4 DUP4 ADD SWAP4 SWAP2 SWAP3 SWAP1 SWAP2 SWAP1 DUP4 ADD SWAP1 PUSH1 0x1 PUSH1 0xA0 SHL SWAP1 DIV PUSH1 0xFF AND PUSH1 0x3 DUP2 GT ISZERO PUSH2 0x1B60 JUMPI PUSH2 0x1B60 PUSH2 0x245A JUMP JUMPDEST PUSH1 0x3 DUP2 GT ISZERO PUSH2 0x1B71 JUMPI PUSH2 0x1B71 PUSH2 0x245A JUMP JUMPDEST DUP2 MSTORE PUSH1 0x40 DUP1 MLOAD PUSH1 0x60 DUP2 ADD SWAP2 DUP3 SWAP1 MSTORE PUSH1 0x20 SWAP1 SWAP3 ADD SWAP2 SWAP1 PUSH1 0x1 DUP5 ADD SWAP1 PUSH1 0x3 SWAP1 DUP3 DUP5 JUMPDEST DUP2 SLOAD DUP2 MSTORE PUSH1 0x20 ADD SWAP1 PUSH1 0x1 ADD SWAP1 DUP1 DUP4 GT PUSH2 0x1B91 JUMPI POP POP POP SWAP2 DUP4 MSTORE POP POP PUSH1 0x4 SWAP2 SWAP1 SWAP2 ADD SLOAD PUSH1 0x20 SWAP2 DUP3 ADD MSTORE SWAP1 DUP3 MSTORE PUSH1 0xB DUP4 ADD SLOAD SWAP2 ADD SWAP1 PUSH1 0xFF AND PUSH1 0x3 DUP2 GT ISZERO PUSH2 0x1BD8 JUMPI PUSH2 0x1BD8 PUSH2 0x245A JUMP JUMPDEST PUSH1 0x3 DUP2 GT ISZERO PUSH2 0x1BE9 JUMPI PUSH2 0x1BE9 PUSH2 0x245A JUMP JUMPDEST DUP2 MSTORE PUSH1 0x20 ADD PUSH1 0xC DUP3 ADD SLOAD DUP2 MSTORE POP POP SWAP1 POP SWAP2 SWAP1 POP JUMP JUMPDEST PUSH2 0x1C06 PUSH2 0x238B JUMP JUMPDEST CALLER PUSH1 0x0 DUP2 DUP2 MSTORE PUSH1 0x2 PUSH1 0x20 MSTORE PUSH1 0x40 SWAP1 KECCAK256 SLOAD PUSH1 0x1 PUSH1 0x1 PUSH1 0xA0 SHL SUB AND SUB PUSH2 0x1C6C JUMPI PUSH1 0x40 MLOAD PUSH3 0x461BCD PUSH1 0xE5 SHL DUP2 MSTORE PUSH1 0x20 PUSH1 0x4 DUP3 ADD MSTORE PUSH1 0x1B PUSH1 0x24 DUP3 ADD MSTORE PUSH32 0x506C6179657220616C726561647920696E697469616C697A65642E0000000000 PUSH1 0x44 DUP3 ADD MSTORE PUSH1 0x64 ADD PUSH2 0x2B2 JUMP JUMPDEST PUSH2 0x1C74 PUSH2 0x23A6 JUMP JUMPDEST PUSH1 0x40 DUP1 MLOAD PUSH2 0x1A0 DUP2 ADD DUP3 MSTORE PUSH1 0x1 DUP1 SLOAD DUP1 DUP4 MSTORE CALLER PUSH1 0x20 DUP1 DUP6 ADD SWAP2 DUP3 MSTORE PUSH1 0x0 DUP6 DUP8 ADD DUP2 DUP2 MSTORE PUSH1 0x60 DUP8 ADD DUP3 SWAP1 MSTORE PUSH1 0x14 PUSH1 0x80 DUP9 ADD MSTORE PUSH1 0xA0 DUP8 ADD DUP7 SWAP1 MSTORE PUSH1 0xC0 DUP8 ADD DUP3 SWAP1 MSTORE PUSH1 0xE0 DUP8 ADD DUP3 SWAP1 MSTORE PUSH1 0x2 PUSH2 0x100 DUP9 ADD DUP2 SWAP1 MSTORE PUSH2 0x120 DUP9 ADD DUP4 SWAP1 MSTORE PUSH2 0x140 DUP9 ADD DUP2 SWAP1 MSTORE PUSH2 0x160 DUP9 ADD DUP4 SWAP1 MSTORE PUSH2 0x180 DUP9 ADD DUP4 SWAP1 MSTORE SWAP5 DUP3 MSTORE PUSH1 0x3 SWAP1 SWAP3 MSTORE SWAP6 SWAP1 SWAP6 KECCAK256 DUP5 MLOAD DUP2 SSTORE SWAP1 MLOAD SWAP3 DUP2 ADD DUP1 SLOAD PUSH1 0x1 PUSH1 0x1 PUSH1 0xA0 SHL SUB SWAP1 SWAP5 AND PUSH1 0x1 PUSH1 0x1 PUSH1 0xA0 SHL SUB NOT DUP6 AND DUP2 OR DUP3 SSTORE SWAP6 MLOAD SWAP5 SWAP6 DUP7 SWAP6 SWAP3 SWAP5 SWAP3 SWAP4 SWAP2 SWAP3 PUSH1 0x1 PUSH1 0x1 PUSH1 0xA8 SHL SUB NOT AND OR SWAP1 PUSH1 0x1 PUSH1 0xA0 SHL SWAP1 DUP5 SWAP1 DUP2 GT ISZERO PUSH2 0x1D44 JUMPI PUSH2 0x1D44 PUSH2 0x245A JUMP JUMPDEST MUL OR SWAP1 SSTORE POP PUSH1 0x60 DUP3 ADD MLOAD PUSH1 0x1 DUP3 ADD DUP1 SLOAD PUSH1 0xFF PUSH1 0xA8 SHL NOT AND PUSH1 0x1 PUSH1 0xA8 SHL DUP4 PUSH1 0x3 DUP2 GT ISZERO PUSH2 0x1D72 JUMPI PUSH2 0x1D72 PUSH2 0x245A JUMP JUMPDEST MUL OR SWAP1 SSTORE POP PUSH1 0x80 DUP3 ADD MLOAD PUSH1 0x2 DUP3 ADD SSTORE PUSH1 0xA0 DUP3 ADD MLOAD PUSH1 0x3 DUP3 ADD SSTORE PUSH1 0xC0 DUP3 ADD MLOAD PUSH1 0x4 DUP3 ADD SSTORE PUSH1 0xE0 DUP3 ADD MLOAD PUSH1 0x5 DUP3 ADD SSTORE PUSH2 0x100 DUP3 ADD MLOAD PUSH1 0x6 DUP3 ADD SSTORE PUSH2 0x120 DUP3 ADD MLOAD PUSH1 0x7 DUP3 ADD SSTORE PUSH2 0x140 DUP3 ADD MLOAD PUSH1 0x8 DUP3 ADD SSTORE PUSH2 0x160 DUP3 ADD MLOAD PUSH1 0x9 DUP3 ADD SSTORE PUSH2 0x180 SWAP1 SWAP2 ADD MLOAD PUSH1 0xA SWAP1 SWAP2 ADD SSTORE PUSH1 0x1 DUP1 SLOAD DUP1 DUP5 MSTORE SWAP1 PUSH1 0x0 PUSH2 0x1DEB DUP4 PUSH2 0x27ED JUMP JUMPDEST SWAP1 SWAP2 SSTORE POP POP PUSH1 0x40 DUP1 MLOAD PUSH2 0x1A0 DUP2 ADD DUP3 MSTORE PUSH1 0x1 DUP1 SLOAD DUP1 DUP4 MSTORE CALLER PUSH1 0x20 DUP1 DUP6 ADD SWAP2 DUP3 MSTORE DUP5 DUP7 ADD DUP5 DUP2 MSTORE PUSH1 0x0 PUSH1 0x60 DUP8 ADD DUP2 SWAP1 MSTORE PUSH1 0x19 PUSH1 0x80 DUP9 ADD MSTORE PUSH1 0x2 PUSH1 0xA0 DUP9 ADD DUP2 SWAP1 MSTORE PUSH1 0xC0 DUP9 ADD DUP3 SWAP1 MSTORE PUSH1 0xE0 DUP9 ADD DUP3 SWAP1 MSTORE PUSH1 0x5 PUSH2 0x100 DUP10 ADD DUP2 SWAP1 MSTORE PUSH2 0x120 DUP10 ADD DUP4 SWAP1 MSTORE PUSH2 0x140 DUP10 ADD MSTORE PUSH2 0x160 DUP9 ADD DUP3 SWAP1 MSTORE PUSH2 0x180 DUP9 ADD DUP3 SWAP1 MSTORE SWAP5 DUP2 MSTORE PUSH1 0x3 SWAP1 SWAP3 MSTORE SWAP6 SWAP1 KECCAK256 DUP5 MLOAD DUP2 SSTORE SWAP1 MLOAD SWAP3 DUP2 ADD DUP1 SLOAD PUSH1 0x1 PUSH1 0x1 PUSH1 0xA0 SHL SUB SWAP1 SWAP5 AND PUSH1 0x1 PUSH1 0x1 PUSH1 0xA0 SHL SUB NOT DUP6 AND DUP2 OR DUP3 SSTORE SWAP6 MLOAD SWAP5 SWAP6 DUP7 SWAP6 SWAP3 SWAP5 SWAP3 SWAP4 SWAP2 SWAP3 PUSH1 0x1 PUSH1 0x1 PUSH1 0xA8 SHL SUB NOT AND OR SWAP1 PUSH1 0x1 PUSH1 0xA0 SHL SWAP1 DUP5 SWAP1 DUP2 GT ISZERO PUSH2 0x1EBF JUMPI PUSH2 0x1EBF PUSH2 0x245A JUMP JUMPDEST MUL OR SWAP1 SSTORE POP PUSH1 0x60 DUP3 ADD MLOAD PUSH1 0x1 DUP3 ADD DUP1 SLOAD PUSH1 0xFF PUSH1 0xA8 SHL NOT AND PUSH1 0x1 PUSH1 0xA8 SHL DUP4 PUSH1 0x3 DUP2 GT ISZERO PUSH2 0x1EED JUMPI PUSH2 0x1EED PUSH2 0x245A JUMP JUMPDEST MUL OR SWAP1 SSTORE POP PUSH1 0x80 DUP3 ADD MLOAD PUSH1 0x2 DUP3 ADD SSTORE PUSH1 0xA0 DUP3 ADD MLOAD PUSH1 0x3 DUP3 ADD SSTORE PUSH1 0xC0 DUP3 ADD MLOAD PUSH1 0x4 DUP3 ADD SSTORE PUSH1 0xE0 DUP3 ADD MLOAD PUSH1 0x5 DUP3 ADD SSTORE PUSH2 0x100 DUP3 ADD MLOAD PUSH1 0x6 DUP3 ADD SSTORE PUSH2 0x120 DUP3 ADD MLOAD PUSH1 0x7 DUP3 ADD SSTORE PUSH2 0x140 DUP3 ADD MLOAD PUSH1 0x8 DUP3 ADD SSTORE PUSH2 0x160 DUP3 ADD MLOAD PUSH1 0x9 DUP3 ADD SSTORE PUSH2 0x180 SWAP1 SWAP2 ADD MLOAD PUSH1 0xA SWAP1 SWAP2 ADD SSTORE PUSH1 0x1 DUP1 SLOAD PUSH1 0x20 DUP6 ADD DUP2 SWAP1 MSTORE SWAP1 PUSH1 0x0 PUSH2 0x1F6A DUP4 PUSH2 0x27ED JUMP JUMPDEST SWAP1 SWAP2 SSTORE POP POP PUSH1 0x40 DUP1 MLOAD PUSH2 0x1A0 DUP2 ADD DUP3 MSTORE PUSH1 0x1 SLOAD DUP2 MSTORE CALLER PUSH1 0x20 DUP3 ADD MSTORE PUSH1 0x0 SWAP2 DUP2 ADD PUSH1 0x2 DUP2 MSTORE PUSH1 0x20 ADD PUSH1 0x0 DUP2 MSTORE PUSH1 0xF PUSH1 0x20 DUP1 DUP4 ADD SWAP2 SWAP1 SWAP2 MSTORE PUSH1 0x3 PUSH1 0x40 DUP1 DUP5 ADD DUP3 SWAP1 MSTORE PUSH1 0x0 PUSH1 0x60 DUP6 ADD DUP2 SWAP1 MSTORE PUSH1 0x80 DUP6 ADD DUP2 SWAP1 MSTORE PUSH1 0x8 PUSH1 0xA0 DUP7 ADD DUP2 SWAP1 MSTORE PUSH1 0xC0 DUP7 ADD DUP3 SWAP1 MSTORE PUSH1 0xE0 DUP7 ADD MSTORE PUSH2 0x100 DUP6 ADD DUP2 SWAP1 MSTORE PUSH2 0x120 SWAP1 SWAP5 ADD DUP5 SWAP1 MSTORE PUSH1 0x1 DUP1 SLOAD DUP6 MSTORE SWAP2 DUP4 MSTORE SWAP3 DUP4 SWAP1 KECCAK256 DUP5 MLOAD DUP2 SSTORE SWAP2 DUP5 ADD MLOAD SWAP1 DUP3 ADD DUP1 SLOAD PUSH1 0x1 PUSH1 0x1 PUSH1 0xA0 SHL SUB SWAP1 SWAP3 AND PUSH1 0x1 PUSH1 0x1 PUSH1 0xA0 SHL SUB NOT DUP4 AND DUP2 OR DUP3 SSTORE SWAP4 DUP6 ADD MLOAD SWAP5 SWAP6 POP DUP6 SWAP5 SWAP3 SWAP4 SWAP1 SWAP2 PUSH1 0x1 PUSH1 0x1 PUSH1 0xA8 SHL SUB NOT AND OR PUSH1 0x1 PUSH1 0xA0 SHL DUP4 PUSH1 0x2 DUP2 GT ISZERO PUSH2 0x2043 JUMPI PUSH2 0x2043 PUSH2 0x245A JUMP JUMPDEST MUL OR SWAP1 SSTORE POP PUSH1 0x60 DUP3 ADD MLOAD PUSH1 0x1 DUP3 ADD DUP1 SLOAD PUSH1 0xFF PUSH1 0xA8 SHL NOT AND PUSH1 0x1 PUSH1 0xA8 SHL DUP4 PUSH1 0x3 DUP2 GT ISZERO PUSH2 0x2071 JUMPI PUSH2 0x2071 PUSH2 0x245A JUMP JUMPDEST MUL OR SWAP1 SSTORE POP PUSH1 0x80 DUP3 ADD MLOAD DUP2 PUSH1 0x2 ADD SSTORE PUSH1 0xA0 DUP3 ADD MLOAD DUP2 PUSH1 0x3 ADD SSTORE PUSH1 0xC0 DUP3 ADD MLOAD DUP2 PUSH1 0x4 ADD SSTORE PUSH1 0xE0 DUP3 ADD MLOAD DUP2 PUSH1 0x5 ADD SSTORE PUSH2 0x100 DUP3 ADD MLOAD DUP2 PUSH1 0x6 ADD SSTORE PUSH2 0x120 DUP3 ADD MLOAD DUP2 PUSH1 0x7 ADD SSTORE PUSH2 0x140 DUP3 ADD MLOAD DUP2 PUSH1 0x8 ADD SSTORE PUSH2 0x160 DUP3 ADD MLOAD DUP2 PUSH1 0x9 ADD SSTORE PUSH2 0x180 DUP3 ADD MLOAD DUP2 PUSH1 0xA ADD SSTORE SWAP1 POP POP PUSH1 0x1 SLOAD DUP5 PUSH1 0x2 PUSH1 0x3 DUP2 LT PUSH2 0x20EE JUMPI PUSH2 0x20EE PUSH2 0x27A8 JUMP JUMPDEST PUSH1 0x20 MUL ADD MSTORE PUSH1 0x1 DUP1 SLOAD SWAP1 PUSH1 0x0 PUSH2 0x2103 DUP4 PUSH2 0x27ED JUMP JUMPDEST SWAP1 SWAP2 SSTORE POP POP PUSH1 0x40 DUP1 MLOAD PUSH1 0x80 DUP2 ADD DUP3 MSTORE CALLER DUP1 DUP3 MSTORE PUSH1 0x1 PUSH1 0x20 DUP1 DUP5 ADD SWAP2 DUP3 MSTORE DUP4 DUP6 ADD DUP10 SWAP1 MSTORE PUSH1 0x0 PUSH1 0x60 DUP6 ADD DUP2 SWAP1 MSTORE SWAP3 DUP4 MSTORE PUSH1 0x2 SWAP1 MSTORE SWAP3 SWAP1 KECCAK256 DUP2 MLOAD DUP2 SLOAD PUSH1 0x1 PUSH1 0x1 PUSH1 0xA0 SHL SUB NOT DUP2 AND PUSH1 0x1 PUSH1 0x1 PUSH1 0xA0 SHL SUB SWAP1 SWAP3 AND SWAP2 DUP3 OR DUP4 SSTORE SWAP4 MLOAD SWAP3 SWAP4 DUP5 SWAP4 SWAP2 DUP4 SWAP2 PUSH1 0x1 PUSH1 0x1 PUSH1 0xA8 SHL SUB NOT AND OR PUSH1 0x1 PUSH1 0xA0 SHL DUP4 PUSH1 0x3 DUP2 GT ISZERO PUSH2 0x2183 JUMPI PUSH2 0x2183 PUSH2 0x245A JUMP JUMPDEST MUL OR SWAP1 SSTORE POP PUSH1 0x40 DUP3 ADD MLOAD PUSH2 0x219D SWAP1 PUSH1 0x1 DUP4 ADD SWAP1 PUSH1 0x3 PUSH2 0x2322 JUMP JUMPDEST POP PUSH1 0x60 SWAP2 SWAP1 SWAP2 ADD MLOAD PUSH1 0x4 SWAP1 SWAP2 ADD SSTORE CALLER PUSH1 0x0 SWAP1 DUP2 MSTORE PUSH1 0x2 PUSH1 0x20 SWAP1 DUP2 MSTORE PUSH1 0x40 SWAP2 DUP3 SWAP1 KECCAK256 DUP3 MLOAD PUSH1 0x80 DUP2 ADD SWAP1 SWAP4 MSTORE DUP1 SLOAD PUSH1 0x1 PUSH1 0x1 PUSH1 0xA0 SHL SUB DUP2 AND DUP5 MSTORE SWAP1 SWAP2 DUP4 ADD SWAP1 PUSH1 0x1 PUSH1 0xA0 SHL SWAP1 DIV PUSH1 0xFF AND PUSH1 0x3 DUP2 GT ISZERO PUSH2 0x21F5 JUMPI PUSH2 0x21F5 PUSH2 0x245A JUMP JUMPDEST PUSH1 0x3 DUP2 GT ISZERO PUSH2 0x2206 JUMPI PUSH2 0x2206 PUSH2 0x245A JUMP JUMPDEST DUP2 MSTORE PUSH1 0x40 DUP1 MLOAD PUSH1 0x60 DUP2 ADD SWAP2 DUP3 SWAP1 MSTORE PUSH1 0x20 SWAP1 SWAP3 ADD SWAP2 SWAP1 PUSH1 0x1 DUP5 ADD SWAP1 PUSH1 0x3 SWAP1 DUP3 DUP5 JUMPDEST DUP2 SLOAD DUP2 MSTORE PUSH1 0x20 ADD SWAP1 PUSH1 0x1 ADD SWAP1 DUP1 DUP4 GT PUSH2 0x2226 JUMPI POP POP POP POP POP DUP2 MSTORE PUSH1 0x20 ADD PUSH1 0x4 DUP3 ADD SLOAD DUP2 MSTORE POP POP SWAP6 POP POP POP POP POP POP SWAP1 JUMP JUMPDEST PUSH1 0x40 DUP1 MLOAD DIFFICULTY PUSH1 0x20 DUP1 DUP4 ADD SWAP2 SWAP1 SWAP2 MSTORE TIMESTAMP DUP3 DUP5 ADD MSTORE PUSH1 0x60 DUP1 DUP4 ADD SWAP5 SWAP1 SWAP5 MSTORE DUP3 MLOAD DUP1 DUP4 SUB SWAP1 SWAP5 ADD DUP5 MSTORE PUSH1 0x80 SWAP1 SWAP2 ADD SWAP1 SWAP2 MSTORE DUP2 MLOAD SWAP2 ADD KECCAK256 SWAP1 JUMP JUMPDEST PUSH1 0x40 MLOAD DUP1 PUSH1 0xC0 ADD PUSH1 0x40 MSTORE DUP1 PUSH1 0x6 SWAP1 JUMPDEST PUSH2 0x22A3 PUSH2 0x23C4 JUMP JUMPDEST DUP2 MSTORE PUSH1 0x20 ADD SWAP1 PUSH1 0x1 SWAP1 SUB SWAP1 DUP2 PUSH2 0x229B JUMPI SWAP1 POP POP SWAP1 JUMP JUMPDEST PUSH1 0x40 MLOAD DUP1 PUSH1 0x60 ADD PUSH1 0x40 MSTORE DUP1 PUSH1 0x3 SWAP1 JUMPDEST PUSH2 0x22D0 PUSH2 0x23C4 JUMP JUMPDEST DUP2 MSTORE PUSH1 0x20 ADD SWAP1 PUSH1 0x1 SWAP1 SUB SWAP1 DUP2 PUSH2 0x22C8 JUMPI SWAP1 POP POP SWAP1 JUMP JUMPDEST PUSH1 0x40 MLOAD DUP1 PUSH1 0xA0 ADD PUSH1 0x40 MSTORE DUP1 PUSH1 0x0 DUP2 MSTORE PUSH1 0x20 ADD PUSH2 0x2300 PUSH2 0x238B JUMP JUMPDEST DUP2 MSTORE PUSH1 0x20 ADD PUSH2 0x230D PUSH2 0x238B JUMP JUMPDEST DUP2 MSTORE PUSH1 0x20 ADD PUSH1 0x0 JUMPDEST DUP2 MSTORE PUSH1 0x20 ADD PUSH1 0x0 DUP2 MSTORE POP SWAP1 JUMP JUMPDEST DUP3 PUSH1 0x3 DUP2 ADD SWAP3 DUP3 ISZERO PUSH2 0x2350 JUMPI SWAP2 PUSH1 0x20 MUL DUP3 ADD JUMPDEST DUP3 DUP2 GT ISZERO PUSH2 0x2350 JUMPI DUP3 MLOAD DUP3 SSTORE SWAP2 PUSH1 0x20 ADD SWAP2 SWAP1 PUSH1 0x1 ADD SWAP1 PUSH2 0x2335 JUMP JUMPDEST POP PUSH2 0x235C SWAP3 SWAP2 POP PUSH2 0x242C JUMP JUMPDEST POP SWAP1 JUMP JUMPDEST DUP3 PUSH1 0x3 DUP2 ADD SWAP3 DUP3 ISZERO PUSH2 0x2350 JUMPI SWAP2 DUP3 ADD JUMPDEST DUP3 DUP2 GT ISZERO PUSH2 0x2350 JUMPI DUP3 SLOAD DUP3 SSTORE SWAP2 PUSH1 0x1 ADD SWAP2 SWAP1 PUSH1 0x1 ADD SWAP1 PUSH2 0x2370 JUMP JUMPDEST PUSH1 0x40 DUP1 MLOAD PUSH1 0x80 DUP2 ADD DUP3 MSTORE PUSH1 0x0 DUP1 DUP3 MSTORE PUSH1 0x20 DUP3 ADD MSTORE SWAP1 DUP2 ADD PUSH2 0x2315 JUMPDEST PUSH1 0x40 MLOAD DUP1 PUSH1 0x60 ADD PUSH1 0x40 MSTORE DUP1 PUSH1 0x3 SWAP1 PUSH1 0x20 DUP3 MUL DUP1 CALLDATASIZE DUP4 CALLDATACOPY POP SWAP2 SWAP3 SWAP2 POP POP JUMP JUMPDEST PUSH1 0x40 DUP1 MLOAD PUSH2 0x1A0 DUP2 ADD DUP3 MSTORE PUSH1 0x0 DUP1 DUP3 MSTORE PUSH1 0x20 DUP3 ADD DUP2 SWAP1 MSTORE SWAP1 SWAP2 DUP3 ADD SWAP1 DUP2 MSTORE PUSH1 0x20 ADD PUSH1 0x0 DUP2 MSTORE PUSH1 0x20 ADD PUSH1 0x0 DUP2 MSTORE PUSH1 0x20 ADD PUSH1 0x0 DUP2 MSTORE PUSH1 0x20 ADD PUSH1 0x0 DUP2 MSTORE PUSH1 0x20 ADD PUSH1 0x0 DUP2 MSTORE PUSH1 0x20 ADD PUSH1 0x0 DUP2 MSTORE PUSH1 0x20 ADD PUSH1 0x0 DUP2 MSTORE PUSH1 0x20 ADD PUSH1 0x0 DUP2 MSTORE PUSH1 0x20 ADD PUSH1 0x0 DUP2 MSTORE PUSH1 0x20 ADD PUSH1 0x0 DUP2 MSTORE POP SWAP1 JUMP JUMPDEST JUMPDEST DUP1 DUP3 GT ISZERO PUSH2 0x235C JUMPI PUSH1 0x0 DUP2 SSTORE PUSH1 0x1 ADD PUSH2 0x242D JUMP JUMPDEST PUSH1 0x0 PUSH1 0x20 DUP3 DUP5 SUB SLT ISZERO PUSH2 0x2453 JUMPI PUSH1 0x0 DUP1 REVERT JUMPDEST POP CALLDATALOAD SWAP2 SWAP1 POP JUMP JUMPDEST PUSH4 0x4E487B71 PUSH1 0xE0 SHL PUSH1 0x0 MSTORE PUSH1 0x21 PUSH1 0x4 MSTORE PUSH1 0x24 PUSH1 0x0 REVERT JUMPDEST PUSH1 0x3 DUP2 LT PUSH2 0x2480 JUMPI PUSH2 0x2480 PUSH2 0x245A JUMP JUMPDEST SWAP1 MSTORE JUMP JUMPDEST PUSH1 0x4 DUP2 LT PUSH2 0x2494 JUMPI PUSH2 0x2494 PUSH2 0x245A JUMP JUMPDEST POP JUMP JUMPDEST PUSH2 0x2480 DUP2 PUSH2 0x2484 JUMP JUMPDEST DUP14 DUP2 MSTORE PUSH1 0x1 PUSH1 0x1 PUSH1 0xA0 SHL SUB DUP14 AND PUSH1 0x20 DUP3 ADD MSTORE PUSH2 0x1A0 DUP2 ADD PUSH2 0x24C4 PUSH1 0x40 DUP4 ADD DUP15 PUSH2 0x2470 JUMP JUMPDEST PUSH2 0x24CD DUP13 PUSH2 0x2484 JUMP JUMPDEST PUSH1 0x60 DUP3 ADD SWAP12 SWAP1 SWAP12 MSTORE PUSH1 0x80 DUP2 ADD SWAP10 SWAP1 SWAP10 MSTORE PUSH1 0xA0 DUP10 ADD SWAP8 SWAP1 SWAP8 MSTORE PUSH1 0xC0 DUP9 ADD SWAP6 SWAP1 SWAP6 MSTORE PUSH1 0xE0 DUP8 ADD SWAP4 SWAP1 SWAP4 MSTORE PUSH2 0x100 DUP7 ADD SWAP2 SWAP1 SWAP2 MSTORE PUSH2 0x120 DUP6 ADD MSTORE PUSH2 0x140 DUP5 ADD MSTORE PUSH2 0x160 DUP4 ADD MSTORE PUSH2 0x180 SWAP1 SWAP2 ADD MSTORE SWAP4 SWAP3 POP POP POP JUMP JUMPDEST DUP1 MLOAD DUP3 MSTORE PUSH1 0x0 PUSH1 0x20 DUP3 ADD MLOAD PUSH2 0x253E PUSH1 0x20 DUP6 ADD DUP3 PUSH1 0x1 PUSH1 0x1 PUSH1 0xA0 SHL SUB AND SWAP1 MSTORE JUMP JUMPDEST POP PUSH1 0x40 DUP3 ADD MLOAD PUSH2 0x2551 PUSH1 0x40 DUP6 ADD DUP3 PUSH2 0x2470 JUMP JUMPDEST POP PUSH1 0x60 DUP3 ADD MLOAD PUSH2 0x2564 PUSH1 0x60 DUP6 ADD DUP3 PUSH2 0x2497 JUMP JUMPDEST POP POP PUSH1 0x80 DUP2 DUP2 ADD MLOAD SWAP1 DUP4 ADD MSTORE PUSH1 0xA0 DUP1 DUP3 ADD MLOAD SWAP1 DUP4 ADD MSTORE PUSH1 0xC0 DUP1 DUP3 ADD MLOAD SWAP1 DUP4 ADD MSTORE PUSH1 0xE0 DUP1 DUP3 ADD MLOAD SWAP1 DUP4 ADD MSTORE PUSH2 0x100 DUP1 DUP3 ADD MLOAD SWAP1 DUP4 ADD MSTORE PUSH2 0x120 DUP1 DUP3 ADD MLOAD SWAP1 DUP4 ADD MSTORE PUSH2 0x140 DUP1 DUP3 ADD MLOAD SWAP1 DUP4 ADD MSTORE PUSH2 0x160 DUP1 DUP3 ADD MLOAD SWAP1 DUP4 ADD MSTORE PUSH2 0x180 SWAP1 DUP2 ADD MLOAD SWAP1 DUP3 ADD MSTORE PUSH2 0x1A0 ADD SWAP1 JUMP JUMPDEST PUSH2 0x9C0 DUP2 ADD DUP2 DUP4 PUSH1 0x0 JUMPDEST PUSH1 0x6 DUP2 LT ISZERO PUSH2 0x25FB JUMPI PUSH2 0x25EA DUP4 DUP4 MLOAD PUSH2 0x251E JUMP JUMPDEST SWAP3 POP PUSH1 0x20 SWAP2 SWAP1 SWAP2 ADD SWAP1 PUSH1 0x1 ADD PUSH2 0x25D6 JUMP JUMPDEST POP POP POP SWAP3 SWAP2 POP POP JUMP JUMPDEST PUSH1 0x0 PUSH1 0x20 DUP3 DUP5 SUB SLT ISZERO PUSH2 0x2616 JUMPI PUSH1 0x0 DUP1 REVERT JUMPDEST DUP2 CALLDATALOAD PUSH1 0x1 PUSH1 0x1 PUSH1 0xA0 SHL SUB DUP2 AND DUP2 EQ PUSH2 0x262D JUMPI PUSH1 0x0 DUP1 REVERT JUMPDEST SWAP4 SWAP3 POP POP POP JUMP JUMPDEST PUSH2 0x4E0 DUP2 ADD DUP2 DUP4 PUSH1 0x0 JUMPDEST PUSH1 0x3 DUP2 LT ISZERO PUSH2 0x25FB JUMPI PUSH2 0x2652 DUP4 DUP4 MLOAD PUSH2 0x251E JUMP JUMPDEST SWAP3 POP PUSH1 0x20 SWAP2 SWAP1 SWAP2 ADD SWAP1 PUSH1 0x1 ADD PUSH2 0x263E JUMP JUMPDEST PUSH1 0x1 PUSH1 0x1 PUSH1 0xA0 SHL SUB DUP5 AND DUP2 MSTORE PUSH1 0x60 DUP2 ADD PUSH2 0x267C DUP5 PUSH2 0x2484 JUMP JUMPDEST PUSH1 0x20 DUP3 ADD SWAP4 SWAP1 SWAP4 MSTORE PUSH1 0x40 ADD MSTORE SWAP2 SWAP1 POP JUMP JUMPDEST PUSH1 0x0 DUP1 PUSH1 0x0 PUSH1 0x60 DUP5 DUP7 SUB SLT ISZERO PUSH2 0x26A2 JUMPI PUSH1 0x0 DUP1 REVERT JUMPDEST POP POP DUP2 CALLDATALOAD SWAP4 PUSH1 0x20 DUP4 ADD CALLDATALOAD SWAP4 POP PUSH1 0x40 SWAP1 SWAP3 ADD CALLDATALOAD SWAP2 SWAP1 POP JUMP JUMPDEST DUP1 MLOAD PUSH1 0x1 PUSH1 0x1 PUSH1 0xA0 SHL SUB AND DUP3 MSTORE PUSH1 0x20 DUP1 DUP3 ADD MLOAD PUSH2 0x26D5 DUP2 PUSH2 0x2484 JUMP JUMPDEST DUP4 DUP3 ADD MSTORE PUSH1 0x40 DUP3 DUP2 ADD MLOAD SWAP1 DUP5 ADD PUSH1 0x0 JUMPDEST PUSH1 0x3 DUP2 LT ISZERO PUSH2 0x2702 JUMPI DUP3 MLOAD DUP3 MSTORE SWAP2 DUP4 ADD SWAP2 SWAP1 DUP4 ADD SWAP1 PUSH1 0x1 ADD PUSH2 0x26E5 JUMP JUMPDEST POP POP POP POP PUSH1 0x60 ADD MLOAD PUSH1 0xA0 SWAP2 SWAP1 SWAP2 ADD MSTORE JUMP JUMPDEST DUP6 DUP2 MSTORE PUSH2 0x1E0 DUP2 ADD PUSH2 0x2728 PUSH1 0x20 DUP4 ADD DUP8 PUSH2 0x26B9 JUMP JUMPDEST PUSH2 0x2735 PUSH1 0xE0 DUP4 ADD DUP7 PUSH2 0x26B9 JUMP JUMPDEST PUSH2 0x273E DUP5 PUSH2 0x2484 JUMP JUMPDEST PUSH2 0x1A0 DUP3 ADD SWAP4 SWAP1 SWAP4 MSTORE PUSH2 0x1C0 ADD MSTORE SWAP4 SWAP3 POP POP POP JUMP JUMPDEST DUP2 MLOAD DUP2 MSTORE PUSH1 0x20 DUP1 DUP4 ADD MLOAD PUSH2 0x1E0 DUP4 ADD SWAP2 PUSH2 0x276F SWAP1 DUP5 ADD DUP3 PUSH2 0x26B9 JUMP JUMPDEST POP PUSH1 0x40 DUP4 ADD MLOAD PUSH2 0x2782 PUSH1 0xE0 DUP5 ADD DUP3 PUSH2 0x26B9 JUMP JUMPDEST POP PUSH1 0x60 DUP4 ADD MLOAD PUSH2 0x2791 DUP2 PUSH2 0x2484 JUMP JUMPDEST PUSH2 0x1A0 DUP4 ADD MSTORE PUSH1 0x80 SWAP3 SWAP1 SWAP3 ADD MLOAD PUSH2 0x1C0 SWAP1 SWAP2 ADD MSTORE SWAP1 JUMP JUMPDEST PUSH4 0x4E487B71 PUSH1 0xE0 SHL PUSH1 0x0 MSTORE PUSH1 0x32 PUSH1 0x4 MSTORE PUSH1 0x24 PUSH1 0x0 REVERT JUMPDEST PUSH4 0x4E487B71 PUSH1 0xE0 SHL PUSH1 0x0 MSTORE PUSH1 0x11 PUSH1 0x4 MSTORE PUSH1 0x24 PUSH1 0x0 REVERT JUMPDEST DUP2 DUP2 SUB DUP2 DUP2 GT ISZERO PUSH2 0x27E7 JUMPI PUSH2 0x27E7 PUSH2 0x27BE JUMP JUMPDEST SWAP3 SWAP2 POP POP JUMP JUMPDEST PUSH1 0x0 PUSH1 0x1 DUP3 ADD PUSH2 0x27FF JUMPI PUSH2 0x27FF PUSH2 0x27BE JUMP JUMPDEST POP PUSH1 0x1 ADD SWAP1 JUMP JUMPDEST PUSH1 0x0 DUP2 PUSH2 0x2815 JUMPI PUSH2 0x2815 PUSH2 0x27BE JUMP JUMPDEST POP PUSH1 0x0 NOT ADD SWAP1 JUMP JUMPDEST PUSH1 0x0 DUP3 PUSH2 0x283A JUMPI PUSH4 0x4E487B71 PUSH1 0xE0 SHL PUSH1 0x0 MSTORE PUSH1 0x12 PUSH1 0x4 MSTORE PUSH1 0x24 PUSH1 0x0 REVERT JUMPDEST POP MOD SWAP1 JUMP INVALID LOG2 PUSH5 0x6970667358 0x22 SLT KECCAK256 0xB1 0xA8 DUP8 PUSH12 0xE27AB34488B2D522A25915BD DIV PUSH6 0x98814BA06F12 LOG4 SWAP15 0xB4 PUSH2 0xEF24 0xBF LOG1 PUSH5 0x736F6C6343 STOP ADDMOD GT STOP CALLER "
				},
				"gasEstimates": {
					"creation": {
						"codeDepositCost": "2071400",
						"executionCost": "46412",
						"totalCost": "2117812"
					},
					"external": {
						"addressToPlayer(address)": "4857",
						"createMatch()": "infinite",
						"getMatchUnits(uint256)": "infinite",
						"getPlayerUnits(address)": "infinite",
						"joinMatch(uint256)": "infinite",
						"matchIdToMatch(uint256)": "infinite",
						"renderStep(uint256)": "infinite",
						"setUnitTarget(uint256,uint256,uint256)": "75481",
						"unitIdToUnit(uint256)": "24085"
					},
					"internal": {
						"initPlayer()": "infinite",
						"random(uint256)": "infinite"
					}
				},
				"methodIdentifiers": {
					"addressToPlayer(address)": "79a39ebd",
					"createMatch()": "a0cc641a",
					"getMatchUnits(uint256)": "283f3fac",
					"getPlayerUnits(address)": "6154ee97",
					"joinMatch(uint256)": "feb8c438",
					"matchIdToMatch(uint256)": "ae099448",
					"renderStep(uint256)": "aba99f88",
					"setUnitTarget(uint256,uint256,uint256)": "82df6245",
					"unitIdToUnit(uint256)": "105f2c53"
				}
			},
			"storageLayout": {
				"storage": [
					{
						"astId": 81,
						"contract": "GameMaster.sol:GameMaster",
						"label": "matchCount",
						"offset": 0,
						"slot": "0",
						"type": "t_uint256"
					},
					{
						"astId": 84,
						"contract": "GameMaster.sol:GameMaster",
						"label": "unitGlobalId",
						"offset": 0,
						"slot": "1",
						"type": "t_uint256"
					},
					{
						"astId": 89,
						"contract": "GameMaster.sol:GameMaster",
						"label": "addressToPlayer",
						"offset": 0,
						"slot": "2",
						"type": "t_mapping(t_address,t_struct(Player)75_storage)"
					},
					{
						"astId": 94,
						"contract": "GameMaster.sol:GameMaster",
						"label": "unitIdToUnit",
						"offset": 0,
						"slot": "3",
						"type": "t_mapping(t_uint256,t_struct(Unit)63_storage)"
					},
					{
						"astId": 99,
						"contract": "GameMaster.sol:GameMaster",
						"label": "matchIdToMatch",
						"offset": 0,
						"slot": "4",
						"type": "t_mapping(t_uint256,t_struct(Match)34_storage)"
					}
				],
				"types": {
					"t_address": {
						"encoding": "inplace",
						"label": "address",
						"numberOfBytes": "20"
					},
					"t_array(t_uint256)3_storage": {
						"base": "t_uint256",
						"encoding": "inplace",
						"label": "uint256[3]",
						"numberOfBytes": "96"
					},
					"t_enum(Action)20": {
						"encoding": "inplace",
						"label": "enum GameElements.Action",
						"numberOfBytes": "1"
					},
					"t_enum(GameStatus)6": {
						"encoding": "inplace",
						"label": "enum GameElements.GameStatus",
						"numberOfBytes": "1"
					},
					"t_enum(Rank)15": {
						"encoding": "inplace",
						"label": "enum GameElements.Rank",
						"numberOfBytes": "1"
					},
					"t_enum(UnitTypes)10": {
						"encoding": "inplace",
						"label": "enum GameElements.UnitTypes",
						"numberOfBytes": "1"
					},
					"t_mapping(t_address,t_struct(Player)75_storage)": {
						"encoding": "mapping",
						"key": "t_address",
						"label": "mapping(address => struct GameElements.Player)",
						"numberOfBytes": "32",
						"value": "t_struct(Player)75_storage"
					},
					"t_mapping(t_uint256,t_struct(Match)34_storage)": {
						"encoding": "mapping",
						"key": "t_uint256",
						"label": "mapping(uint256 => struct GameElements.Match)",
						"numberOfBytes": "32",
						"value": "t_struct(Match)34_storage"
					},
					"t_mapping(t_uint256,t_struct(Unit)63_storage)": {
						"encoding": "mapping",
						"key": "t_uint256",
						"label": "mapping(uint256 => struct GameElements.Unit)",
						"numberOfBytes": "32",
						"value": "t_struct(Unit)63_storage"
					},
					"t_struct(Match)34_storage": {
						"encoding": "inplace",
						"label": "struct GameElements.Match",
						"members": [
							{
								"astId": 22,
								"contract": "GameMaster.sol:GameMaster",
								"label": "id",
								"offset": 0,
								"slot": "0",
								"type": "t_uint256"
							},
							{
								"astId": 25,
								"contract": "GameMaster.sol:GameMaster",
								"label": "playerA",
								"offset": 0,
								"slot": "1",
								"type": "t_struct(Player)75_storage"
							},
							{
								"astId": 28,
								"contract": "GameMaster.sol:GameMaster",
								"label": "playerB",
								"offset": 0,
								"slot": "6",
								"type": "t_struct(Player)75_storage"
							},
							{
								"astId": 31,
								"contract": "GameMaster.sol:GameMaster",
								"label": "status",
								"offset": 0,
								"slot": "11",
								"type": "t_enum(GameStatus)6"
							},
							{
								"astId": 33,
								"contract": "GameMaster.sol:GameMaster",
								"label": "winner",
								"offset": 0,
								"slot": "12",
								"type": "t_uint256"
							}
						],
						"numberOfBytes": "416"
					},
					"t_struct(Player)75_storage": {
						"encoding": "inplace",
						"label": "struct GameElements.Player",
						"members": [
							{
								"astId": 65,
								"contract": "GameMaster.sol:GameMaster",
								"label": "owner",
								"offset": 0,
								"slot": "0",
								"type": "t_address"
							},
							{
								"astId": 68,
								"contract": "GameMaster.sol:GameMaster",
								"label": "rank",
								"offset": 20,
								"slot": "0",
								"type": "t_enum(Rank)15"
							},
							{
								"astId": 72,
								"contract": "GameMaster.sol:GameMaster",
								"label": "unitIds",
								"offset": 0,
								"slot": "1",
								"type": "t_array(t_uint256)3_storage"
							},
							{
								"astId": 74,
								"contract": "GameMaster.sol:GameMaster",
								"label": "matchId",
								"offset": 0,
								"slot": "4",
								"type": "t_uint256"
							}
						],
						"numberOfBytes": "160"
					},
					"t_struct(Unit)63_storage": {
						"encoding": "inplace",
						"label": "struct GameElements.Unit",
						"members": [
							{
								"astId": 36,
								"contract": "GameMaster.sol:GameMaster",
								"label": "id",
								"offset": 0,
								"slot": "0",
								"type": "t_uint256"
							},
							{
								"astId": 38,
								"contract": "GameMaster.sol:GameMaster",
								"label": "owner",
								"offset": 0,
								"slot": "1",
								"type": "t_address"
							},
							{
								"astId": 41,
								"contract": "GameMaster.sol:GameMaster",
								"label": "unitType",
								"offset": 20,
								"slot": "1",
								"type": "t_enum(UnitTypes)10"
							},
							{
								"astId": 44,
								"contract": "GameMaster.sol:GameMaster",
								"label": "action",
								"offset": 21,
								"slot": "1",
								"type": "t_enum(Action)20"
							},
							{
								"astId": 46,
								"contract": "GameMaster.sol:GameMaster",
								"label": "hp",
								"offset": 0,
								"slot": "2",
								"type": "t_uint256"
							},
							{
								"astId": 48,
								"contract": "GameMaster.sol:GameMaster",
								"label": "attack",
								"offset": 0,
								"slot": "3",
								"type": "t_uint256"
							},
							{
								"astId": 50,
								"contract": "GameMaster.sol:GameMaster",
								"label": "armor",
								"offset": 0,
								"slot": "4",
								"type": "t_uint256"
							},
							{
								"astId": 52,
								"contract": "GameMaster.sol:GameMaster",
								"label": "currentX",
								"offset": 0,
								"slot": "5",
								"type": "t_uint256"
							},
							{
								"astId": 54,
								"contract": "GameMaster.sol:GameMaster",
								"label": "currentY",
								"offset": 0,
								"slot": "6",
								"type": "t_uint256"
							},
							{
								"astId": 56,
								"contract": "GameMaster.sol:GameMaster",
								"label": "targetX",
								"offset": 0,
								"slot": "7",
								"type": "t_uint256"
							},
							{
								"astId": 58,
								"contract": "GameMaster.sol:GameMaster",
								"label": "targetY",
								"offset": 0,
								"slot": "8",
								"type": "t_uint256"
							},
							{
								"astId": 60,
								"contract": "GameMaster.sol:GameMaster",
								"label": "matchId",
								"offset": 0,
								"slot": "9",
								"type": "t_uint256"
							},
							{
								"astId": 62,
								"contract": "GameMaster.sol:GameMaster",
								"label": "enemyId",
								"offset": 0,
								"slot": "10",
								"type": "t_uint256"
							}
						],
						"numberOfBytes": "352"
					},
					"t_uint256": {
						"encoding": "inplace",
						"label": "uint256",
						"numberOfBytes": "32"
					}
				}
			},
			"userdoc": {
				"kind": "user",
				"methods": {
					"setUnitTarget(uint256,uint256,uint256)": {
						"notice": "GameOPs Functions"
					}
				},
				"version": 1
			}
		}
	}
}