{
	"StepTimer.sol": {
		"StepTimer": {
			"abi": [
				{
					"inputs": [],
					"name": "start",
					"outputs": [],
					"stateMutability": "nonpayable",
					"type": "function"
				},
				{
					"inputs": [],
					"name": "timeToRender",
					"outputs": [
						{
							"internalType": "bool",
							"name": "",
							"type": "bool"
						}
					],
					"stateMutability": "view",
					"type": "function"
				}
			],
			"devdoc": {
				"kind": "dev",
				"methods": {},
				"version": 1
			},
			"evm": {
				"assembly": "    /* \"StepTimer.sol\":63:493  contract StepTimer {... */\n  mstore(0x40, 0x80)\n    /* \"StepTimer.sol\":233:242  5 seconds */\n  0x05\n    /* \"StepTimer.sol\":205:242  uint256 internal stepTime = 5 seconds */\n  0x01\n  sstore\n    /* \"StepTimer.sol\":63:493  contract StepTimer {... */\n  callvalue\n  dup1\n  iszero\n  tag_1\n  jumpi\n  0x00\n  dup1\n  revert\ntag_1:\n  pop\n  dataSize(sub_0)\n  dup1\n  dataOffset(sub_0)\n  0x00\n  codecopy\n  0x00\n  return\nstop\n\nsub_0: assembly {\n        /* \"StepTimer.sol\":63:493  contract StepTimer {... */\n      mstore(0x40, 0x80)\n      callvalue\n      dup1\n      iszero\n      tag_1\n      jumpi\n      0x00\n      dup1\n      revert\n    tag_1:\n      pop\n      jumpi(tag_2, lt(calldatasize, 0x04))\n      shr(0xe0, calldataload(0x00))\n      dup1\n      0x7ee6bd92\n      eq\n      tag_3\n      jumpi\n      dup1\n      0xbe9a6555\n      eq\n      tag_4\n      jumpi\n    tag_2:\n      0x00\n      dup1\n      revert\n        /* \"StepTimer.sol\":323:491  function timeToRender() public view returns (bool) {... */\n    tag_3:\n      tag_5\n      tag_6\n      jump\t// in\n    tag_5:\n      mload(0x40)\n      tag_7\n      swap2\n      swap1\n      tag_8\n      jump\t// in\n    tag_7:\n      mload(0x40)\n      dup1\n      swap2\n      sub\n      swap1\n      return\n        /* \"StepTimer.sol\":249:317  function start() public {... */\n    tag_4:\n      tag_9\n      tag_10\n      jump\t// in\n    tag_9:\n      stop\n        /* \"StepTimer.sol\":323:491  function timeToRender() public view returns (bool) {... */\n    tag_6:\n        /* \"StepTimer.sol\":368:372  bool */\n      0x00\n        /* \"StepTimer.sol\":384:392  bool res */\n      dup1\n        /* \"StepTimer.sol\":419:434  block.timestamp */\n      timestamp\n        /* \"StepTimer.sol\":407:415  stepTime */\n      sload(0x01)\n        /* \"StepTimer.sol\":395:404  startTime */\n      sload(0x00)\n        /* \"StepTimer.sol\":395:415  startTime + stepTime */\n      tag_12\n      swap2\n      swap1\n      tag_13\n      jump\t// in\n    tag_12:\n        /* \"StepTimer.sol\":395:434  startTime + stepTime <= block.timestamp */\n      gt\n      iszero\n        /* \"StepTimer.sol\":384:434  bool res = startTime + stepTime <= block.timestamp */\n      swap1\n      pop\n        /* \"StepTimer.sol\":459:463  true */\n      0x01\n        /* \"StepTimer.sol\":452:463  res == true */\n      iszero\n      iszero\n        /* \"StepTimer.sol\":452:455  res */\n      dup2\n        /* \"StepTimer.sol\":452:463  res == true */\n      iszero\n      iszero\n      eq\n        /* \"StepTimer.sol\":444:464  require(res == true) */\n      tag_14\n      jumpi\n      0x00\n      dup1\n      revert\n    tag_14:\n        /* \"StepTimer.sol\":481:484  res */\n      dup1\n        /* \"StepTimer.sol\":474:484  return res */\n      swap2\n      pop\n      pop\n        /* \"StepTimer.sol\":323:491  function timeToRender() public view returns (bool) {... */\n      swap1\n      jump\t// out\n        /* \"StepTimer.sol\":249:317  function start() public {... */\n    tag_10:\n        /* \"StepTimer.sol\":295:310  block.timestamp */\n      timestamp\n        /* \"StepTimer.sol\":283:292  startTime */\n      0x00\n        /* \"StepTimer.sol\":283:310  startTime = block.timestamp */\n      dup2\n      swap1\n      sstore\n      pop\n        /* \"StepTimer.sol\":249:317  function start() public {... */\n      jump\t// out\n        /* \"#utility.yul\":7:97   */\n    tag_16:\n        /* \"#utility.yul\":41:48   */\n      0x00\n        /* \"#utility.yul\":84:89   */\n      dup2\n        /* \"#utility.yul\":77:90   */\n      iszero\n        /* \"#utility.yul\":70:91   */\n      iszero\n        /* \"#utility.yul\":59:91   */\n      swap1\n      pop\n        /* \"#utility.yul\":7:97   */\n      swap2\n      swap1\n      pop\n      jump\t// out\n        /* \"#utility.yul\":103:212   */\n    tag_17:\n        /* \"#utility.yul\":184:205   */\n      tag_23\n        /* \"#utility.yul\":199:204   */\n      dup2\n        /* \"#utility.yul\":184:205   */\n      tag_16\n      jump\t// in\n    tag_23:\n        /* \"#utility.yul\":179:182   */\n      dup3\n        /* \"#utility.yul\":172:206   */\n      mstore\n        /* \"#utility.yul\":103:212   */\n      pop\n      pop\n      jump\t// out\n        /* \"#utility.yul\":218:428   */\n    tag_8:\n        /* \"#utility.yul\":305:309   */\n      0x00\n        /* \"#utility.yul\":343:345   */\n      0x20\n        /* \"#utility.yul\":332:341   */\n      dup3\n        /* \"#utility.yul\":328:346   */\n      add\n        /* \"#utility.yul\":320:346   */\n      swap1\n      pop\n        /* \"#utility.yul\":356:421   */\n      tag_25\n        /* \"#utility.yul\":418:419   */\n      0x00\n        /* \"#utility.yul\":407:416   */\n      dup4\n        /* \"#utility.yul\":403:420   */\n      add\n        /* \"#utility.yul\":394:400   */\n      dup5\n        /* \"#utility.yul\":356:421   */\n      tag_17\n      jump\t// in\n    tag_25:\n        /* \"#utility.yul\":218:428   */\n      swap3\n      swap2\n      pop\n      pop\n      jump\t// out\n        /* \"#utility.yul\":434:511   */\n    tag_18:\n        /* \"#utility.yul\":471:478   */\n      0x00\n        /* \"#utility.yul\":500:505   */\n      dup2\n        /* \"#utility.yul\":489:505   */\n      swap1\n      pop\n        /* \"#utility.yul\":434:511   */\n      swap2\n      swap1\n      pop\n      jump\t// out\n        /* \"#utility.yul\":517:697   */\n    tag_19:\n        /* \"#utility.yul\":565:642   */\n      0x4e487b7100000000000000000000000000000000000000000000000000000000\n        /* \"#utility.yul\":562:563   */\n      0x00\n        /* \"#utility.yul\":555:643   */\n      mstore\n        /* \"#utility.yul\":662:666   */\n      0x11\n        /* \"#utility.yul\":659:660   */\n      0x04\n        /* \"#utility.yul\":652:667   */\n      mstore\n        /* \"#utility.yul\":686:690   */\n      0x24\n        /* \"#utility.yul\":683:684   */\n      0x00\n        /* \"#utility.yul\":676:691   */\n      revert\n        /* \"#utility.yul\":703:894   */\n    tag_13:\n        /* \"#utility.yul\":743:746   */\n      0x00\n        /* \"#utility.yul\":762:782   */\n      tag_29\n        /* \"#utility.yul\":780:781   */\n      dup3\n        /* \"#utility.yul\":762:782   */\n      tag_18\n      jump\t// in\n    tag_29:\n        /* \"#utility.yul\":757:782   */\n      swap2\n      pop\n        /* \"#utility.yul\":796:816   */\n      tag_30\n        /* \"#utility.yul\":814:815   */\n      dup4\n        /* \"#utility.yul\":796:816   */\n      tag_18\n      jump\t// in\n    tag_30:\n        /* \"#utility.yul\":791:816   */\n      swap3\n      pop\n        /* \"#utility.yul\":839:840   */\n      dup3\n        /* \"#utility.yul\":836:837   */\n      dup3\n        /* \"#utility.yul\":832:841   */\n      add\n        /* \"#utility.yul\":825:841   */\n      swap1\n      pop\n        /* \"#utility.yul\":860:863   */\n      dup1\n        /* \"#utility.yul\":857:858   */\n      dup3\n        /* \"#utility.yul\":854:864   */\n      gt\n        /* \"#utility.yul\":851:887   */\n      iszero\n      tag_31\n      jumpi\n        /* \"#utility.yul\":867:885   */\n      tag_32\n      tag_19\n      jump\t// in\n    tag_32:\n        /* \"#utility.yul\":851:887   */\n    tag_31:\n        /* \"#utility.yul\":703:894   */\n      swap3\n      swap2\n      pop\n      pop\n      jump\t// out\n\n    auxdata: 0xa2646970667358221220dc08f3ca732724d6ae67fcfde839e5e677e30e5c61a795c2086e16d94208950164736f6c63430008110033\n}\n",
				"bytecode": {
					"linkReferences": {},
					"object": "6080604052600560015534801561001557600080fd5b50610175806100256000396000f3fe608060405234801561001057600080fd5b50600436106100365760003560e01c80637ee6bd921461003b578063be9a655514610059575b600080fd5b610043610063565b60405161005091906100b7565b60405180910390f35b610061610093565b005b60008042600154600054610077919061010b565b11159050600115158115151461008c57600080fd5b8091505090565b42600081905550565b60008115159050919050565b6100b18161009c565b82525050565b60006020820190506100cc60008301846100a8565b92915050565b6000819050919050565b7f4e487b7100000000000000000000000000000000000000000000000000000000600052601160045260246000fd5b6000610116826100d2565b9150610121836100d2565b9250828201905080821115610139576101386100dc565b5b9291505056fea2646970667358221220dc08f3ca732724d6ae67fcfde839e5e677e30e5c61a795c2086e16d94208950164736f6c63430008110033",
					"opcodes": "PUSH1 0x80 PUSH1 0x40 MSTORE PUSH1 0x5 PUSH1 0x1 SSTORE CALLVALUE DUP1 ISZERO PUSH2 0x15 JUMPI PUSH1 0x0 DUP1 REVERT JUMPDEST POP PUSH2 0x175 DUP1 PUSH2 0x25 PUSH1 0x0 CODECOPY PUSH1 0x0 RETURN INVALID PUSH1 0x80 PUSH1 0x40 MSTORE CALLVALUE DUP1 ISZERO PUSH2 0x10 JUMPI PUSH1 0x0 DUP1 REVERT JUMPDEST POP PUSH1 0x4 CALLDATASIZE LT PUSH2 0x36 JUMPI PUSH1 0x0 CALLDATALOAD PUSH1 0xE0 SHR DUP1 PUSH4 0x7EE6BD92 EQ PUSH2 0x3B JUMPI DUP1 PUSH4 0xBE9A6555 EQ PUSH2 0x59 JUMPI JUMPDEST PUSH1 0x0 DUP1 REVERT JUMPDEST PUSH2 0x43 PUSH2 0x63 JUMP JUMPDEST PUSH1 0x40 MLOAD PUSH2 0x50 SWAP2 SWAP1 PUSH2 0xB7 JUMP JUMPDEST PUSH1 0x40 MLOAD DUP1 SWAP2 SUB SWAP1 RETURN JUMPDEST PUSH2 0x61 PUSH2 0x93 JUMP JUMPDEST STOP JUMPDEST PUSH1 0x0 DUP1 TIMESTAMP PUSH1 0x1 SLOAD PUSH1 0x0 SLOAD PUSH2 0x77 SWAP2 SWAP1 PUSH2 0x10B JUMP JUMPDEST GT ISZERO SWAP1 POP PUSH1 0x1 ISZERO ISZERO DUP2 ISZERO ISZERO EQ PUSH2 0x8C JUMPI PUSH1 0x0 DUP1 REVERT JUMPDEST DUP1 SWAP2 POP POP SWAP1 JUMP JUMPDEST TIMESTAMP PUSH1 0x0 DUP2 SWAP1 SSTORE POP JUMP JUMPDEST PUSH1 0x0 DUP2 ISZERO ISZERO SWAP1 POP SWAP2 SWAP1 POP JUMP JUMPDEST PUSH2 0xB1 DUP2 PUSH2 0x9C JUMP JUMPDEST DUP3 MSTORE POP POP JUMP JUMPDEST PUSH1 0x0 PUSH1 0x20 DUP3 ADD SWAP1 POP PUSH2 0xCC PUSH1 0x0 DUP4 ADD DUP5 PUSH2 0xA8 JUMP JUMPDEST SWAP3 SWAP2 POP POP JUMP JUMPDEST PUSH1 0x0 DUP2 SWAP1 POP SWAP2 SWAP1 POP JUMP JUMPDEST PUSH32 0x4E487B7100000000000000000000000000000000000000000000000000000000 PUSH1 0x0 MSTORE PUSH1 0x11 PUSH1 0x4 MSTORE PUSH1 0x24 PUSH1 0x0 REVERT JUMPDEST PUSH1 0x0 PUSH2 0x116 DUP3 PUSH2 0xD2 JUMP JUMPDEST SWAP2 POP PUSH2 0x121 DUP4 PUSH2 0xD2 JUMP JUMPDEST SWAP3 POP DUP3 DUP3 ADD SWAP1 POP DUP1 DUP3 GT ISZERO PUSH2 0x139 JUMPI PUSH2 0x138 PUSH2 0xDC JUMP JUMPDEST JUMPDEST SWAP3 SWAP2 POP POP JUMP INVALID LOG2 PUSH5 0x6970667358 0x22 SLT KECCAK256 0xDC ADDMOD RETURN 0xCA PUSH20 0x2724D6AE67FCFDE839E5E677E30E5C61A795C208 PUSH15 0x16D94208950164736F6C6343000811 STOP CALLER "
				},
				"gasEstimates": {
					"creation": {
						"codeDepositCost": "74600",
						"executionCost": "22229",
						"totalCost": "96829"
					},
					"external": {
						"start()": "22257",
						"timeToRender()": "infinite"
					}
				},
				"methodIdentifiers": {
					"start()": "be9a6555",
					"timeToRender()": "7ee6bd92"
				}
			},
			"storageLayout": {
				"storage": [
					{
						"astId": 112,
						"contract": "StepTimer.sol:StepTimer",
						"label": "startTime",
						"offset": 0,
						"slot": "0",
						"type": "t_uint256"
					},
					{
						"astId": 115,
						"contract": "StepTimer.sol:StepTimer",
						"label": "stepTime",
						"offset": 0,
						"slot": "1",
						"type": "t_uint256"
					}
				],
				"types": {
					"t_uint256": {
						"encoding": "inplace",
						"label": "uint256",
						"numberOfBytes": "32"
					}
				}
			},
			"userdoc": {
				"kind": "user",
				"methods": {},
				"version": 1
			}
		}
	}
}